{
  "contractName": "BondingCurve",
  "abi": [
    {
      "constant": true,
      "inputs": [],
      "name": "curveA",
      "outputs": [
        {
          "internalType": "uint256",
          "name": "",
          "type": "uint256"
        }
      ],
      "payable": false,
      "stateMutability": "view",
      "type": "function"
    },
    {
      "constant": true,
      "inputs": [],
      "name": "curveB",
      "outputs": [
        {
          "internalType": "uint256",
          "name": "",
          "type": "uint256"
        }
      ],
      "payable": false,
      "stateMutability": "view",
      "type": "function"
    },
    {
      "constant": false,
      "inputs": [
        {
          "internalType": "uint256",
          "name": "_curveA",
          "type": "uint256"
        },
        {
          "internalType": "uint256",
          "name": "_curveB",
          "type": "uint256"
        }
      ],
      "name": "initialize",
      "outputs": [],
      "payable": false,
      "stateMutability": "nonpayable",
      "type": "function"
    },
    {
      "constant": true,
      "inputs": [
        {
          "internalType": "uint256",
          "name": "liquidAssets",
          "type": "uint256"
        },
        {
          "internalType": "uint256",
          "name": "debtCommitments",
          "type": "uint256"
        },
        {
          "internalType": "uint256",
          "name": "lAmount",
          "type": "uint256"
        }
      ],
      "name": "calculateEnter",
      "outputs": [
        {
          "internalType": "uint256",
          "name": "",
          "type": "uint256"
        }
      ],
      "payable": false,
      "stateMutability": "view",
      "type": "function"
    },
    {
      "constant": true,
      "inputs": [
        {
          "internalType": "uint256",
          "name": "liquidAssets",
          "type": "uint256"
        },
        {
          "internalType": "uint256",
          "name": "lAmount",
          "type": "uint256"
        }
      ],
      "name": "calculateExit",
      "outputs": [
        {
          "internalType": "uint256",
          "name": "",
          "type": "uint256"
        }
      ],
      "payable": false,
      "stateMutability": "view",
      "type": "function"
    },
    {
      "constant": true,
      "inputs": [
        {
          "internalType": "uint256",
          "name": "liquidAssets",
          "type": "uint256"
        },
        {
          "internalType": "uint256",
          "name": "pAmount",
          "type": "uint256"
        }
      ],
      "name": "calculateExitInverse",
      "outputs": [
        {
          "internalType": "uint256",
          "name": "",
          "type": "uint256"
        }
      ],
      "payable": false,
      "stateMutability": "view",
      "type": "function"
    },
    {
      "constant": true,
      "inputs": [
        {
          "internalType": "uint256",
          "name": "s",
          "type": "uint256"
        }
      ],
      "name": "curveFunction",
      "outputs": [
        {
          "internalType": "uint256",
          "name": "",
          "type": "uint256"
        }
      ],
      "payable": false,
      "stateMutability": "view",
      "type": "function"
    },
    {
      "constant": true,
      "inputs": [
        {
          "internalType": "uint256",
          "name": "x",
          "type": "uint256"
        }
      ],
      "name": "inverseCurveFunction",
      "outputs": [
        {
          "internalType": "uint256",
          "name": "",
          "type": "uint256"
        }
      ],
      "payable": false,
      "stateMutability": "view",
      "type": "function"
    }
  ],
  "bytecode": "0x608060405234801561001057600080fd5b5061073c806100206000396000f3fe608060405234801561001057600080fd5b50600436106100885760003560e01c80637b6439421161005b5780637b643942146100ef578063a813d3a71461010c578063e4a301161461012f578063fa9c5d1b1461015457610088565b8063452275161461008d57806356809616146100c25780635af33389146100ca5780636f5c1b3b146100d2575b600080fd5b6100b0600480360360408110156100a357600080fd5b508035906020013561017d565b60408051918252519081900360200190f35b6100b06101c2565b6100b06101c8565b6100b0600480360360208110156100e857600080fd5b50356101ce565b6100b06004803603602081101561010557600080fd5b50356101df565b6100b06004803603604081101561012257600080fd5b50803590602001356101f0565b6101526004803603604081101561014557600080fd5b5080359060200135610243565b005b6100b06004803603606081101561016a57600080fd5b50803590602081013590604001356102f1565b600080610189846101ce565b905060006101a56101a0868663ffffffff61033a16565b6101ce565b90506101b7828263ffffffff61033a16565b925050505b92915050565b60335481565b60345481565b60006101bc60335460345484610383565b60006101bc6033546034548461041a565b6000806101fc846101ce565b90506000610210828563ffffffff61033a16565b9050600061021d826101df565b90508086101561022957fe5b610239868263ffffffff61033a16565b9695505050505050565b600054610100900460ff168061025c575061025c61046e565b8061026a575060005460ff16155b6102a55760405162461bcd60e51b815260040180806020018281038252602e8152602001806106da602e913960400191505060405180910390fd5b600054610100900460ff161580156102d0576000805460ff1961ff0019909116610100171660011790555b6102da8383610474565b80156102ec576000805461ff00191690555b505050565b600080610304858563ffffffff61047f16565b9050610331610312826101ce565b6103256101a0848763ffffffff61047f16565b9063ffffffff61033a16565b95945050505050565b600061037c83836040518060400160405280601e81526020017f536166654d6174683a207375627472616374696f6e206f766572666c6f7700008152506104d9565b9392505050565b6000806103e36103b4846103a88781670de0b6b3a7640000600463ffffffff61057016565b9063ffffffff61057016565b6103d7876103a86ec097ce7bc90715b34b9f10000000008263ffffffff61057016565b9063ffffffff61047f16565b9050610331600261040e610405670de0b6b3a76400008963ffffffff61057016565b610325856105c9565b9063ffffffff6105d416565b6000610466610437670de0b6b3a76400008563ffffffff61057016565b61040e610456856103a8670de0b6b3a76400008a63ffffffff61057016565b6103d7868063ffffffff61057016565b949350505050565b303b1590565b603391909155603455565b60008282018381101561037c576040805162461bcd60e51b815260206004820152601b60248201527f536166654d6174683a206164646974696f6e206f766572666c6f770000000000604482015290519081900360640190fd5b600081848411156105685760405162461bcd60e51b81526004018080602001828103825283818151815260200191508051906020019080838360005b8381101561052d578181015183820152602001610515565b50505050905090810190601f16801561055a5780820380516001836020036101000a031916815260200191505b509250505060405180910390fd5b505050900390565b60008261057f575060006101bc565b8282028284828161058c57fe5b041461037c5760405162461bcd60e51b81526004018080602001828103825260218152602001806106b96021913960400191505060405180910390fd5b60006101bc82610616565b600061037c83836040518060400160405280601a81526020017f536166654d6174683a206469766973696f6e206279207a65726f000000000000815250610653565b6000600019821061062357fe5b60026001830104825b8082101561037c57508060028180868161064257fe5b04018161064b57fe5b04915061062c565b600081836106a25760405162461bcd60e51b815260206004820181815283516024840152835190928392604490910191908501908083836000831561052d578181015183820152602001610515565b5060008385816106ae57fe5b049594505050505056fe536166654d6174683a206d756c7469706c69636174696f6e206f766572666c6f77436f6e747261637420696e7374616e63652068617320616c7265616479206265656e20696e697469616c697a6564a265627a7a723158207759158a97d35d4c11c08dd305b7e10c40c49ebf1d36b3023afc957f7df8412064736f6c634300050c0032",
  "source": "pragma solidity ^0.5.12;\n\nimport \"@openzeppelin/contracts-ethereum-package/contracts/math/SafeMath.sol\";\nimport \"@openzeppelin/upgrades/contracts/Initializable.sol\";\nimport \"../../utils/ISQRT.sol\";\n\ncontract BondingCurve is Initializable  {\n    using ISQRT for uint256;\n    using SafeMath for uint256;\n\n    // Original curve formula uses float numbers to represent amounts. \n    // In Solidity we convert them to integers, using ether to wei conversion. \n    // While we use sqrt() operation we should convert formula accordingly.\n    uint256 private constant FIX = 10**18; \n    uint256 private constant FIX2 = 10**36;\n\n    uint256 public curveA;\n    uint256 public curveB;\n\n    /**\n     * @notice Initialize curve parameters\n     * @param _curveA Constabt A of a curve\n     * @param _curveB Constant B of a curve\n     */\n    function initialize(uint256 _curveA, uint256 _curveB) public initializer {\n        _setCurveParams(_curveA, _curveB);\n    }\n\n    /**\n     * @notice Calculates amount of pTokens which should be minted/unlocked when liquidity added to pool\n     * dx = f(A + Deposit) - f(A)\n     * A - A is the volume of  total assets (liquid assets in Pool + debt commitments, taken with their weight coefficients)\n     * Deposit is the size of the deposit, \n     * dx is the number of pTokens tokens received.\n     * @param liquidAssets Liquid assets in Pool\n     * @param debtCommitments Debt commitments\n     * @param lAmount Amount of liquidTokens to deposit\n     * @return Amount of pTokens to mint/unlock\n     */\n    function calculateEnter(\n        uint256 liquidAssets,\n        uint256 debtCommitments,\n        uint256 lAmount\n    ) public view returns (uint256) {\n        uint256 fullLiquidity = liquidAssets.add(debtCommitments);\n        return curveFunction(fullLiquidity.add(lAmount)).sub(curveFunction(fullLiquidity));\n    }\n\n    /**\n     * @notice Calculates amount of pTokens which should be burned/locked when liquidity removed from pool\n     * dx = f(L) - f(L - Whidraw)\n     * L - L is the volume of liquid assets in Pool\n     * @param liquidAssets Liquid assets in Pool\n     * @param lAmount Amount of liquid tokens to withdraw (full: sum of withdrawU and withdrawP)\n     * @return Amount of pTokens to burn/lock\n     */\n    function calculateExit(\n        uint256 liquidAssets,\n        uint256 lAmount\n    ) public view returns (uint256) {\n        uint256 fL = curveFunction(liquidAssets);\n        uint256 fLW = curveFunction(liquidAssets.sub(lAmount));\n        return fL.sub(fLW);\n    }\n\n    /**\n     * @notice Calculates amount of liquid tokens one can withdraw from the pool when pTokens are burned/locked\n     * Withdraw = L-g(x-dx)\n     * x = f(L)\n     * L - L is the volume of liquid assets in Pool\n     * dx - amount of pTokens taken from user\n     * Withdraw - amount of liquid token which should be sent to user\n     * @param liquidAssets Liquid assets in Pool\n     * @param pAmount Amount of pTokens to withdraw\n     * @return Amount of liquid tokens to withdraw\n     */\n    function calculateExitInverse(\n        uint256 liquidAssets,\n        uint256 pAmount\n    ) public view returns (uint256) {\n        uint256 x = curveFunction(liquidAssets);\n        uint256 pdiff = x.sub(pAmount);\n        uint256 ldiff = inverseCurveFunction(pdiff);\n        assert(liquidAssets >= ldiff);\n        return liquidAssets.sub(ldiff);\n    }\n\n    /**\n     * @notice Calculates value of Bonding Curve at a point s\n     * @param s Point to calculate curve\n     * @return Value of curve at s\n     */\n    function curveFunction(uint256 s) public view returns(uint256){\n        return curve(curveA, curveB, s);\n    }\n\n    /**\n     * @notice Calculates inversed value of Bonding Curve at a point x\n     * @param x Point to calculate curve\n     * @return Value of curve at s\n     */\n    function inverseCurveFunction(uint256 x) public view returns(uint256){\n        return inverseCurve(curveA, curveB, x);\n    }\n\n    function _setCurveParams(uint256 _curveA, uint256 _curveB) internal {\n        curveA = _curveA;\n        curveB = _curveB;\n    }\n\n   /**\n     * @notice Bonding Curve function\n     * Defined as: f(S) = [-a+sqrt(a^2+4bS)]/2, a>0, b>0\n     * Fixed for Solidity as: curve(S) = (-(10^18) * a + sqrt((10^36) * (a^2) + 4 * (10^18) * b * S)) / 2\n     * @param a Constant which defines curve\n     * @param b Constant which defines curve\n     * @param s Point used to calculate curve\n     * @return Value of curve at point s\n     */\n    function curve(uint256 a, uint256 b, uint256 s) private pure returns(uint256){\n        //uint256 d = FIX2 * (a*a) + 4 * FIX * b * s;\n        //return (d.sqrt() - FIX*a)/2;\n        uint256 d = FIX2.mul(a).mul(a).add(FIX.mul(4).mul(b).mul(s));\n        return d.sqrt().sub(FIX.mul(a)).div(2);\n    }\n\n    /**\n     * @notice Bonding Curve function\n     * S = g(x)=(x^2+ax)/b\n     */\n    function inverseCurve(uint256 a, uint256 b, uint256 x) private pure returns(uint256){\n        //return (x*x + FIX*a*x)/FIX*b;\n        return x.mul(x).add(FIX.mul(a).mul(x)).div(FIX.mul(b));\n    }\n\n}",
  "sourcePath": "/home/pickle/Documents/bch/akropolisOS/contracts/modules/curve/BondingCurve.sol",
  "compiler": {
    "name": "solc",
    "version": "0.5.12+commit.7709ece9.Emscripten.clang"
  },
  "schemaVersion": "3.0.22",
  "updatedAt": "2020-02-18T07:17:19.341Z",
  "devdoc": {
    "methods": {
      "calculateEnter(uint256,uint256,uint256)": {
        "params": {
          "debtCommitments": "Debt commitments",
          "lAmount": "Amount of liquidTokens to deposit",
          "liquidAssets": "Liquid assets in Pool"
        },
        "return": "Amount of pTokens to mint/unlock"
      },
      "calculateExit(uint256,uint256)": {
        "params": {
          "lAmount": "Amount of liquid tokens to withdraw (full: sum of withdrawU and withdrawP)",
          "liquidAssets": "Liquid assets in Pool"
        },
        "return": "Amount of pTokens to burn/lock"
      },
      "calculateExitInverse(uint256,uint256)": {
        "params": {
          "liquidAssets": "Liquid assets in Pool",
          "pAmount": "Amount of pTokens to withdraw"
        },
        "return": "Amount of liquid tokens to withdraw"
      },
      "curveFunction(uint256)": {
        "params": {
          "s": "Point to calculate curve"
        },
        "return": "Value of curve at s"
      },
      "initialize(uint256,uint256)": {
        "params": {
          "_curveA": "Constabt A of a curve",
          "_curveB": "Constant B of a curve"
        }
      },
      "inverseCurveFunction(uint256)": {
        "params": {
          "x": "Point to calculate curve"
        },
        "return": "Value of curve at s"
      }
    }
  },
  "userdoc": {
    "methods": {
      "calculateEnter(uint256,uint256,uint256)": {
        "notice": "Calculates amount of pTokens which should be minted/unlocked when liquidity added to pool dx = f(A + Deposit) - f(A) A - A is the volume of  total assets (liquid assets in Pool + debt commitments, taken with their weight coefficients) Deposit is the size of the deposit,  dx is the number of pTokens tokens received."
      },
      "calculateExit(uint256,uint256)": {
        "notice": "Calculates amount of pTokens which should be burned/locked when liquidity removed from pool dx = f(L) - f(L - Whidraw) L - L is the volume of liquid assets in Pool"
      },
      "calculateExitInverse(uint256,uint256)": {
        "notice": "Calculates amount of liquid tokens one can withdraw from the pool when pTokens are burned/locked Withdraw = L-g(x-dx) x = f(L) L - L is the volume of liquid assets in Pool dx - amount of pTokens taken from user Withdraw - amount of liquid token which should be sent to user"
      },
      "curveFunction(uint256)": {
        "notice": "Calculates value of Bonding Curve at a point s"
      },
      "initialize(uint256,uint256)": {
        "notice": "Initialize curve parameters"
      },
      "inverseCurveFunction(uint256)": {
        "notice": "Calculates inversed value of Bonding Curve at a point x"
      }
    }
  }
}