{
  "contractName": "CurveModule",
  "abi": [
    {
      "anonymous": false,
      "inputs": [
        {
          "indexed": true,
          "internalType": "address",
          "name": "previousOwner",
          "type": "address"
        },
        {
          "indexed": true,
          "internalType": "address",
          "name": "newOwner",
          "type": "address"
        }
      ],
      "name": "OwnershipTransferred",
      "type": "event"
    },
    {
      "constant": true,
      "inputs": [],
      "name": "CURVE_A",
      "outputs": [
        {
          "internalType": "uint256",
          "name": "",
          "type": "uint256"
        }
      ],
      "payable": false,
      "stateMutability": "view",
      "type": "function"
    },
    {
      "constant": true,
      "inputs": [],
      "name": "CURVE_B",
      "outputs": [
        {
          "internalType": "uint256",
          "name": "",
          "type": "uint256"
        }
      ],
      "payable": false,
      "stateMutability": "view",
      "type": "function"
    },
    {
      "constant": true,
      "inputs": [],
      "name": "MODULE_CURVE",
      "outputs": [
        {
          "internalType": "string",
          "name": "",
          "type": "string"
        }
      ],
      "payable": false,
      "stateMutability": "view",
      "type": "function"
    },
    {
      "constant": true,
      "inputs": [],
      "name": "MODULE_FUNDS",
      "outputs": [
        {
          "internalType": "string",
          "name": "",
          "type": "string"
        }
      ],
      "payable": false,
      "stateMutability": "view",
      "type": "function"
    },
    {
      "constant": true,
      "inputs": [],
      "name": "MODULE_LIQUIDITY",
      "outputs": [
        {
          "internalType": "string",
          "name": "",
          "type": "string"
        }
      ],
      "payable": false,
      "stateMutability": "view",
      "type": "function"
    },
    {
      "constant": true,
      "inputs": [],
      "name": "MODULE_LOAN",
      "outputs": [
        {
          "internalType": "string",
          "name": "",
          "type": "string"
        }
      ],
      "payable": false,
      "stateMutability": "view",
      "type": "function"
    },
    {
      "constant": true,
      "inputs": [],
      "name": "WITHDRAW_FEE_PERCENT",
      "outputs": [
        {
          "internalType": "uint256",
          "name": "",
          "type": "uint256"
        }
      ],
      "payable": false,
      "stateMutability": "view",
      "type": "function"
    },
    {
      "constant": true,
      "inputs": [
        {
          "internalType": "uint256",
          "name": "liquidAssets",
          "type": "uint256"
        },
        {
          "internalType": "uint256",
          "name": "debtCommitments",
          "type": "uint256"
        },
        {
          "internalType": "uint256",
          "name": "lAmount",
          "type": "uint256"
        }
      ],
      "name": "calculateEnter",
      "outputs": [
        {
          "internalType": "uint256",
          "name": "",
          "type": "uint256"
        }
      ],
      "payable": false,
      "stateMutability": "view",
      "type": "function"
    },
    {
      "constant": true,
      "inputs": [
        {
          "internalType": "uint256",
          "name": "liquidAssets",
          "type": "uint256"
        },
        {
          "internalType": "uint256",
          "name": "lAmount",
          "type": "uint256"
        }
      ],
      "name": "calculateExit",
      "outputs": [
        {
          "internalType": "uint256",
          "name": "",
          "type": "uint256"
        }
      ],
      "payable": false,
      "stateMutability": "view",
      "type": "function"
    },
    {
      "constant": true,
      "inputs": [
        {
          "internalType": "uint256",
          "name": "liquidAssets",
          "type": "uint256"
        },
        {
          "internalType": "uint256",
          "name": "pAmount",
          "type": "uint256"
        }
      ],
      "name": "calculateExitInverse",
      "outputs": [
        {
          "internalType": "uint256",
          "name": "withdraw",
          "type": "uint256"
        },
        {
          "internalType": "uint256",
          "name": "withdrawU",
          "type": "uint256"
        },
        {
          "internalType": "uint256",
          "name": "withdrawP",
          "type": "uint256"
        }
      ],
      "payable": false,
      "stateMutability": "view",
      "type": "function"
    },
    {
      "constant": true,
      "inputs": [],
      "name": "curveA",
      "outputs": [
        {
          "internalType": "uint256",
          "name": "",
          "type": "uint256"
        }
      ],
      "payable": false,
      "stateMutability": "view",
      "type": "function"
    },
    {
      "constant": true,
      "inputs": [],
      "name": "curveB",
      "outputs": [
        {
          "internalType": "uint256",
          "name": "",
          "type": "uint256"
        }
      ],
      "payable": false,
      "stateMutability": "view",
      "type": "function"
    },
    {
      "constant": true,
      "inputs": [
        {
          "internalType": "uint256",
          "name": "s",
          "type": "uint256"
        }
      ],
      "name": "curveFunction",
      "outputs": [
        {
          "internalType": "uint256",
          "name": "",
          "type": "uint256"
        }
      ],
      "payable": false,
      "stateMutability": "view",
      "type": "function"
    },
    {
      "constant": true,
      "inputs": [
        {
          "internalType": "string",
          "name": "module",
          "type": "string"
        }
      ],
      "name": "getModuleAddress",
      "outputs": [
        {
          "internalType": "address",
          "name": "",
          "type": "address"
        }
      ],
      "payable": false,
      "stateMutability": "view",
      "type": "function"
    },
    {
      "constant": true,
      "inputs": [
        {
          "internalType": "uint256",
          "name": "x",
          "type": "uint256"
        }
      ],
      "name": "inverseCurveFunction",
      "outputs": [
        {
          "internalType": "uint256",
          "name": "",
          "type": "uint256"
        }
      ],
      "payable": false,
      "stateMutability": "view",
      "type": "function"
    },
    {
      "constant": true,
      "inputs": [],
      "name": "isOwner",
      "outputs": [
        {
          "internalType": "bool",
          "name": "",
          "type": "bool"
        }
      ],
      "payable": false,
      "stateMutability": "view",
      "type": "function"
    },
    {
      "constant": true,
      "inputs": [],
      "name": "owner",
      "outputs": [
        {
          "internalType": "address",
          "name": "",
          "type": "address"
        }
      ],
      "payable": false,
      "stateMutability": "view",
      "type": "function"
    },
    {
      "constant": true,
      "inputs": [],
      "name": "pool",
      "outputs": [
        {
          "internalType": "address",
          "name": "",
          "type": "address"
        }
      ],
      "payable": false,
      "stateMutability": "view",
      "type": "function"
    },
    {
      "constant": false,
      "inputs": [],
      "name": "renounceOwnership",
      "outputs": [],
      "payable": false,
      "stateMutability": "nonpayable",
      "type": "function"
    },
    {
      "constant": false,
      "inputs": [
        {
          "internalType": "address",
          "name": "_pool",
          "type": "address"
        }
      ],
      "name": "setPool",
      "outputs": [],
      "payable": false,
      "stateMutability": "nonpayable",
      "type": "function"
    },
    {
      "constant": false,
      "inputs": [
        {
          "internalType": "address",
          "name": "newOwner",
          "type": "address"
        }
      ],
      "name": "transferOwnership",
      "outputs": [],
      "payable": false,
      "stateMutability": "nonpayable",
      "type": "function"
    },
    {
      "constant": true,
      "inputs": [],
      "name": "withdrawFeePercent",
      "outputs": [
        {
          "internalType": "uint256",
          "name": "",
          "type": "uint256"
        }
      ],
      "payable": false,
      "stateMutability": "view",
      "type": "function"
    },
    {
      "constant": false,
      "inputs": [
        {
          "internalType": "uint256",
          "name": "_curveA",
          "type": "uint256"
        },
        {
          "internalType": "uint256",
          "name": "_curveB",
          "type": "uint256"
        },
        {
          "internalType": "uint256",
          "name": "_withdrawFeePercent",
          "type": "uint256"
        }
      ],
      "name": "initialize",
      "outputs": [],
      "payable": false,
      "stateMutability": "nonpayable",
      "type": "function"
    },
    {
      "constant": false,
      "inputs": [],
      "name": "initialize",
      "outputs": [],
      "payable": false,
      "stateMutability": "nonpayable",
      "type": "function"
    },
    {
      "constant": false,
      "inputs": [
        {
          "internalType": "address",
          "name": "_pool",
          "type": "address"
        }
      ],
      "name": "initialize",
      "outputs": [],
      "payable": false,
      "stateMutability": "nonpayable",
      "type": "function"
    }
  ],
  "bytecode": "0x6080604052611238806100136000396000f3fe608060405234801561001057600080fd5b50600436106101735760003560e01c806371dc760f116100de5780638f32d59b11610097578063c4d66de811610071578063c4d66de814610434578063e6e2421314610221578063f2fde38b1461045a578063fa9c5d1b1461048057610173565b80638f32d59b146103cf578063a813d3a7146103eb578063b23a97d01461042c57610173565b806371dc760f146102cb5780637b6439421461037157806380d859111461038e5780638129fc1c146103b75780638230d02d146103bf5780638da5cb5b146103c757610173565b806346a225dd1161013057806346a225dd14610286578063495ef7051461028e57806356809616146102965780635af333891461029e5780636f5c1b3b146102a6578063715018a6146102c357610173565b8063077aa7051461017857806316f0115b146101f5578063368981a61461021957806341d36374146102215780634437152a1461023b5780634522751614610263575b600080fd5b6101806104a9565b6040805160208082528351818301528351919283929083019185019080838360005b838110156101ba5781810151838201526020016101a2565b50505050905090810190601f1680156101e75780820380516001836020036101000a031916815260200191505b509250505060405180910390f35b6101fd6104ca565b604080516001600160a01b039092168252519081900360200190f35b6101806104d9565b6102296104f9565b60408051918252519081900360200190f35b6102616004803603602081101561025157600080fd5b50356001600160a01b03166104fe565b005b6102296004803603604081101561027957600080fd5b5080359060200135610579565b6102296105be565b6102296105c3565b6102296105c9565b6102296105cf565b610229600480360360208110156102bc57600080fd5b50356105d5565b6102616105e6565b6101fd600480360360208110156102e157600080fd5b8101906020810181356401000000008111156102fc57600080fd5b82018360208201111561030e57600080fd5b8035906020019184600183028401116401000000008311171561033057600080fd5b91908080601f016020809104026020016040519081016040528093929190818152602001838380828437600092019190915250929550610689945050505050565b6102296004803603602081101561038757600080fd5b5035610894565b610261600480360360608110156103a457600080fd5b50803590602081013590604001356108a5565b610261610959565b610180610a0b565b6101fd610a30565b6103d7610a3f565b604080519115158252519081900360200190f35b61040e6004803603604081101561040157600080fd5b5080359060200135610a65565b60408051938452602084019290925282820152519081900360600190f35b610180610b12565b6102616004803603602081101561044a57600080fd5b50356001600160a01b0316610b33565b6102616004803603602081101561047057600080fd5b50356001600160a01b0316610bec565b6102296004803603606081101561049657600080fd5b5080359060208101359060400135610c4e565b6040518060400160405280600581526020016466756e647360d81b81525081565b6066546001600160a01b031681565b604051806040016040528060048152602001633637b0b760e11b81525081565b600181565b610506610a3f565b610557576040805162461bcd60e51b815260206004820181905260248201527f4f776e61626c653a2063616c6c6572206973206e6f7420746865206f776e6572604482015290519081900360640190fd5b606680546001600160a01b0319166001600160a01b0392909216919091179055565b600080610585846105d5565b905060006105a161059c868663ffffffff610c9716565b6105d5565b90506105b3828263ffffffff610c9716565b925050505b92915050565b600581565b60695481565b60675481565b60685481565b60006105b860675460685484610cf4565b6105ee610a3f565b61063f576040805162461bcd60e51b815260206004820181905260248201527f4f776e61626c653a2063616c6c6572206973206e6f7420746865206f776e6572604482015290519081900360640190fd5b6033546040516000916001600160a01b0316907f8be0079c531659141344cd1fd0a4f28419497f9722a3daafe3b4186f6b6457e0908390a3603380546001600160a01b0319169055565b6066546000906001600160a01b03166106db576040805162461bcd60e51b815260206004820152600f60248201526e135bd91d5b194e881b9bc81c1bdbdb608a1b604482015290519081900360640190fd5b6066546040516020602482018181528551604484015285516000946060946001600160a01b03909116938893928392606401918501908083838b5b8381101561072e578181015183820152602001610716565b50505050905090810190601f16801561075b5780820380516001836020036101000a031916815260200191505b5060408051601f198184030181529181526020820180516001600160e01b031663349f642f60e11b178152905182519295509350839250908083835b602083106107b65780518252601f199092019160209182019101610797565b6001836020036101000a038019825116818451168082178552505050505050905001915050600060405180830381855afa9150503d8060008114610816576040519150601f19603f3d011682016040523d82523d6000602084013e61081b565b606091505b50915091508161082c578060208201fd5b600081806020019051602081101561084357600080fd5b505190506001600160a01b03811661088c5760405162461bcd60e51b81526004018080602001828103825260228152602001806111e26022913960400191505060405180910390fd5b949350505050565b60006105b860675460685484610d7f565b600054610100900460ff16806108be57506108be610dcb565b806108cc575060005460ff16155b6109075760405162461bcd60e51b815260040180806020018281038252602e8152602001806111b4602e913960400191505060405180910390fd5b600054610100900460ff16158015610932576000805460ff1961ff0019909116610100171660011790555b6067849055606883905560698290558015610953576000805461ff00191690555b50505050565b600054610100900460ff16806109725750610972610dcb565b80610980575060005460ff16155b6109bb5760405162461bcd60e51b815260040180806020018281038252602e8152602001806111b4602e913960400191505060405180910390fd5b600054610100900460ff161580156109e6576000805460ff1961ff0019909116610100171660011790555b6109f66109f1610dd1565b610dd5565b8015610a08576000805461ff00191690555b50565b604051806040016040528060098152602001686c697175696469747960b81b81525081565b6033546001600160a01b031690565b6033546000906001600160a01b0316610a56610dd1565b6001600160a01b031614905090565b600080600080610a74866105d5565b90506000610a88828763ffffffff610c9716565b90506000610a9582610894565b905080881015610aa157fe5b610ab1888263ffffffff610c9716565b9550610aea6064610ade610ad16069546064610c9790919063ffffffff16565b899063ffffffff610ec616565b9063ffffffff610f2616565b9450610b066064610ade60695489610ec690919063ffffffff16565b93505050509250925092565b60405180604001604052806005815260200164637572766560d81b81525081565b600054610100900460ff1680610b4c5750610b4c610dcb565b80610b5a575060005460ff16155b610b955760405162461bcd60e51b815260040180806020018281038252602e8152602001806111b4602e913960400191505060405180910390fd5b600054610100900460ff16158015610bc0576000805460ff1961ff0019909116610100171660011790555b610bc982610f90565b610bd660018060056108a5565b8015610be8576000805461ff00191690555b5050565b610bf4610a3f565b610c45576040805162461bcd60e51b815260206004820181905260248201527f4f776e61626c653a2063616c6c6572206973206e6f7420746865206f776e6572604482015290519081900360640190fd5b610a088161102e565b600080610c61858563ffffffff6110cf16565b9050610c8e610c6f826105d5565b610c8261059c848763ffffffff6110cf16565b9063ffffffff610c9716565b95945050505050565b600082821115610cee576040805162461bcd60e51b815260206004820152601e60248201527f536166654d6174683a207375627472616374696f6e206f766572666c6f770000604482015290519081900360640190fd5b50900390565b600080610d54610d2584610d198781670de0b6b3a7640000600463ffffffff610ec616565b9063ffffffff610ec616565b610d4887610d196ec097ce7bc90715b34b9f10000000008263ffffffff610ec616565b9063ffffffff6110cf16565b9050610c8e6002610ade610d76670de0b6b3a76400008963ffffffff610ec616565b610c8285611129565b600061088c610d9c670de0b6b3a76400008563ffffffff610ec616565b610ade610dbb85610d19670de0b6b3a76400008a63ffffffff610ec616565b610d48868063ffffffff610ec616565b303b1590565b3390565b600054610100900460ff1680610dee5750610dee610dcb565b80610dfc575060005460ff16155b610e375760405162461bcd60e51b815260040180806020018281038252602e8152602001806111b4602e913960400191505060405180910390fd5b600054610100900460ff16158015610e62576000805460ff1961ff0019909116610100171660011790555b603380546001600160a01b0319166001600160a01b0384811691909117918290556040519116906000907f8be0079c531659141344cd1fd0a4f28419497f9722a3daafe3b4186f6b6457e0908290a38015610be8576000805461ff00191690555050565b600082610ed5575060006105b8565b82820282848281610ee257fe5b0414610f1f5760405162461bcd60e51b81526004018080602001828103825260218152602001806111936021913960400191505060405180910390fd5b9392505050565b6000808211610f7c576040805162461bcd60e51b815260206004820152601a60248201527f536166654d6174683a206469766973696f6e206279207a65726f000000000000604482015290519081900360640190fd5b6000828481610f8757fe5b04949350505050565b600054610100900460ff1680610fa95750610fa9610dcb565b80610fb7575060005460ff16155b610ff25760405162461bcd60e51b815260040180806020018281038252602e8152602001806111b4602e913960400191505060405180910390fd5b600054610100900460ff1615801561101d576000805460ff1961ff0019909116610100171660011790555b611025610959565b610bd6826104fe565b6001600160a01b0381166110735760405162461bcd60e51b815260040180806020018281038252602681526020018061116d6026913960400191505060405180910390fd5b6033546040516001600160a01b038084169216907f8be0079c531659141344cd1fd0a4f28419497f9722a3daafe3b4186f6b6457e090600090a3603380546001600160a01b0319166001600160a01b0392909216919091179055565b600082820183811015610f1f576040805162461bcd60e51b815260206004820152601b60248201527f536166654d6174683a206164646974696f6e206f766572666c6f770000000000604482015290519081900360640190fd5b60006105b8826000600019821061113c57fe5b60026001830104825b80821015610f1f57508060028180868161115b57fe5b04018161116457fe5b04915061114556fe4f776e61626c653a206e6577206f776e657220697320746865207a65726f2061646472657373536166654d6174683a206d756c7469706c69636174696f6e206f766572666c6f77436f6e747261637420696e7374616e63652068617320616c7265616479206265656e20696e697469616c697a65644d6f64756c653a20726571756573746564206d6f64756c65206e6f7420666f756e64a265627a7a72315820a3f3a4d2df6db3e26bcbfbcf9bde4c07553af528c0c05d29a24d1d297376675664736f6c634300050c0032",
  "source": "pragma solidity ^0.5.12;\n\nimport \"../../common/Module.sol\";\nimport \"../../token/pTokens/PToken.sol\";\nimport \"../../interfaces/curve/ICurveModule.sol\";\nimport \"./BondingCurve.sol\";\n\n\ncontract CurveModule is Module, ICurveModule, BondingCurve {\n    uint256 public constant CURVE_A = 1;\n    uint256 public constant CURVE_B = 1;\n    uint256 public constant WITHDRAW_FEE_PERCENT = 5;\n\n    function initialize(address _pool) public initializer {\n        Module.initialize(_pool);\n        BondingCurve.initialize(CURVE_A, CURVE_B, WITHDRAW_FEE_PERCENT);\n    }\n\n}",
  "sourcePath": "../contracts/modules/curve/CurveModule.sol",
  "compiler": {
    "name": "solc",
    "version": "0.5.12+commit.7709ece9.Emscripten.clang"
  },
  "schemaVersion": "3.0.16",
  "updatedAt": "2020-01-10T11:12:15.789Z",
  "devdoc": {
    "methods": {
      "calculateEnter(uint256,uint256,uint256)": {
        "params": {
          "debtCommitments": "Debt commitments",
          "lAmount": "Amount of liquidTokens to deposit",
          "liquidAssets": "Liquid assets in Pool"
        },
        "return": "Amount of pTokens to mint/unlock"
      },
      "calculateExit(uint256,uint256)": {
        "params": {
          "lAmount": "Amount of liquid tokens to withdraw (full: sum of withdrawU and withdrawP)",
          "liquidAssets": "Liquid assets in Pool"
        },
        "return": "Amount of pTokens to burn/lock"
      },
      "calculateExitInverse(uint256,uint256)": {
        "params": {
          "liquidAssets": "Liquid assets in Pool",
          "pAmount": "Amount of pTokens to withdraw"
        },
        "return": "Amount of liquid tokens to withdraw: total, for user, for pool"
      },
      "curveFunction(uint256)": {
        "params": {
          "s": "Point to calculate curve"
        },
        "return": "Value of curve at s"
      },
      "initialize(uint256,uint256,uint256)": {
        "params": {
          "_curveA": "Constabt A of a curve",
          "_curveB": "Constant B of a curve",
          "_withdrawFeePercent": "Withdraw fee, stored as a percent (multiplied by 100)"
        }
      },
      "inverseCurveFunction(uint256)": {
        "params": {
          "x": "Point to calculate curve"
        },
        "return": "Value of curve at s"
      },
      "isOwner()": {
        "details": "Returns true if the caller is the current owner."
      },
      "owner()": {
        "details": "Returns the address of the current owner."
      },
      "renounceOwnership()": {
        "details": "Leaves the contract without owner. It will not be possible to call `onlyOwner` functions anymore. Can only be called by the current owner.     * > Note: Renouncing ownership will leave the contract without an owner, thereby removing any functionality that is only available to the owner."
      },
      "transferOwnership(address)": {
        "details": "Transfers ownership of the contract to a new account (`newOwner`). Can only be called by the current owner."
      }
    }
  },
  "userdoc": {
    "methods": {
      "calculateEnter(uint256,uint256,uint256)": {
        "notice": "Calculates amount of pTokens which should be minted/unlocked when liquidity added to pool dx = f(A + Deposit) - f(A) A - A is the volume of  total assets (liquid assets in Pool + debt commitments),  Deposit is the size of the deposit,  dx is the number of pTokens tokens received."
      },
      "calculateExit(uint256,uint256)": {
        "notice": "Calculates amount of pTokens which should be burned/locked when liquidity removed from pool dx = f(L) - f(L - Whidraw) L is the volume of liquid assets"
      },
      "calculateExitInverse(uint256,uint256)": {
        "notice": "Calculates amount of liquid tokens one can withdraw from the pool when pTokens are burned/locked Withdraw = L-g(x-dx) x = f(L) dx - amount of pTokens taken from user WithdrawU = Withdraw*(1-d) WithdrawP = Withdraw*d Withdraw - amount of liquid token which should be sent to user"
      },
      "curveFunction(uint256)": {
        "notice": "Calculates value of Bonding Curve at a point s"
      },
      "initialize(uint256,uint256,uint256)": {
        "notice": "Initialize curve parameters"
      },
      "inverseCurveFunction(uint256)": {
        "notice": "Calculates inversed value of Bonding Curve at a point x"
      }
    }
  }
}