{
  "contractName": "DistributionToken",
  "abi": [
    {
      "anonymous": false,
      "inputs": [
        {
          "indexed": true,
          "internalType": "address",
          "name": "owner",
          "type": "address"
        },
        {
          "indexed": true,
          "internalType": "address",
          "name": "spender",
          "type": "address"
        },
        {
          "indexed": false,
          "internalType": "uint256",
          "name": "value",
          "type": "uint256"
        }
      ],
      "name": "Approval",
      "type": "event"
    },
    {
      "anonymous": false,
      "inputs": [
        {
          "indexed": false,
          "internalType": "uint256",
          "name": "amount",
          "type": "uint256"
        },
        {
          "indexed": false,
          "internalType": "uint256",
          "name": "totalSupply",
          "type": "uint256"
        }
      ],
      "name": "DistributionCreated",
      "type": "event"
    },
    {
      "anonymous": false,
      "inputs": [
        {
          "indexed": false,
          "internalType": "address",
          "name": "account",
          "type": "address"
        },
        {
          "indexed": false,
          "internalType": "uint256",
          "name": "amount",
          "type": "uint256"
        },
        {
          "indexed": false,
          "internalType": "uint256",
          "name": "startDistribution",
          "type": "uint256"
        },
        {
          "indexed": false,
          "internalType": "uint256",
          "name": "nextDistribution",
          "type": "uint256"
        }
      ],
      "name": "DistributionsClaimed",
      "type": "event"
    },
    {
      "anonymous": false,
      "inputs": [
        {
          "indexed": true,
          "internalType": "address",
          "name": "account",
          "type": "address"
        }
      ],
      "name": "MinterAdded",
      "type": "event"
    },
    {
      "anonymous": false,
      "inputs": [
        {
          "indexed": true,
          "internalType": "address",
          "name": "account",
          "type": "address"
        }
      ],
      "name": "MinterRemoved",
      "type": "event"
    },
    {
      "anonymous": false,
      "inputs": [
        {
          "indexed": true,
          "internalType": "address",
          "name": "from",
          "type": "address"
        },
        {
          "indexed": true,
          "internalType": "address",
          "name": "to",
          "type": "address"
        },
        {
          "indexed": false,
          "internalType": "uint256",
          "name": "value",
          "type": "uint256"
        }
      ],
      "name": "Transfer",
      "type": "event"
    },
    {
      "constant": false,
      "inputs": [
        {
          "internalType": "address",
          "name": "account",
          "type": "address"
        }
      ],
      "name": "addMinter",
      "outputs": [],
      "payable": false,
      "stateMutability": "nonpayable",
      "type": "function"
    },
    {
      "constant": true,
      "inputs": [
        {
          "internalType": "address",
          "name": "owner",
          "type": "address"
        },
        {
          "internalType": "address",
          "name": "spender",
          "type": "address"
        }
      ],
      "name": "allowance",
      "outputs": [
        {
          "internalType": "uint256",
          "name": "",
          "type": "uint256"
        }
      ],
      "payable": false,
      "stateMutability": "view",
      "type": "function"
    },
    {
      "constant": false,
      "inputs": [
        {
          "internalType": "address",
          "name": "spender",
          "type": "address"
        },
        {
          "internalType": "uint256",
          "name": "amount",
          "type": "uint256"
        }
      ],
      "name": "approve",
      "outputs": [
        {
          "internalType": "bool",
          "name": "",
          "type": "bool"
        }
      ],
      "payable": false,
      "stateMutability": "nonpayable",
      "type": "function"
    },
    {
      "constant": true,
      "inputs": [
        {
          "internalType": "address",
          "name": "account",
          "type": "address"
        }
      ],
      "name": "balanceOf",
      "outputs": [
        {
          "internalType": "uint256",
          "name": "",
          "type": "uint256"
        }
      ],
      "payable": false,
      "stateMutability": "view",
      "type": "function"
    },
    {
      "constant": false,
      "inputs": [
        {
          "internalType": "address",
          "name": "spender",
          "type": "address"
        },
        {
          "internalType": "uint256",
          "name": "subtractedValue",
          "type": "uint256"
        }
      ],
      "name": "decreaseAllowance",
      "outputs": [
        {
          "internalType": "bool",
          "name": "",
          "type": "bool"
        }
      ],
      "payable": false,
      "stateMutability": "nonpayable",
      "type": "function"
    },
    {
      "constant": true,
      "inputs": [
        {
          "internalType": "uint256",
          "name": "",
          "type": "uint256"
        }
      ],
      "name": "distributions",
      "outputs": [
        {
          "internalType": "uint256",
          "name": "amount",
          "type": "uint256"
        },
        {
          "internalType": "uint256",
          "name": "totalSupply",
          "type": "uint256"
        }
      ],
      "payable": false,
      "stateMutability": "view",
      "type": "function"
    },
    {
      "constant": false,
      "inputs": [
        {
          "internalType": "address",
          "name": "spender",
          "type": "address"
        },
        {
          "internalType": "uint256",
          "name": "addedValue",
          "type": "uint256"
        }
      ],
      "name": "increaseAllowance",
      "outputs": [
        {
          "internalType": "bool",
          "name": "",
          "type": "bool"
        }
      ],
      "payable": false,
      "stateMutability": "nonpayable",
      "type": "function"
    },
    {
      "constant": false,
      "inputs": [
        {
          "internalType": "address",
          "name": "sender",
          "type": "address"
        }
      ],
      "name": "initialize",
      "outputs": [],
      "payable": false,
      "stateMutability": "nonpayable",
      "type": "function"
    },
    {
      "constant": true,
      "inputs": [
        {
          "internalType": "address",
          "name": "account",
          "type": "address"
        }
      ],
      "name": "isMinter",
      "outputs": [
        {
          "internalType": "bool",
          "name": "",
          "type": "bool"
        }
      ],
      "payable": false,
      "stateMutability": "view",
      "type": "function"
    },
    {
      "constant": false,
      "inputs": [
        {
          "internalType": "address",
          "name": "account",
          "type": "address"
        },
        {
          "internalType": "uint256",
          "name": "amount",
          "type": "uint256"
        }
      ],
      "name": "mint",
      "outputs": [
        {
          "internalType": "bool",
          "name": "",
          "type": "bool"
        }
      ],
      "payable": false,
      "stateMutability": "nonpayable",
      "type": "function"
    },
    {
      "constant": true,
      "inputs": [
        {
          "internalType": "address",
          "name": "",
          "type": "address"
        }
      ],
      "name": "nextDistributions",
      "outputs": [
        {
          "internalType": "uint256",
          "name": "",
          "type": "uint256"
        }
      ],
      "payable": false,
      "stateMutability": "view",
      "type": "function"
    },
    {
      "constant": false,
      "inputs": [],
      "name": "renounceMinter",
      "outputs": [],
      "payable": false,
      "stateMutability": "nonpayable",
      "type": "function"
    },
    {
      "constant": true,
      "inputs": [],
      "name": "totalSupply",
      "outputs": [
        {
          "internalType": "uint256",
          "name": "",
          "type": "uint256"
        }
      ],
      "payable": false,
      "stateMutability": "view",
      "type": "function"
    },
    {
      "constant": false,
      "inputs": [
        {
          "internalType": "address",
          "name": "recipient",
          "type": "address"
        },
        {
          "internalType": "uint256",
          "name": "amount",
          "type": "uint256"
        }
      ],
      "name": "transfer",
      "outputs": [
        {
          "internalType": "bool",
          "name": "",
          "type": "bool"
        }
      ],
      "payable": false,
      "stateMutability": "nonpayable",
      "type": "function"
    },
    {
      "constant": false,
      "inputs": [
        {
          "internalType": "address",
          "name": "sender",
          "type": "address"
        },
        {
          "internalType": "address",
          "name": "recipient",
          "type": "address"
        },
        {
          "internalType": "uint256",
          "name": "amount",
          "type": "uint256"
        }
      ],
      "name": "transferFrom",
      "outputs": [
        {
          "internalType": "bool",
          "name": "",
          "type": "bool"
        }
      ],
      "payable": false,
      "stateMutability": "nonpayable",
      "type": "function"
    },
    {
      "constant": false,
      "inputs": [
        {
          "internalType": "uint256",
          "name": "amount",
          "type": "uint256"
        }
      ],
      "name": "distribute",
      "outputs": [],
      "payable": false,
      "stateMutability": "nonpayable",
      "type": "function"
    },
    {
      "constant": false,
      "inputs": [
        {
          "internalType": "address",
          "name": "account",
          "type": "address"
        }
      ],
      "name": "claimDistributions",
      "outputs": [],
      "payable": false,
      "stateMutability": "nonpayable",
      "type": "function"
    },
    {
      "constant": false,
      "inputs": [
        {
          "internalType": "address",
          "name": "account",
          "type": "address"
        },
        {
          "internalType": "uint256",
          "name": "lastDistribution",
          "type": "uint256"
        }
      ],
      "name": "claimDistributions",
      "outputs": [],
      "payable": false,
      "stateMutability": "nonpayable",
      "type": "function"
    },
    {
      "constant": true,
      "inputs": [
        {
          "internalType": "address",
          "name": "account",
          "type": "address"
        }
      ],
      "name": "fullBalanceOf",
      "outputs": [
        {
          "internalType": "uint256",
          "name": "",
          "type": "uint256"
        }
      ],
      "payable": false,
      "stateMutability": "view",
      "type": "function"
    }
  ],
  "bytecode": "0x6080604052611611806100136000396000f3fe608060405234801561001057600080fd5b50600436106101215760003560e01c806370a08231116100ad578063a9059cbb11610071578063a9059cbb14610355578063aa271e1a14610381578063c4d66de8146103a7578063d08153fd146103cd578063dd62ed3e146103f957610121565b806370a08231146102b857806391c05b0b146102de578063983b2d56146102fb5780639865027514610321578063a457c2d71461032957610121565b806340c10f19116100f457806340c10f19146101e25780634487d3df1461020e57806358b5dd721461024457806360b636481461026a57806370898f781461029257610121565b8063095ea7b31461012657806318160ddd1461016657806323b872dd1461018057806339509351146101b6575b600080fd5b6101526004803603604081101561013c57600080fd5b506001600160a01b038135169060200135610427565b604080519115158252519081900360200190f35b61016e610445565b60408051918252519081900360200190f35b6101526004803603606081101561019657600080fd5b506001600160a01b0381358116916020810135909116906040013561044b565b610152600480360360408110156101cc57600080fd5b506001600160a01b0381351690602001356104d8565b610152600480360360408110156101f857600080fd5b506001600160a01b03813516906020013561052c565b61022b6004803603602081101561022457600080fd5b5035610583565b6040805192835260208301919091528051918290030190f35b61016e6004803603602081101561025a57600080fd5b50356001600160a01b03166105ae565b6102906004803603602081101561028057600080fd5b50356001600160a01b03166105fd565b005b61016e600480360360208110156102a857600080fd5b50356001600160a01b031661060e565b61016e600480360360208110156102ce57600080fd5b50356001600160a01b0316610620565b610290600480360360208110156102f457600080fd5b503561063b565b6102906004803603602081101561031157600080fd5b50356001600160a01b031661074c565b61029061079b565b6101526004803603604081101561033f57600080fd5b506001600160a01b0381351690602001356107ad565b6101526004803603604081101561036b57600080fd5b506001600160a01b03813516906020013561081b565b6101526004803603602081101561039757600080fd5b50356001600160a01b031661082f565b610290600480360360208110156103bd57600080fd5b50356001600160a01b0316610842565b610290600480360360408110156103e357600080fd5b506001600160a01b0381351690602001356108ee565b61016e6004803603604081101561040f57600080fd5b506001600160a01b0381358116916020013516610991565b600061043b6104346109bc565b84846109c0565b5060015b92915050565b60355490565b6000610458848484610aac565b6104ce846104646109bc565b6104c98560405180606001604052806028815260200161149e602891396001600160a01b038a166000908152603460205260408120906104a26109bc565b6001600160a01b03168152602081019190915260400160002054919063ffffffff610ace16565b6109c0565b5060019392505050565b600061043b6104e56109bc565b846104c985603460006104f66109bc565b6001600160a01b03908116825260208083019390935260409182016000908120918c16815292529020549063ffffffff610b6516565b600061053e6105396109bc565b61082f565b6105795760405162461bcd60e51b815260040180806020018281038252603081526020018061142c6030913960400191505060405180910390fd5b61043b8383610bc6565b60cd818154811061059057fe5b60009182526020909120600290910201805460019091015490915082565b60006001600160a01b0382163014156105c9575060006105f8565b60006105d483610bd9565b905060006105e184610be4565b90506105f3828263ffffffff610b6516565b925050505b919050565b60cd5461060b908290610c1d565b50565b60ce6020526000908152604090205481565b6001600160a01b031660009081526033602052604090205490565b6106466105396109bc565b6106815760405162461bcd60e51b815260040180806020018281038252603081526020018061142c6030913960400191505060405180910390fd5b600061068b610445565b604080518082019091528381526020810182815260cd805460018101825560009190915291517f83978b4c69c48dd978ab43fe30f077615294f938fb7f936d9eb340e51ea7db2e600290930292830155517f83978b4c69c48dd978ab43fe30f077615294f938fb7f936d9eb340e51ea7db2f90910155905061070d3083610ccd565b604080518381526020810183905281517f6aecc0a97ed8436da25295877eadc9bdfcb38d8d2cd93ce7b51765d2eaac9ff2929181900390910190a15050565b6107576105396109bc565b6107925760405162461bcd60e51b815260040180806020018281038252603081526020018061142c6030913960400191505060405180910390fd5b61060b81610dbf565b6107ab6107a66109bc565b610e07565b565b600061043b6107ba6109bc565b846104c9856040518060600160405280602581526020016115b860259139603460006107e46109bc565b6001600160a01b03908116825260208083019390935260409182016000908120918d1681529252902054919063ffffffff610ace16565b600061043b6108286109bc565b8484610aac565b600061043f60688363ffffffff610e4f16565b600054610100900460ff168061085b575061085b610eb6565b80610869575060005460ff16155b6108a45760405162461bcd60e51b815260040180806020018281038252602e8152602001806114e8602e913960400191505060405180910390fd5b600054610100900460ff161580156108cf576000805460ff1961ff0019909116610100171660011790555b6108d882610ebc565b80156108ea576000805461ff00191690555b5050565b60cd54811061092e5760405162461bcd60e51b815260040180806020018281038252602d815260200180611567602d913960400191505060405180910390fd5b6001600160a01b038216600090815260ce602052604090205481116109845760405162461bcd60e51b815260040180806020018281038252602c815260200180611516602c913960400191505060405180910390fd5b6108ea8282600101610c1d565b6001600160a01b03918216600090815260346020908152604080832093909416825291909152205490565b3390565b6001600160a01b038316610a055760405162461bcd60e51b81526004018080602001828103825260248152602001806115946024913960400191505060405180910390fd5b6001600160a01b038216610a4a5760405162461bcd60e51b81526004018080602001828103825260228152602001806113e46022913960400191505060405180910390fd5b6001600160a01b03808416600081815260346020908152604080832094871680845294825291829020859055815185815291517f8c5be1e5ebec7d5bd14f71427d1e84f3dd0314c0f7b2291e5b200ac8c7c3b9259281900390910190a3505050565b610ab5836105fd565b610abe826105fd565b610ac9838383610f5f565b505050565b60008184841115610b5d5760405162461bcd60e51b81526004018080602001828103825283818151815260200191508051906020019080838360005b83811015610b22578181015183820152602001610b0a565b50505050905090810190601f168015610b4f5780820380516001836020036101000a031916815260200191505b509250505060405180910390fd5b505050900390565b600082820183811015610bbf576040805162461bcd60e51b815260206004820152601b60248201527f536166654d6174683a206164646974696f6e206f766572666c6f770000000000604482015290519081900360640190fd5b9392505050565b610bcf826105fd565b6108ea8282610ccd565b600061043f82610620565b60cd546001600160a01b038216600090815260ce6020526040812054909111610c0f575060006105f8565b60cd5461043f9083906110bd565b6001600160a01b038216600090815260ce6020526040902054818110610c4357506108ea565b6000610c4f84846110bd565b6001600160a01b038516600090815260ce602052604090208490559050610c77308583610f5f565b604080516001600160a01b0386168152602081018390528082018490526060810185905290517fe61468ba7ef06e2d4e4f2ae88303bb4d1fdbe6001ad2fe0782cbd4f7dffca8579181900360800190a150505050565b6001600160a01b038216610d28576040805162461bcd60e51b815260206004820152601f60248201527f45524332303a206d696e7420746f20746865207a65726f206164647265737300604482015290519081900360640190fd5b603554610d3b908263ffffffff610b6516565b6035556001600160a01b038216600090815260336020526040902054610d67908263ffffffff610b6516565b6001600160a01b03831660008181526033602090815260408083209490945583518581529351929391927fddf252ad1be2c89b69c2b068fc378daa952ba7f163c4a11628f55a4df523b3ef9281900390910190a35050565b610dd060688263ffffffff61119616565b6040516001600160a01b038216907f6ae172837ea30b801fbfcdd4108aa1d5bf8ff775444fd70256b44e6bf3dfc3f690600090a250565b610e1860688263ffffffff61121716565b6040516001600160a01b038216907fe94479a9f7e1952cc78f2d6baab678adc1b772d936c6583def489e524cb6669290600090a250565b60006001600160a01b038216610e965760405162461bcd60e51b81526004018080602001828103825260228152602001806114c66022913960400191505060405180910390fd5b506001600160a01b03166000908152602091909152604090205460ff1690565b303b1590565b600054610100900460ff1680610ed55750610ed5610eb6565b80610ee3575060005460ff16155b610f1e5760405162461bcd60e51b815260040180806020018281038252602e8152602001806114e8602e913960400191505060405180910390fd5b600054610100900460ff16158015610f49576000805460ff1961ff0019909116610100171660011790555b610f528261082f565b6108d8576108d882610dbf565b6001600160a01b038316610fa45760405162461bcd60e51b81526004018080602001828103825260258152602001806115426025913960400191505060405180910390fd5b6001600160a01b038216610fe95760405162461bcd60e51b81526004018080602001828103825260238152602001806113c16023913960400191505060405180910390fd5b61102c81604051806060016040528060268152602001611406602691396001600160a01b038616600090815260336020526040902054919063ffffffff610ace16565b6001600160a01b038085166000908152603360205260408082209390935590841681522054611061908263ffffffff610b6516565b6001600160a01b0380841660008181526033602090815260409182902094909455805185815290519193928716927fddf252ad1be2c89b69c2b068fc378daa952ba7f163c4a11628f55a4df523b3ef92918290030190a3505050565b60cd546000908211156110cc57fe5b6001600160a01b038316600090815260ce6020526040812054906110ef85610bd9565b905081815b8582101561117b57600061115a60cd848154811061110e57fe5b90600052602060002090600202016001015461114e60cd868154811061113057fe5b6000918252602090912060029091020154859063ffffffff61127e16565b9063ffffffff6112d716565b905061116c828263ffffffff610b6516565b60019093019291506110f49050565b61118b818463ffffffff61131916565b979650505050505050565b6111a08282610e4f565b156111f2576040805162461bcd60e51b815260206004820152601f60248201527f526f6c65733a206163636f756e7420616c72656164792068617320726f6c6500604482015290519081900360640190fd5b6001600160a01b0316600090815260209190915260409020805460ff19166001179055565b6112218282610e4f565b61125c5760405162461bcd60e51b815260040180806020018281038252602181526020018061145c6021913960400191505060405180910390fd5b6001600160a01b0316600090815260209190915260409020805460ff19169055565b60008261128d5750600061043f565b8282028284828161129a57fe5b0414610bbf5760405162461bcd60e51b815260040180806020018281038252602181526020018061147d6021913960400191505060405180910390fd5b6000610bbf83836040518060400160405280601a81526020017f536166654d6174683a206469766973696f6e206279207a65726f00000000000081525061135b565b6000610bbf83836040518060400160405280601e81526020017f536166654d6174683a207375627472616374696f6e206f766572666c6f770000815250610ace565b600081836113aa5760405162461bcd60e51b8152602060048201818152835160248401528351909283926044909101919085019080838360008315610b22578181015183820152602001610b0a565b5060008385816113b657fe5b049594505050505056fe45524332303a207472616e7366657220746f20746865207a65726f206164647265737345524332303a20617070726f766520746f20746865207a65726f206164647265737345524332303a207472616e7366657220616d6f756e7420657863656564732062616c616e63654d696e746572526f6c653a2063616c6c657220646f6573206e6f74206861766520746865204d696e74657220726f6c65526f6c65733a206163636f756e7420646f6573206e6f74206861766520726f6c65536166654d6174683a206d756c7469706c69636174696f6e206f766572666c6f7745524332303a207472616e7366657220616d6f756e74206578636565647320616c6c6f77616e6365526f6c65733a206163636f756e7420697320746865207a65726f2061646472657373436f6e747261637420696e7374616e63652068617320616c7265616479206265656e20696e697469616c697a6564446973747269627574696f6e546f6b656e3a206e6f20646973747269627574696f6e7320746f20636c61696d45524332303a207472616e736665722066726f6d20746865207a65726f2061646472657373446973747269627574696f6e546f6b656e3a206c617374446973747269627574696f6e20746f6f20686967687445524332303a20617070726f76652066726f6d20746865207a65726f206164647265737345524332303a2064656372656173656420616c6c6f77616e63652062656c6f77207a65726fa265627a7a723158200cf9ba3a705f35f331a31396e26e00c4e1641a3febea8ea720a940a88af8a99464736f6c634300050c0032",
  "source": "pragma solidity ^0.5.12;\n\nimport \"@openzeppelin/contracts-ethereum-package/contracts/token/ERC20/ERC20.sol\";\nimport \"@openzeppelin/contracts-ethereum-package/contracts/token/ERC20/ERC20Mintable.sol\";\nimport \"@openzeppelin/contracts-ethereum-package/contracts/math/SafeMath.sol\";\n\ncontract DistributionToken is ERC20, ERC20Mintable {\n    using SafeMath for uint256;\n\n    event DistributionCreated(uint256 amount, uint256 totalSupply);\n    event DistributionsClaimed(address account, uint256 amount, uint256 startDistribution, uint256 nextDistribution);\n\n    struct Distribution {\n        uint256 amount;         // Amount of tokens being distributed during the event\n        uint256 totalSupply;    // Total supply before distribution\n    }\n\n    Distribution[] public distributions;                   // Array of all distributions\n    mapping(address => uint256) public nextDistributions;  // Map account to first distribution not yet processed\n\n    function distribute(uint256 amount) public onlyMinter {\n        uint256 currentTotalSupply = totalSupply();\n        distributions.push(Distribution({\n            amount:amount,\n            totalSupply: currentTotalSupply\n        }));\n        super._mint(address(this), amount); //Use super because we overloaded _mint in this contract and need old behaviour\n        emit DistributionCreated(amount, currentTotalSupply);\n    }\n\n    function claimDistributions(address account) public {\n        _updateUserBalance(account, distributions.length);\n    }\n    \n    /**\n     * @notice Claims distributions and allows to specify how many distributions to process.\n     * This allows limit gas usage.\n     * One can do this for others\n     */\n    function claimDistributions(address account, uint256 lastDistribution) public {\n        require(lastDistribution < distributions.length, \"DistributionToken: lastDistribution too hight\");\n        require(nextDistributions[account] < lastDistribution, \"DistributionToken: no distributions to claim\");\n        _updateUserBalance(account, lastDistribution+1); //+1 is safe because we've already checked lastDistribution < distributions.length\n    }\n\n    /**\n     * @notice Full balance of account includes:\n     * - balance of tokens account holds himself (0 for addresses of locking contracts)\n     * - balance of tokens locked in contracts\n     * - tokens not yet claimed from distributions\n     */\n    function fullBalanceOf(address account) public view returns(uint256){\n        if (account == address(this)) return 0;  //Token itself only holds tokens for others\n        uint256 distributionBalance = distributionBalanceOf(account);\n        uint256 unclaimed = calculateClaimAmount(account);\n        return distributionBalance.add(unclaimed);\n    }\n    \n    // Override functions that change user balance\n    function _transfer(address sender, address recipient, uint256 amount) internal {\n        _updateUserBalance(sender);\n        _updateUserBalance(recipient);\n        super._transfer(sender, recipient, amount);\n    }\n\n    function _mint(address account, uint256 amount) internal {\n        _updateUserBalance(account);\n        super._mint(account, amount);\n    }\n    \n    function _burn(address account, uint256 amount) internal {\n        _updateUserBalance(account);\n        super._burn(account, amount);\n    }\n\n    function _updateUserBalance(address account) internal {\n        _updateUserBalance(account, distributions.length);\n    }\n\n    function _updateUserBalance(address account, uint256 nextDistribution) internal {\n        uint256 startDistribution = nextDistributions[account];\n        if (startDistribution >= nextDistribution) return;\n        uint256 distributionAmount = calculateClaimAmount(account, nextDistribution);\n        nextDistributions[account] = nextDistribution;\n        super._transfer(address(this), account, distributionAmount);\n        emit DistributionsClaimed(account, distributionAmount, startDistribution, nextDistribution);\n    }\n\n    /**\n     * @notice Balance of account, which is counted for distributions\n     * It only represents already distributed balance.\n     * @dev This function should be overloaded to include balance of locked tokens\n     */\n    function distributionBalanceOf(address account) internal view returns(uint256) {\n        return balanceOf(account);\n    }\n\n    /**\n     * @notice Calculates amount of account's tokens to be claimed from distributions\n     */\n    function calculateClaimAmount(address account) internal view returns(uint256) {\n        if (nextDistributions[account] >= distributions.length) return 0;\n        return calculateClaimAmount(account, distributions.length);\n    }\n\n    function calculateClaimAmount(address account, uint256 nextDistribution) internal view returns(uint256) {\n        assert(nextDistribution <= distributions.length);\n        uint256 startDistribution = nextDistributions[account];\n        uint256 initialBalance = distributionBalanceOf(account);\n        uint256 next = startDistribution;\n        uint256 balance = initialBalance;\n        while (next < nextDistribution) {\n            uint256 da = balance.mul(distributions[next].amount).div(distributions[next].totalSupply);\n            balance = balance.add(da);\n            next++;\n        }\n        return balance.sub(initialBalance);\n    }\n\n}",
  "sourcePath": "/home/pickle/Documents/bch/akropolisOS/contracts/token/pTokens/DistributionToken.sol",
  "compiler": {
    "name": "solc",
    "version": "0.5.12+commit.7709ece9.Emscripten.clang"
  },
  "schemaVersion": "3.0.22",
  "updatedAt": "2020-02-18T07:17:19.385Z",
  "devdoc": {
    "methods": {
      "allowance(address,address)": {
        "details": "See {IERC20-allowance}."
      },
      "approve(address,uint256)": {
        "details": "See {IERC20-approve}.     * Requirements:     * - `spender` cannot be the zero address."
      },
      "balanceOf(address)": {
        "details": "See {IERC20-balanceOf}."
      },
      "decreaseAllowance(address,uint256)": {
        "details": "Atomically decreases the allowance granted to `spender` by the caller.     * This is an alternative to {approve} that can be used as a mitigation for problems described in {IERC20-approve}.     * Emits an {Approval} event indicating the updated allowance.     * Requirements:     * - `spender` cannot be the zero address. - `spender` must have allowance for the caller of at least `subtractedValue`."
      },
      "increaseAllowance(address,uint256)": {
        "details": "Atomically increases the allowance granted to `spender` by the caller.     * This is an alternative to {approve} that can be used as a mitigation for problems described in {IERC20-approve}.     * Emits an {Approval} event indicating the updated allowance.     * Requirements:     * - `spender` cannot be the zero address."
      },
      "mint(address,uint256)": {
        "details": "See {ERC20-_mint}.     * Requirements:     * - the caller must have the {MinterRole}."
      },
      "totalSupply()": {
        "details": "See {IERC20-totalSupply}."
      },
      "transfer(address,uint256)": {
        "details": "See {IERC20-transfer}.     * Requirements:     * - `recipient` cannot be the zero address. - the caller must have a balance of at least `amount`."
      },
      "transferFrom(address,address,uint256)": {
        "details": "See {IERC20-transferFrom}.     * Emits an {Approval} event indicating the updated allowance. This is not required by the EIP. See the note at the beginning of {ERC20};     * Requirements: - `sender` and `recipient` cannot be the zero address. - `sender` must have a balance of at least `amount`. - the caller must have allowance for `sender`'s tokens of at least `amount`."
      }
    }
  },
  "userdoc": {
    "methods": {
      "claimDistributions(address,uint256)": {
        "notice": "Claims distributions and allows to specify how many distributions to process. This allows limit gas usage. One can do this for others"
      },
      "fullBalanceOf(address)": {
        "notice": "Full balance of account includes: - balance of tokens account holds himself (0 for addresses of locking contracts) - balance of tokens locked in contracts - tokens not yet claimed from distributions"
      }
    }
  }
}