{
  "contractName": "FundsModule",
  "abi": [
    {
      "anonymous": false,
      "inputs": [
        {
          "indexed": true,
          "internalType": "address",
          "name": "account",
          "type": "address"
        }
      ],
      "name": "FundsOperatorAdded",
      "type": "event"
    },
    {
      "anonymous": false,
      "inputs": [
        {
          "indexed": true,
          "internalType": "address",
          "name": "account",
          "type": "address"
        }
      ],
      "name": "FundsOperatorRemoved",
      "type": "event"
    },
    {
      "anonymous": false,
      "inputs": [
        {
          "indexed": true,
          "internalType": "address",
          "name": "previousOwner",
          "type": "address"
        },
        {
          "indexed": true,
          "internalType": "address",
          "name": "newOwner",
          "type": "address"
        }
      ],
      "name": "OwnershipTransferred",
      "type": "event"
    },
    {
      "anonymous": false,
      "inputs": [
        {
          "indexed": false,
          "internalType": "uint256",
          "name": "lBalance",
          "type": "uint256"
        },
        {
          "indexed": false,
          "internalType": "uint256",
          "name": "lDebt",
          "type": "uint256"
        },
        {
          "indexed": false,
          "internalType": "uint256",
          "name": "pEnterPrice",
          "type": "uint256"
        },
        {
          "indexed": false,
          "internalType": "uint256",
          "name": "pExitPrice",
          "type": "uint256"
        }
      ],
      "name": "Status",
      "type": "event"
    },
    {
      "constant": true,
      "inputs": [],
      "name": "MODULE_CURVE",
      "outputs": [
        {
          "internalType": "string",
          "name": "",
          "type": "string"
        }
      ],
      "payable": false,
      "stateMutability": "view",
      "type": "function"
    },
    {
      "constant": true,
      "inputs": [],
      "name": "MODULE_FUNDS",
      "outputs": [
        {
          "internalType": "string",
          "name": "",
          "type": "string"
        }
      ],
      "payable": false,
      "stateMutability": "view",
      "type": "function"
    },
    {
      "constant": true,
      "inputs": [],
      "name": "MODULE_LIQUIDITY",
      "outputs": [
        {
          "internalType": "string",
          "name": "",
          "type": "string"
        }
      ],
      "payable": false,
      "stateMutability": "view",
      "type": "function"
    },
    {
      "constant": true,
      "inputs": [],
      "name": "MODULE_LOAN",
      "outputs": [
        {
          "internalType": "string",
          "name": "",
          "type": "string"
        }
      ],
      "payable": false,
      "stateMutability": "view",
      "type": "function"
    },
    {
      "constant": false,
      "inputs": [
        {
          "internalType": "address",
          "name": "account",
          "type": "address"
        }
      ],
      "name": "addFundsOperator",
      "outputs": [],
      "payable": false,
      "stateMutability": "nonpayable",
      "type": "function"
    },
    {
      "constant": true,
      "inputs": [
        {
          "internalType": "string",
          "name": "module",
          "type": "string"
        }
      ],
      "name": "getModuleAddress",
      "outputs": [
        {
          "internalType": "address",
          "name": "",
          "type": "address"
        }
      ],
      "payable": false,
      "stateMutability": "view",
      "type": "function"
    },
    {
      "constant": true,
      "inputs": [
        {
          "internalType": "address",
          "name": "account",
          "type": "address"
        }
      ],
      "name": "isFundsOperator",
      "outputs": [
        {
          "internalType": "bool",
          "name": "",
          "type": "bool"
        }
      ],
      "payable": false,
      "stateMutability": "view",
      "type": "function"
    },
    {
      "constant": true,
      "inputs": [],
      "name": "isOwner",
      "outputs": [
        {
          "internalType": "bool",
          "name": "",
          "type": "bool"
        }
      ],
      "payable": false,
      "stateMutability": "view",
      "type": "function"
    },
    {
      "constant": true,
      "inputs": [],
      "name": "lBalance",
      "outputs": [
        {
          "internalType": "uint256",
          "name": "",
          "type": "uint256"
        }
      ],
      "payable": false,
      "stateMutability": "view",
      "type": "function"
    },
    {
      "constant": true,
      "inputs": [],
      "name": "lToken",
      "outputs": [
        {
          "internalType": "contract IERC20",
          "name": "",
          "type": "address"
        }
      ],
      "payable": false,
      "stateMutability": "view",
      "type": "function"
    },
    {
      "constant": true,
      "inputs": [],
      "name": "owner",
      "outputs": [
        {
          "internalType": "address",
          "name": "",
          "type": "address"
        }
      ],
      "payable": false,
      "stateMutability": "view",
      "type": "function"
    },
    {
      "constant": true,
      "inputs": [],
      "name": "pToken",
      "outputs": [
        {
          "internalType": "contract PToken",
          "name": "",
          "type": "address"
        }
      ],
      "payable": false,
      "stateMutability": "view",
      "type": "function"
    },
    {
      "constant": true,
      "inputs": [],
      "name": "pool",
      "outputs": [
        {
          "internalType": "address",
          "name": "",
          "type": "address"
        }
      ],
      "payable": false,
      "stateMutability": "view",
      "type": "function"
    },
    {
      "constant": false,
      "inputs": [],
      "name": "renounceFundsOperator",
      "outputs": [],
      "payable": false,
      "stateMutability": "nonpayable",
      "type": "function"
    },
    {
      "constant": false,
      "inputs": [],
      "name": "renounceOwnership",
      "outputs": [],
      "payable": false,
      "stateMutability": "nonpayable",
      "type": "function"
    },
    {
      "constant": false,
      "inputs": [
        {
          "internalType": "address",
          "name": "_pool",
          "type": "address"
        }
      ],
      "name": "setPool",
      "outputs": [],
      "payable": false,
      "stateMutability": "nonpayable",
      "type": "function"
    },
    {
      "constant": false,
      "inputs": [
        {
          "internalType": "address",
          "name": "newOwner",
          "type": "address"
        }
      ],
      "name": "transferOwnership",
      "outputs": [],
      "payable": false,
      "stateMutability": "nonpayable",
      "type": "function"
    },
    {
      "constant": false,
      "inputs": [],
      "name": "initialize",
      "outputs": [],
      "payable": false,
      "stateMutability": "nonpayable",
      "type": "function"
    },
    {
      "constant": false,
      "inputs": [
        {
          "internalType": "address",
          "name": "sender",
          "type": "address"
        }
      ],
      "name": "initialize",
      "outputs": [],
      "payable": false,
      "stateMutability": "nonpayable",
      "type": "function"
    },
    {
      "constant": false,
      "inputs": [
        {
          "internalType": "address",
          "name": "_pool",
          "type": "address"
        },
        {
          "internalType": "contract IERC20",
          "name": "_lToken",
          "type": "address"
        },
        {
          "internalType": "contract PToken",
          "name": "_pToken",
          "type": "address"
        }
      ],
      "name": "initialize",
      "outputs": [],
      "payable": false,
      "stateMutability": "nonpayable",
      "type": "function"
    },
    {
      "constant": false,
      "inputs": [
        {
          "internalType": "address",
          "name": "from",
          "type": "address"
        },
        {
          "internalType": "uint256",
          "name": "amount",
          "type": "uint256"
        }
      ],
      "name": "depositLTokens",
      "outputs": [],
      "payable": false,
      "stateMutability": "nonpayable",
      "type": "function"
    },
    {
      "constant": false,
      "inputs": [
        {
          "internalType": "address",
          "name": "to",
          "type": "address"
        },
        {
          "internalType": "uint256",
          "name": "amount",
          "type": "uint256"
        }
      ],
      "name": "withdrawLTokens",
      "outputs": [],
      "payable": false,
      "stateMutability": "nonpayable",
      "type": "function"
    },
    {
      "constant": false,
      "inputs": [
        {
          "internalType": "address",
          "name": "to",
          "type": "address"
        },
        {
          "internalType": "uint256",
          "name": "amount",
          "type": "uint256"
        },
        {
          "internalType": "uint256",
          "name": "poolFee",
          "type": "uint256"
        }
      ],
      "name": "withdrawLTokens",
      "outputs": [],
      "payable": false,
      "stateMutability": "nonpayable",
      "type": "function"
    },
    {
      "constant": false,
      "inputs": [
        {
          "internalType": "address",
          "name": "from",
          "type": "address"
        },
        {
          "internalType": "uint256",
          "name": "amount",
          "type": "uint256"
        }
      ],
      "name": "depositPTokens",
      "outputs": [],
      "payable": false,
      "stateMutability": "nonpayable",
      "type": "function"
    },
    {
      "constant": false,
      "inputs": [
        {
          "internalType": "address",
          "name": "to",
          "type": "address"
        },
        {
          "internalType": "uint256",
          "name": "amount",
          "type": "uint256"
        }
      ],
      "name": "withdrawPTokens",
      "outputs": [],
      "payable": false,
      "stateMutability": "nonpayable",
      "type": "function"
    },
    {
      "constant": false,
      "inputs": [
        {
          "internalType": "address",
          "name": "to",
          "type": "address"
        },
        {
          "internalType": "uint256",
          "name": "amount",
          "type": "uint256"
        }
      ],
      "name": "mintPTokens",
      "outputs": [],
      "payable": false,
      "stateMutability": "nonpayable",
      "type": "function"
    },
    {
      "constant": false,
      "inputs": [
        {
          "internalType": "uint256",
          "name": "amount",
          "type": "uint256"
        }
      ],
      "name": "burnPTokens",
      "outputs": [],
      "payable": false,
      "stateMutability": "nonpayable",
      "type": "function"
    },
    {
      "constant": false,
      "inputs": [
        {
          "internalType": "address",
          "name": "from",
          "type": "address"
        },
        {
          "internalType": "uint256",
          "name": "amount",
          "type": "uint256"
        }
      ],
      "name": "burnPTokens",
      "outputs": [],
      "payable": false,
      "stateMutability": "nonpayable",
      "type": "function"
    },
    {
      "constant": false,
      "inputs": [
        {
          "internalType": "address",
          "name": "to",
          "type": "address"
        },
        {
          "internalType": "uint256",
          "name": "amount",
          "type": "uint256"
        }
      ],
      "name": "refundLTokens",
      "outputs": [],
      "payable": false,
      "stateMutability": "nonpayable",
      "type": "function"
    },
    {
      "constant": true,
      "inputs": [
        {
          "internalType": "uint256",
          "name": "lAmount",
          "type": "uint256"
        }
      ],
      "name": "calculatePoolEnter",
      "outputs": [
        {
          "internalType": "uint256",
          "name": "",
          "type": "uint256"
        }
      ],
      "payable": false,
      "stateMutability": "view",
      "type": "function"
    },
    {
      "constant": true,
      "inputs": [
        {
          "internalType": "uint256",
          "name": "lAmount",
          "type": "uint256"
        }
      ],
      "name": "calculatePoolExit",
      "outputs": [
        {
          "internalType": "uint256",
          "name": "",
          "type": "uint256"
        }
      ],
      "payable": false,
      "stateMutability": "view",
      "type": "function"
    },
    {
      "constant": true,
      "inputs": [
        {
          "internalType": "uint256",
          "name": "pAmount",
          "type": "uint256"
        }
      ],
      "name": "calculatePoolExitInverse",
      "outputs": [
        {
          "internalType": "uint256",
          "name": "",
          "type": "uint256"
        },
        {
          "internalType": "uint256",
          "name": "",
          "type": "uint256"
        },
        {
          "internalType": "uint256",
          "name": "",
          "type": "uint256"
        }
      ],
      "payable": false,
      "stateMutability": "view",
      "type": "function"
    }
  ],
  "bytecode": "0x60806040526122f7806100136000396000f3fe608060405234801561001057600080fd5b50600436106101f05760003560e01c80638230d02d1161010f578063c4d66de8116100a2578063e01740fb11610071578063e01740fb14610615578063f105d77c14610632578063f2fde38b14610658578063fa584ad01461067e576101f0565b8063c4d66de81461057a578063d684e0ad146105a0578063d8b0bf18146105cc578063de57ce91146105f8576101f0565b80638fa6c72e116100de5780638fa6c72e146104e85780639ae1b84d14610514578063b23a97d01461053a578063c0c53b8b14610542576101f0565b80638230d02d146104815780638da5cb5b146104895780638dc5f4b8146104915780638f32d59b146104cc576101f0565b806357b4a55d11610187578063715018a611610156578063715018a61461039f57806371dc760f146103a7578063735aea1e1461044d5780638129fc1c14610479576101f0565b806357b4a55d1461035b57806358a06f07146103635780636331d14d1461036b578063706463fa14610373576101f0565b80632b772904116101c35780632b772904146102cc57806333e6a5f2146102fb578063368981a61461032d5780634437152a14610335576101f0565b8063010ee184146101f5578063077aa705146102195780630a40b3571461029657806316f0115b146102c4575b600080fd5b6101fd6106aa565b604080516001600160a01b039092168252519081900360200190f35b6102216106b9565b6040805160208082528351818301528351919283929083019185019080838360005b8381101561025b578181015183820152602001610243565b50505050905090810190601f1680156102885780820380516001836020036101000a031916815260200191505b509250505060405180910390f35b6102c2600480360360408110156102ac57600080fd5b506001600160a01b0381351690602001356106da565b005b6101fd6107fc565b6102e9600480360360208110156102e257600080fd5b503561080b565b60408051918252519081900360200190f35b6102c26004803603606081101561031157600080fd5b506001600160a01b038135169060208101359060400135610894565b610221610ad2565b6102c26004803603602081101561034b57600080fd5b50356001600160a01b0316610af2565b6102c2610b6d565b6101fd610b7f565b6102e9610b8e565b6102c26004803603604081101561038957600080fd5b506001600160a01b038135169060200135610b94565b6102c2610cb3565b6101fd600480360360208110156103bd57600080fd5b8101906020810181356401000000008111156103d857600080fd5b8201836020820111156103ea57600080fd5b8035906020019184600183028401116401000000008311171561040c57600080fd5b91908080601f016020809104026020016040519081016040528093929190818152602001838380828437600092019190915250929550610d56945050505050565b6102c26004803603604081101561046357600080fd5b506001600160a01b038135169060200135610f61565b6102c2611144565b6102216111f6565b6101fd61121b565b6104ae600480360360208110156104a757600080fd5b503561122a565b60408051938452602084019290925282820152519081900360600190f35b6104d46112c8565b604080519115158252519081900360200190f35b6102c2600480360360408110156104fe57600080fd5b506001600160a01b0381351690602001356112ee565b6102c26004803603602081101561052a57600080fd5b50356001600160a01b031661142b565b61022161147a565b6102c26004803603606081101561055857600080fd5b506001600160a01b03813581169160208101358216916040909101351661149b565b6102c26004803603602081101561059057600080fd5b50356001600160a01b0316611589565b6102c2600480360360408110156105b657600080fd5b506001600160a01b038135169060200135611641565b6102c2600480360360408110156105e257600080fd5b506001600160a01b03813516906020013561175a565b6102c26004803603602081101561060e57600080fd5b5035611811565b6102e96004803603602081101561062b57600080fd5b50356118bf565b6104d46004803603602081101561064857600080fd5b50356001600160a01b03166119c0565b6102c26004803603602081101561066e57600080fd5b50356001600160a01b03166119d9565b6102c26004803603604081101561069457600080fd5b506001600160a01b038135169060200135611a3b565b6068546001600160a01b031681565b6040518060400160405280600581526020016466756e647360d81b81525081565b6106ea6106e5611a8d565b6119c0565b6107255760405162461bcd60e51b815260040180806020018281038252603e8152602001806121ca603e913960400191505060405180910390fd5b606954604080516340c10f1960e01b81526001600160a01b03858116600483015260248201859052915191909216916340c10f199160448083019260209291908290030181600087803b15801561077b57600080fd5b505af115801561078f573d6000803e3d6000fd5b505050506040513d60208110156107a557600080fd5b50516107f8576040805162461bcd60e51b815260206004820152601860248201527f46756e64734d6f64756c653a206d696e74206661696c65640000000000000000604482015290519081900360640190fd5b5050565b6066546001600160a01b031681565b6000610815611a91565b6001600160a01b03166345227516606a54846040518363ffffffff1660e01b8152600401808381526020018281526020019250505060206040518083038186803b15801561086257600080fd5b505afa158015610876573d6000803e3d6000fd5b505050506040513d602081101561088c57600080fd5b505192915050565b61089f6106e5611a8d565b6108da5760405162461bcd60e51b815260040180806020018281038252603e8152602001806121ca603e913960400191505060405180910390fd5b606a546108ed908363ffffffff611abe16565b606a556068546040805163a9059cbb60e01b81526001600160a01b038681166004830152602482018690529151919092169163a9059cbb9160448083019260209291908290030181600087803b15801561094657600080fd5b505af115801561095a573d6000803e3d6000fd5b505050506040513d602081101561097057600080fd5b50516109c3576040805162461bcd60e51b815260206004820152601c60248201527f46756e64734d6f64756c653a207769746864726177206661696c656400000000604482015290519081900360640190fd5b8015610ac557606a546109dc908263ffffffff611abe16565b606a556068546001600160a01b031663a9059cbb6109f861121b565b836040518363ffffffff1660e01b815260040180836001600160a01b03166001600160a01b0316815260200182815260200192505050602060405180830381600087803b158015610a4857600080fd5b505af1158015610a5c573d6000803e3d6000fd5b505050506040513d6020811015610a7257600080fd5b5051610ac5576040805162461bcd60e51b815260206004820181905260248201527f46756e64734d6f64756c653a20666565207472616e73666572206661696c6564604482015290519081900360640190fd5b610acd611b1b565b505050565b604051806040016040528060048152602001633637b0b760e11b81525081565b610afa6112c8565b610b4b576040805162461bcd60e51b815260206004820181905260248201527f4f776e61626c653a2063616c6c6572206973206e6f7420746865206f776e6572604482015290519081900360640190fd5b606680546001600160a01b0319166001600160a01b0392909216919091179055565b610b7d610b78611a8d565b611d06565b565b6069546001600160a01b031681565b606a5481565b610b9f6106e5611a8d565b610bda5760405162461bcd60e51b815260040180806020018281038252603e8152602001806121ca603e913960400191505060405180910390fd5b606954604080516323b872dd60e01b81526001600160a01b03858116600483015230602483015260448201859052915191909216916323b872dd9160648083019260209291908290030181600087803b158015610c3657600080fd5b505af1158015610c4a573d6000803e3d6000fd5b505050506040513d6020811015610c6057600080fd5b50516107f8576040805162461bcd60e51b815260206004820152601b60248201527f46756e64734d6f64756c653a206465706f736974206661696c65640000000000604482015290519081900360640190fd5b610cbb6112c8565b610d0c576040805162461bcd60e51b815260206004820181905260248201527f4f776e61626c653a2063616c6c6572206973206e6f7420746865206f776e6572604482015290519081900360640190fd5b6033546040516000916001600160a01b0316907f8be0079c531659141344cd1fd0a4f28419497f9722a3daafe3b4186f6b6457e0908390a3603380546001600160a01b0319169055565b6066546000906001600160a01b0316610da8576040805162461bcd60e51b815260206004820152600f60248201526e135bd91d5b194e881b9bc81c1bdbdb608a1b604482015290519081900360640190fd5b6066546040516020602482018181528551604484015285516000946060946001600160a01b03909116938893928392606401918501908083838b5b83811015610dfb578181015183820152602001610de3565b50505050905090810190601f168015610e285780820380516001836020036101000a031916815260200191505b5060408051601f198184030181529181526020820180516001600160e01b031663349f642f60e11b178152905182519295509350839250908083835b60208310610e835780518252601f199092019160209182019101610e64565b6001836020036101000a038019825116818451168082178552505050505050905001915050600060405180830381855afa9150503d8060008114610ee3576040519150601f19603f3d011682016040523d82523d6000602084013e610ee8565b606091505b509150915081610ef9578060208201fd5b6000818060200190516020811015610f1057600080fd5b505190506001600160a01b038116610f595760405162461bcd60e51b81526004018080602001828103825260228152602001806122a16022913960400191505060405180910390fd5b949350505050565b610f6c6106e5611a8d565b610fa75760405162461bcd60e51b815260040180806020018281038252603e8152602001806121ca603e913960400191505060405180910390fd5b606854604080516370a0823160e01b815230600482015290516000926001600160a01b0316916370a08231916024808301926020929190829003018186803b158015610ff257600080fd5b505afa158015611006573d6000803e3d6000fd5b505050506040513d602081101561101c57600080fd5b5051606a54909150611034828463ffffffff611abe16565b10156110715760405162461bcd60e51b81526004018080602001828103825260288152602001806122086028913960400191505060405180910390fd5b6068546040805163a9059cbb60e01b81526001600160a01b038681166004830152602482018690529151919092169163a9059cbb9160448083019260209291908290030181600087803b1580156110c757600080fd5b505af11580156110db573d6000803e3d6000fd5b505050506040513d60208110156110f157600080fd5b5051610acd576040805162461bcd60e51b815260206004820152601a60248201527f46756e64734d6f64756c653a20726566756e64206661696c6564000000000000604482015290519081900360640190fd5b600054610100900460ff168061115d575061115d611d4e565b8061116b575060005460ff16155b6111a65760405162461bcd60e51b815260040180806020018281038252602e815260200180612273602e913960400191505060405180910390fd5b600054610100900460ff161580156111d1576000805460ff1961ff0019909116610100171660011790555b6111e16111dc611a8d565b611d54565b80156111f3576000805461ff00191690555b50565b604051806040016040528060098152602001686c697175696469747960b81b81525081565b6033546001600160a01b031690565b6000806000611237611a91565b6001600160a01b031663a813d3a7606a54866040518363ffffffff1660e01b8152600401808381526020018281526020019250505060606040518083038186803b15801561128457600080fd5b505afa158015611298573d6000803e3d6000fd5b505050506040513d60608110156112ae57600080fd5b508051602082015160409092015190969195509350915050565b6033546000906001600160a01b03166112df611a8d565b6001600160a01b031614905090565b6112f96106e5611a8d565b6113345760405162461bcd60e51b815260040180806020018281038252603e8152602001806121ca603e913960400191505060405180910390fd5b606a54611347908263ffffffff611e4516565b606a55606854604080516323b872dd60e01b81526001600160a01b03858116600483015230602483015260448201859052915191909216916323b872dd9160648083019260209291908290030181600087803b1580156113a657600080fd5b505af11580156113ba573d6000803e3d6000fd5b505050506040513d60208110156113d057600080fd5b5051611423576040805162461bcd60e51b815260206004820152601b60248201527f46756e64734d6f64756c653a206465706f736974206661696c65640000000000604482015290519081900360640190fd5b6107f8611b1b565b6114366106e5611a8d565b6114715760405162461bcd60e51b815260040180806020018281038252603e8152602001806121ca603e913960400191505060405180910390fd5b6111f381611ea6565b60405180604001604052806005815260200164637572766560d81b81525081565b600054610100900460ff16806114b457506114b4611d4e565b806114c2575060005460ff16155b6114fd5760405162461bcd60e51b815260040180806020018281038252602e815260200180612273602e913960400191505060405180910390fd5b600054610100900460ff16158015611528576000805460ff1961ff0019909116610100171660011790555b61153184611eee565b61154161153c611a8d565b611589565b606880546001600160a01b038086166001600160a01b03199283161790925560698054928516929091169190911790558015611583576000805461ff00191690555b50505050565b600054610100900460ff16806115a257506115a2611d4e565b806115b0575060005460ff16155b6115eb5760405162461bcd60e51b815260040180806020018281038252602e815260200180612273602e913960400191505060405180910390fd5b600054610100900460ff16158015611616576000805460ff1961ff0019909116610100171660011790555b61161f826119c0565b61162c5761162c82611ea6565b80156107f8576000805461ff00191690555050565b61164c6106e5611a8d565b6116875760405162461bcd60e51b815260040180806020018281038252603e8152602001806121ca603e913960400191505060405180910390fd5b6069546040805163a9059cbb60e01b81526001600160a01b038581166004830152602482018590529151919092169163a9059cbb9160448083019260209291908290030181600087803b1580156116dd57600080fd5b505af11580156116f1573d6000803e3d6000fd5b505050506040513d602081101561170757600080fd5b50516107f8576040805162461bcd60e51b815260206004820152601c60248201527f46756e64734d6f64756c653a207769746864726177206661696c656400000000604482015290519081900360640190fd5b6117656106e5611a8d565b6117a05760405162461bcd60e51b815260040180806020018281038252603e8152602001806121ca603e913960400191505060405180910390fd5b6069546040805163079cc67960e41b81526001600160a01b03858116600483015260248201859052915191909216916379cc679091604480830192600092919082900301818387803b1580156117f557600080fd5b505af1158015611809573d6000803e3d6000fd5b505050505050565b61181c6106e5611a8d565b6118575760405162461bcd60e51b815260040180806020018281038252603e8152602001806121ca603e913960400191505060405180910390fd5b60695460408051630852cd8d60e31b81526004810184905290516001600160a01b03909216916342966c689160248082019260009290919082900301818387803b1580156118a457600080fd5b505af11580156118b8573d6000803e3d6000fd5b5050505050565b6000806118ca611f8c565b6001600160a01b031663813474976040518163ffffffff1660e01b815260040160206040518083038186803b15801561190257600080fd5b505afa158015611916573d6000803e3d6000fd5b505050506040513d602081101561192c57600080fd5b50519050611938611a91565b6001600160a01b031663fa9c5d1b606a5483866040518463ffffffff1660e01b815260040180848152602001838152602001828152602001935050505060206040518083038186803b15801561198d57600080fd5b505afa1580156119a1573d6000803e3d6000fd5b505050506040513d60208110156119b757600080fd5b50519392505050565b60006119d360678363ffffffff611fb316565b92915050565b6119e16112c8565b611a32576040805162461bcd60e51b815260206004820181905260248201527f4f776e61626c653a2063616c6c6572206973206e6f7420746865206f776e6572604482015290519081900360640190fd5b6111f38161201a565b611a466106e5611a8d565b611a815760405162461bcd60e51b815260040180806020018281038252603e8152602001806121ca603e913960400191505060405180910390fd5b6107f882826000610894565b3390565b6000611ab960405180604001604052806005815260200164637572766560d81b815250610d56565b905090565b600082821115611b15576040805162461bcd60e51b815260206004820152601e60248201527f536166654d6174683a207375627472616374696f6e206f766572666c6f770000604482015290519081900360640190fd5b50900390565b6000611b25611f8c565b6001600160a01b031663813474976040518163ffffffff1660e01b815260040160206040518083038186803b158015611b5d57600080fd5b505afa158015611b71573d6000803e3d6000fd5b505050506040513d6020811015611b8757600080fd5b505190506000611b95611a91565b6001600160a01b031663fa9c5d1b606a5484670de0b6b3a76400006040518463ffffffff1660e01b815260040180848152602001838152602001828152602001935050505060206040518083038186803b158015611bf257600080fd5b505afa158015611c06573d6000803e3d6000fd5b505050506040513d6020811015611c1c57600080fd5b5051606a5490915060009015611cb857611c34611a91565b6001600160a01b03166345227516606a54670de0b6b3a76400006040518363ffffffff1660e01b8152600401808381526020018281526020019250505060206040518083038186803b158015611c8957600080fd5b505afa158015611c9d573d6000803e3d6000fd5b505050506040513d6020811015611cb357600080fd5b505190505b606a54604080519182526020820185905281810184905260608201839052517f08884dacdf49a21603425ac896ee5a250840693881137a88a893e0dd31116a879181900360800190a1505050565b611d1760678263ffffffff6120bb16565b6040516001600160a01b038216907fa8a03a268b980a88fc775ab98b322f8db8a2a3648a7331f7b1abd5372eed9e4e90600090a250565b303b1590565b600054610100900460ff1680611d6d5750611d6d611d4e565b80611d7b575060005460ff16155b611db65760405162461bcd60e51b815260040180806020018281038252602e815260200180612273602e913960400191505060405180910390fd5b600054610100900460ff16158015611de1576000805460ff1961ff0019909116610100171660011790555b603380546001600160a01b0319166001600160a01b0384811691909117918290556040519116906000907f8be0079c531659141344cd1fd0a4f28419497f9722a3daafe3b4186f6b6457e0908290a380156107f8576000805461ff00191690555050565b600082820183811015611e9f576040805162461bcd60e51b815260206004820152601b60248201527f536166654d6174683a206164646974696f6e206f766572666c6f770000000000604482015290519081900360640190fd5b9392505050565b611eb760678263ffffffff61212216565b6040516001600160a01b038216907fdf877c05f98e781af102fa8821b4aac8a6a56f119577f08b15bbe515f26e167c90600090a250565b600054610100900460ff1680611f075750611f07611d4e565b80611f15575060005460ff16155b611f505760405162461bcd60e51b815260040180806020018281038252602e815260200180612273602e913960400191505060405180910390fd5b600054610100900460ff16158015611f7b576000805460ff1961ff0019909116610100171660011790555b611f83611144565b61162c82610af2565b6000611ab9604051806040016040528060048152602001633637b0b760e11b815250610d56565b60006001600160a01b038216611ffa5760405162461bcd60e51b81526004018080602001828103825260228152602001806122516022913960400191505060405180910390fd5b506001600160a01b03166000908152602091909152604090205460ff1690565b6001600160a01b03811661205f5760405162461bcd60e51b81526004018080602001828103825260268152602001806121a46026913960400191505060405180910390fd5b6033546040516001600160a01b038084169216907f8be0079c531659141344cd1fd0a4f28419497f9722a3daafe3b4186f6b6457e090600090a3603380546001600160a01b0319166001600160a01b0392909216919091179055565b6120c58282611fb3565b6121005760405162461bcd60e51b81526004018080602001828103825260218152602001806122306021913960400191505060405180910390fd5b6001600160a01b0316600090815260209190915260409020805460ff19169055565b61212c8282611fb3565b1561217e576040805162461bcd60e51b815260206004820152601f60248201527f526f6c65733a206163636f756e7420616c72656164792068617320726f6c6500604482015290519081900360640190fd5b6001600160a01b0316600090815260209190915260409020805460ff1916600117905556fe4f776e61626c653a206e6577206f776e657220697320746865207a65726f206164647265737346756e64734f70657261746f72526f6c653a2063616c6c657220646f6573206e6f742068617665207468652046756e64734f70657261746f7220726f6c6546756e64734d6f64756c653a206e6f7420656e6f75676820746f6b656e7320746f20726566756e64526f6c65733a206163636f756e7420646f6573206e6f74206861766520726f6c65526f6c65733a206163636f756e7420697320746865207a65726f2061646472657373436f6e747261637420696e7374616e63652068617320616c7265616479206265656e20696e697469616c697a65644d6f64756c653a20726571756573746564206d6f64756c65206e6f7420666f756e64a265627a7a72315820d3b79d690b879a8e5f3689489ee87faa6a0e07dfbf2fbfd61d9a28f25696b3b164736f6c634300050c0032",
  "source": "pragma solidity ^0.5.12;\n\nimport \"@openzeppelin/contracts-ethereum-package/contracts/token/ERC20/IERC20.sol\";\nimport \"@openzeppelin/contracts-ethereum-package/contracts/math/SafeMath.sol\";\nimport \"../../interfaces/curve/ICurveModule.sol\";\nimport \"../../interfaces/curve/IFundsModule.sol\";\nimport \"../../interfaces/curve/ILoanModule.sol\";\nimport \"../../token/pTokens/PToken.sol\";\nimport \"../../common/Module.sol\";\nimport \"./FundsOperatorRole.sol\";\n\ncontract FundsModule is Module, IFundsModule, FundsOperatorRole {\n    using SafeMath for uint256;\n    uint256 private constant STATUS_PRICE_AMOUNT = 10**18;  // Used to calculate price for Status event, should represent 1 DAI\n\n    IERC20 public lToken;       //Address of liquid token\n    PToken public pToken;       //Address of PToken\n    uint256 public lBalance;    //Tracked balance of liquid token, may be less or equal to lToken.balanceOf(address(this))\n\n    function initialize(address _pool, IERC20 _lToken, PToken _pToken) public initializer {\n        Module.initialize(_pool);\n        FundsOperatorRole.initialize(_msgSender());\n        lToken = _lToken;\n        pToken = _pToken;\n        //lBalance = lToken.balanceOf(address(this)); //We do not initialize lBalance to preserve it's previous value when updgrade\n    }\n\n    /**\n     * @notice Deposit liquid tokens to the pool\n     * @param from Address of the user, who sends tokens. Should have enough allowance.\n     * @param amount Amount of tokens to deposit\n     */\n    function depositLTokens(address from, uint256 amount) public onlyFundsOperator {\n        lBalance = lBalance.add(amount);\n        require(lToken.transferFrom(from, address(this), amount), \"FundsModule: deposit failed\");\n        emitStatus();\n    }\n\n    /**\n     * @notice Withdraw liquid tokens from the pool\n     * @param to Address of the user, who sends tokens. Should have enough allowance.\n     * @param amount Amount of tokens to deposit\n     */\n    function withdrawLTokens(address to, uint256 amount) public onlyFundsOperator {\n        withdrawLTokens(to, amount, 0);\n    }\n\n    /**\n     * @notice Withdraw liquid tokens from the pool\n     * @param to Address of the user, who sends tokens. Should have enough allowance.\n     * @param amount Amount of tokens to deposit\n     * @param poolFee Pool fee will be sent to pool owner\n     */\n    function withdrawLTokens(address to, uint256 amount, uint256 poolFee) public onlyFundsOperator {\n        lBalance = lBalance.sub(amount);\n        require(lToken.transfer(to, amount), \"FundsModule: withdraw failed\");\n        if (poolFee > 0) {\n            lBalance = lBalance.sub(poolFee);\n            require(lToken.transfer(owner(), poolFee), \"FundsModule: fee transfer failed\");\n        }\n        emitStatus();\n    }\n\n    /**\n     * @notice Deposit pool tokens to the pool\n     * @param from Address of the user, who sends tokens. Should have enough allowance.\n     * @param amount Amount of tokens to deposit\n     */\n    function depositPTokens(address from, uint256 amount) public onlyFundsOperator {\n        require(pToken.transferFrom(from, address(this), amount), \"FundsModule: deposit failed\");\n    }\n\n    /**\n     * @notice Withdraw pool tokens from the pool\n     * @param to Address of the user, who receivs tokens.\n     * @param amount Amount of tokens to deposit\n     */\n    function withdrawPTokens(address to, uint256 amount) public onlyFundsOperator {\n        require(pToken.transfer(to, amount), \"FundsModule: withdraw failed\");\n    }\n\n    /**\n     * @notice Mint new PTokens\n     * @param to Address of the user, who sends tokens.\n     * @param amount Amount of tokens to mint\n     */\n    function mintPTokens(address to, uint256 amount) public onlyFundsOperator {\n        require(pToken.mint(to, amount), \"FundsModule: mint failed\");\n    }\n\n    /**\n     * @notice Burn locked pool tokens\n     * @param amount Amount of tokens to burn\n     */\n    function burnPTokens(uint256 amount) public onlyFundsOperator {\n        pToken.burn(amount); //This call will revert if we have not enough pTokens\n    }\n\n    /**\n     * @notice Burn pool tokens\n     * @param from Address of the user, whos tokens we burning. Should have enough allowance.\n     * @param amount Amount of tokens to burn\n     */\n    function burnPTokens(address from, uint256 amount) public onlyFundsOperator {\n        pToken.burnFrom(from, amount); //This call will revert if we have not enough allowance or sender has not enough pTokens\n    }\n\n    /**\n     * @notice Refund liquid tokens accidentially sent directly to this contract\n     * @param to Address of the user, who receives refund\n     * @param amount Amount of tokens to send\n     */\n    function refundLTokens(address to, uint256 amount) public onlyFundsOperator {\n        uint256 realLBalance = lToken.balanceOf(address(this));\n        require(realLBalance.sub(amount) >= lBalance, \"FundsModule: not enough tokens to refund\");\n        require(lToken.transfer(to, amount), \"FundsModule: refund failed\");\n    }\n\n    /**\n     * @notice Calculates how many pTokens should be given to user for increasing liquidity\n     * @param lAmount Amount of liquid tokens which will be put into the pool\n     * @return Amount of pToken which should be sent to sender\n     */\n    function calculatePoolEnter(uint256 lAmount) public view returns(uint256) {\n        uint256 lDebts = loanModule().totalLDebts();\n        return curveModule().calculateEnter(lBalance, lDebts, lAmount);\n    }\n\n    /**\n     * @notice Calculates how many pTokens should be taken from user for decreasing liquidity\n     * @param lAmount Amount of liquid tokens which will be removed from the pool\n     * @return Amount of pToken which should be taken from sender\n     */\n    function calculatePoolExit(uint256 lAmount) public view returns(uint256) {\n        return curveModule().calculateExit(lBalance, lAmount);\n    }\n\n    /**\n     * @notice Calculates how many liquid tokens should be removed from pool when decreasing liquidity\n     * @param pAmount Amount of pToken which should be taken from sender\n     * @return Amount of liquid tokens which will be removed from the pool: total, part for sender, part for pool\n     */\n    function calculatePoolExitInverse(uint256 pAmount) public view returns(uint256, uint256, uint256) {\n        return curveModule().calculateExitInverse(lBalance, pAmount);\n    }\n\n    function emitStatus() private {\n        uint256 lDebts = loanModule().totalLDebts();\n        uint256 pEnterPrice = curveModule().calculateEnter(lBalance, lDebts, STATUS_PRICE_AMOUNT);\n        uint256 pExitPrice; // = 0; //0 is default value\n        if (lBalance > 0) {\n            pExitPrice = curveModule().calculateExit(lBalance, STATUS_PRICE_AMOUNT);\n        }\n        emit Status(lBalance, lDebts, pEnterPrice, pExitPrice);\n    }\n\n    function curveModule() private view returns(ICurveModule) {\n        return ICurveModule(getModuleAddress(MODULE_CURVE));\n    }\n    \n    function loanModule() private view returns(ILoanModule) {\n        return ILoanModule(getModuleAddress(MODULE_LOAN));\n    }\n\n}",
  "sourcePath": "/home/aleksrow/Documents/bch/akropolisOS/contracts/modules/funds/FundsModule.sol",
  "compiler": {
    "name": "solc",
    "version": "0.5.12+commit.7709ece9.Emscripten.clang"
  },
  "schemaVersion": "3.0.16",
  "updatedAt": "2020-01-23T21:14:14.472Z",
  "devdoc": {
    "methods": {
      "burnPTokens(address,uint256)": {
        "params": {
          "amount": "Amount of tokens to burn",
          "from": "Address of the user, whos tokens we burning. Should have enough allowance."
        }
      },
      "burnPTokens(uint256)": {
        "params": {
          "amount": "Amount of tokens to burn"
        }
      },
      "calculatePoolEnter(uint256)": {
        "params": {
          "lAmount": "Amount of liquid tokens which will be put into the pool"
        },
        "return": "Amount of pToken which should be sent to sender"
      },
      "calculatePoolExit(uint256)": {
        "params": {
          "lAmount": "Amount of liquid tokens which will be removed from the pool"
        },
        "return": "Amount of pToken which should be taken from sender"
      },
      "calculatePoolExitInverse(uint256)": {
        "params": {
          "pAmount": "Amount of pToken which should be taken from sender"
        },
        "return": "Amount of liquid tokens which will be removed from the pool: total, part for sender, part for pool"
      },
      "depositLTokens(address,uint256)": {
        "params": {
          "amount": "Amount of tokens to deposit",
          "from": "Address of the user, who sends tokens. Should have enough allowance."
        }
      },
      "depositPTokens(address,uint256)": {
        "params": {
          "amount": "Amount of tokens to deposit",
          "from": "Address of the user, who sends tokens. Should have enough allowance."
        }
      },
      "isOwner()": {
        "details": "Returns true if the caller is the current owner."
      },
      "mintPTokens(address,uint256)": {
        "params": {
          "amount": "Amount of tokens to mint",
          "to": "Address of the user, who sends tokens."
        }
      },
      "owner()": {
        "details": "Returns the address of the current owner."
      },
      "refundLTokens(address,uint256)": {
        "params": {
          "amount": "Amount of tokens to send",
          "to": "Address of the user, who receives refund"
        }
      },
      "renounceOwnership()": {
        "details": "Leaves the contract without owner. It will not be possible to call `onlyOwner` functions anymore. Can only be called by the current owner.     * > Note: Renouncing ownership will leave the contract without an owner, thereby removing any functionality that is only available to the owner."
      },
      "transferOwnership(address)": {
        "details": "Transfers ownership of the contract to a new account (`newOwner`). Can only be called by the current owner."
      },
      "withdrawLTokens(address,uint256)": {
        "params": {
          "amount": "Amount of tokens to deposit",
          "to": "Address of the user, who sends tokens. Should have enough allowance."
        }
      },
      "withdrawLTokens(address,uint256,uint256)": {
        "params": {
          "amount": "Amount of tokens to deposit",
          "poolFee": "Pool fee will be sent to pool owner",
          "to": "Address of the user, who sends tokens. Should have enough allowance."
        }
      },
      "withdrawPTokens(address,uint256)": {
        "params": {
          "amount": "Amount of tokens to deposit",
          "to": "Address of the user, who receivs tokens."
        }
      }
    }
  },
  "userdoc": {
    "methods": {
      "burnPTokens(address,uint256)": {
        "notice": "Burn pool tokens"
      },
      "burnPTokens(uint256)": {
        "notice": "Burn locked pool tokens"
      },
      "calculatePoolEnter(uint256)": {
        "notice": "Calculates how many pTokens should be given to user for increasing liquidity"
      },
      "calculatePoolExit(uint256)": {
        "notice": "Calculates how many pTokens should be taken from user for decreasing liquidity"
      },
      "calculatePoolExitInverse(uint256)": {
        "notice": "Calculates how many liquid tokens should be removed from pool when decreasing liquidity"
      },
      "depositLTokens(address,uint256)": {
        "notice": "Deposit liquid tokens to the pool"
      },
      "depositPTokens(address,uint256)": {
        "notice": "Deposit pool tokens to the pool"
      },
      "mintPTokens(address,uint256)": {
        "notice": "Mint new PTokens"
      },
      "refundLTokens(address,uint256)": {
        "notice": "Refund liquid tokens accidentially sent directly to this contract"
      },
      "withdrawLTokens(address,uint256)": {
        "notice": "Withdraw liquid tokens from the pool"
      },
      "withdrawLTokens(address,uint256,uint256)": {
        "notice": "Withdraw liquid tokens from the pool"
      },
      "withdrawPTokens(address,uint256)": {
        "notice": "Withdraw pool tokens from the pool"
      }
    }
  }
}