{
  "contractName": "FundsModule",
  "abi": [
    {
      "anonymous": false,
      "inputs": [
        {
          "indexed": true,
          "internalType": "address",
          "name": "account",
          "type": "address"
        }
      ],
      "name": "FundsOperatorAdded",
      "type": "event"
    },
    {
      "anonymous": false,
      "inputs": [
        {
          "indexed": true,
          "internalType": "address",
          "name": "account",
          "type": "address"
        }
      ],
      "name": "FundsOperatorRemoved",
      "type": "event"
    },
    {
      "anonymous": false,
      "inputs": [
        {
          "indexed": true,
          "internalType": "address",
          "name": "previousOwner",
          "type": "address"
        },
        {
          "indexed": true,
          "internalType": "address",
          "name": "newOwner",
          "type": "address"
        }
      ],
      "name": "OwnershipTransferred",
      "type": "event"
    },
    {
      "anonymous": false,
      "inputs": [
        {
          "indexed": false,
          "internalType": "uint256",
          "name": "lBalance",
          "type": "uint256"
        },
        {
          "indexed": false,
          "internalType": "uint256",
          "name": "lDebt",
          "type": "uint256"
        },
        {
          "indexed": false,
          "internalType": "uint256",
          "name": "pEnterPrice",
          "type": "uint256"
        },
        {
          "indexed": false,
          "internalType": "uint256",
          "name": "pExitPrice",
          "type": "uint256"
        }
      ],
      "name": "Status",
      "type": "event"
    },
    {
      "constant": true,
      "inputs": [],
      "name": "MODULE_CURVE",
      "outputs": [
        {
          "internalType": "string",
          "name": "",
          "type": "string"
        }
      ],
      "payable": false,
      "stateMutability": "view",
      "type": "function"
    },
    {
      "constant": true,
      "inputs": [],
      "name": "MODULE_FUNDS",
      "outputs": [
        {
          "internalType": "string",
          "name": "",
          "type": "string"
        }
      ],
      "payable": false,
      "stateMutability": "view",
      "type": "function"
    },
    {
      "constant": true,
      "inputs": [],
      "name": "MODULE_LIQUIDITY",
      "outputs": [
        {
          "internalType": "string",
          "name": "",
          "type": "string"
        }
      ],
      "payable": false,
      "stateMutability": "view",
      "type": "function"
    },
    {
      "constant": true,
      "inputs": [],
      "name": "MODULE_LOAN",
      "outputs": [
        {
          "internalType": "string",
          "name": "",
          "type": "string"
        }
      ],
      "payable": false,
      "stateMutability": "view",
      "type": "function"
    },
    {
      "constant": false,
      "inputs": [
        {
          "internalType": "address",
          "name": "account",
          "type": "address"
        }
      ],
      "name": "addFundsOperator",
      "outputs": [],
      "payable": false,
      "stateMutability": "nonpayable",
      "type": "function"
    },
    {
      "constant": true,
      "inputs": [
        {
          "internalType": "string",
          "name": "module",
          "type": "string"
        }
      ],
      "name": "getModuleAddress",
      "outputs": [
        {
          "internalType": "address",
          "name": "",
          "type": "address"
        }
      ],
      "payable": false,
      "stateMutability": "view",
      "type": "function"
    },
    {
      "constant": true,
      "inputs": [
        {
          "internalType": "address",
          "name": "account",
          "type": "address"
        }
      ],
      "name": "isFundsOperator",
      "outputs": [
        {
          "internalType": "bool",
          "name": "",
          "type": "bool"
        }
      ],
      "payable": false,
      "stateMutability": "view",
      "type": "function"
    },
    {
      "constant": true,
      "inputs": [],
      "name": "isOwner",
      "outputs": [
        {
          "internalType": "bool",
          "name": "",
          "type": "bool"
        }
      ],
      "payable": false,
      "stateMutability": "view",
      "type": "function"
    },
    {
      "constant": true,
      "inputs": [],
      "name": "lToken",
      "outputs": [
        {
          "internalType": "contract IERC20",
          "name": "",
          "type": "address"
        }
      ],
      "payable": false,
      "stateMutability": "view",
      "type": "function"
    },
    {
      "constant": true,
      "inputs": [],
      "name": "owner",
      "outputs": [
        {
          "internalType": "address",
          "name": "",
          "type": "address"
        }
      ],
      "payable": false,
      "stateMutability": "view",
      "type": "function"
    },
    {
      "constant": true,
      "inputs": [],
      "name": "pToken",
      "outputs": [
        {
          "internalType": "contract PToken",
          "name": "",
          "type": "address"
        }
      ],
      "payable": false,
      "stateMutability": "view",
      "type": "function"
    },
    {
      "constant": true,
      "inputs": [],
      "name": "pool",
      "outputs": [
        {
          "internalType": "address",
          "name": "",
          "type": "address"
        }
      ],
      "payable": false,
      "stateMutability": "view",
      "type": "function"
    },
    {
      "constant": false,
      "inputs": [],
      "name": "renounceFundsOperator",
      "outputs": [],
      "payable": false,
      "stateMutability": "nonpayable",
      "type": "function"
    },
    {
      "constant": false,
      "inputs": [],
      "name": "renounceOwnership",
      "outputs": [],
      "payable": false,
      "stateMutability": "nonpayable",
      "type": "function"
    },
    {
      "constant": false,
      "inputs": [
        {
          "internalType": "address",
          "name": "_pool",
          "type": "address"
        }
      ],
      "name": "setPool",
      "outputs": [],
      "payable": false,
      "stateMutability": "nonpayable",
      "type": "function"
    },
    {
      "constant": false,
      "inputs": [
        {
          "internalType": "address",
          "name": "newOwner",
          "type": "address"
        }
      ],
      "name": "transferOwnership",
      "outputs": [],
      "payable": false,
      "stateMutability": "nonpayable",
      "type": "function"
    },
    {
      "constant": false,
      "inputs": [],
      "name": "initialize",
      "outputs": [],
      "payable": false,
      "stateMutability": "nonpayable",
      "type": "function"
    },
    {
      "constant": false,
      "inputs": [
        {
          "internalType": "address",
          "name": "sender",
          "type": "address"
        }
      ],
      "name": "initialize",
      "outputs": [],
      "payable": false,
      "stateMutability": "nonpayable",
      "type": "function"
    },
    {
      "constant": false,
      "inputs": [
        {
          "internalType": "address",
          "name": "_pool",
          "type": "address"
        },
        {
          "internalType": "contract IERC20",
          "name": "_lToken",
          "type": "address"
        },
        {
          "internalType": "contract PToken",
          "name": "_pToken",
          "type": "address"
        }
      ],
      "name": "initialize",
      "outputs": [],
      "payable": false,
      "stateMutability": "nonpayable",
      "type": "function"
    },
    {
      "constant": false,
      "inputs": [
        {
          "internalType": "address",
          "name": "from",
          "type": "address"
        },
        {
          "internalType": "uint256",
          "name": "amount",
          "type": "uint256"
        }
      ],
      "name": "depositLTokens",
      "outputs": [],
      "payable": false,
      "stateMutability": "nonpayable",
      "type": "function"
    },
    {
      "constant": false,
      "inputs": [
        {
          "internalType": "address",
          "name": "to",
          "type": "address"
        },
        {
          "internalType": "uint256",
          "name": "amount",
          "type": "uint256"
        }
      ],
      "name": "withdrawLTokens",
      "outputs": [],
      "payable": false,
      "stateMutability": "nonpayable",
      "type": "function"
    },
    {
      "constant": false,
      "inputs": [
        {
          "internalType": "address",
          "name": "to",
          "type": "address"
        },
        {
          "internalType": "uint256",
          "name": "amount",
          "type": "uint256"
        },
        {
          "internalType": "uint256",
          "name": "poolFee",
          "type": "uint256"
        }
      ],
      "name": "withdrawLTokens",
      "outputs": [],
      "payable": false,
      "stateMutability": "nonpayable",
      "type": "function"
    },
    {
      "constant": false,
      "inputs": [
        {
          "internalType": "address",
          "name": "from",
          "type": "address"
        },
        {
          "internalType": "uint256",
          "name": "amount",
          "type": "uint256"
        }
      ],
      "name": "depositPTokens",
      "outputs": [],
      "payable": false,
      "stateMutability": "nonpayable",
      "type": "function"
    },
    {
      "constant": false,
      "inputs": [
        {
          "internalType": "address",
          "name": "to",
          "type": "address"
        },
        {
          "internalType": "uint256",
          "name": "amount",
          "type": "uint256"
        }
      ],
      "name": "withdrawPTokens",
      "outputs": [],
      "payable": false,
      "stateMutability": "nonpayable",
      "type": "function"
    },
    {
      "constant": false,
      "inputs": [
        {
          "internalType": "address",
          "name": "to",
          "type": "address"
        },
        {
          "internalType": "uint256",
          "name": "amount",
          "type": "uint256"
        }
      ],
      "name": "mintPTokens",
      "outputs": [],
      "payable": false,
      "stateMutability": "nonpayable",
      "type": "function"
    },
    {
      "constant": false,
      "inputs": [
        {
          "internalType": "address",
          "name": "from",
          "type": "address"
        },
        {
          "internalType": "uint256",
          "name": "amount",
          "type": "uint256"
        }
      ],
      "name": "burnPTokens",
      "outputs": [],
      "payable": false,
      "stateMutability": "nonpayable",
      "type": "function"
    },
    {
      "constant": true,
      "inputs": [
        {
          "internalType": "uint256",
          "name": "lAmount",
          "type": "uint256"
        }
      ],
      "name": "calculatePoolEnter",
      "outputs": [
        {
          "internalType": "uint256",
          "name": "",
          "type": "uint256"
        }
      ],
      "payable": false,
      "stateMutability": "view",
      "type": "function"
    },
    {
      "constant": true,
      "inputs": [
        {
          "internalType": "uint256",
          "name": "lAmount",
          "type": "uint256"
        }
      ],
      "name": "calculatePoolExit",
      "outputs": [
        {
          "internalType": "uint256",
          "name": "",
          "type": "uint256"
        }
      ],
      "payable": false,
      "stateMutability": "view",
      "type": "function"
    },
    {
      "constant": true,
      "inputs": [
        {
          "internalType": "uint256",
          "name": "pAmount",
          "type": "uint256"
        }
      ],
      "name": "calculatePoolExitInverse",
      "outputs": [
        {
          "internalType": "uint256",
          "name": "",
          "type": "uint256"
        },
        {
          "internalType": "uint256",
          "name": "",
          "type": "uint256"
        },
        {
          "internalType": "uint256",
          "name": "",
          "type": "uint256"
        }
      ],
      "payable": false,
      "stateMutability": "view",
      "type": "function"
    }
  ],
  "bytecode": "0x60806040526120a1806100136000396000f3fe608060405234801561001057600080fd5b50600436106101cf5760003560e01c80638230d02d11610104578063c0c53b8b116100a2578063e01740fb11610071578063e01740fb146105a3578063f105d77c146105c0578063f2fde38b146105e6578063fa584ad01461060c576101cf565b8063c0c53b8b146104ed578063c4d66de814610525578063d684e0ad1461054b578063d8b0bf1814610577576101cf565b80638f32d59b116100de5780638f32d59b146104775780638fa6c72e146104935780639ae1b84d146104bf578063b23a97d0146104e5576101cf565b80638230d02d1461042c5780638da5cb5b146104345780638dc5f4b81461043c576101cf565b80634437152a11610171578063706463fa1161014b578063706463fa1461034a578063715018a61461037657806371dc760f1461037e5780638129fc1c14610424576101cf565b80634437152a1461031457806357b4a55d1461033a57806358a06f0714610342576101cf565b806316f0115b116101ad57806316f0115b146102a35780632b772904146102ab57806333e6a5f2146102da578063368981a61461030c576101cf565b8063010ee184146101d4578063077aa705146101f85780630a40b35714610275575b600080fd5b6101dc610638565b604080516001600160a01b039092168252519081900360200190f35b610200610647565b6040805160208082528351818301528351919283929083019185019080838360005b8381101561023a578181015183820152602001610222565b50505050905090810190601f1680156102675780820380516001836020036101000a031916815260200191505b509250505060405180910390f35b6102a16004803603604081101561028b57600080fd5b506001600160a01b038135169060200135610668565b005b6101dc61078a565b6102c8600480360360208110156102c157600080fd5b5035610799565b60408051918252519081900360200190f35b6102a1600480360360608110156102f057600080fd5b506001600160a01b03813516906020810135906040013561089d565b610200610aaf565b6102a16004803603602081101561032a57600080fd5b50356001600160a01b0316610acf565b6102a1610b4a565b6101dc610b5c565b6102a16004803603604081101561036057600080fd5b506001600160a01b038135169060200135610b6b565b6102a1610c8a565b6101dc6004803603602081101561039457600080fd5b8101906020810181356401000000008111156103af57600080fd5b8201836020820111156103c157600080fd5b803590602001918460018302840111640100000000831117156103e357600080fd5b91908080601f016020809104026020016040519081016040528093929190818152602001838380828437600092019190915250929550610d2d945050505050565b6102a1610f38565b610200610fea565b6101dc61100f565b6104596004803603602081101561045257600080fd5b503561101e565b60408051938452602084019290925282820152519081900360600190f35b61047f611135565b604080519115158252519081900360200190f35b6102a1600480360360408110156104a957600080fd5b506001600160a01b03813516906020013561115b565b6102a1600480360360208110156104d557600080fd5b50356001600160a01b0316611282565b6102006112d1565b6102a16004803603606081101561050357600080fd5b506001600160a01b0381358116916020810135821691604090910135166112f2565b6102a16004803603602081101561053b57600080fd5b50356001600160a01b03166113e0565b6102a16004803603604081101561056157600080fd5b506001600160a01b038135169060200135611498565b6102a16004803603604081101561058d57600080fd5b506001600160a01b0381351690602001356115b1565b6102c8600480360360208110156105b957600080fd5b5035611668565b61047f600480360360208110156105d657600080fd5b50356001600160a01b03166117e5565b6102a1600480360360208110156105fc57600080fd5b50356001600160a01b03166117fe565b6102a16004803603604081101561062257600080fd5b506001600160a01b038135169060200135611860565b6068546001600160a01b031681565b6040518060400160405280600581526020016466756e647360d81b81525081565b6106786106736118b2565b6117e5565b6106b35760405162461bcd60e51b815260040180806020018281038252603e815260200180611f9c603e913960400191505060405180910390fd5b606954604080516340c10f1960e01b81526001600160a01b03858116600483015260248201859052915191909216916340c10f199160448083019260209291908290030181600087803b15801561070957600080fd5b505af115801561071d573d6000803e3d6000fd5b505050506040513d602081101561073357600080fd5b5051610786576040805162461bcd60e51b815260206004820152601860248201527f46756e64734d6f64756c653a206d696e74206661696c65640000000000000000604482015290519081900360640190fd5b5050565b6066546001600160a01b031681565b606854604080516370a0823160e01b8152306004820152905160009283926001600160a01b03909116916370a0823191602480820192602092909190829003018186803b1580156107e957600080fd5b505afa1580156107fd573d6000803e3d6000fd5b505050506040513d602081101561081357600080fd5b5051905061081f6118b6565b6001600160a01b0316634522751682856040518363ffffffff1660e01b8152600401808381526020018281526020019250505060206040518083038186803b15801561086a57600080fd5b505afa15801561087e573d6000803e3d6000fd5b505050506040513d602081101561089457600080fd5b50519392505050565b6108a86106736118b2565b6108e35760405162461bcd60e51b815260040180806020018281038252603e815260200180611f9c603e913960400191505060405180910390fd5b6068546040805163a9059cbb60e01b81526001600160a01b038681166004830152602482018690529151919092169163a9059cbb9160448083019260209291908290030181600087803b15801561093957600080fd5b505af115801561094d573d6000803e3d6000fd5b505050506040513d602081101561096357600080fd5b50516109b6576040805162461bcd60e51b815260206004820152601c60248201527f46756e64734d6f64756c653a207769746864726177206661696c656400000000604482015290519081900360640190fd5b8015610aa2576068546001600160a01b031663a9059cbb6109d561100f565b836040518363ffffffff1660e01b815260040180836001600160a01b03166001600160a01b0316815260200182815260200192505050602060405180830381600087803b158015610a2557600080fd5b505af1158015610a39573d6000803e3d6000fd5b505050506040513d6020811015610a4f57600080fd5b5051610aa2576040805162461bcd60e51b815260206004820181905260248201527f46756e64734d6f64756c653a20666565207472616e73666572206661696c6564604482015290519081900360640190fd5b610aaa6118e3565b505050565b604051806040016040528060048152602001633637b0b760e11b81525081565b610ad7611135565b610b28576040805162461bcd60e51b815260206004820181905260248201527f4f776e61626c653a2063616c6c6572206973206e6f7420746865206f776e6572604482015290519081900360640190fd5b606680546001600160a01b0319166001600160a01b0392909216919091179055565b610b5a610b556118b2565b611b39565b565b6069546001600160a01b031681565b610b766106736118b2565b610bb15760405162461bcd60e51b815260040180806020018281038252603e815260200180611f9c603e913960400191505060405180910390fd5b606954604080516323b872dd60e01b81526001600160a01b03858116600483015230602483015260448201859052915191909216916323b872dd9160648083019260209291908290030181600087803b158015610c0d57600080fd5b505af1158015610c21573d6000803e3d6000fd5b505050506040513d6020811015610c3757600080fd5b5051610786576040805162461bcd60e51b815260206004820152601b60248201527f46756e64734d6f64756c653a206465706f736974206661696c65640000000000604482015290519081900360640190fd5b610c92611135565b610ce3576040805162461bcd60e51b815260206004820181905260248201527f4f776e61626c653a2063616c6c6572206973206e6f7420746865206f776e6572604482015290519081900360640190fd5b6033546040516000916001600160a01b0316907f8be0079c531659141344cd1fd0a4f28419497f9722a3daafe3b4186f6b6457e0908390a3603380546001600160a01b0319169055565b6066546000906001600160a01b0316610d7f576040805162461bcd60e51b815260206004820152600f60248201526e135bd91d5b194e881b9bc81c1bdbdb608a1b604482015290519081900360640190fd5b6066546040516020602482018181528551604484015285516000946060946001600160a01b03909116938893928392606401918501908083838b5b83811015610dd2578181015183820152602001610dba565b50505050905090810190601f168015610dff5780820380516001836020036101000a031916815260200191505b5060408051601f198184030181529181526020820180516001600160e01b031663349f642f60e11b178152905182519295509350839250908083835b60208310610e5a5780518252601f199092019160209182019101610e3b565b6001836020036101000a038019825116818451168082178552505050505050905001915050600060405180830381855afa9150503d8060008114610eba576040519150601f19603f3d011682016040523d82523d6000602084013e610ebf565b606091505b509150915081610ed0578060208201fd5b6000818060200190516020811015610ee757600080fd5b505190506001600160a01b038116610f305760405162461bcd60e51b815260040180806020018281038252602281526020018061204b6022913960400191505060405180910390fd5b949350505050565b600054610100900460ff1680610f515750610f51611b81565b80610f5f575060005460ff16155b610f9a5760405162461bcd60e51b815260040180806020018281038252602e81526020018061201d602e913960400191505060405180910390fd5b600054610100900460ff16158015610fc5576000805460ff1961ff0019909116610100171660011790555b610fd5610fd06118b2565b611b87565b8015610fe7576000805461ff00191690555b50565b604051806040016040528060098152602001686c697175696469747960b81b81525081565b6033546001600160a01b031690565b606854604080516370a0823160e01b815230600482015290516000928392839283926001600160a01b0316916370a08231916024808301926020929190829003018186803b15801561106f57600080fd5b505afa158015611083573d6000803e3d6000fd5b505050506040513d602081101561109957600080fd5b505190506110a56118b6565b6001600160a01b031663a813d3a782876040518363ffffffff1660e01b8152600401808381526020018281526020019250505060606040518083038186803b1580156110f057600080fd5b505afa158015611104573d6000803e3d6000fd5b505050506040513d606081101561111a57600080fd5b50805160208201516040909201519097919650945092505050565b6033546000906001600160a01b031661114c6118b2565b6001600160a01b031614905090565b6111666106736118b2565b6111a15760405162461bcd60e51b815260040180806020018281038252603e815260200180611f9c603e913960400191505060405180910390fd5b606854604080516323b872dd60e01b81526001600160a01b03858116600483015230602483015260448201859052915191909216916323b872dd9160648083019260209291908290030181600087803b1580156111fd57600080fd5b505af1158015611211573d6000803e3d6000fd5b505050506040513d602081101561122757600080fd5b505161127a576040805162461bcd60e51b815260206004820152601b60248201527f46756e64734d6f64756c653a206465706f736974206661696c65640000000000604482015290519081900360640190fd5b6107866118e3565b61128d6106736118b2565b6112c85760405162461bcd60e51b815260040180806020018281038252603e815260200180611f9c603e913960400191505060405180910390fd5b610fe781611c78565b60405180604001604052806005815260200164637572766560d81b81525081565b600054610100900460ff168061130b575061130b611b81565b80611319575060005460ff16155b6113545760405162461bcd60e51b815260040180806020018281038252602e81526020018061201d602e913960400191505060405180910390fd5b600054610100900460ff1615801561137f576000805460ff1961ff0019909116610100171660011790555b61138884611cc0565b6113986113936118b2565b6113e0565b606880546001600160a01b038086166001600160a01b031992831617909255606980549285169290911691909117905580156113da576000805461ff00191690555b50505050565b600054610100900460ff16806113f957506113f9611b81565b80611407575060005460ff16155b6114425760405162461bcd60e51b815260040180806020018281038252602e81526020018061201d602e913960400191505060405180910390fd5b600054610100900460ff1615801561146d576000805460ff1961ff0019909116610100171660011790555b611476826117e5565b6114835761148382611c78565b8015610786576000805461ff00191690555050565b6114a36106736118b2565b6114de5760405162461bcd60e51b815260040180806020018281038252603e815260200180611f9c603e913960400191505060405180910390fd5b6069546040805163a9059cbb60e01b81526001600160a01b038581166004830152602482018590529151919092169163a9059cbb9160448083019260209291908290030181600087803b15801561153457600080fd5b505af1158015611548573d6000803e3d6000fd5b505050506040513d602081101561155e57600080fd5b5051610786576040805162461bcd60e51b815260206004820152601c60248201527f46756e64734d6f64756c653a207769746864726177206661696c656400000000604482015290519081900360640190fd5b6115bc6106736118b2565b6115f75760405162461bcd60e51b815260040180806020018281038252603e815260200180611f9c603e913960400191505060405180910390fd5b6069546040805163079cc67960e41b81526001600160a01b03858116600483015260248201859052915191909216916379cc679091604480830192600092919082900301818387803b15801561164c57600080fd5b505af1158015611660573d6000803e3d6000fd5b505050505050565b606854604080516370a0823160e01b8152306004820152905160009283926001600160a01b03909116916370a0823191602480820192602092909190829003018186803b1580156116b857600080fd5b505afa1580156116cc573d6000803e3d6000fd5b505050506040513d60208110156116e257600080fd5b5051905060006116f0611d5e565b6001600160a01b031663813474976040518163ffffffff1660e01b815260040160206040518083038186803b15801561172857600080fd5b505afa15801561173c573d6000803e3d6000fd5b505050506040513d602081101561175257600080fd5b5051905061175e6118b6565b6001600160a01b031663fa9c5d1b8383876040518463ffffffff1660e01b815260040180848152602001838152602001828152602001935050505060206040518083038186803b1580156117b157600080fd5b505afa1580156117c5573d6000803e3d6000fd5b505050506040513d60208110156117db57600080fd5b5051949350505050565b60006117f860678363ffffffff611d8516565b92915050565b611806611135565b611857576040805162461bcd60e51b815260206004820181905260248201527f4f776e61626c653a2063616c6c6572206973206e6f7420746865206f776e6572604482015290519081900360640190fd5b610fe781611dec565b61186b6106736118b2565b6118a65760405162461bcd60e51b815260040180806020018281038252603e815260200180611f9c603e913960400191505060405180910390fd5b6107868282600061089d565b3390565b60006118de60405180604001604052806005815260200164637572766560d81b815250610d2d565b905090565b606854604080516370a0823160e01b815230600482015290516000926001600160a01b0316916370a08231916024808301926020929190829003018186803b15801561192e57600080fd5b505afa158015611942573d6000803e3d6000fd5b505050506040513d602081101561195857600080fd5b505190506000611966611d5e565b6001600160a01b031663813474976040518163ffffffff1660e01b815260040160206040518083038186803b15801561199e57600080fd5b505afa1580156119b2573d6000803e3d6000fd5b505050506040513d60208110156119c857600080fd5b5051905060006119d66118b6565b6001600160a01b031663fa9c5d1b8484670de0b6b3a76400006040518463ffffffff1660e01b815260040180848152602001838152602001828152602001935050505060206040518083038186803b158015611a3157600080fd5b505afa158015611a45573d6000803e3d6000fd5b505050506040513d6020811015611a5b57600080fd5b505190506000611a696118b6565b6001600160a01b0316634522751685670de0b6b3a76400006040518363ffffffff1660e01b8152600401808381526020018281526020019250505060206040518083038186803b158015611abc57600080fd5b505afa158015611ad0573d6000803e3d6000fd5b505050506040513d6020811015611ae657600080fd5b505160408051868152602081018690528082018590526060810183905290519192507f08884dacdf49a21603425ac896ee5a250840693881137a88a893e0dd31116a87919081900360800190a150505050565b611b4a60678263ffffffff611e8d16565b6040516001600160a01b038216907fa8a03a268b980a88fc775ab98b322f8db8a2a3648a7331f7b1abd5372eed9e4e90600090a250565b303b1590565b600054610100900460ff1680611ba05750611ba0611b81565b80611bae575060005460ff16155b611be95760405162461bcd60e51b815260040180806020018281038252602e81526020018061201d602e913960400191505060405180910390fd5b600054610100900460ff16158015611c14576000805460ff1961ff0019909116610100171660011790555b603380546001600160a01b0319166001600160a01b0384811691909117918290556040519116906000907f8be0079c531659141344cd1fd0a4f28419497f9722a3daafe3b4186f6b6457e0908290a38015610786576000805461ff00191690555050565b611c8960678263ffffffff611ef416565b6040516001600160a01b038216907fdf877c05f98e781af102fa8821b4aac8a6a56f119577f08b15bbe515f26e167c90600090a250565b600054610100900460ff1680611cd95750611cd9611b81565b80611ce7575060005460ff16155b611d225760405162461bcd60e51b815260040180806020018281038252602e81526020018061201d602e913960400191505060405180910390fd5b600054610100900460ff16158015611d4d576000805460ff1961ff0019909116610100171660011790555b611d55610f38565b61148382610acf565b60006118de604051806040016040528060048152602001633637b0b760e11b815250610d2d565b60006001600160a01b038216611dcc5760405162461bcd60e51b8152600401808060200182810382526022815260200180611ffb6022913960400191505060405180910390fd5b506001600160a01b03166000908152602091909152604090205460ff1690565b6001600160a01b038116611e315760405162461bcd60e51b8152600401808060200182810382526026815260200180611f766026913960400191505060405180910390fd5b6033546040516001600160a01b038084169216907f8be0079c531659141344cd1fd0a4f28419497f9722a3daafe3b4186f6b6457e090600090a3603380546001600160a01b0319166001600160a01b0392909216919091179055565b611e978282611d85565b611ed25760405162461bcd60e51b8152600401808060200182810382526021815260200180611fda6021913960400191505060405180910390fd5b6001600160a01b0316600090815260209190915260409020805460ff19169055565b611efe8282611d85565b15611f50576040805162461bcd60e51b815260206004820152601f60248201527f526f6c65733a206163636f756e7420616c72656164792068617320726f6c6500604482015290519081900360640190fd5b6001600160a01b0316600090815260209190915260409020805460ff1916600117905556fe4f776e61626c653a206e6577206f776e657220697320746865207a65726f206164647265737346756e64734f70657261746f72526f6c653a2063616c6c657220646f6573206e6f742068617665207468652046756e64734f70657261746f7220726f6c65526f6c65733a206163636f756e7420646f6573206e6f74206861766520726f6c65526f6c65733a206163636f756e7420697320746865207a65726f2061646472657373436f6e747261637420696e7374616e63652068617320616c7265616479206265656e20696e697469616c697a65644d6f64756c653a20726571756573746564206d6f64756c65206e6f7420666f756e64a265627a7a72315820d119a9482a8197e2ff3999c1e7e27f33fc4814834e26ab3f9308e9fd2cbea58e64736f6c634300050c0032",
  "source": "pragma solidity ^0.5.12;\n\nimport \"@openzeppelin/contracts-ethereum-package/contracts/token/ERC20/IERC20.sol\";\nimport \"../../interfaces/curve/ICurveModule.sol\";\nimport \"../../interfaces/curve/IFundsModule.sol\";\nimport \"../../interfaces/curve/ILoanModule.sol\";\nimport \"../../token/pTokens/PToken.sol\";\nimport \"../../common/Module.sol\";\nimport \"./FundsOperatorRole.sol\";\n\ncontract FundsModule is Module, IFundsModule, FundsOperatorRole {\n    uint256 private constant STATUS_PRICE_AMOUNT = 10**18;  // Used to calculate price for Status event, should represent 1 DAI\n\n    IERC20 public lToken;\n    PToken public pToken;\n\n    function initialize(address _pool, IERC20 _lToken, PToken _pToken) public initializer {\n        Module.initialize(_pool);\n        FundsOperatorRole.initialize(_msgSender());\n        lToken = _lToken;\n        pToken = _pToken;\n    }\n\n    /**\n     * @notice Deposit liquid tokens to the pool\n     * @param from Address of the user, who sends tokens. Should have enough allowance.\n     * @param amount Amount of tokens to deposit\n     */\n    function depositLTokens(address from, uint256 amount) public onlyFundsOperator {\n        require(lToken.transferFrom(from, address(this), amount), \"FundsModule: deposit failed\");\n        emitStatus();\n    }\n\n    /**\n     * @notice Withdraw liquid tokens from the pool\n     * @param to Address of the user, who sends tokens. Should have enough allowance.\n     * @param amount Amount of tokens to deposit\n     */\n    function withdrawLTokens(address to, uint256 amount) public onlyFundsOperator {\n        withdrawLTokens(to, amount, 0);\n    }\n\n    /**\n     * @notice Withdraw liquid tokens from the pool\n     * @param to Address of the user, who sends tokens. Should have enough allowance.\n     * @param amount Amount of tokens to deposit\n     * @param poolFee Pool fee will be sent to pool owner\n     */\n    function withdrawLTokens(address to, uint256 amount, uint256 poolFee) public onlyFundsOperator {\n        require(lToken.transfer(to, amount), \"FundsModule: withdraw failed\");\n        if (poolFee > 0) {\n            require(lToken.transfer(owner(), poolFee), \"FundsModule: fee transfer failed\");\n        }\n        emitStatus();\n    }\n\n    /**\n     * @notice Deposit pool tokens to the pool\n     * @param from Address of the user, who sends tokens. Should have enough allowance.\n     * @param amount Amount of tokens to deposit\n     */\n    function depositPTokens(address from, uint256 amount) public onlyFundsOperator {\n        require(pToken.transferFrom(from, address(this), amount), \"FundsModule: deposit failed\");\n    }\n\n    /**\n     * @notice Withdraw pool tokens from the pool\n     * @param to Address of the user, who receivs tokens.\n     * @param amount Amount of tokens to deposit\n     */\n    function withdrawPTokens(address to, uint256 amount) public onlyFundsOperator {\n        require(pToken.transfer(to, amount), \"FundsModule: withdraw failed\");\n    }\n\n    /**\n     * @notice Mint new PTokens\n     * @param to Address of the user, who sends tokens.\n     * @param amount Amount of tokens to mint\n     */\n    function mintPTokens(address to, uint256 amount) public onlyFundsOperator {\n        require(pToken.mint(to, amount), \"FundsModule: mint failed\");\n    }\n\n    /**\n     * @notice Burn pool tokens\n     * @param from Address of the user, whos tokens we burning. Should have enough allowance.\n     * @param amount Amount of tokens to burn\n     */\n    function burnPTokens(address from, uint256 amount) public onlyFundsOperator {\n        pToken.burnFrom(from, amount); //This call will revert if we have not enough allowance or sender has not enough pTokens\n    }\n\n    /**\n     * @notice Calculates how many pTokens should be given to user for increasing liquidity\n     * @param lAmount Amount of liquid tokens which will be put into the pool\n     * @return Amount of pToken which should be sent to sender\n     */\n    function calculatePoolEnter(uint256 lAmount) public view returns(uint256) {\n        uint256 lBalance = lToken.balanceOf(address(this));\n        uint256 lDebts = loanModule().totalLDebts();\n        return curveModule().calculateEnter(lBalance, lDebts, lAmount);\n    }\n\n    /**\n     * @notice Calculates how many pTokens should be taken from user for decreasing liquidity\n     * @param lAmount Amount of liquid tokens which will be removed from the pool\n     * @return Amount of pToken which should be taken from sender\n     */\n    function calculatePoolExit(uint256 lAmount) public view returns(uint256) {\n        uint256 lBalance = lToken.balanceOf(address(this));\n        return curveModule().calculateExit(lBalance, lAmount);\n    }\n\n    /**\n     * @notice Calculates how many liquid tokens should be removed from pool when decreasing liquidity\n     * @param pAmount Amount of pToken which should be taken from sender\n     * @return Amount of liquid tokens which will be removed from the pool: total, part for sender, part for pool\n     */\n    function calculatePoolExitInverse(uint256 pAmount) public view returns(uint256, uint256, uint256) {\n        uint256 lBalance = lToken.balanceOf(address(this));\n        return curveModule().calculateExitInverse(lBalance, pAmount);\n    }\n\n    function emitStatus() private {\n        uint256 lBalance = lToken.balanceOf(address(this));\n        uint256 lDebts = loanModule().totalLDebts();\n        uint256 pEnterPrice = curveModule().calculateEnter(lBalance, lDebts, STATUS_PRICE_AMOUNT);\n        uint256 pExitPrice = curveModule().calculateExit(lBalance, STATUS_PRICE_AMOUNT);\n        emit Status(lBalance, lDebts, pEnterPrice, pExitPrice);\n    }\n\n    function curveModule() private view returns(ICurveModule) {\n        return ICurveModule(getModuleAddress(MODULE_CURVE));\n    }\n    \n    function loanModule() private view returns(ILoanModule) {\n        return ILoanModule(getModuleAddress(MODULE_LOAN));\n    }\n\n}",
  "sourcePath": "../contracts/modules/funds/FundsModule.sol",
  "compiler": {
    "name": "solc",
    "version": "0.5.12+commit.7709ece9.Emscripten.clang"
  },
  "schemaVersion": "3.0.16",
  "updatedAt": "2020-01-10T11:12:15.790Z",
  "devdoc": {
    "methods": {
      "burnPTokens(address,uint256)": {
        "params": {
          "amount": "Amount of tokens to burn",
          "from": "Address of the user, whos tokens we burning. Should have enough allowance."
        }
      },
      "calculatePoolEnter(uint256)": {
        "params": {
          "lAmount": "Amount of liquid tokens which will be put into the pool"
        },
        "return": "Amount of pToken which should be sent to sender"
      },
      "calculatePoolExit(uint256)": {
        "params": {
          "lAmount": "Amount of liquid tokens which will be removed from the pool"
        },
        "return": "Amount of pToken which should be taken from sender"
      },
      "calculatePoolExitInverse(uint256)": {
        "params": {
          "pAmount": "Amount of pToken which should be taken from sender"
        },
        "return": "Amount of liquid tokens which will be removed from the pool: total, part for sender, part for pool"
      },
      "depositLTokens(address,uint256)": {
        "params": {
          "amount": "Amount of tokens to deposit",
          "from": "Address of the user, who sends tokens. Should have enough allowance."
        }
      },
      "depositPTokens(address,uint256)": {
        "params": {
          "amount": "Amount of tokens to deposit",
          "from": "Address of the user, who sends tokens. Should have enough allowance."
        }
      },
      "isOwner()": {
        "details": "Returns true if the caller is the current owner."
      },
      "mintPTokens(address,uint256)": {
        "params": {
          "amount": "Amount of tokens to mint",
          "to": "Address of the user, who sends tokens."
        }
      },
      "owner()": {
        "details": "Returns the address of the current owner."
      },
      "renounceOwnership()": {
        "details": "Leaves the contract without owner. It will not be possible to call `onlyOwner` functions anymore. Can only be called by the current owner.     * > Note: Renouncing ownership will leave the contract without an owner, thereby removing any functionality that is only available to the owner."
      },
      "transferOwnership(address)": {
        "details": "Transfers ownership of the contract to a new account (`newOwner`). Can only be called by the current owner."
      },
      "withdrawLTokens(address,uint256)": {
        "params": {
          "amount": "Amount of tokens to deposit",
          "to": "Address of the user, who sends tokens. Should have enough allowance."
        }
      },
      "withdrawLTokens(address,uint256,uint256)": {
        "params": {
          "amount": "Amount of tokens to deposit",
          "poolFee": "Pool fee will be sent to pool owner",
          "to": "Address of the user, who sends tokens. Should have enough allowance."
        }
      },
      "withdrawPTokens(address,uint256)": {
        "params": {
          "amount": "Amount of tokens to deposit",
          "to": "Address of the user, who receivs tokens."
        }
      }
    }
  },
  "userdoc": {
    "methods": {
      "burnPTokens(address,uint256)": {
        "notice": "Burn pool tokens"
      },
      "calculatePoolEnter(uint256)": {
        "notice": "Calculates how many pTokens should be given to user for increasing liquidity"
      },
      "calculatePoolExit(uint256)": {
        "notice": "Calculates how many pTokens should be taken from user for decreasing liquidity"
      },
      "calculatePoolExitInverse(uint256)": {
        "notice": "Calculates how many liquid tokens should be removed from pool when decreasing liquidity"
      },
      "depositLTokens(address,uint256)": {
        "notice": "Deposit liquid tokens to the pool"
      },
      "depositPTokens(address,uint256)": {
        "notice": "Deposit pool tokens to the pool"
      },
      "mintPTokens(address,uint256)": {
        "notice": "Mint new PTokens"
      },
      "withdrawLTokens(address,uint256)": {
        "notice": "Withdraw liquid tokens from the pool"
      },
      "withdrawLTokens(address,uint256,uint256)": {
        "notice": "Withdraw liquid tokens from the pool"
      },
      "withdrawPTokens(address,uint256)": {
        "notice": "Withdraw pool tokens from the pool"
      }
    }
  }
}