{
  "contractName": "FundsModule",
  "abi": [
    {
      "anonymous": false,
      "inputs": [
        {
          "indexed": true,
          "internalType": "address",
          "name": "account",
          "type": "address"
        }
      ],
      "name": "FundsOperatorAdded",
      "type": "event"
    },
    {
      "anonymous": false,
      "inputs": [
        {
          "indexed": true,
          "internalType": "address",
          "name": "account",
          "type": "address"
        }
      ],
      "name": "FundsOperatorRemoved",
      "type": "event"
    },
    {
      "anonymous": false,
      "inputs": [
        {
          "indexed": true,
          "internalType": "address",
          "name": "previousOwner",
          "type": "address"
        },
        {
          "indexed": true,
          "internalType": "address",
          "name": "newOwner",
          "type": "address"
        }
      ],
      "name": "OwnershipTransferred",
      "type": "event"
    },
    {
      "anonymous": false,
      "inputs": [
        {
          "indexed": false,
          "internalType": "uint256",
          "name": "lBalance",
          "type": "uint256"
        },
        {
          "indexed": false,
          "internalType": "uint256",
          "name": "lDebt",
          "type": "uint256"
        },
        {
          "indexed": false,
          "internalType": "uint256",
          "name": "pEnterPrice",
          "type": "uint256"
        },
        {
          "indexed": false,
          "internalType": "uint256",
          "name": "pExitPrice",
          "type": "uint256"
        }
      ],
      "name": "Status",
      "type": "event"
    },
    {
      "constant": true,
      "inputs": [],
      "name": "MODULE_CURVE",
      "outputs": [
        {
          "internalType": "string",
          "name": "",
          "type": "string"
        }
      ],
      "payable": false,
      "stateMutability": "view",
      "type": "function"
    },
    {
      "constant": true,
      "inputs": [],
      "name": "MODULE_FUNDS",
      "outputs": [
        {
          "internalType": "string",
          "name": "",
          "type": "string"
        }
      ],
      "payable": false,
      "stateMutability": "view",
      "type": "function"
    },
    {
      "constant": true,
      "inputs": [],
      "name": "MODULE_LIQUIDITY",
      "outputs": [
        {
          "internalType": "string",
          "name": "",
          "type": "string"
        }
      ],
      "payable": false,
      "stateMutability": "view",
      "type": "function"
    },
    {
      "constant": true,
      "inputs": [],
      "name": "MODULE_LOAN",
      "outputs": [
        {
          "internalType": "string",
          "name": "",
          "type": "string"
        }
      ],
      "payable": false,
      "stateMutability": "view",
      "type": "function"
    },
    {
      "constant": false,
      "inputs": [
        {
          "internalType": "address",
          "name": "account",
          "type": "address"
        }
      ],
      "name": "addFundsOperator",
      "outputs": [],
      "payable": false,
      "stateMutability": "nonpayable",
      "type": "function"
    },
    {
      "constant": true,
      "inputs": [
        {
          "internalType": "string",
          "name": "module",
          "type": "string"
        }
      ],
      "name": "getModuleAddress",
      "outputs": [
        {
          "internalType": "address",
          "name": "",
          "type": "address"
        }
      ],
      "payable": false,
      "stateMutability": "view",
      "type": "function"
    },
    {
      "constant": true,
      "inputs": [
        {
          "internalType": "address",
          "name": "account",
          "type": "address"
        }
      ],
      "name": "isFundsOperator",
      "outputs": [
        {
          "internalType": "bool",
          "name": "",
          "type": "bool"
        }
      ],
      "payable": false,
      "stateMutability": "view",
      "type": "function"
    },
    {
      "constant": true,
      "inputs": [],
      "name": "isOwner",
      "outputs": [
        {
          "internalType": "bool",
          "name": "",
          "type": "bool"
        }
      ],
      "payable": false,
      "stateMutability": "view",
      "type": "function"
    },
    {
      "constant": true,
      "inputs": [],
      "name": "lBalance",
      "outputs": [
        {
          "internalType": "uint256",
          "name": "",
          "type": "uint256"
        }
      ],
      "payable": false,
      "stateMutability": "view",
      "type": "function"
    },
    {
      "constant": true,
      "inputs": [],
      "name": "lToken",
      "outputs": [
        {
          "internalType": "contract IERC20",
          "name": "",
          "type": "address"
        }
      ],
      "payable": false,
      "stateMutability": "view",
      "type": "function"
    },
    {
      "constant": true,
      "inputs": [],
      "name": "owner",
      "outputs": [
        {
          "internalType": "address",
          "name": "",
          "type": "address"
        }
      ],
      "payable": false,
      "stateMutability": "view",
      "type": "function"
    },
    {
      "constant": true,
      "inputs": [],
      "name": "pToken",
      "outputs": [
        {
          "internalType": "contract PToken",
          "name": "",
          "type": "address"
        }
      ],
      "payable": false,
      "stateMutability": "view",
      "type": "function"
    },
    {
      "constant": true,
      "inputs": [],
      "name": "pool",
      "outputs": [
        {
          "internalType": "address",
          "name": "",
          "type": "address"
        }
      ],
      "payable": false,
      "stateMutability": "view",
      "type": "function"
    },
    {
      "constant": false,
      "inputs": [],
      "name": "renounceFundsOperator",
      "outputs": [],
      "payable": false,
      "stateMutability": "nonpayable",
      "type": "function"
    },
    {
      "constant": false,
      "inputs": [],
      "name": "renounceOwnership",
      "outputs": [],
      "payable": false,
      "stateMutability": "nonpayable",
      "type": "function"
    },
    {
      "constant": false,
      "inputs": [
        {
          "internalType": "address",
          "name": "_pool",
          "type": "address"
        }
      ],
      "name": "setPool",
      "outputs": [],
      "payable": false,
      "stateMutability": "nonpayable",
      "type": "function"
    },
    {
      "constant": false,
      "inputs": [
        {
          "internalType": "address",
          "name": "newOwner",
          "type": "address"
        }
      ],
      "name": "transferOwnership",
      "outputs": [],
      "payable": false,
      "stateMutability": "nonpayable",
      "type": "function"
    },
    {
      "constant": false,
      "inputs": [
        {
          "internalType": "address",
          "name": "_pool",
          "type": "address"
        },
        {
          "internalType": "contract IERC20",
          "name": "_lToken",
          "type": "address"
        },
        {
          "internalType": "contract PToken",
          "name": "_pToken",
          "type": "address"
        }
      ],
      "name": "initialize",
      "outputs": [],
      "payable": false,
      "stateMutability": "nonpayable",
      "type": "function"
    },
    {
      "constant": false,
      "inputs": [],
      "name": "initialize",
      "outputs": [],
      "payable": false,
      "stateMutability": "nonpayable",
      "type": "function"
    },
    {
      "constant": false,
      "inputs": [
        {
          "internalType": "address",
          "name": "sender",
          "type": "address"
        }
      ],
      "name": "initialize",
      "outputs": [],
      "payable": false,
      "stateMutability": "nonpayable",
      "type": "function"
    },
    {
      "constant": false,
      "inputs": [
        {
          "internalType": "address",
          "name": "from",
          "type": "address"
        },
        {
          "internalType": "uint256",
          "name": "amount",
          "type": "uint256"
        }
      ],
      "name": "depositLTokens",
      "outputs": [],
      "payable": false,
      "stateMutability": "nonpayable",
      "type": "function"
    },
    {
      "constant": false,
      "inputs": [
        {
          "internalType": "address",
          "name": "to",
          "type": "address"
        },
        {
          "internalType": "uint256",
          "name": "amount",
          "type": "uint256"
        }
      ],
      "name": "withdrawLTokens",
      "outputs": [],
      "payable": false,
      "stateMutability": "nonpayable",
      "type": "function"
    },
    {
      "constant": false,
      "inputs": [
        {
          "internalType": "address",
          "name": "to",
          "type": "address"
        },
        {
          "internalType": "uint256",
          "name": "amount",
          "type": "uint256"
        },
        {
          "internalType": "uint256",
          "name": "poolFee",
          "type": "uint256"
        }
      ],
      "name": "withdrawLTokens",
      "outputs": [],
      "payable": false,
      "stateMutability": "nonpayable",
      "type": "function"
    },
    {
      "constant": false,
      "inputs": [
        {
          "internalType": "address",
          "name": "from",
          "type": "address"
        },
        {
          "internalType": "uint256",
          "name": "amount",
          "type": "uint256"
        }
      ],
      "name": "depositPTokens",
      "outputs": [],
      "payable": false,
      "stateMutability": "nonpayable",
      "type": "function"
    },
    {
      "constant": false,
      "inputs": [
        {
          "internalType": "address",
          "name": "to",
          "type": "address"
        },
        {
          "internalType": "uint256",
          "name": "amount",
          "type": "uint256"
        }
      ],
      "name": "withdrawPTokens",
      "outputs": [],
      "payable": false,
      "stateMutability": "nonpayable",
      "type": "function"
    },
    {
      "constant": false,
      "inputs": [
        {
          "internalType": "address",
          "name": "to",
          "type": "address"
        },
        {
          "internalType": "uint256",
          "name": "amount",
          "type": "uint256"
        }
      ],
      "name": "mintPTokens",
      "outputs": [],
      "payable": false,
      "stateMutability": "nonpayable",
      "type": "function"
    },
    {
      "constant": false,
      "inputs": [
        {
          "internalType": "address",
          "name": "from",
          "type": "address"
        },
        {
          "internalType": "uint256",
          "name": "amount",
          "type": "uint256"
        }
      ],
      "name": "burnPTokens",
      "outputs": [],
      "payable": false,
      "stateMutability": "nonpayable",
      "type": "function"
    },
    {
      "constant": false,
      "inputs": [
        {
          "internalType": "address",
          "name": "to",
          "type": "address"
        },
        {
          "internalType": "uint256",
          "name": "amount",
          "type": "uint256"
        }
      ],
      "name": "refundLTokens",
      "outputs": [],
      "payable": false,
      "stateMutability": "nonpayable",
      "type": "function"
    },
    {
      "constant": true,
      "inputs": [
        {
          "internalType": "uint256",
          "name": "lAmount",
          "type": "uint256"
        }
      ],
      "name": "calculatePoolEnter",
      "outputs": [
        {
          "internalType": "uint256",
          "name": "",
          "type": "uint256"
        }
      ],
      "payable": false,
      "stateMutability": "view",
      "type": "function"
    },
    {
      "constant": true,
      "inputs": [
        {
          "internalType": "uint256",
          "name": "lAmount",
          "type": "uint256"
        }
      ],
      "name": "calculatePoolExit",
      "outputs": [
        {
          "internalType": "uint256",
          "name": "",
          "type": "uint256"
        }
      ],
      "payable": false,
      "stateMutability": "view",
      "type": "function"
    },
    {
      "constant": true,
      "inputs": [
        {
          "internalType": "uint256",
          "name": "pAmount",
          "type": "uint256"
        }
      ],
      "name": "calculatePoolExitInverse",
      "outputs": [
        {
          "internalType": "uint256",
          "name": "",
          "type": "uint256"
        },
        {
          "internalType": "uint256",
          "name": "",
          "type": "uint256"
        },
        {
          "internalType": "uint256",
          "name": "",
          "type": "uint256"
        }
      ],
      "payable": false,
      "stateMutability": "view",
      "type": "function"
    }
  ],
  "bytecode": "0x6080604052612218806100136000396000f3fe608060405234801561001057600080fd5b50600436106101e55760003560e01c80638129fc1c1161010f578063c0c53b8b116100a2578063e01740fb11610071578063e01740fb146105ed578063f105d77c1461060a578063f2fde38b14610630578063fa584ad014610656576101e5565b8063c0c53b8b14610537578063c4d66de81461056f578063d684e0ad14610595578063d8b0bf18146105c1576101e5565b80638f32d59b116100de5780638f32d59b146104c15780638fa6c72e146104dd5780639ae1b84d14610509578063b23a97d01461052f576101e5565b80638129fc1c1461046e5780638230d02d146104765780638da5cb5b1461047e5780638dc5f4b814610486576101e5565b80634437152a11610187578063706463fa11610156578063706463fa14610368578063715018a61461039457806371dc760f1461039c578063735aea1e14610442576101e5565b80634437152a1461032a57806357b4a55d1461035057806358a06f07146103585780636331d14d14610360576101e5565b806316f0115b116101c357806316f0115b146102b95780632b772904146102c157806333e6a5f2146102f0578063368981a614610322576101e5565b8063010ee184146101ea578063077aa7051461020e5780630a40b3571461028b575b600080fd5b6101f2610682565b604080516001600160a01b039092168252519081900360200190f35b610216610691565b6040805160208082528351818301528351919283929083019185019080838360005b83811015610250578181015183820152602001610238565b50505050905090810190601f16801561027d5780820380516001836020036101000a031916815260200191505b509250505060405180910390f35b6102b7600480360360408110156102a157600080fd5b506001600160a01b0381351690602001356106b2565b005b6101f26107d4565b6102de600480360360208110156102d757600080fd5b50356107e3565b60408051918252519081900360200190f35b6102b76004803603606081101561030657600080fd5b506001600160a01b03813516906020810135906040013561086c565b610216610aaa565b6102b76004803603602081101561034057600080fd5b50356001600160a01b0316610aca565b6102b7610b45565b6101f2610b57565b6102de610b66565b6102b76004803603604081101561037e57600080fd5b506001600160a01b038135169060200135610b6c565b6102b7610c8b565b6101f2600480360360208110156103b257600080fd5b8101906020810181356401000000008111156103cd57600080fd5b8201836020820111156103df57600080fd5b8035906020019184600183028401116401000000008311171561040157600080fd5b91908080601f016020809104026020016040519081016040528093929190818152602001838380828437600092019190915250929550610d2e945050505050565b6102b76004803603604081101561045857600080fd5b506001600160a01b038135169060200135610f39565b6102b761111c565b6102166111ce565b6101f26111f3565b6104a36004803603602081101561049c57600080fd5b5035611202565b60408051938452602084019290925282820152519081900360600190f35b6104c96112a0565b604080519115158252519081900360200190f35b6102b7600480360360408110156104f357600080fd5b506001600160a01b0381351690602001356112c6565b6102b76004803603602081101561051f57600080fd5b50356001600160a01b0316611403565b610216611452565b6102b76004803603606081101561054d57600080fd5b506001600160a01b038135811691602081013582169160409091013516611473565b6102b76004803603602081101561058557600080fd5b50356001600160a01b0316611561565b6102b7600480360360408110156105ab57600080fd5b506001600160a01b038135169060200135611619565b6102b7600480360360408110156105d757600080fd5b506001600160a01b038135169060200135611732565b6102de6004803603602081101561060357600080fd5b50356117e9565b6104c96004803603602081101561062057600080fd5b50356001600160a01b03166118ea565b6102b76004803603602081101561064657600080fd5b50356001600160a01b0316611903565b6102b76004803603604081101561066c57600080fd5b506001600160a01b038135169060200135611965565b6068546001600160a01b031681565b6040518060400160405280600581526020016466756e647360d81b81525081565b6106c26106bd6119b7565b6118ea565b6106fd5760405162461bcd60e51b815260040180806020018281038252603e8152602001806120eb603e913960400191505060405180910390fd5b606954604080516340c10f1960e01b81526001600160a01b03858116600483015260248201859052915191909216916340c10f199160448083019260209291908290030181600087803b15801561075357600080fd5b505af1158015610767573d6000803e3d6000fd5b505050506040513d602081101561077d57600080fd5b50516107d0576040805162461bcd60e51b815260206004820152601860248201527f46756e64734d6f64756c653a206d696e74206661696c65640000000000000000604482015290519081900360640190fd5b5050565b6066546001600160a01b031681565b60006107ed6119bb565b6001600160a01b03166345227516606a54846040518363ffffffff1660e01b8152600401808381526020018281526020019250505060206040518083038186803b15801561083a57600080fd5b505afa15801561084e573d6000803e3d6000fd5b505050506040513d602081101561086457600080fd5b505192915050565b6108776106bd6119b7565b6108b25760405162461bcd60e51b815260040180806020018281038252603e8152602001806120eb603e913960400191505060405180910390fd5b606a546108c5908363ffffffff6119e816565b606a556068546040805163a9059cbb60e01b81526001600160a01b038681166004830152602482018690529151919092169163a9059cbb9160448083019260209291908290030181600087803b15801561091e57600080fd5b505af1158015610932573d6000803e3d6000fd5b505050506040513d602081101561094857600080fd5b505161099b576040805162461bcd60e51b815260206004820152601c60248201527f46756e64734d6f64756c653a207769746864726177206661696c656400000000604482015290519081900360640190fd5b8015610a9d57606a546109b4908263ffffffff6119e816565b606a556068546001600160a01b031663a9059cbb6109d06111f3565b836040518363ffffffff1660e01b815260040180836001600160a01b03166001600160a01b0316815260200182815260200192505050602060405180830381600087803b158015610a2057600080fd5b505af1158015610a34573d6000803e3d6000fd5b505050506040513d6020811015610a4a57600080fd5b5051610a9d576040805162461bcd60e51b815260206004820181905260248201527f46756e64734d6f64756c653a20666565207472616e73666572206661696c6564604482015290519081900360640190fd5b610aa5611a45565b505050565b604051806040016040528060048152602001633637b0b760e11b81525081565b610ad26112a0565b610b23576040805162461bcd60e51b815260206004820181905260248201527f4f776e61626c653a2063616c6c6572206973206e6f7420746865206f776e6572604482015290519081900360640190fd5b606680546001600160a01b0319166001600160a01b0392909216919091179055565b610b55610b506119b7565b611c27565b565b6069546001600160a01b031681565b606a5481565b610b776106bd6119b7565b610bb25760405162461bcd60e51b815260040180806020018281038252603e8152602001806120eb603e913960400191505060405180910390fd5b606954604080516323b872dd60e01b81526001600160a01b03858116600483015230602483015260448201859052915191909216916323b872dd9160648083019260209291908290030181600087803b158015610c0e57600080fd5b505af1158015610c22573d6000803e3d6000fd5b505050506040513d6020811015610c3857600080fd5b50516107d0576040805162461bcd60e51b815260206004820152601b60248201527f46756e64734d6f64756c653a206465706f736974206661696c65640000000000604482015290519081900360640190fd5b610c936112a0565b610ce4576040805162461bcd60e51b815260206004820181905260248201527f4f776e61626c653a2063616c6c6572206973206e6f7420746865206f776e6572604482015290519081900360640190fd5b6033546040516000916001600160a01b0316907f8be0079c531659141344cd1fd0a4f28419497f9722a3daafe3b4186f6b6457e0908390a3603380546001600160a01b0319169055565b6066546000906001600160a01b0316610d80576040805162461bcd60e51b815260206004820152600f60248201526e135bd91d5b194e881b9bc81c1bdbdb608a1b604482015290519081900360640190fd5b6066546040516020602482018181528551604484015285516000946060946001600160a01b03909116938893928392606401918501908083838b5b83811015610dd3578181015183820152602001610dbb565b50505050905090810190601f168015610e005780820380516001836020036101000a031916815260200191505b5060408051601f198184030181529181526020820180516001600160e01b031663349f642f60e11b178152905182519295509350839250908083835b60208310610e5b5780518252601f199092019160209182019101610e3c565b6001836020036101000a038019825116818451168082178552505050505050905001915050600060405180830381855afa9150503d8060008114610ebb576040519150601f19603f3d011682016040523d82523d6000602084013e610ec0565b606091505b509150915081610ed1578060208201fd5b6000818060200190516020811015610ee857600080fd5b505190506001600160a01b038116610f315760405162461bcd60e51b81526004018080602001828103825260228152602001806121c26022913960400191505060405180910390fd5b949350505050565b610f446106bd6119b7565b610f7f5760405162461bcd60e51b815260040180806020018281038252603e8152602001806120eb603e913960400191505060405180910390fd5b606854604080516370a0823160e01b815230600482015290516000926001600160a01b0316916370a08231916024808301926020929190829003018186803b158015610fca57600080fd5b505afa158015610fde573d6000803e3d6000fd5b505050506040513d6020811015610ff457600080fd5b5051606a5490915061100c828463ffffffff6119e816565b10156110495760405162461bcd60e51b81526004018080602001828103825260288152602001806121296028913960400191505060405180910390fd5b6068546040805163a9059cbb60e01b81526001600160a01b038681166004830152602482018690529151919092169163a9059cbb9160448083019260209291908290030181600087803b15801561109f57600080fd5b505af11580156110b3573d6000803e3d6000fd5b505050506040513d60208110156110c957600080fd5b5051610aa5576040805162461bcd60e51b815260206004820152601a60248201527f46756e64734d6f64756c653a20726566756e64206661696c6564000000000000604482015290519081900360640190fd5b600054610100900460ff16806111355750611135611c6f565b80611143575060005460ff16155b61117e5760405162461bcd60e51b815260040180806020018281038252602e815260200180612194602e913960400191505060405180910390fd5b600054610100900460ff161580156111a9576000805460ff1961ff0019909116610100171660011790555b6111b96111b46119b7565b611c75565b80156111cb576000805461ff00191690555b50565b604051806040016040528060098152602001686c697175696469747960b81b81525081565b6033546001600160a01b031690565b600080600061120f6119bb565b6001600160a01b031663a813d3a7606a54866040518363ffffffff1660e01b8152600401808381526020018281526020019250505060606040518083038186803b15801561125c57600080fd5b505afa158015611270573d6000803e3d6000fd5b505050506040513d606081101561128657600080fd5b508051602082015160409092015190969195509350915050565b6033546000906001600160a01b03166112b76119b7565b6001600160a01b031614905090565b6112d16106bd6119b7565b61130c5760405162461bcd60e51b815260040180806020018281038252603e8152602001806120eb603e913960400191505060405180910390fd5b606a5461131f908263ffffffff611d6616565b606a55606854604080516323b872dd60e01b81526001600160a01b03858116600483015230602483015260448201859052915191909216916323b872dd9160648083019260209291908290030181600087803b15801561137e57600080fd5b505af1158015611392573d6000803e3d6000fd5b505050506040513d60208110156113a857600080fd5b50516113fb576040805162461bcd60e51b815260206004820152601b60248201527f46756e64734d6f64756c653a206465706f736974206661696c65640000000000604482015290519081900360640190fd5b6107d0611a45565b61140e6106bd6119b7565b6114495760405162461bcd60e51b815260040180806020018281038252603e8152602001806120eb603e913960400191505060405180910390fd5b6111cb81611dc7565b60405180604001604052806005815260200164637572766560d81b81525081565b600054610100900460ff168061148c575061148c611c6f565b8061149a575060005460ff16155b6114d55760405162461bcd60e51b815260040180806020018281038252602e815260200180612194602e913960400191505060405180910390fd5b600054610100900460ff16158015611500576000805460ff1961ff0019909116610100171660011790555b61150984611e0f565b6115196115146119b7565b611561565b606880546001600160a01b038086166001600160a01b0319928316179092556069805492851692909116919091179055801561155b576000805461ff00191690555b50505050565b600054610100900460ff168061157a575061157a611c6f565b80611588575060005460ff16155b6115c35760405162461bcd60e51b815260040180806020018281038252602e815260200180612194602e913960400191505060405180910390fd5b600054610100900460ff161580156115ee576000805460ff1961ff0019909116610100171660011790555b6115f7826118ea565b6116045761160482611dc7565b80156107d0576000805461ff00191690555050565b6116246106bd6119b7565b61165f5760405162461bcd60e51b815260040180806020018281038252603e8152602001806120eb603e913960400191505060405180910390fd5b6069546040805163a9059cbb60e01b81526001600160a01b038581166004830152602482018590529151919092169163a9059cbb9160448083019260209291908290030181600087803b1580156116b557600080fd5b505af11580156116c9573d6000803e3d6000fd5b505050506040513d60208110156116df57600080fd5b50516107d0576040805162461bcd60e51b815260206004820152601c60248201527f46756e64734d6f64756c653a207769746864726177206661696c656400000000604482015290519081900360640190fd5b61173d6106bd6119b7565b6117785760405162461bcd60e51b815260040180806020018281038252603e8152602001806120eb603e913960400191505060405180910390fd5b6069546040805163079cc67960e41b81526001600160a01b03858116600483015260248201859052915191909216916379cc679091604480830192600092919082900301818387803b1580156117cd57600080fd5b505af11580156117e1573d6000803e3d6000fd5b505050505050565b6000806117f4611ead565b6001600160a01b031663813474976040518163ffffffff1660e01b815260040160206040518083038186803b15801561182c57600080fd5b505afa158015611840573d6000803e3d6000fd5b505050506040513d602081101561185657600080fd5b505190506118626119bb565b6001600160a01b031663fa9c5d1b606a5483866040518463ffffffff1660e01b815260040180848152602001838152602001828152602001935050505060206040518083038186803b1580156118b757600080fd5b505afa1580156118cb573d6000803e3d6000fd5b505050506040513d60208110156118e157600080fd5b50519392505050565b60006118fd60678363ffffffff611ed416565b92915050565b61190b6112a0565b61195c576040805162461bcd60e51b815260206004820181905260248201527f4f776e61626c653a2063616c6c6572206973206e6f7420746865206f776e6572604482015290519081900360640190fd5b6111cb81611f3b565b6119706106bd6119b7565b6119ab5760405162461bcd60e51b815260040180806020018281038252603e8152602001806120eb603e913960400191505060405180910390fd5b6107d08282600061086c565b3390565b60006119e360405180604001604052806005815260200164637572766560d81b815250610d2e565b905090565b600082821115611a3f576040805162461bcd60e51b815260206004820152601e60248201527f536166654d6174683a207375627472616374696f6e206f766572666c6f770000604482015290519081900360640190fd5b50900390565b6000611a4f611ead565b6001600160a01b031663813474976040518163ffffffff1660e01b815260040160206040518083038186803b158015611a8757600080fd5b505afa158015611a9b573d6000803e3d6000fd5b505050506040513d6020811015611ab157600080fd5b505190506000611abf6119bb565b6001600160a01b031663fa9c5d1b606a5484670de0b6b3a76400006040518463ffffffff1660e01b815260040180848152602001838152602001828152602001935050505060206040518083038186803b158015611b1c57600080fd5b505afa158015611b30573d6000803e3d6000fd5b505050506040513d6020811015611b4657600080fd5b505190506000611b546119bb565b6001600160a01b03166345227516606a54670de0b6b3a76400006040518363ffffffff1660e01b8152600401808381526020018281526020019250505060206040518083038186803b158015611ba957600080fd5b505afa158015611bbd573d6000803e3d6000fd5b505050506040513d6020811015611bd357600080fd5b5051606a54604080519182526020820186905281810185905260608201839052519192507f08884dacdf49a21603425ac896ee5a250840693881137a88a893e0dd31116a87919081900360800190a1505050565b611c3860678263ffffffff611fdc16565b6040516001600160a01b038216907fa8a03a268b980a88fc775ab98b322f8db8a2a3648a7331f7b1abd5372eed9e4e90600090a250565b303b1590565b600054610100900460ff1680611c8e5750611c8e611c6f565b80611c9c575060005460ff16155b611cd75760405162461bcd60e51b815260040180806020018281038252602e815260200180612194602e913960400191505060405180910390fd5b600054610100900460ff16158015611d02576000805460ff1961ff0019909116610100171660011790555b603380546001600160a01b0319166001600160a01b0384811691909117918290556040519116906000907f8be0079c531659141344cd1fd0a4f28419497f9722a3daafe3b4186f6b6457e0908290a380156107d0576000805461ff00191690555050565b600082820183811015611dc0576040805162461bcd60e51b815260206004820152601b60248201527f536166654d6174683a206164646974696f6e206f766572666c6f770000000000604482015290519081900360640190fd5b9392505050565b611dd860678263ffffffff61204316565b6040516001600160a01b038216907fdf877c05f98e781af102fa8821b4aac8a6a56f119577f08b15bbe515f26e167c90600090a250565b600054610100900460ff1680611e285750611e28611c6f565b80611e36575060005460ff16155b611e715760405162461bcd60e51b815260040180806020018281038252602e815260200180612194602e913960400191505060405180910390fd5b600054610100900460ff16158015611e9c576000805460ff1961ff0019909116610100171660011790555b611ea461111c565b61160482610aca565b60006119e3604051806040016040528060048152602001633637b0b760e11b815250610d2e565b60006001600160a01b038216611f1b5760405162461bcd60e51b81526004018080602001828103825260228152602001806121726022913960400191505060405180910390fd5b506001600160a01b03166000908152602091909152604090205460ff1690565b6001600160a01b038116611f805760405162461bcd60e51b81526004018080602001828103825260268152602001806120c56026913960400191505060405180910390fd5b6033546040516001600160a01b038084169216907f8be0079c531659141344cd1fd0a4f28419497f9722a3daafe3b4186f6b6457e090600090a3603380546001600160a01b0319166001600160a01b0392909216919091179055565b611fe68282611ed4565b6120215760405162461bcd60e51b81526004018080602001828103825260218152602001806121516021913960400191505060405180910390fd5b6001600160a01b0316600090815260209190915260409020805460ff19169055565b61204d8282611ed4565b1561209f576040805162461bcd60e51b815260206004820152601f60248201527f526f6c65733a206163636f756e7420616c72656164792068617320726f6c6500604482015290519081900360640190fd5b6001600160a01b0316600090815260209190915260409020805460ff1916600117905556fe4f776e61626c653a206e6577206f776e657220697320746865207a65726f206164647265737346756e64734f70657261746f72526f6c653a2063616c6c657220646f6573206e6f742068617665207468652046756e64734f70657261746f7220726f6c6546756e64734d6f64756c653a206e6f7420656e6f75676820746f6b656e7320746f20726566756e64526f6c65733a206163636f756e7420646f6573206e6f74206861766520726f6c65526f6c65733a206163636f756e7420697320746865207a65726f2061646472657373436f6e747261637420696e7374616e63652068617320616c7265616479206265656e20696e697469616c697a65644d6f64756c653a20726571756573746564206d6f64756c65206e6f7420666f756e64a265627a7a72315820736bcedc3983e46d0eb0847a2bafaf21377713b1a99069887bee48f4a6e2db1164736f6c634300050c0032",
  "source": "pragma solidity ^0.5.12;\n\nimport \"@openzeppelin/contracts-ethereum-package/contracts/token/ERC20/IERC20.sol\";\nimport \"@openzeppelin/contracts-ethereum-package/contracts/math/SafeMath.sol\";\nimport \"../../interfaces/curve/ICurveModule.sol\";\nimport \"../../interfaces/curve/IFundsModule.sol\";\nimport \"../../interfaces/curve/ILoanModule.sol\";\nimport \"../../token/pTokens/PToken.sol\";\nimport \"../../common/Module.sol\";\nimport \"./FundsOperatorRole.sol\";\n\ncontract FundsModule is Module, IFundsModule, FundsOperatorRole {\n    using SafeMath for uint256;\n    uint256 private constant STATUS_PRICE_AMOUNT = 10**18;  // Used to calculate price for Status event, should represent 1 DAI\n\n    IERC20 public lToken;       //Address of liquid token\n    PToken public pToken;       //Address of PToken\n    uint256 public lBalance;    //Tracked balance of liquid token, may be less or equal to lToken.balanceOf(address(this))\n\n    function initialize(address _pool, IERC20 _lToken, PToken _pToken) public initializer {\n        Module.initialize(_pool);\n        FundsOperatorRole.initialize(_msgSender());\n        lToken = _lToken;\n        pToken = _pToken;\n        //lBalance = lToken.balanceOf(address(this)); //We do not initialize lBalance to preserve it's previous value when updgrade\n    }\n\n    /**\n     * @notice Deposit liquid tokens to the pool\n     * @param from Address of the user, who sends tokens. Should have enough allowance.\n     * @param amount Amount of tokens to deposit\n     */\n    function depositLTokens(address from, uint256 amount) public onlyFundsOperator {\n        lBalance = lBalance.add(amount);\n        require(lToken.transferFrom(from, address(this), amount), \"FundsModule: deposit failed\");\n        emitStatus();\n    }\n\n    /**\n     * @notice Withdraw liquid tokens from the pool\n     * @param to Address of the user, who sends tokens. Should have enough allowance.\n     * @param amount Amount of tokens to deposit\n     */\n    function withdrawLTokens(address to, uint256 amount) public onlyFundsOperator {\n        withdrawLTokens(to, amount, 0);\n    }\n\n    /**\n     * @notice Withdraw liquid tokens from the pool\n     * @param to Address of the user, who sends tokens. Should have enough allowance.\n     * @param amount Amount of tokens to deposit\n     * @param poolFee Pool fee will be sent to pool owner\n     */\n    function withdrawLTokens(address to, uint256 amount, uint256 poolFee) public onlyFundsOperator {\n        lBalance = lBalance.sub(amount);\n        require(lToken.transfer(to, amount), \"FundsModule: withdraw failed\");\n        if (poolFee > 0) {\n            lBalance = lBalance.sub(poolFee);\n            require(lToken.transfer(owner(), poolFee), \"FundsModule: fee transfer failed\");\n        }\n        emitStatus();\n    }\n\n    /**\n     * @notice Deposit pool tokens to the pool\n     * @param from Address of the user, who sends tokens. Should have enough allowance.\n     * @param amount Amount of tokens to deposit\n     */\n    function depositPTokens(address from, uint256 amount) public onlyFundsOperator {\n        require(pToken.transferFrom(from, address(this), amount), \"FundsModule: deposit failed\");\n    }\n\n    /**\n     * @notice Withdraw pool tokens from the pool\n     * @param to Address of the user, who receivs tokens.\n     * @param amount Amount of tokens to deposit\n     */\n    function withdrawPTokens(address to, uint256 amount) public onlyFundsOperator {\n        require(pToken.transfer(to, amount), \"FundsModule: withdraw failed\");\n    }\n\n    /**\n     * @notice Mint new PTokens\n     * @param to Address of the user, who sends tokens.\n     * @param amount Amount of tokens to mint\n     */\n    function mintPTokens(address to, uint256 amount) public onlyFundsOperator {\n        require(pToken.mint(to, amount), \"FundsModule: mint failed\");\n    }\n\n    /**\n     * @notice Burn pool tokens\n     * @param from Address of the user, whos tokens we burning. Should have enough allowance.\n     * @param amount Amount of tokens to burn\n     */\n    function burnPTokens(address from, uint256 amount) public onlyFundsOperator {\n        pToken.burnFrom(from, amount); //This call will revert if we have not enough allowance or sender has not enough pTokens\n    }\n\n    /**\n     * @notice Refund liquid tokens accidentially sent directly to this contract\n     * @param to Address of the user, who receives refund\n     * @param amount Amount of tokens to send\n     */\n    function refundLTokens(address to, uint256 amount) public onlyFundsOperator {\n        uint256 realLBalance = lToken.balanceOf(address(this));\n        require(realLBalance.sub(amount) >= lBalance, \"FundsModule: not enough tokens to refund\");\n        require(lToken.transfer(to, amount), \"FundsModule: refund failed\");\n    }\n\n    /**\n     * @notice Calculates how many pTokens should be given to user for increasing liquidity\n     * @param lAmount Amount of liquid tokens which will be put into the pool\n     * @return Amount of pToken which should be sent to sender\n     */\n    function calculatePoolEnter(uint256 lAmount) public view returns(uint256) {\n        uint256 lDebts = loanModule().totalLDebts();\n        return curveModule().calculateEnter(lBalance, lDebts, lAmount);\n    }\n\n    /**\n     * @notice Calculates how many pTokens should be taken from user for decreasing liquidity\n     * @param lAmount Amount of liquid tokens which will be removed from the pool\n     * @return Amount of pToken which should be taken from sender\n     */\n    function calculatePoolExit(uint256 lAmount) public view returns(uint256) {\n        return curveModule().calculateExit(lBalance, lAmount);\n    }\n\n    /**\n     * @notice Calculates how many liquid tokens should be removed from pool when decreasing liquidity\n     * @param pAmount Amount of pToken which should be taken from sender\n     * @return Amount of liquid tokens which will be removed from the pool: total, part for sender, part for pool\n     */\n    function calculatePoolExitInverse(uint256 pAmount) public view returns(uint256, uint256, uint256) {\n        return curveModule().calculateExitInverse(lBalance, pAmount);\n    }\n\n    function emitStatus() private {\n        uint256 lDebts = loanModule().totalLDebts();\n        uint256 pEnterPrice = curveModule().calculateEnter(lBalance, lDebts, STATUS_PRICE_AMOUNT);\n        uint256 pExitPrice = curveModule().calculateExit(lBalance, STATUS_PRICE_AMOUNT);\n        emit Status(lBalance, lDebts, pEnterPrice, pExitPrice);\n    }\n\n    function curveModule() private view returns(ICurveModule) {\n        return ICurveModule(getModuleAddress(MODULE_CURVE));\n    }\n    \n    function loanModule() private view returns(ILoanModule) {\n        return ILoanModule(getModuleAddress(MODULE_LOAN));\n    }\n\n}",
  "sourcePath": "/home/aleksrow/Documents/bch/akropolisOS/contracts/modules/funds/FundsModule.sol",
  "compiler": {
    "name": "solc",
    "version": "0.5.12+commit.7709ece9.Emscripten.clang"
  },
  "schemaVersion": "3.0.16",
  "updatedAt": "2020-01-21T09:57:34.586Z",
  "devdoc": {
    "methods": {
      "burnPTokens(address,uint256)": {
        "params": {
          "amount": "Amount of tokens to burn",
          "from": "Address of the user, whos tokens we burning. Should have enough allowance."
        }
      },
      "calculatePoolEnter(uint256)": {
        "params": {
          "lAmount": "Amount of liquid tokens which will be put into the pool"
        },
        "return": "Amount of pToken which should be sent to sender"
      },
      "calculatePoolExit(uint256)": {
        "params": {
          "lAmount": "Amount of liquid tokens which will be removed from the pool"
        },
        "return": "Amount of pToken which should be taken from sender"
      },
      "calculatePoolExitInverse(uint256)": {
        "params": {
          "pAmount": "Amount of pToken which should be taken from sender"
        },
        "return": "Amount of liquid tokens which will be removed from the pool: total, part for sender, part for pool"
      },
      "depositLTokens(address,uint256)": {
        "params": {
          "amount": "Amount of tokens to deposit",
          "from": "Address of the user, who sends tokens. Should have enough allowance."
        }
      },
      "depositPTokens(address,uint256)": {
        "params": {
          "amount": "Amount of tokens to deposit",
          "from": "Address of the user, who sends tokens. Should have enough allowance."
        }
      },
      "isOwner()": {
        "details": "Returns true if the caller is the current owner."
      },
      "mintPTokens(address,uint256)": {
        "params": {
          "amount": "Amount of tokens to mint",
          "to": "Address of the user, who sends tokens."
        }
      },
      "owner()": {
        "details": "Returns the address of the current owner."
      },
      "refundLTokens(address,uint256)": {
        "params": {
          "amount": "Amount of tokens to send",
          "to": "Address of the user, who receives refund"
        }
      },
      "renounceOwnership()": {
        "details": "Leaves the contract without owner. It will not be possible to call `onlyOwner` functions anymore. Can only be called by the current owner.     * > Note: Renouncing ownership will leave the contract without an owner, thereby removing any functionality that is only available to the owner."
      },
      "transferOwnership(address)": {
        "details": "Transfers ownership of the contract to a new account (`newOwner`). Can only be called by the current owner."
      },
      "withdrawLTokens(address,uint256)": {
        "params": {
          "amount": "Amount of tokens to deposit",
          "to": "Address of the user, who sends tokens. Should have enough allowance."
        }
      },
      "withdrawLTokens(address,uint256,uint256)": {
        "params": {
          "amount": "Amount of tokens to deposit",
          "poolFee": "Pool fee will be sent to pool owner",
          "to": "Address of the user, who sends tokens. Should have enough allowance."
        }
      },
      "withdrawPTokens(address,uint256)": {
        "params": {
          "amount": "Amount of tokens to deposit",
          "to": "Address of the user, who receivs tokens."
        }
      }
    }
  },
  "userdoc": {
    "methods": {
      "burnPTokens(address,uint256)": {
        "notice": "Burn pool tokens"
      },
      "calculatePoolEnter(uint256)": {
        "notice": "Calculates how many pTokens should be given to user for increasing liquidity"
      },
      "calculatePoolExit(uint256)": {
        "notice": "Calculates how many pTokens should be taken from user for decreasing liquidity"
      },
      "calculatePoolExitInverse(uint256)": {
        "notice": "Calculates how many liquid tokens should be removed from pool when decreasing liquidity"
      },
      "depositLTokens(address,uint256)": {
        "notice": "Deposit liquid tokens to the pool"
      },
      "depositPTokens(address,uint256)": {
        "notice": "Deposit pool tokens to the pool"
      },
      "mintPTokens(address,uint256)": {
        "notice": "Mint new PTokens"
      },
      "refundLTokens(address,uint256)": {
        "notice": "Refund liquid tokens accidentially sent directly to this contract"
      },
      "withdrawLTokens(address,uint256)": {
        "notice": "Withdraw liquid tokens from the pool"
      },
      "withdrawLTokens(address,uint256,uint256)": {
        "notice": "Withdraw liquid tokens from the pool"
      },
      "withdrawPTokens(address,uint256)": {
        "notice": "Withdraw pool tokens from the pool"
      }
    }
  }
}