{
  "contractName": "FundsModule",
  "abi": [
    {
      "anonymous": false,
      "inputs": [
        {
          "indexed": true,
          "internalType": "address",
          "name": "account",
          "type": "address"
        }
      ],
      "name": "FundsOperatorAdded",
      "type": "event"
    },
    {
      "anonymous": false,
      "inputs": [
        {
          "indexed": true,
          "internalType": "address",
          "name": "account",
          "type": "address"
        }
      ],
      "name": "FundsOperatorRemoved",
      "type": "event"
    },
    {
      "anonymous": false,
      "inputs": [
        {
          "indexed": true,
          "internalType": "address",
          "name": "previousOwner",
          "type": "address"
        },
        {
          "indexed": true,
          "internalType": "address",
          "name": "newOwner",
          "type": "address"
        }
      ],
      "name": "OwnershipTransferred",
      "type": "event"
    },
    {
      "anonymous": false,
      "inputs": [
        {
          "indexed": false,
          "internalType": "uint256",
          "name": "lBalance",
          "type": "uint256"
        },
        {
          "indexed": false,
          "internalType": "uint256",
          "name": "lDebts",
          "type": "uint256"
        },
        {
          "indexed": false,
          "internalType": "uint256",
          "name": "lProposals",
          "type": "uint256"
        },
        {
          "indexed": false,
          "internalType": "uint256",
          "name": "pEnterPrice",
          "type": "uint256"
        },
        {
          "indexed": false,
          "internalType": "uint256",
          "name": "pExitPrice",
          "type": "uint256"
        }
      ],
      "name": "Status",
      "type": "event"
    },
    {
      "constant": true,
      "inputs": [],
      "name": "MODULE_CURVE",
      "outputs": [
        {
          "internalType": "string",
          "name": "",
          "type": "string"
        }
      ],
      "payable": false,
      "stateMutability": "view",
      "type": "function"
    },
    {
      "constant": true,
      "inputs": [],
      "name": "MODULE_FUNDS",
      "outputs": [
        {
          "internalType": "string",
          "name": "",
          "type": "string"
        }
      ],
      "payable": false,
      "stateMutability": "view",
      "type": "function"
    },
    {
      "constant": true,
      "inputs": [],
      "name": "MODULE_LIQUIDITY",
      "outputs": [
        {
          "internalType": "string",
          "name": "",
          "type": "string"
        }
      ],
      "payable": false,
      "stateMutability": "view",
      "type": "function"
    },
    {
      "constant": true,
      "inputs": [],
      "name": "MODULE_LOAN",
      "outputs": [
        {
          "internalType": "string",
          "name": "",
          "type": "string"
        }
      ],
      "payable": false,
      "stateMutability": "view",
      "type": "function"
    },
    {
      "constant": true,
      "inputs": [],
      "name": "MODULE_LTOKEN",
      "outputs": [
        {
          "internalType": "string",
          "name": "",
          "type": "string"
        }
      ],
      "payable": false,
      "stateMutability": "view",
      "type": "function"
    },
    {
      "constant": true,
      "inputs": [],
      "name": "MODULE_PTOKEN",
      "outputs": [
        {
          "internalType": "string",
          "name": "",
          "type": "string"
        }
      ],
      "payable": false,
      "stateMutability": "view",
      "type": "function"
    },
    {
      "constant": false,
      "inputs": [
        {
          "internalType": "address",
          "name": "account",
          "type": "address"
        }
      ],
      "name": "addFundsOperator",
      "outputs": [],
      "payable": false,
      "stateMutability": "nonpayable",
      "type": "function"
    },
    {
      "constant": true,
      "inputs": [
        {
          "internalType": "string",
          "name": "module",
          "type": "string"
        }
      ],
      "name": "getModuleAddress",
      "outputs": [
        {
          "internalType": "address",
          "name": "",
          "type": "address"
        }
      ],
      "payable": false,
      "stateMutability": "view",
      "type": "function"
    },
    {
      "constant": true,
      "inputs": [
        {
          "internalType": "address",
          "name": "account",
          "type": "address"
        }
      ],
      "name": "isFundsOperator",
      "outputs": [
        {
          "internalType": "bool",
          "name": "",
          "type": "bool"
        }
      ],
      "payable": false,
      "stateMutability": "view",
      "type": "function"
    },
    {
      "constant": true,
      "inputs": [],
      "name": "isOwner",
      "outputs": [
        {
          "internalType": "bool",
          "name": "",
          "type": "bool"
        }
      ],
      "payable": false,
      "stateMutability": "view",
      "type": "function"
    },
    {
      "constant": true,
      "inputs": [],
      "name": "lBalance",
      "outputs": [
        {
          "internalType": "uint256",
          "name": "",
          "type": "uint256"
        }
      ],
      "payable": false,
      "stateMutability": "view",
      "type": "function"
    },
    {
      "constant": true,
      "inputs": [],
      "name": "owner",
      "outputs": [
        {
          "internalType": "address",
          "name": "",
          "type": "address"
        }
      ],
      "payable": false,
      "stateMutability": "view",
      "type": "function"
    },
    {
      "constant": true,
      "inputs": [],
      "name": "pool",
      "outputs": [
        {
          "internalType": "address",
          "name": "",
          "type": "address"
        }
      ],
      "payable": false,
      "stateMutability": "view",
      "type": "function"
    },
    {
      "constant": false,
      "inputs": [],
      "name": "renounceFundsOperator",
      "outputs": [],
      "payable": false,
      "stateMutability": "nonpayable",
      "type": "function"
    },
    {
      "constant": false,
      "inputs": [],
      "name": "renounceOwnership",
      "outputs": [],
      "payable": false,
      "stateMutability": "nonpayable",
      "type": "function"
    },
    {
      "constant": false,
      "inputs": [
        {
          "internalType": "address",
          "name": "_pool",
          "type": "address"
        }
      ],
      "name": "setPool",
      "outputs": [],
      "payable": false,
      "stateMutability": "nonpayable",
      "type": "function"
    },
    {
      "constant": false,
      "inputs": [
        {
          "internalType": "address",
          "name": "newOwner",
          "type": "address"
        }
      ],
      "name": "transferOwnership",
      "outputs": [],
      "payable": false,
      "stateMutability": "nonpayable",
      "type": "function"
    },
    {
      "constant": false,
      "inputs": [
        {
          "internalType": "address",
          "name": "_pool",
          "type": "address"
        }
      ],
      "name": "initialize",
      "outputs": [],
      "payable": false,
      "stateMutability": "nonpayable",
      "type": "function"
    },
    {
      "constant": false,
      "inputs": [],
      "name": "initialize",
      "outputs": [],
      "payable": false,
      "stateMutability": "nonpayable",
      "type": "function"
    },
    {
      "constant": false,
      "inputs": [
        {
          "internalType": "address",
          "name": "from",
          "type": "address"
        },
        {
          "internalType": "uint256",
          "name": "amount",
          "type": "uint256"
        }
      ],
      "name": "depositLTokens",
      "outputs": [],
      "payable": false,
      "stateMutability": "nonpayable",
      "type": "function"
    },
    {
      "constant": false,
      "inputs": [
        {
          "internalType": "address",
          "name": "to",
          "type": "address"
        },
        {
          "internalType": "uint256",
          "name": "amount",
          "type": "uint256"
        }
      ],
      "name": "withdrawLTokens",
      "outputs": [],
      "payable": false,
      "stateMutability": "nonpayable",
      "type": "function"
    },
    {
      "constant": false,
      "inputs": [
        {
          "internalType": "address",
          "name": "to",
          "type": "address"
        },
        {
          "internalType": "uint256",
          "name": "amount",
          "type": "uint256"
        },
        {
          "internalType": "uint256",
          "name": "poolFee",
          "type": "uint256"
        }
      ],
      "name": "withdrawLTokens",
      "outputs": [],
      "payable": false,
      "stateMutability": "nonpayable",
      "type": "function"
    },
    {
      "constant": false,
      "inputs": [
        {
          "internalType": "address",
          "name": "from",
          "type": "address"
        },
        {
          "internalType": "uint256",
          "name": "amount",
          "type": "uint256"
        }
      ],
      "name": "depositPTokens",
      "outputs": [],
      "payable": false,
      "stateMutability": "nonpayable",
      "type": "function"
    },
    {
      "constant": false,
      "inputs": [
        {
          "internalType": "address",
          "name": "to",
          "type": "address"
        },
        {
          "internalType": "uint256",
          "name": "amount",
          "type": "uint256"
        }
      ],
      "name": "withdrawPTokens",
      "outputs": [],
      "payable": false,
      "stateMutability": "nonpayable",
      "type": "function"
    },
    {
      "constant": false,
      "inputs": [
        {
          "internalType": "address",
          "name": "to",
          "type": "address"
        },
        {
          "internalType": "uint256",
          "name": "amount",
          "type": "uint256"
        }
      ],
      "name": "mintPTokens",
      "outputs": [],
      "payable": false,
      "stateMutability": "nonpayable",
      "type": "function"
    },
    {
      "constant": false,
      "inputs": [
        {
          "internalType": "uint256",
          "name": "amount",
          "type": "uint256"
        }
      ],
      "name": "mintPTokens",
      "outputs": [],
      "payable": false,
      "stateMutability": "nonpayable",
      "type": "function"
    },
    {
      "constant": false,
      "inputs": [
        {
          "internalType": "uint256",
          "name": "amount",
          "type": "uint256"
        }
      ],
      "name": "burnPTokens",
      "outputs": [],
      "payable": false,
      "stateMutability": "nonpayable",
      "type": "function"
    },
    {
      "constant": false,
      "inputs": [
        {
          "internalType": "address",
          "name": "from",
          "type": "address"
        },
        {
          "internalType": "uint256",
          "name": "amount",
          "type": "uint256"
        }
      ],
      "name": "burnPTokens",
      "outputs": [],
      "payable": false,
      "stateMutability": "nonpayable",
      "type": "function"
    },
    {
      "constant": false,
      "inputs": [
        {
          "internalType": "address",
          "name": "from",
          "type": "address"
        },
        {
          "internalType": "address",
          "name": "to",
          "type": "address"
        },
        {
          "internalType": "uint256",
          "name": "amount",
          "type": "uint256"
        }
      ],
      "name": "movePTokens",
      "outputs": [],
      "payable": false,
      "stateMutability": "nonpayable",
      "type": "function"
    },
    {
      "constant": false,
      "inputs": [
        {
          "internalType": "address",
          "name": "to",
          "type": "address"
        },
        {
          "internalType": "uint256",
          "name": "amount",
          "type": "uint256"
        }
      ],
      "name": "refundLTokens",
      "outputs": [],
      "payable": false,
      "stateMutability": "nonpayable",
      "type": "function"
    },
    {
      "constant": true,
      "inputs": [
        {
          "internalType": "address",
          "name": "account",
          "type": "address"
        }
      ],
      "name": "pBalanceOf",
      "outputs": [
        {
          "internalType": "uint256",
          "name": "",
          "type": "uint256"
        }
      ],
      "payable": false,
      "stateMutability": "view",
      "type": "function"
    },
    {
      "constant": true,
      "inputs": [
        {
          "internalType": "uint256",
          "name": "lAmount",
          "type": "uint256"
        }
      ],
      "name": "calculatePoolEnter",
      "outputs": [
        {
          "internalType": "uint256",
          "name": "",
          "type": "uint256"
        }
      ],
      "payable": false,
      "stateMutability": "view",
      "type": "function"
    },
    {
      "constant": true,
      "inputs": [
        {
          "internalType": "uint256",
          "name": "lAmount",
          "type": "uint256"
        }
      ],
      "name": "calculatePoolExit",
      "outputs": [
        {
          "internalType": "uint256",
          "name": "",
          "type": "uint256"
        }
      ],
      "payable": false,
      "stateMutability": "view",
      "type": "function"
    },
    {
      "constant": true,
      "inputs": [
        {
          "internalType": "uint256",
          "name": "pAmount",
          "type": "uint256"
        }
      ],
      "name": "calculatePoolExitInverse",
      "outputs": [
        {
          "internalType": "uint256",
          "name": "",
          "type": "uint256"
        },
        {
          "internalType": "uint256",
          "name": "",
          "type": "uint256"
        },
        {
          "internalType": "uint256",
          "name": "",
          "type": "uint256"
        }
      ],
      "payable": false,
      "stateMutability": "view",
      "type": "function"
    }
  ],
  "bytecode": "0x6080604052612a2a806100136000396000f3fe608060405234801561001057600080fd5b50600436106102065760003560e01c8063889d26651161011a578063d684e0ad116100ad578063e7ba37d31161007c578063e7ba37d31461065b578063f105d77c14610681578063f2fde38b146106a7578063f8261827146106cd578063fa584ad0146106d557610206565b8063d684e0ad146105c9578063d8b0bf18146105f5578063de57ce9114610621578063e01740fb1461063e57610206565b80638fa6c72e116100e95780638fa6c72e146105495780639ae1b84d14610575578063b23a97d01461059b578063c4d66de8146105a357610206565b8063889d2665146104cd5780638da5cb5b146104ea5780638dc5f4b8146104f25780638f32d59b1461052d57610206565b80634437152a1161019d578063715018a61161016c578063715018a6146103e357806371dc760f146103eb578063735aea1e146104915780638129fc1c146104bd5780638230d02d146104c557610206565b80634437152a1461038157806357b4a55d146103a75780636331d14d146103af578063706463fa146103b757610206565b80632b772904116101d95780632b7729041461031057806333e6a5f21461033f578063368731ff14610371578063368981a61461037957610206565b8063077aa7051461020b5780630a40b35714610288578063127e83e8146102b657806316f0115b146102ec575b600080fd5b610213610701565b6040805160208082528351818301528351919283929083019185019080838360005b8381101561024d578181015183820152602001610235565b50505050905090810190601f16801561027a5780820380516001836020036101000a031916815260200191505b509250505060405180910390f35b6102b46004803603604081101561029e57600080fd5b506001600160a01b038135169060200135610722565b005b6102b4600480360360608110156102cc57600080fd5b506001600160a01b03813581169160208101359091169060400135610850565b6102f4610a03565b604080516001600160a01b039092168252519081900360200190f35b61032d6004803603602081101561032657600080fd5b5035610a12565b60408051918252519081900360200190f35b6102b46004803603606081101561035557600080fd5b506001600160a01b038135169060208101359060400135610b1d565b610213610d71565b610213610d93565b6102b46004803603602081101561039757600080fd5b50356001600160a01b0316610db3565b6102b4610e2e565b61032d610e40565b6102b4600480360360408110156103cd57600080fd5b506001600160a01b038135169060200135610e46565b6102b4610fad565b6102f46004803603602081101561040157600080fd5b81019060208101813564010000000081111561041c57600080fd5b82018360208201111561042e57600080fd5b8035906020019184600183028401116401000000008311171561045057600080fd5b91908080601f016020809104026020016040519081016040528093929190818152602001838380828437600092019190915250929550611050945050505050565b6102b4600480360360408110156104a757600080fd5b506001600160a01b03813516906020013561125b565b6102b4611463565b610213611515565b6102b4600480360360208110156104e357600080fd5b503561153a565b6102f4611692565b61050f6004803603602081101561050857600080fd5b50356116a1565b60408051938452602084019290925282820152519081900360600190f35b6105356117c1565b604080519115158252519081900360200190f35b6102b46004803603604081101561055f57600080fd5b506001600160a01b0381351690602001356117e7565b6102b46004803603602081101561058b57600080fd5b50356001600160a01b031661192a565b610213611979565b6102b4600480360360208110156105b957600080fd5b50356001600160a01b031661199a565b6102b4600480360360408110156105df57600080fd5b506001600160a01b038135169060200135611a55565b6102b46004803603604081101561060b57600080fd5b506001600160a01b038135169060200135611bc1565b6102b46004803603602081101561063757600080fd5b5035611cd2565b61032d6004803603602081101561065457600080fd5b5035611d9e565b61032d6004803603602081101561067157600080fd5b50356001600160a01b0316611e6c565b6105356004803603602081101561069757600080fd5b50356001600160a01b0316611e87565b6102b4600480360360208110156106bd57600080fd5b50356001600160a01b0316611ea0565b610213611f02565b6102b4600480360360408110156106eb57600080fd5b506001600160a01b038135169060200135611f24565b6040518060400160405280600581526020016466756e647360d81b81525081565b61073261072d611f76565b611e87565b61076d5760405162461bcd60e51b815260040180806020018281038252603e8152602001806128bf603e913960400191505060405180910390fd5b610775611f7a565b6001600160a01b03166340c10f1983836040518363ffffffff1660e01b815260040180836001600160a01b03166001600160a01b0316815260200182815260200192505050602060405180830381600087803b1580156107d457600080fd5b505af11580156107e8573d6000803e3d6000fd5b505050506040513d60208110156107fe57600080fd5b505161084c576040805162461bcd60e51b8152602060048201526018602482015277119d5b991cd35bd91d5b194e881b5a5b9d0819985a5b195960421b604482015290519081900360640190fd5b5050565b61085b61072d611f76565b6108965760405162461bcd60e51b815260040180806020018281038252603e8152602001806128bf603e913960400191505060405180910390fd5b61089e611f7a565b6001600160a01b03166360b63648846040518263ffffffff1660e01b815260040180826001600160a01b03166001600160a01b03168152602001915050600060405180830381600087803b1580156108f557600080fd5b505af1158015610909573d6000803e3d6000fd5b50505050610915611f7a565b6001600160a01b03166360b63648836040518263ffffffff1660e01b815260040180826001600160a01b03166001600160a01b03168152602001915050600060405180830381600087803b15801561096c57600080fd5b505af1158015610980573d6000803e3d6000fd5b5050506001600160a01b0384166000908152606960205260409020546109ad91508263ffffffff611fa816565b6001600160a01b0380851660009081526069602052604080822093909355908416815220546109e2908263ffffffff611ff116565b6001600160a01b039092166000908152606960205260409020919091555050565b6066546001600160a01b031681565b600080610a1d61204b565b6001600160a01b0316630257a06b6040518163ffffffff1660e01b815260040160206040518083038186803b158015610a5557600080fd5b505afa158015610a69573d6000803e3d6000fd5b505050506040513d6020811015610a7f57600080fd5b50519050610a8b612072565b6001600160a01b03166345227516610aae83606854611fa890919063ffffffff16565b856040518363ffffffff1660e01b8152600401808381526020018281526020019250505060206040518083038186803b158015610aea57600080fd5b505afa158015610afe573d6000803e3d6000fd5b505050506040513d6020811015610b1457600080fd5b50519392505050565b610b2861072d611f76565b610b635760405162461bcd60e51b815260040180806020018281038252603e8152602001806128bf603e913960400191505060405180910390fd5b606854610b76908363ffffffff611fa816565b606855610b8161209a565b6001600160a01b031663a9059cbb84846040518363ffffffff1660e01b815260040180836001600160a01b03166001600160a01b0316815260200182815260200192505050602060405180830381600087803b158015610be057600080fd5b505af1158015610bf4573d6000803e3d6000fd5b505050506040513d6020811015610c0a57600080fd5b5051610c5d576040805162461bcd60e51b815260206004820152601c60248201527f46756e64734d6f64756c653a207769746864726177206661696c656400000000604482015290519081900360640190fd5b8015610d6457606854610c76908263ffffffff611fa816565b606855610c8161209a565b6001600160a01b031663a9059cbb610c97611692565b836040518363ffffffff1660e01b815260040180836001600160a01b03166001600160a01b0316815260200182815260200192505050602060405180830381600087803b158015610ce757600080fd5b505af1158015610cfb573d6000803e3d6000fd5b505050506040513d6020811015610d1157600080fd5b5051610d64576040805162461bcd60e51b815260206004820181905260248201527f46756e64734d6f64756c653a20666565207472616e73666572206661696c6564604482015290519081900360640190fd5b610d6c6120c3565b505050565b60405180604001604052806006815260200165383a37b5b2b760d11b81525081565b604051806040016040528060048152602001633637b0b760e11b81525081565b610dbb6117c1565b610e0c576040805162461bcd60e51b815260206004820181905260248201527f4f776e61626c653a2063616c6c6572206973206e6f7420746865206f776e6572604482015290519081900360640190fd5b606680546001600160a01b0319166001600160a01b0392909216919091179055565b610e3e610e39611f76565b612349565b565b60685481565b610e5161072d611f76565b610e8c5760405162461bcd60e51b815260040180806020018281038252603e8152602001806128bf603e913960400191505060405180910390fd5b6001600160a01b038216600090815260696020526040902054610eb5908263ffffffff611ff116565b6001600160a01b038316600090815260696020526040902055610ed6611f7a565b604080516323b872dd60e01b81526001600160a01b03858116600483015230602483015260448201859052915192909116916323b872dd916064808201926020929091908290030181600087803b158015610f3057600080fd5b505af1158015610f44573d6000803e3d6000fd5b505050506040513d6020811015610f5a57600080fd5b505161084c576040805162461bcd60e51b815260206004820152601b60248201527f46756e64734d6f64756c653a206465706f736974206661696c65640000000000604482015290519081900360640190fd5b610fb56117c1565b611006576040805162461bcd60e51b815260206004820181905260248201527f4f776e61626c653a2063616c6c6572206973206e6f7420746865206f776e6572604482015290519081900360640190fd5b6033546040516000916001600160a01b0316907f8be0079c531659141344cd1fd0a4f28419497f9722a3daafe3b4186f6b6457e0908390a3603380546001600160a01b0319169055565b6066546000906001600160a01b03166110a2576040805162461bcd60e51b815260206004820152600f60248201526e135bd91d5b194e881b9bc81c1bdbdb608a1b604482015290519081900360640190fd5b6066546040516020602482018181528551604484015285516000946060946001600160a01b03909116938893928392606401918501908083838b5b838110156110f55781810151838201526020016110dd565b50505050905090810190601f1680156111225780820380516001836020036101000a031916815260200191505b5060408051601f198184030181529181526020820180516001600160e01b031663349f642f60e11b178152905182519295509350839250908083835b6020831061117d5780518252601f19909201916020918201910161115e565b6001836020036101000a038019825116818451168082178552505050505050905001915050600060405180830381855afa9150503d80600081146111dd576040519150601f19603f3d011682016040523d82523d6000602084013e6111e2565b606091505b5091509150816111f3578060208201fd5b600081806020019051602081101561120a57600080fd5b505190506001600160a01b0381166112535760405162461bcd60e51b81526004018080602001828103825260228152602001806129d46022913960400191505060405180910390fd5b949350505050565b61126661072d611f76565b6112a15760405162461bcd60e51b815260040180806020018281038252603e8152602001806128bf603e913960400191505060405180910390fd5b60006112ab61209a565b6001600160a01b03166370a08231306040518263ffffffff1660e01b815260040180826001600160a01b03166001600160a01b0316815260200191505060206040518083038186803b15801561130057600080fd5b505afa158015611314573d6000803e3d6000fd5b505050506040513d602081101561132a57600080fd5b5051606854909150611342828463ffffffff611fa816565b101561137f5760405162461bcd60e51b815260040180806020018281038252602881526020018061293b6028913960400191505060405180910390fd5b61138761209a565b6001600160a01b031663a9059cbb84846040518363ffffffff1660e01b815260040180836001600160a01b03166001600160a01b0316815260200182815260200192505050602060405180830381600087803b1580156113e657600080fd5b505af11580156113fa573d6000803e3d6000fd5b505050506040513d602081101561141057600080fd5b5051610d6c576040805162461bcd60e51b815260206004820152601a60248201527f46756e64734d6f64756c653a20726566756e64206661696c6564000000000000604482015290519081900360640190fd5b600054610100900460ff168061147c575061147c612391565b8061148a575060005460ff16155b6114c55760405162461bcd60e51b815260040180806020018281038252602e8152602001806129a6602e913960400191505060405180910390fd5b600054610100900460ff161580156114f0576000805460ff1961ff0019909116610100171660011790555b6115006114fb611f76565b612397565b8015611512576000805461ff00191690555b50565b604051806040016040528060098152602001686c697175696469747960b81b81525081565b61154561072d611f76565b6115805760405162461bcd60e51b815260040180806020018281038252603e8152602001806128bf603e913960400191505060405180910390fd5b611588611f7a565b6001600160a01b03166340c10f1930836040518363ffffffff1660e01b815260040180836001600160a01b03166001600160a01b0316815260200182815260200192505050602060405180830381600087803b1580156115e757600080fd5b505af11580156115fb573d6000803e3d6000fd5b505050506040513d602081101561161157600080fd5b505161165f576040805162461bcd60e51b8152602060048201526018602482015277119d5b991cd35bd91d5b194e881b5a5b9d0819985a5b195960421b604482015290519081900360640190fd5b3060009081526069602052604090205461167f908263ffffffff611ff116565b3060009081526069602052604090205550565b6033546001600160a01b031690565b6000806000806116af61204b565b6001600160a01b0316630257a06b6040518163ffffffff1660e01b815260040160206040518083038186803b1580156116e757600080fd5b505afa1580156116fb573d6000803e3d6000fd5b505050506040513d602081101561171157600080fd5b5051905061171d612072565b6001600160a01b031663a05961dd61174083606854611fa890919063ffffffff16565b876040518363ffffffff1660e01b8152600401808381526020018281526020019250505060606040518083038186803b15801561177c57600080fd5b505afa158015611790573d6000803e3d6000fd5b505050506040513d60608110156117a657600080fd5b50805160208201516040909201519097919650945092505050565b6033546000906001600160a01b03166117d8611f76565b6001600160a01b031614905090565b6117f261072d611f76565b61182d5760405162461bcd60e51b815260040180806020018281038252603e8152602001806128bf603e913960400191505060405180910390fd5b606854611840908263ffffffff611ff116565b60685561184b61209a565b604080516323b872dd60e01b81526001600160a01b03858116600483015230602483015260448201859052915192909116916323b872dd916064808201926020929091908290030181600087803b1580156118a557600080fd5b505af11580156118b9573d6000803e3d6000fd5b505050506040513d60208110156118cf57600080fd5b5051611922576040805162461bcd60e51b815260206004820152601b60248201527f46756e64734d6f64756c653a206465706f736974206661696c65640000000000604482015290519081900360640190fd5b61084c6120c3565b61193561072d611f76565b6119705760405162461bcd60e51b815260040180806020018281038252603e8152602001806128bf603e913960400191505060405180910390fd5b61151281612488565b60405180604001604052806005815260200164637572766560d81b81525081565b600054610100900460ff16806119b357506119b3612391565b806119c1575060005460ff16155b6119fc5760405162461bcd60e51b815260040180806020018281038252602e8152602001806129a6602e913960400191505060405180910390fd5b600054610100900460ff16158015611a27576000805460ff1961ff0019909116610100171660011790555b611a30826124d0565b611a40611a3b611f76565b61256e565b801561084c576000805461ff00191690555050565b611a6061072d611f76565b611a9b5760405162461bcd60e51b815260040180806020018281038252603e8152602001806128bf603e913960400191505060405180910390fd5b6001600160a01b038216600090815260696020526040902054611ac4908263ffffffff611fa816565b6001600160a01b038316600090815260696020526040902055611ae5611f7a565b6001600160a01b031663a9059cbb83836040518363ffffffff1660e01b815260040180836001600160a01b03166001600160a01b0316815260200182815260200192505050602060405180830381600087803b158015611b4457600080fd5b505af1158015611b58573d6000803e3d6000fd5b505050506040513d6020811015611b6e57600080fd5b505161084c576040805162461bcd60e51b815260206004820152601c60248201527f46756e64734d6f64756c653a207769746864726177206661696c656400000000604482015290519081900360640190fd5b611bcc61072d611f76565b611c075760405162461bcd60e51b815260040180806020018281038252603e8152602001806128bf603e913960400191505060405180910390fd5b6001600160a01b038216301415611c4f5760405162461bcd60e51b815260040180806020018281038252603e8152602001806128fd603e913960400191505060405180910390fd5b611c57611f7a565b6001600160a01b03166379cc679083836040518363ffffffff1660e01b815260040180836001600160a01b03166001600160a01b0316815260200182815260200192505050600060405180830381600087803b158015611cb657600080fd5b505af1158015611cca573d6000803e3d6000fd5b505050505050565b611cdd61072d611f76565b611d185760405162461bcd60e51b815260040180806020018281038252603e8152602001806128bf603e913960400191505060405180910390fd5b611d20611f7a565b6001600160a01b03166342966c68826040518263ffffffff1660e01b815260040180828152602001915050600060405180830381600087803b158015611d6557600080fd5b505af1158015611d79573d6000803e3d6000fd5b50503060009081526069602052604090205461167f925090508263ffffffff611fa816565b600080611da961204b565b6001600160a01b031663813474976040518163ffffffff1660e01b815260040160206040518083038186803b158015611de157600080fd5b505afa158015611df5573d6000803e3d6000fd5b505050506040513d6020811015611e0b57600080fd5b50519050611e17612072565b6001600160a01b031663fa9c5d1b60685483866040518463ffffffff1660e01b815260040180848152602001838152602001828152602001935050505060206040518083038186803b158015610aea57600080fd5b6001600160a01b031660009081526069602052604090205490565b6000611e9a60678363ffffffff61261116565b92915050565b611ea86117c1565b611ef9576040805162461bcd60e51b815260206004820181905260248201527f4f776e61626c653a2063616c6c6572206973206e6f7420746865206f776e6572604482015290519081900360640190fd5b61151281612678565b60405180604001604052806006815260200165363a37b5b2b760d11b81525081565b611f2f61072d611f76565b611f6a5760405162461bcd60e51b815260040180806020018281038252603e8152602001806128bf603e913960400191505060405180910390fd5b61084c82826000610b1d565b3390565b6000611fa360405180604001604052806006815260200165383a37b5b2b760d11b815250611050565b905090565b6000611fea83836040518060400160405280601e81526020017f536166654d6174683a207375627472616374696f6e206f766572666c6f770000815250612719565b9392505050565b600082820183811015611fea576040805162461bcd60e51b815260206004820152601b60248201527f536166654d6174683a206164646974696f6e206f766572666c6f770000000000604482015290519081900360640190fd5b6000611fa3604051806040016040528060048152602001633637b0b760e11b815250611050565b6000611fa360405180604001604052806005815260200164637572766560d81b815250611050565b6000611fa360405180604001604052806006815260200165363a37b5b2b760d11b815250611050565b60006120cd61204b565b6001600160a01b031663813474976040518163ffffffff1660e01b815260040160206040518083038186803b15801561210557600080fd5b505afa158015612119573d6000803e3d6000fd5b505050506040513d602081101561212f57600080fd5b50519050600061213d61204b565b6001600160a01b0316630257a06b6040518163ffffffff1660e01b815260040160206040518083038186803b15801561217557600080fd5b505afa158015612189573d6000803e3d6000fd5b505050506040513d602081101561219f57600080fd5b5051905060006121ad612072565b6001600160a01b031663fa9c5d1b60685485670de0b6b3a76400006040518463ffffffff1660e01b815260040180848152602001838152602001828152602001935050505060206040518083038186803b15801561220a57600080fd5b505afa15801561221e573d6000803e3d6000fd5b505050506040513d602081101561223457600080fd5b5051606854909150600090670de0b6b3a7640000116122ef57612255612072565b6001600160a01b0316634522751661227885606854611fa890919063ffffffff16565b670de0b6b3a76400006040518363ffffffff1660e01b8152600401808381526020018281526020019250505060206040518083038186803b1580156122bc57600080fd5b505afa1580156122d0573d6000803e3d6000fd5b505050506040513d60208110156122e657600080fd5b505190506122f3565b5060005b60685460408051918252602082018690528181018590526060820184905260808201839052517f5e33fbd95b1a88e2ba8584883e39b0be2be6c902f64594ab5b19d03d709fcc239181900360a00190a150505050565b61235a60678263ffffffff6127b016565b6040516001600160a01b038216907fa8a03a268b980a88fc775ab98b322f8db8a2a3648a7331f7b1abd5372eed9e4e90600090a250565b303b1590565b600054610100900460ff16806123b057506123b0612391565b806123be575060005460ff16155b6123f95760405162461bcd60e51b815260040180806020018281038252602e8152602001806129a6602e913960400191505060405180910390fd5b600054610100900460ff16158015612424576000805460ff1961ff0019909116610100171660011790555b603380546001600160a01b0319166001600160a01b0384811691909117918290556040519116906000907f8be0079c531659141344cd1fd0a4f28419497f9722a3daafe3b4186f6b6457e0908290a3801561084c576000805461ff00191690555050565b61249960678263ffffffff61281716565b6040516001600160a01b038216907fdf877c05f98e781af102fa8821b4aac8a6a56f119577f08b15bbe515f26e167c90600090a250565b600054610100900460ff16806124e957506124e9612391565b806124f7575060005460ff16155b6125325760405162461bcd60e51b815260040180806020018281038252602e8152602001806129a6602e913960400191505060405180910390fd5b600054610100900460ff1615801561255d576000805460ff1961ff0019909116610100171660011790555b612565611463565b611a4082610db3565b600054610100900460ff16806125875750612587612391565b80612595575060005460ff16155b6125d05760405162461bcd60e51b815260040180806020018281038252602e8152602001806129a6602e913960400191505060405180910390fd5b600054610100900460ff161580156125fb576000805460ff1961ff0019909116610100171660011790555b61260482611e87565b611a4057611a4082612488565b60006001600160a01b0382166126585760405162461bcd60e51b81526004018080602001828103825260228152602001806129846022913960400191505060405180910390fd5b506001600160a01b03166000908152602091909152604090205460ff1690565b6001600160a01b0381166126bd5760405162461bcd60e51b81526004018080602001828103825260268152602001806128996026913960400191505060405180910390fd5b6033546040516001600160a01b038084169216907f8be0079c531659141344cd1fd0a4f28419497f9722a3daafe3b4186f6b6457e090600090a3603380546001600160a01b0319166001600160a01b0392909216919091179055565b600081848411156127a85760405162461bcd60e51b81526004018080602001828103825283818151815260200191508051906020019080838360005b8381101561276d578181015183820152602001612755565b50505050905090810190601f16801561279a5780820380516001836020036101000a031916815260200191505b509250505060405180910390fd5b505050900390565b6127ba8282612611565b6127f55760405162461bcd60e51b81526004018080602001828103825260218152602001806129636021913960400191505060405180910390fd5b6001600160a01b0316600090815260209190915260409020805460ff19169055565b6128218282612611565b15612873576040805162461bcd60e51b815260206004820152601f60248201527f526f6c65733a206163636f756e7420616c72656164792068617320726f6c6500604482015290519081900360640190fd5b6001600160a01b0316600090815260209190915260409020805460ff1916600117905556fe4f776e61626c653a206e6577206f776e657220697320746865207a65726f206164647265737346756e64734f70657261746f72526f6c653a2063616c6c657220646f6573206e6f742068617665207468652046756e64734f70657261746f7220726f6c6546756e64734d6f64756c653a20757365206f6e652d617267756d656e742076657273696f6e20746f206275726e2066726f6d2046756e64734d6f64756c6546756e64734d6f64756c653a206e6f7420656e6f75676820746f6b656e7320746f20726566756e64526f6c65733a206163636f756e7420646f6573206e6f74206861766520726f6c65526f6c65733a206163636f756e7420697320746865207a65726f2061646472657373436f6e747261637420696e7374616e63652068617320616c7265616479206265656e20696e697469616c697a65644d6f64756c653a20726571756573746564206d6f64756c65206e6f7420666f756e64a265627a7a723158208751c6f59e27f8482ba3ac2b7ced0fa4d7016355af84d4f0fe1389c1f2a366b364736f6c634300050c0032",
  "source": "pragma solidity ^0.5.12;\n\nimport \"@openzeppelin/contracts-ethereum-package/contracts/token/ERC20/IERC20.sol\";\nimport \"@openzeppelin/contracts-ethereum-package/contracts/math/SafeMath.sol\";\nimport \"../../interfaces/curve/ICurveModule.sol\";\nimport \"../../interfaces/curve/IFundsModule.sol\";\nimport \"../../interfaces/curve/ILoanModule.sol\";\nimport \"../../interfaces/token/IPToken.sol\";\nimport \"../../common/Module.sol\";\nimport \"./FundsOperatorRole.sol\";\n\ncontract FundsModule is Module, IFundsModule, FundsOperatorRole {\n    using SafeMath for uint256;\n    uint256 private constant STATUS_PRICE_AMOUNT = 10**18;  // Used to calculate price for Status event, should represent 1 DAI\n\n    uint256 public lBalance;    //Tracked balance of liquid token, may be less or equal to lToken.balanceOf(address(this))\n    mapping(address=>uint256) pBalances;    //Stores how many pTokens is locked in FundsModule by user\n\n    function initialize(address _pool) public initializer {\n        Module.initialize(_pool);\n        FundsOperatorRole.initialize(_msgSender());\n        //lBalance = lToken.balanceOf(address(this)); //We do not initialize lBalance to preserve it's previous value when updgrade\n    }\n\n    /**\n     * @notice Deposit liquid tokens to the pool\n     * @param from Address of the user, who sends tokens. Should have enough allowance.\n     * @param amount Amount of tokens to deposit\n     */\n    function depositLTokens(address from, uint256 amount) public onlyFundsOperator {\n        lBalance = lBalance.add(amount);\n        require(lToken().transferFrom(from, address(this), amount), \"FundsModule: deposit failed\");\n        emitStatus();\n    }\n\n    /**\n     * @notice Withdraw liquid tokens from the pool\n     * @param to Address of the user, who sends tokens. Should have enough allowance.\n     * @param amount Amount of tokens to deposit\n     */\n    function withdrawLTokens(address to, uint256 amount) public onlyFundsOperator {\n        withdrawLTokens(to, amount, 0);\n    }\n\n    /**\n     * @notice Withdraw liquid tokens from the pool\n     * @param to Address of the user, who sends tokens. Should have enough allowance.\n     * @param amount Amount of tokens to deposit\n     * @param poolFee Pool fee will be sent to pool owner\n     */\n    function withdrawLTokens(address to, uint256 amount, uint256 poolFee) public onlyFundsOperator {\n        lBalance = lBalance.sub(amount);\n        require(lToken().transfer(to, amount), \"FundsModule: withdraw failed\");\n        if (poolFee > 0) {\n            lBalance = lBalance.sub(poolFee);\n            require(lToken().transfer(owner(), poolFee), \"FundsModule: fee transfer failed\");\n        }\n        emitStatus();\n    }\n\n    /**\n     * @notice Deposit pool tokens to the pool\n     * @param from Address of the user, who sends tokens. Should have enough allowance.\n     * @param amount Amount of tokens to deposit\n     */\n    function depositPTokens(address from, uint256 amount) public onlyFundsOperator {\n        pBalances[from] = pBalances[from].add(amount);\n        require(pToken().transferFrom(from, address(this), amount), \"FundsModule: deposit failed\");\n    }\n\n    /**\n     * @notice Withdraw pool tokens from the pool\n     * @param to Address of the user, who receivs tokens.\n     * @param amount Amount of tokens to deposit\n     */\n    function withdrawPTokens(address to, uint256 amount) public onlyFundsOperator {\n        pBalances[to] = pBalances[to].sub(amount);\n        require(pToken().transfer(to, amount), \"FundsModule: withdraw failed\");\n    }\n\n    /**\n     * @notice Mint new PTokens to FundsModule\n     * @param amount Amount of tokens to mint\n     */\n    function mintPTokens(uint256 amount) public onlyFundsOperator {\n        require(pToken().mint(address(this), amount), \"FundsModule: mint failed\");\n        pBalances[address(this)] = pBalances[address(this)].add(amount);\n    }\n    \n    /**\n     * @notice Mint new PTokens\n     * @param to Address of the user, who sends tokens.\n     * @param amount Amount of tokens to mint\n     */\n    function mintPTokens(address to, uint256 amount) public onlyFundsOperator {\n        require(pToken().mint(to, amount), \"FundsModule: mint failed\");\n    }\n\n    /**\n     * @notice Burn locked pool tokens\n     * @param amount Amount of tokens to burn\n     */\n    function burnPTokens(uint256 amount) public onlyFundsOperator {\n        pToken().burn(amount); //This call will revert if we have not enough pTokens\n        pBalances[address(this)] = pBalances[address(this)].sub(amount); \n    }\n\n    /**\n     * @notice Burn pool tokens\n     * @param from Address of the user, whos tokens we burning. Should have enough allowance.\n     * @param amount Amount of tokens to burn\n     */\n    function burnPTokens(address from, uint256 amount) public onlyFundsOperator {\n        require(from != address(this), \"FundsModule: use one-argument version to burn from FundsModule\");\n        pToken().burnFrom(from, amount); //This call will revert if we have not enough allowance or sender has not enough pTokens\n    }\n\n    /**\n     * @notice Move locked pTokens from one user to another or to FundsModule itself\n     */\n    function movePTokens(address from, address to, uint256 amount) public onlyFundsOperator {\n        pToken().claimDistributions(from);\n        pToken().claimDistributions(to);\n        pBalances[from] = pBalances[from].sub(amount);                \n        pBalances[to] = pBalances[to].add(amount);                \n    }\n\n    /**\n     * @notice Refund liquid tokens accidentially sent directly to this contract\n     * @param to Address of the user, who receives refund\n     * @param amount Amount of tokens to send\n     */\n    function refundLTokens(address to, uint256 amount) public onlyFundsOperator {\n        uint256 realLBalance = lToken().balanceOf(address(this));\n        require(realLBalance.sub(amount) >= lBalance, \"FundsModule: not enough tokens to refund\");\n        require(lToken().transfer(to, amount), \"FundsModule: refund failed\");\n    }\n\n    /**\n     * @return Amount of pTokens locked in FundsModule by account\n     */\n    function pBalanceOf(address account) public view returns(uint256){\n        return pBalances[account];\n    }\n\n    /**\n     * @notice Calculates how many pTokens should be given to user for increasing liquidity\n     * @param lAmount Amount of liquid tokens which will be put into the pool\n     * @return Amount of pToken which should be sent to sender\n     */\n    function calculatePoolEnter(uint256 lAmount) public view returns(uint256) {\n        uint256 lDebts = loanModule().totalLDebts();\n        return curveModule().calculateEnter(lBalance, lDebts, lAmount);\n    }\n\n    /**\n     * @notice Calculates how many pTokens should be taken from user for decreasing liquidity\n     * @param lAmount Amount of liquid tokens which will be removed from the pool\n     * @return Amount of pToken which should be taken from sender\n     */\n    function calculatePoolExit(uint256 lAmount) public view returns(uint256) {\n        uint256 lProposals = loanModule().totalLProposals();\n        return curveModule().calculateExit(lBalance.sub(lProposals), lAmount);\n    }\n\n    /**\n     * @notice Calculates how many liquid tokens should be removed from pool when decreasing liquidity\n     * @param pAmount Amount of pToken which should be taken from sender\n     * @return Amount of liquid tokens which will be removed from the pool: total, part for sender, part for pool\n     */\n    function calculatePoolExitInverse(uint256 pAmount) public view returns(uint256, uint256, uint256) {\n        uint256 lProposals = loanModule().totalLProposals();\n        return curveModule().calculateExitInverseWithFee(lBalance.sub(lProposals), pAmount);\n    }\n\n    function emitStatus() private {\n        uint256 lDebts = loanModule().totalLDebts();\n        uint256 lProposals = loanModule().totalLProposals();\n        uint256 pEnterPrice = curveModule().calculateEnter(lBalance, lDebts, STATUS_PRICE_AMOUNT);\n        uint256 pExitPrice; // = 0; //0 is default value\n        if (lBalance >= STATUS_PRICE_AMOUNT) {\n            pExitPrice = curveModule().calculateExit(lBalance.sub(lProposals), STATUS_PRICE_AMOUNT);\n        } else {\n            pExitPrice = 0;\n        }\n        emit Status(lBalance, lDebts, lProposals, pEnterPrice, pExitPrice);\n    }\n\n    function curveModule() private view returns(ICurveModule) {\n        return ICurveModule(getModuleAddress(MODULE_CURVE));\n    }\n    \n    function loanModule() private view returns(ILoanModule) {\n        return ILoanModule(getModuleAddress(MODULE_LOAN));\n    }\n\n    function pToken() private view returns(IPToken){\n        return IPToken(getModuleAddress(MODULE_PTOKEN));\n    }\n    \n    function lToken() private view returns(IERC20){\n        return IERC20(getModuleAddress(MODULE_LTOKEN));\n    }\n\n}",
  "sourcePath": "/home/pickle/Documents/bch/akropolisOS/contracts/modules/funds/FundsModule.sol",
  "compiler": {
    "name": "solc",
    "version": "0.5.12+commit.7709ece9.Emscripten.clang"
  },
  "schemaVersion": "3.0.22",
  "updatedAt": "2020-02-18T07:17:19.347Z",
  "devdoc": {
    "methods": {
      "burnPTokens(address,uint256)": {
        "params": {
          "amount": "Amount of tokens to burn",
          "from": "Address of the user, whos tokens we burning. Should have enough allowance."
        }
      },
      "burnPTokens(uint256)": {
        "params": {
          "amount": "Amount of tokens to burn"
        }
      },
      "calculatePoolEnter(uint256)": {
        "params": {
          "lAmount": "Amount of liquid tokens which will be put into the pool"
        },
        "return": "Amount of pToken which should be sent to sender"
      },
      "calculatePoolExit(uint256)": {
        "params": {
          "lAmount": "Amount of liquid tokens which will be removed from the pool"
        },
        "return": "Amount of pToken which should be taken from sender"
      },
      "calculatePoolExitInverse(uint256)": {
        "params": {
          "pAmount": "Amount of pToken which should be taken from sender"
        },
        "return": "Amount of liquid tokens which will be removed from the pool: total, part for sender, part for pool"
      },
      "depositLTokens(address,uint256)": {
        "params": {
          "amount": "Amount of tokens to deposit",
          "from": "Address of the user, who sends tokens. Should have enough allowance."
        }
      },
      "depositPTokens(address,uint256)": {
        "params": {
          "amount": "Amount of tokens to deposit",
          "from": "Address of the user, who sends tokens. Should have enough allowance."
        }
      },
      "isOwner()": {
        "details": "Returns true if the caller is the current owner."
      },
      "mintPTokens(address,uint256)": {
        "params": {
          "amount": "Amount of tokens to mint",
          "to": "Address of the user, who sends tokens."
        }
      },
      "mintPTokens(uint256)": {
        "params": {
          "amount": "Amount of tokens to mint"
        }
      },
      "owner()": {
        "details": "Returns the address of the current owner."
      },
      "pBalanceOf(address)": {
        "return": "Amount of pTokens locked in FundsModule by account"
      },
      "refundLTokens(address,uint256)": {
        "params": {
          "amount": "Amount of tokens to send",
          "to": "Address of the user, who receives refund"
        }
      },
      "renounceOwnership()": {
        "details": "Leaves the contract without owner. It will not be possible to call `onlyOwner` functions anymore. Can only be called by the current owner.     * > Note: Renouncing ownership will leave the contract without an owner, thereby removing any functionality that is only available to the owner."
      },
      "transferOwnership(address)": {
        "details": "Transfers ownership of the contract to a new account (`newOwner`). Can only be called by the current owner."
      },
      "withdrawLTokens(address,uint256)": {
        "params": {
          "amount": "Amount of tokens to deposit",
          "to": "Address of the user, who sends tokens. Should have enough allowance."
        }
      },
      "withdrawLTokens(address,uint256,uint256)": {
        "params": {
          "amount": "Amount of tokens to deposit",
          "poolFee": "Pool fee will be sent to pool owner",
          "to": "Address of the user, who sends tokens. Should have enough allowance."
        }
      },
      "withdrawPTokens(address,uint256)": {
        "params": {
          "amount": "Amount of tokens to deposit",
          "to": "Address of the user, who receivs tokens."
        }
      }
    }
  },
  "userdoc": {
    "methods": {
      "burnPTokens(address,uint256)": {
        "notice": "Burn pool tokens"
      },
      "burnPTokens(uint256)": {
        "notice": "Burn locked pool tokens"
      },
      "calculatePoolEnter(uint256)": {
        "notice": "Calculates how many pTokens should be given to user for increasing liquidity"
      },
      "calculatePoolExit(uint256)": {
        "notice": "Calculates how many pTokens should be taken from user for decreasing liquidity"
      },
      "calculatePoolExitInverse(uint256)": {
        "notice": "Calculates how many liquid tokens should be removed from pool when decreasing liquidity"
      },
      "depositLTokens(address,uint256)": {
        "notice": "Deposit liquid tokens to the pool"
      },
      "depositPTokens(address,uint256)": {
        "notice": "Deposit pool tokens to the pool"
      },
      "mintPTokens(address,uint256)": {
        "notice": "Mint new PTokens"
      },
      "mintPTokens(uint256)": {
        "notice": "Mint new PTokens to FundsModule"
      },
      "movePTokens(address,address,uint256)": {
        "notice": "Move locked pTokens from one user to another or to FundsModule itself"
      },
      "refundLTokens(address,uint256)": {
        "notice": "Refund liquid tokens accidentially sent directly to this contract"
      },
      "withdrawLTokens(address,uint256)": {
        "notice": "Withdraw liquid tokens from the pool"
      },
      "withdrawLTokens(address,uint256,uint256)": {
        "notice": "Withdraw liquid tokens from the pool"
      },
      "withdrawPTokens(address,uint256)": {
        "notice": "Withdraw pool tokens from the pool"
      }
    }
  }
}