{
  "contractName": "LiquidityModule",
  "abi": [
    {
      "anonymous": false,
      "inputs": [
        {
          "indexed": true,
          "internalType": "address",
          "name": "sender",
          "type": "address"
        },
        {
          "indexed": false,
          "internalType": "uint256",
          "name": "lAmount",
          "type": "uint256"
        },
        {
          "indexed": false,
          "internalType": "uint256",
          "name": "pAmount",
          "type": "uint256"
        }
      ],
      "name": "Deposit",
      "type": "event"
    },
    {
      "anonymous": false,
      "inputs": [
        {
          "indexed": true,
          "internalType": "address",
          "name": "previousOwner",
          "type": "address"
        },
        {
          "indexed": true,
          "internalType": "address",
          "name": "newOwner",
          "type": "address"
        }
      ],
      "name": "OwnershipTransferred",
      "type": "event"
    },
    {
      "anonymous": false,
      "inputs": [
        {
          "indexed": true,
          "internalType": "address",
          "name": "sender",
          "type": "address"
        },
        {
          "indexed": false,
          "internalType": "uint256",
          "name": "lAmountTotal",
          "type": "uint256"
        },
        {
          "indexed": false,
          "internalType": "uint256",
          "name": "lAmountUser",
          "type": "uint256"
        },
        {
          "indexed": false,
          "internalType": "uint256",
          "name": "pAmount",
          "type": "uint256"
        }
      ],
      "name": "Withdraw",
      "type": "event"
    },
    {
      "constant": true,
      "inputs": [],
      "name": "MODULE_CURVE",
      "outputs": [
        {
          "internalType": "string",
          "name": "",
          "type": "string"
        }
      ],
      "payable": false,
      "stateMutability": "view",
      "type": "function"
    },
    {
      "constant": true,
      "inputs": [],
      "name": "MODULE_FUNDS",
      "outputs": [
        {
          "internalType": "string",
          "name": "",
          "type": "string"
        }
      ],
      "payable": false,
      "stateMutability": "view",
      "type": "function"
    },
    {
      "constant": true,
      "inputs": [],
      "name": "MODULE_LIQUIDITY",
      "outputs": [
        {
          "internalType": "string",
          "name": "",
          "type": "string"
        }
      ],
      "payable": false,
      "stateMutability": "view",
      "type": "function"
    },
    {
      "constant": true,
      "inputs": [],
      "name": "MODULE_LOAN",
      "outputs": [
        {
          "internalType": "string",
          "name": "",
          "type": "string"
        }
      ],
      "payable": false,
      "stateMutability": "view",
      "type": "function"
    },
    {
      "constant": true,
      "inputs": [],
      "name": "MODULE_LTOKEN",
      "outputs": [
        {
          "internalType": "string",
          "name": "",
          "type": "string"
        }
      ],
      "payable": false,
      "stateMutability": "view",
      "type": "function"
    },
    {
      "constant": true,
      "inputs": [],
      "name": "MODULE_PTOKEN",
      "outputs": [
        {
          "internalType": "string",
          "name": "",
          "type": "string"
        }
      ],
      "payable": false,
      "stateMutability": "view",
      "type": "function"
    },
    {
      "constant": true,
      "inputs": [
        {
          "internalType": "string",
          "name": "module",
          "type": "string"
        }
      ],
      "name": "getModuleAddress",
      "outputs": [
        {
          "internalType": "address",
          "name": "",
          "type": "address"
        }
      ],
      "payable": false,
      "stateMutability": "view",
      "type": "function"
    },
    {
      "constant": true,
      "inputs": [],
      "name": "isOwner",
      "outputs": [
        {
          "internalType": "bool",
          "name": "",
          "type": "bool"
        }
      ],
      "payable": false,
      "stateMutability": "view",
      "type": "function"
    },
    {
      "constant": true,
      "inputs": [],
      "name": "limits",
      "outputs": [
        {
          "internalType": "uint256",
          "name": "lDepositMin",
          "type": "uint256"
        },
        {
          "internalType": "uint256",
          "name": "pWithdrawMin",
          "type": "uint256"
        }
      ],
      "payable": false,
      "stateMutability": "view",
      "type": "function"
    },
    {
      "constant": true,
      "inputs": [],
      "name": "owner",
      "outputs": [
        {
          "internalType": "address",
          "name": "",
          "type": "address"
        }
      ],
      "payable": false,
      "stateMutability": "view",
      "type": "function"
    },
    {
      "constant": true,
      "inputs": [],
      "name": "pool",
      "outputs": [
        {
          "internalType": "address",
          "name": "",
          "type": "address"
        }
      ],
      "payable": false,
      "stateMutability": "view",
      "type": "function"
    },
    {
      "constant": false,
      "inputs": [],
      "name": "renounceOwnership",
      "outputs": [],
      "payable": false,
      "stateMutability": "nonpayable",
      "type": "function"
    },
    {
      "constant": false,
      "inputs": [
        {
          "internalType": "address",
          "name": "_pool",
          "type": "address"
        }
      ],
      "name": "setPool",
      "outputs": [],
      "payable": false,
      "stateMutability": "nonpayable",
      "type": "function"
    },
    {
      "constant": false,
      "inputs": [
        {
          "internalType": "address",
          "name": "newOwner",
          "type": "address"
        }
      ],
      "name": "transferOwnership",
      "outputs": [],
      "payable": false,
      "stateMutability": "nonpayable",
      "type": "function"
    },
    {
      "constant": false,
      "inputs": [],
      "name": "initialize",
      "outputs": [],
      "payable": false,
      "stateMutability": "nonpayable",
      "type": "function"
    },
    {
      "constant": false,
      "inputs": [
        {
          "internalType": "address",
          "name": "_pool",
          "type": "address"
        }
      ],
      "name": "initialize",
      "outputs": [],
      "payable": false,
      "stateMutability": "nonpayable",
      "type": "function"
    },
    {
      "constant": false,
      "inputs": [
        {
          "internalType": "uint256",
          "name": "lAmount",
          "type": "uint256"
        },
        {
          "internalType": "uint256",
          "name": "pAmountMin",
          "type": "uint256"
        }
      ],
      "name": "deposit",
      "outputs": [],
      "payable": false,
      "stateMutability": "nonpayable",
      "type": "function"
    },
    {
      "constant": false,
      "inputs": [
        {
          "internalType": "uint256",
          "name": "pAmount",
          "type": "uint256"
        },
        {
          "internalType": "uint256",
          "name": "lAmountMin",
          "type": "uint256"
        }
      ],
      "name": "withdraw",
      "outputs": [],
      "payable": false,
      "stateMutability": "nonpayable",
      "type": "function"
    },
    {
      "constant": false,
      "inputs": [
        {
          "internalType": "uint256",
          "name": "lDepositMin",
          "type": "uint256"
        },
        {
          "internalType": "uint256",
          "name": "pWithdrawMin",
          "type": "uint256"
        }
      ],
      "name": "setLimits",
      "outputs": [],
      "payable": false,
      "stateMutability": "nonpayable",
      "type": "function"
    }
  ],
  "bytecode": "0x6080604052611649806100136000396000f3fe608060405234801561001057600080fd5b50600436106101215760003560e01c80638230d02d116100ad578063c4590d3f11610071578063c4590d3f1461032d578063c4d66de814610350578063e2bbb15814610376578063f2fde38b14610399578063f8261827146103bf57610121565b80638230d02d146102d8578063860aefcf146102e05780638da5cb5b146103015780638f32d59b14610309578063b23a97d01461032557610121565b8063441a3e70116100f4578063441a3e70146101d75780634437152a146101fc578063715018a61461022257806371dc760f1461022a5780638129fc1c146102d057610121565b8063077aa7051461012657806316f0115b146101a3578063368731ff146101c7578063368981a6146101cf575b600080fd5b61012e6103c7565b6040805160208082528351818301528351919283929083019185019080838360005b83811015610168578181015183820152602001610150565b50505050905090810190601f1680156101955780820380516001836020036101000a031916815260200191505b509250505060405180910390f35b6101ab6103e8565b604080516001600160a01b039092168252519081900360200190f35b61012e6103f7565b61012e610419565b6101fa600480360360408110156101ed57600080fd5b5080359060200135610439565b005b6101fa6004803603602081101561021257600080fd5b50356001600160a01b0316610874565b6101fa6108dd565b6101ab6004803603602081101561024057600080fd5b81019060208101813564010000000081111561025b57600080fd5b82018360208201111561026d57600080fd5b8035906020019184600183028401116401000000008311171561028f57600080fd5b91908080601f01602080910402602001604051908101604052809392919081815260200183838082843760009201919091525092955061096e945050505050565b6101fa610b79565b61012e610c2b565b6102e8610c50565b6040805192835260208301919091528051918290030190f35b6101ab610c59565b610311610c68565b604080519115158252519081900360200190f35b61012e610c8e565b6101fa6004803603604081101561034357600080fd5b5080359060200135610caf565b6101fa6004803603602081101561036657600080fd5b50356001600160a01b0316610d01565b6101fa6004803603604081101561038c57600080fd5b5080359060200135610dc0565b6101fa600480360360208110156103af57600080fd5b50356001600160a01b0316611127565b61012e611177565b6040518060400160405280600581526020016466756e647360d81b81525081565b6066546001600160a01b031681565b60405180604001604052806006815260200165383a37b5b2b760d11b81525081565b604051806040016040528060048152602001633637b0b760e11b81525081565b600082116104785760405162461bcd60e51b81526004018080602001828103825260278152602001806114286027913960400191505060405180910390fd5b6068548210156104b95760405162461bcd60e51b815260040180806020018281038252603181526020018061149a6031913960400191505060405180910390fd5b6104c1611199565b6001600160a01b0316634916ebda6104d76111c5565b6040518263ffffffff1660e01b815260040180826001600160a01b03166001600160a01b0316815260200191505060206040518083038186803b15801561051d57600080fd5b505afa158015610531573d6000803e3d6000fd5b505050506040513d602081101561054757600080fd5b5051156105855760405162461bcd60e51b81526004018080602001828103825260408152602001806115d56040913960400191505060405180910390fd5b60008060006105926111c9565b6001600160a01b0316638dc5f4b8866040518263ffffffff1660e01b81526004018082815260200191505060606040518083038186803b1580156105d557600080fd5b505afa1580156105e9573d6000803e3d6000fd5b505050506040513d60608110156105ff57600080fd5b50805160208201516040909201519094509092509050838210156106545760405162461bcd60e51b815260040180806020018281038252602b8152602001806115aa602b913960400191505060405180910390fd5b600061065e6111c9565b6001600160a01b0316636331d14d6040518163ffffffff1660e01b815260040160206040518083038186803b15801561069657600080fd5b505afa1580156106aa573d6000803e3d6000fd5b505050506040513d60208110156106c057600080fd5b50519050808411156107035760405162461bcd60e51b81526004018080602001828103825260258152602001806114756025913960400191505060405180910390fd5b61070b6111c9565b6001600160a01b031663d8b0bf186107216111c5565b886040518363ffffffff1660e01b815260040180836001600160a01b03166001600160a01b0316815260200182815260200192505050600060405180830381600087803b15801561077157600080fd5b505af1158015610785573d6000803e3d6000fd5b505050506107916111c9565b6001600160a01b03166333e6a5f26107a76111c5565b85856040518463ffffffff1660e01b815260040180846001600160a01b03166001600160a01b031681526020018381526020018281526020019350505050600060405180830381600087803b1580156107ff57600080fd5b505af1158015610813573d6000803e3d6000fd5b5050505061081f6111c5565b604080518681526020810186905280820189905290516001600160a01b0392909216917f02f25270a4d87bea75db541cdfe559334a275b4a233520ed6c0a2429667cca949181900360600190a2505050505050565b61087c610c68565b6108bb576040805162461bcd60e51b815260206004820181905260248201526000805160206114fb833981519152604482015290519081900360640190fd5b606680546001600160a01b0319166001600160a01b0392909216919091179055565b6108e5610c68565b610924576040805162461bcd60e51b815260206004820181905260248201526000805160206114fb833981519152604482015290519081900360640190fd5b6033546040516000916001600160a01b0316907f8be0079c531659141344cd1fd0a4f28419497f9722a3daafe3b4186f6b6457e0908390a3603380546001600160a01b0319169055565b6066546000906001600160a01b03166109c0576040805162461bcd60e51b815260206004820152600f60248201526e135bd91d5b194e881b9bc81c1bdbdb608a1b604482015290519081900360640190fd5b6066546040516020602482018181528551604484015285516000946060946001600160a01b03909116938893928392606401918501908083838b5b83811015610a135781810151838201526020016109fb565b50505050905090810190601f168015610a405780820380516001836020036101000a031916815260200191505b5060408051601f198184030181529181526020820180516001600160e01b031663349f642f60e11b178152905182519295509350839250908083835b60208310610a9b5780518252601f199092019160209182019101610a7c565b6001836020036101000a038019825116818451168082178552505050505050905001915050600060405180830381855afa9150503d8060008114610afb576040519150601f19603f3d011682016040523d82523d6000602084013e610b00565b606091505b509150915081610b11578060208201fd5b6000818060200190516020811015610b2857600080fd5b505190506001600160a01b038116610b715760405162461bcd60e51b81526004018080602001828103825260228152602001806115496022913960400191505060405180910390fd5b949350505050565b600054610100900460ff1680610b925750610b926111f1565b80610ba0575060005460ff16155b610bdb5760405162461bcd60e51b815260040180806020018281038252602e81526020018061151b602e913960400191505060405180910390fd5b600054610100900460ff16158015610c06576000805460ff1961ff0019909116610100171660011790555b610c16610c116111c5565b6111f7565b8015610c28576000805461ff00191690555b50565b604051806040016040528060098152602001686c697175696469747960b81b81525081565b60675460685482565b6033546001600160a01b031690565b6033546000906001600160a01b0316610c7f6111c5565b6001600160a01b031614905090565b60405180604001604052806005815260200164637572766560d81b81525081565b610cb7610c68565b610cf6576040805162461bcd60e51b815260206004820181905260248201526000805160206114fb833981519152604482015290519081900360640190fd5b606791909155606855565b600054610100900460ff1680610d1a5750610d1a6111f1565b80610d28575060005460ff16155b610d635760405162461bcd60e51b815260040180806020018281038252602e81526020018061151b602e913960400191505060405180910390fd5b600054610100900460ff16158015610d8e576000805460ff1961ff0019909116610100171660011790555b610d97826112e8565b610daa678ac7230489e800006000610caf565b8015610dbc576000805461ff00191690555b5050565b60008211610dff5760405162461bcd60e51b81526004018080602001828103825260278152602001806114286027913960400191505060405180910390fd5b606754821015610e405760405162461bcd60e51b81526004018080602001828103825260308152602001806114cb6030913960400191505060405180910390fd5b610e48611199565b6001600160a01b0316634916ebda610e5e6111c5565b6040518263ffffffff1660e01b815260040180826001600160a01b03166001600160a01b0316815260200191505060206040518083038186803b158015610ea457600080fd5b505afa158015610eb8573d6000803e3d6000fd5b505050506040513d6020811015610ece57600080fd5b505115610f0c5760405162461bcd60e51b815260040180806020018281038252603f81526020018061156b603f913960400191505060405180910390fd5b6000610f166111c9565b6001600160a01b031663e01740fb846040518263ffffffff1660e01b81526004018082815260200191505060206040518083038186803b158015610f5957600080fd5b505afa158015610f6d573d6000803e3d6000fd5b505050506040513d6020811015610f8357600080fd5b5051905081811015610fc65760405162461bcd60e51b815260040180806020018281038252602b8152602001806115aa602b913960400191505060405180910390fd5b610fce6111c9565b6001600160a01b0316638fa6c72e610fe46111c5565b856040518363ffffffff1660e01b815260040180836001600160a01b03166001600160a01b0316815260200182815260200192505050600060405180830381600087803b15801561103457600080fd5b505af1158015611048573d6000803e3d6000fd5b505050506110546111c9565b6001600160a01b0316630a40b35761106a6111c5565b836040518363ffffffff1660e01b815260040180836001600160a01b03166001600160a01b0316815260200182815260200192505050600060405180830381600087803b1580156110ba57600080fd5b505af11580156110ce573d6000803e3d6000fd5b505050506110da6111c5565b6001600160a01b03167f90890809c654f11d6e72a28fa60149770a0d11ec6c92319d6ceb2bb0a4ea1a158483604051808381526020018281526020019250505060405180910390a2505050565b61112f610c68565b61116e576040805162461bcd60e51b815260206004820181905260248201526000805160206114fb833981519152604482015290519081900360640190fd5b610c2881611386565b60405180604001604052806006815260200165363a37b5b2b760d11b81525081565b60006111c0604051806040016040528060048152602001633637b0b760e11b81525061096e565b905090565b3390565b60006111c06040518060400160405280600581526020016466756e647360d81b81525061096e565b303b1590565b600054610100900460ff168061121057506112106111f1565b8061121e575060005460ff16155b6112595760405162461bcd60e51b815260040180806020018281038252602e81526020018061151b602e913960400191505060405180910390fd5b600054610100900460ff16158015611284576000805460ff1961ff0019909116610100171660011790555b603380546001600160a01b0319166001600160a01b0384811691909117918290556040519116906000907f8be0079c531659141344cd1fd0a4f28419497f9722a3daafe3b4186f6b6457e0908290a38015610dbc576000805461ff00191690555050565b600054610100900460ff168061130157506113016111f1565b8061130f575060005460ff16155b61134a5760405162461bcd60e51b815260040180806020018281038252602e81526020018061151b602e913960400191505060405180910390fd5b600054610100900460ff16158015611375576000805460ff1961ff0019909116610100171660011790555b61137d610b79565b610daa82610874565b6001600160a01b0381166113cb5760405162461bcd60e51b815260040180806020018281038252602681526020018061144f6026913960400191505060405180910390fd5b6033546040516001600160a01b038084169216907f8be0079c531659141344cd1fd0a4f28419497f9722a3daafe3b4186f6b6457e090600090a3603380546001600160a01b0319166001600160a01b039290921691909117905556fe4c69717569646974794d6f64756c653a20616d6f756e742073686f756c64206e6f7420626520304f776e61626c653a206e6577206f776e657220697320746865207a65726f20616464726573734c69717569646974794d6f64756c653a206e6f7420656e6f756768206c69717569646974794c69717569646974794d6f64756c653a20616d6f756e742073686f756c64206265203e3d207057697468647261774d696e4c69717569646974794d6f64756c653a20616d6f756e742073686f756c64206265203e3d206c4465706f7369744d696e4f776e61626c653a2063616c6c6572206973206e6f7420746865206f776e6572436f6e747261637420696e7374616e63652068617320616c7265616479206265656e20696e697469616c697a65644d6f64756c653a20726571756573746564206d6f64756c65206e6f7420666f756e644c69717569646974794d6f64756c653a204465706f7369747320666f7262696464656e206966206164647265737320686173206163746976652064656274734c69717569646974794d6f64756c653a204d696e696d616c20616d6f756e7420697320746f6f20686967684c69717569646974794d6f64756c653a2057697468647261777320666f7262696464656e20696620616464726573732068617320616374697665206465627473a265627a7a7231582050bb6567e58d14ea54801166f9d9048245ccd6e141004b58907d273414f7366d64736f6c634300050c0032",
  "source": "pragma solidity ^0.5.12;\n\nimport \"@openzeppelin/contracts-ethereum-package/contracts/token/ERC20/IERC20.sol\";\nimport \"../../interfaces/curve/IFundsModule.sol\";\nimport \"../../interfaces/curve/ILoanModule.sol\";\nimport \"../../interfaces/curve/ILiquidityModule.sol\";\nimport \"../../token/pTokens/PToken.sol\";\nimport \"../../common/Module.sol\";\n\ncontract LiquidityModule is Module, ILiquidityModule {\n    struct LiquidityLimits {\n        uint256 lDepositMin;     // Minimal amount of liquid tokens for deposit\n        uint256 pWithdrawMin;    // Minimal amount of pTokens for withdraw\n    }\n\n    LiquidityLimits public limits;\n\n    function initialize(address _pool) public initializer {\n        Module.initialize(_pool);\n        setLimits(10*10**18, 0);    //10 DAI minimal enter\n    }\n\n    /*\n     * @notice Deposit amount of lToken and mint pTokens\n     * @param lAmount Amount of liquid tokens to invest\n     * @param pAmountMin Minimal amout of pTokens suitable for sender\n     */ \n    function deposit(uint256 lAmount, uint256 pAmountMin) public {\n        require(lAmount > 0, \"LiquidityModule: amount should not be 0\");\n        require(lAmount >= limits.lDepositMin, \"LiquidityModule: amount should be >= lDepositMin\");\n        require(!loanModule().hasActiveDebts(_msgSender()), \"LiquidityModule: Deposits forbidden if address has active debts\");\n        uint pAmount = fundsModule().calculatePoolEnter(lAmount);\n        require(pAmount >= pAmountMin, \"LiquidityModule: Minimal amount is too high\");\n        fundsModule().depositLTokens(_msgSender(), lAmount);\n        fundsModule().mintPTokens(_msgSender(), pAmount);\n        emit Deposit(_msgSender(), lAmount, pAmount);\n    }\n\n    /**\n     * @notice Withdraw amount of lToken and burn pTokens\n     * @param pAmount Amount of pTokens to send\n     * @param lAmountMin Minimal amount of liquid tokens to withdraw\n     */\n    function withdraw(uint256 pAmount, uint256 lAmountMin) public {\n        require(pAmount > 0, \"LiquidityModule: amount should not be 0\");\n        require(pAmount >= limits.pWithdrawMin, \"LiquidityModule: amount should be >= pWithdrawMin\");\n        require(!loanModule().hasActiveDebts(_msgSender()), \"LiquidityModule: Withdraws forbidden if address has active debts\");\n        (uint256 lAmountT, uint256 lAmountU, uint256 lAmountP) = fundsModule().calculatePoolExitInverse(pAmount);\n        require(lAmountU >= lAmountMin, \"LiquidityModule: Minimal amount is too high\");\n        uint256 availableLiquidity = fundsModule().lBalance();\n        require(lAmountT <= availableLiquidity, \"LiquidityModule: not enough liquidity\");\n        fundsModule().burnPTokens(_msgSender(), pAmount);\n        fundsModule().withdrawLTokens(_msgSender(), lAmountU, lAmountP);\n        emit Withdraw(_msgSender(), lAmountT, lAmountU, pAmount);\n    }\n\n    function setLimits(uint256 lDepositMin, uint256 pWithdrawMin) public onlyOwner {\n        limits.lDepositMin = lDepositMin;\n        limits.pWithdrawMin = pWithdrawMin;\n    }\n\n    function fundsModule() internal view returns(IFundsModule) {\n        return IFundsModule(getModuleAddress(MODULE_FUNDS));\n    }\n\n    function loanModule() internal view returns(ILoanModule) {\n        return ILoanModule(getModuleAddress(MODULE_LOAN));\n    }\n}",
  "sourcePath": "/home/pickle/Documents/bch/akropolisOS/contracts/modules/liquidity/LiquidityModule.sol",
  "compiler": {
    "name": "solc",
    "version": "0.5.12+commit.7709ece9.Emscripten.clang"
  },
  "schemaVersion": "3.0.22",
  "updatedAt": "2020-02-18T07:17:19.353Z",
  "devdoc": {
    "methods": {
      "isOwner()": {
        "details": "Returns true if the caller is the current owner."
      },
      "owner()": {
        "details": "Returns the address of the current owner."
      },
      "renounceOwnership()": {
        "details": "Leaves the contract without owner. It will not be possible to call `onlyOwner` functions anymore. Can only be called by the current owner.     * > Note: Renouncing ownership will leave the contract without an owner, thereby removing any functionality that is only available to the owner."
      },
      "transferOwnership(address)": {
        "details": "Transfers ownership of the contract to a new account (`newOwner`). Can only be called by the current owner."
      },
      "withdraw(uint256,uint256)": {
        "params": {
          "lAmountMin": "Minimal amount of liquid tokens to withdraw",
          "pAmount": "Amount of pTokens to send"
        }
      }
    }
  },
  "userdoc": {
    "methods": {
      "withdraw(uint256,uint256)": {
        "notice": "Withdraw amount of lToken and burn pTokens"
      }
    }
  }
}