{
  "contractName": "LiquidityModule",
  "abi": [
    {
      "anonymous": false,
      "inputs": [
        {
          "indexed": true,
          "internalType": "address",
          "name": "sender",
          "type": "address"
        },
        {
          "indexed": false,
          "internalType": "uint256",
          "name": "lAmount",
          "type": "uint256"
        },
        {
          "indexed": false,
          "internalType": "uint256",
          "name": "pAmount",
          "type": "uint256"
        }
      ],
      "name": "Deposit",
      "type": "event"
    },
    {
      "anonymous": false,
      "inputs": [
        {
          "indexed": true,
          "internalType": "address",
          "name": "previousOwner",
          "type": "address"
        },
        {
          "indexed": true,
          "internalType": "address",
          "name": "newOwner",
          "type": "address"
        }
      ],
      "name": "OwnershipTransferred",
      "type": "event"
    },
    {
      "anonymous": false,
      "inputs": [
        {
          "indexed": true,
          "internalType": "address",
          "name": "sender",
          "type": "address"
        },
        {
          "indexed": false,
          "internalType": "uint256",
          "name": "lAmountTotal",
          "type": "uint256"
        },
        {
          "indexed": false,
          "internalType": "uint256",
          "name": "lAmountUser",
          "type": "uint256"
        },
        {
          "indexed": false,
          "internalType": "uint256",
          "name": "pAmount",
          "type": "uint256"
        }
      ],
      "name": "Withdraw",
      "type": "event"
    },
    {
      "constant": true,
      "inputs": [],
      "name": "MODULE_CURVE",
      "outputs": [
        {
          "internalType": "string",
          "name": "",
          "type": "string"
        }
      ],
      "payable": false,
      "stateMutability": "view",
      "type": "function"
    },
    {
      "constant": true,
      "inputs": [],
      "name": "MODULE_FUNDS",
      "outputs": [
        {
          "internalType": "string",
          "name": "",
          "type": "string"
        }
      ],
      "payable": false,
      "stateMutability": "view",
      "type": "function"
    },
    {
      "constant": true,
      "inputs": [],
      "name": "MODULE_LIQUIDITY",
      "outputs": [
        {
          "internalType": "string",
          "name": "",
          "type": "string"
        }
      ],
      "payable": false,
      "stateMutability": "view",
      "type": "function"
    },
    {
      "constant": true,
      "inputs": [],
      "name": "MODULE_LOAN",
      "outputs": [
        {
          "internalType": "string",
          "name": "",
          "type": "string"
        }
      ],
      "payable": false,
      "stateMutability": "view",
      "type": "function"
    },
    {
      "constant": true,
      "inputs": [
        {
          "internalType": "string",
          "name": "module",
          "type": "string"
        }
      ],
      "name": "getModuleAddress",
      "outputs": [
        {
          "internalType": "address",
          "name": "",
          "type": "address"
        }
      ],
      "payable": false,
      "stateMutability": "view",
      "type": "function"
    },
    {
      "constant": true,
      "inputs": [],
      "name": "isOwner",
      "outputs": [
        {
          "internalType": "bool",
          "name": "",
          "type": "bool"
        }
      ],
      "payable": false,
      "stateMutability": "view",
      "type": "function"
    },
    {
      "constant": true,
      "inputs": [],
      "name": "owner",
      "outputs": [
        {
          "internalType": "address",
          "name": "",
          "type": "address"
        }
      ],
      "payable": false,
      "stateMutability": "view",
      "type": "function"
    },
    {
      "constant": true,
      "inputs": [],
      "name": "pool",
      "outputs": [
        {
          "internalType": "address",
          "name": "",
          "type": "address"
        }
      ],
      "payable": false,
      "stateMutability": "view",
      "type": "function"
    },
    {
      "constant": false,
      "inputs": [],
      "name": "renounceOwnership",
      "outputs": [],
      "payable": false,
      "stateMutability": "nonpayable",
      "type": "function"
    },
    {
      "constant": false,
      "inputs": [
        {
          "internalType": "address",
          "name": "_pool",
          "type": "address"
        }
      ],
      "name": "setPool",
      "outputs": [],
      "payable": false,
      "stateMutability": "nonpayable",
      "type": "function"
    },
    {
      "constant": false,
      "inputs": [
        {
          "internalType": "address",
          "name": "newOwner",
          "type": "address"
        }
      ],
      "name": "transferOwnership",
      "outputs": [],
      "payable": false,
      "stateMutability": "nonpayable",
      "type": "function"
    },
    {
      "constant": false,
      "inputs": [],
      "name": "initialize",
      "outputs": [],
      "payable": false,
      "stateMutability": "nonpayable",
      "type": "function"
    },
    {
      "constant": false,
      "inputs": [
        {
          "internalType": "address",
          "name": "_pool",
          "type": "address"
        }
      ],
      "name": "initialize",
      "outputs": [],
      "payable": false,
      "stateMutability": "nonpayable",
      "type": "function"
    },
    {
      "constant": false,
      "inputs": [
        {
          "internalType": "uint256",
          "name": "lAmount",
          "type": "uint256"
        },
        {
          "internalType": "uint256",
          "name": "pAmountMin",
          "type": "uint256"
        }
      ],
      "name": "deposit",
      "outputs": [],
      "payable": false,
      "stateMutability": "nonpayable",
      "type": "function"
    },
    {
      "constant": false,
      "inputs": [
        {
          "internalType": "uint256",
          "name": "pAmount",
          "type": "uint256"
        },
        {
          "internalType": "uint256",
          "name": "lAmountMin",
          "type": "uint256"
        }
      ],
      "name": "withdraw",
      "outputs": [],
      "payable": false,
      "stateMutability": "nonpayable",
      "type": "function"
    }
  ],
  "bytecode": "0x608060405261144a806100136000396000f3fe608060405234801561001057600080fd5b50600436106100f55760003560e01c80638129fc1c11610097578063b23a97d011610066578063b23a97d0146102d0578063c4d66de8146102d8578063e2bbb158146102fe578063f2fde38b14610321576100f5565b80638129fc1c1461029c5780638230d02d146102a45780638da5cb5b146102ac5780638f32d59b146102b4576100f5565b8063441a3e70116100d3578063441a3e70146101a35780634437152a146101c8578063715018a6146101ee57806371dc760f146101f6576100f5565b8063077aa705146100fa57806316f0115b14610177578063368981a61461019b575b600080fd5b610102610347565b6040805160208082528351818301528351919283929083019185019080838360005b8381101561013c578181015183820152602001610124565b50505050905090810190601f1680156101695780820380516001836020036101000a031916815260200191505b509250505060405180910390f35b61017f610368565b604080516001600160a01b039092168252519081900360200190f35b610102610377565b6101c6600480360360408110156101b957600080fd5b5080359060200135610397565b005b6101c6600480360360208110156101de57600080fd5b50356001600160a01b0316610791565b6101c661080c565b61017f6004803603602081101561020c57600080fd5b81019060208101813564010000000081111561022757600080fd5b82018360208201111561023957600080fd5b8035906020019184600183028401116401000000008311171561025b57600080fd5b91908080601f0160208091040260200160405190810160405280939291908181526020018383808284376000920191909152509295506108af945050505050565b6101c6610aba565b610102610b6c565b61017f610b91565b6102bc610ba0565b604080519115158252519081900360200190f35b610102610bc6565b6101c6600480360360208110156102ee57600080fd5b50356001600160a01b0316610be7565b6101c66004803603604081101561031457600080fd5b5080359060200135610c93565b6101c66004803603602081101561033757600080fd5b50356001600160a01b0316610fb9565b6040518060400160405280600581526020016466756e647360d81b81525081565b6066546001600160a01b031681565b604051806040016040528060048152602001633637b0b760e11b81525081565b600082116103d65760405162461bcd60e51b81526004018080602001828103825260278152602001806112aa6027913960400191505060405180910390fd5b6103de61101b565b6001600160a01b0316634916ebda6103f4611047565b6040518263ffffffff1660e01b815260040180826001600160a01b03166001600160a01b0316815260200191505060206040518083038186803b15801561043a57600080fd5b505afa15801561044e573d6000803e3d6000fd5b505050506040513d602081101561046457600080fd5b5051156104a25760405162461bcd60e51b81526004018080602001828103825260408152602001806113d66040913960400191505060405180910390fd5b60008060006104af61104b565b6001600160a01b0316638dc5f4b8866040518263ffffffff1660e01b81526004018082815260200191505060606040518083038186803b1580156104f257600080fd5b505afa158015610506573d6000803e3d6000fd5b505050506040513d606081101561051c57600080fd5b50805160208201516040909201519094509092509050838210156105715760405162461bcd60e51b815260040180806020018281038252602b8152602001806113ab602b913960400191505060405180910390fd5b600061057b61104b565b6001600160a01b0316636331d14d6040518163ffffffff1660e01b815260040160206040518083038186803b1580156105b357600080fd5b505afa1580156105c7573d6000803e3d6000fd5b505050506040513d60208110156105dd57600080fd5b50519050808411156106205760405162461bcd60e51b81526004018080602001828103825260258152602001806112f76025913960400191505060405180910390fd5b61062861104b565b6001600160a01b031663d8b0bf1861063e611047565b886040518363ffffffff1660e01b815260040180836001600160a01b03166001600160a01b0316815260200182815260200192505050600060405180830381600087803b15801561068e57600080fd5b505af11580156106a2573d6000803e3d6000fd5b505050506106ae61104b565b6001600160a01b03166333e6a5f26106c4611047565b85856040518463ffffffff1660e01b815260040180846001600160a01b03166001600160a01b031681526020018381526020018281526020019350505050600060405180830381600087803b15801561071c57600080fd5b505af1158015610730573d6000803e3d6000fd5b5050505061073c611047565b604080518681526020810186905280820189905290516001600160a01b0392909216917f02f25270a4d87bea75db541cdfe559334a275b4a233520ed6c0a2429667cca949181900360600190a2505050505050565b610799610ba0565b6107ea576040805162461bcd60e51b815260206004820181905260248201527f4f776e61626c653a2063616c6c6572206973206e6f7420746865206f776e6572604482015290519081900360640190fd5b606680546001600160a01b0319166001600160a01b0392909216919091179055565b610814610ba0565b610865576040805162461bcd60e51b815260206004820181905260248201527f4f776e61626c653a2063616c6c6572206973206e6f7420746865206f776e6572604482015290519081900360640190fd5b6033546040516000916001600160a01b0316907f8be0079c531659141344cd1fd0a4f28419497f9722a3daafe3b4186f6b6457e0908390a3603380546001600160a01b0319169055565b6066546000906001600160a01b0316610901576040805162461bcd60e51b815260206004820152600f60248201526e135bd91d5b194e881b9bc81c1bdbdb608a1b604482015290519081900360640190fd5b6066546040516020602482018181528551604484015285516000946060946001600160a01b03909116938893928392606401918501908083838b5b8381101561095457818101518382015260200161093c565b50505050905090810190601f1680156109815780820380516001836020036101000a031916815260200191505b5060408051601f198184030181529181526020820180516001600160e01b031663349f642f60e11b178152905182519295509350839250908083835b602083106109dc5780518252601f1990920191602091820191016109bd565b6001836020036101000a038019825116818451168082178552505050505050905001915050600060405180830381855afa9150503d8060008114610a3c576040519150601f19603f3d011682016040523d82523d6000602084013e610a41565b606091505b509150915081610a52578060208201fd5b6000818060200190516020811015610a6957600080fd5b505190506001600160a01b038116610ab25760405162461bcd60e51b815260040180806020018281038252602281526020018061134a6022913960400191505060405180910390fd5b949350505050565b600054610100900460ff1680610ad35750610ad3611073565b80610ae1575060005460ff16155b610b1c5760405162461bcd60e51b815260040180806020018281038252602e81526020018061131c602e913960400191505060405180910390fd5b600054610100900460ff16158015610b47576000805460ff1961ff0019909116610100171660011790555b610b57610b52611047565b611079565b8015610b69576000805461ff00191690555b50565b604051806040016040528060098152602001686c697175696469747960b81b81525081565b6033546001600160a01b031690565b6033546000906001600160a01b0316610bb7611047565b6001600160a01b031614905090565b60405180604001604052806005815260200164637572766560d81b81525081565b600054610100900460ff1680610c005750610c00611073565b80610c0e575060005460ff16155b610c495760405162461bcd60e51b815260040180806020018281038252602e81526020018061131c602e913960400191505060405180910390fd5b600054610100900460ff16158015610c74576000805460ff1961ff0019909116610100171660011790555b610c7d8261116a565b8015610c8f576000805461ff00191690555b5050565b60008211610cd25760405162461bcd60e51b81526004018080602001828103825260278152602001806112aa6027913960400191505060405180910390fd5b610cda61101b565b6001600160a01b0316634916ebda610cf0611047565b6040518263ffffffff1660e01b815260040180826001600160a01b03166001600160a01b0316815260200191505060206040518083038186803b158015610d3657600080fd5b505afa158015610d4a573d6000803e3d6000fd5b505050506040513d6020811015610d6057600080fd5b505115610d9e5760405162461bcd60e51b815260040180806020018281038252603f81526020018061136c603f913960400191505060405180910390fd5b6000610da861104b565b6001600160a01b031663e01740fb846040518263ffffffff1660e01b81526004018082815260200191505060206040518083038186803b158015610deb57600080fd5b505afa158015610dff573d6000803e3d6000fd5b505050506040513d6020811015610e1557600080fd5b5051905081811015610e585760405162461bcd60e51b815260040180806020018281038252602b8152602001806113ab602b913960400191505060405180910390fd5b610e6061104b565b6001600160a01b0316638fa6c72e610e76611047565b856040518363ffffffff1660e01b815260040180836001600160a01b03166001600160a01b0316815260200182815260200192505050600060405180830381600087803b158015610ec657600080fd5b505af1158015610eda573d6000803e3d6000fd5b50505050610ee661104b565b6001600160a01b0316630a40b357610efc611047565b836040518363ffffffff1660e01b815260040180836001600160a01b03166001600160a01b0316815260200182815260200192505050600060405180830381600087803b158015610f4c57600080fd5b505af1158015610f60573d6000803e3d6000fd5b50505050610f6c611047565b6001600160a01b03167f90890809c654f11d6e72a28fa60149770a0d11ec6c92319d6ceb2bb0a4ea1a158483604051808381526020018281526020019250505060405180910390a2505050565b610fc1610ba0565b611012576040805162461bcd60e51b815260206004820181905260248201527f4f776e61626c653a2063616c6c6572206973206e6f7420746865206f776e6572604482015290519081900360640190fd5b610b6981611208565b6000611042604051806040016040528060048152602001633637b0b760e11b8152506108af565b905090565b3390565b60006110426040518060400160405280600581526020016466756e647360d81b8152506108af565b303b1590565b600054610100900460ff16806110925750611092611073565b806110a0575060005460ff16155b6110db5760405162461bcd60e51b815260040180806020018281038252602e81526020018061131c602e913960400191505060405180910390fd5b600054610100900460ff16158015611106576000805460ff1961ff0019909116610100171660011790555b603380546001600160a01b0319166001600160a01b0384811691909117918290556040519116906000907f8be0079c531659141344cd1fd0a4f28419497f9722a3daafe3b4186f6b6457e0908290a38015610c8f576000805461ff00191690555050565b600054610100900460ff16806111835750611183611073565b80611191575060005460ff16155b6111cc5760405162461bcd60e51b815260040180806020018281038252602e81526020018061131c602e913960400191505060405180910390fd5b600054610100900460ff161580156111f7576000805460ff1961ff0019909116610100171660011790555b6111ff610aba565b610c7d82610791565b6001600160a01b03811661124d5760405162461bcd60e51b81526004018080602001828103825260268152602001806112d16026913960400191505060405180910390fd5b6033546040516001600160a01b038084169216907f8be0079c531659141344cd1fd0a4f28419497f9722a3daafe3b4186f6b6457e090600090a3603380546001600160a01b0319166001600160a01b039290921691909117905556fe4c69717569646974794d6f64756c653a20616d6f756e742073686f756c64206e6f7420626520304f776e61626c653a206e6577206f776e657220697320746865207a65726f20616464726573734c69717569646974794d6f64756c653a206e6f7420656e6f756768206c6971756964697479436f6e747261637420696e7374616e63652068617320616c7265616479206265656e20696e697469616c697a65644d6f64756c653a20726571756573746564206d6f64756c65206e6f7420666f756e644c69717569646974794d6f64756c653a204465706f7369747320666f7262696464656e206966206164647265737320686173206163746976652064656274734c69717569646974794d6f64756c653a204d696e696d616c20616d6f756e7420697320746f6f20686967684c69717569646974794d6f64756c653a2057697468647261777320666f7262696464656e20696620616464726573732068617320616374697665206465627473a265627a7a7231582049cc8f56b588ea6deb51569f81e1b0f976c2c605e6fa64536bf8f6d89e304aea64736f6c634300050c0032",
  "source": "pragma solidity ^0.5.12;\n\nimport \"@openzeppelin/contracts-ethereum-package/contracts/token/ERC20/IERC20.sol\";\nimport \"../../interfaces/curve/IFundsModule.sol\";\nimport \"../../interfaces/curve/ILoanModule.sol\";\nimport \"../../interfaces/curve/ILiquidityModule.sol\";\nimport \"../../token/pTokens/PToken.sol\";\nimport \"../../common/Module.sol\";\n\ncontract LiquidityModule is Module, ILiquidityModule {\n\n    function initialize(address _pool) public initializer {\n        Module.initialize(_pool);\n    }\n\n    /*\n     * @notice Deposit amount of lToken and mint pTokens\n     * @param lAmount Amount of liquid tokens to invest\n     * @param pAmountMin Minimal amout of pTokens suitable for sender\n     */ \n    function deposit(uint256 lAmount, uint256 pAmountMin) public {\n        require(lAmount > 0, \"LiquidityModule: amount should not be 0\");\n        require(!loanModule().hasActiveDebts(_msgSender()), \"LiquidityModule: Deposits forbidden if address has active debts\");\n        uint pAmount = fundsModule().calculatePoolEnter(lAmount);\n        require(pAmount >= pAmountMin, \"LiquidityModule: Minimal amount is too high\");\n        fundsModule().depositLTokens(_msgSender(), lAmount);\n        fundsModule().mintPTokens(_msgSender(), pAmount);\n        emit Deposit(_msgSender(), lAmount, pAmount);\n    }\n\n    /**\n     * @notice Withdraw amount of lToken and burn pTokens\n     * @param pAmount Amount of pTokens to send\n     * @param lAmountMin Minimal amount of liquid tokens to withdraw\n     */\n    function withdraw(uint256 pAmount, uint256 lAmountMin) public {\n        require(pAmount > 0, \"LiquidityModule: amount should not be 0\");\n        require(!loanModule().hasActiveDebts(_msgSender()), \"LiquidityModule: Withdraws forbidden if address has active debts\");\n        (uint256 lAmountT, uint256 lAmountU, uint256 lAmountP) = fundsModule().calculatePoolExitInverse(pAmount);\n        require(lAmountU >= lAmountMin, \"LiquidityModule: Minimal amount is too high\");\n        uint256 availableLiquidity = fundsModule().lBalance();\n        require(lAmountT <= availableLiquidity, \"LiquidityModule: not enough liquidity\");\n        fundsModule().burnPTokens(_msgSender(), pAmount);\n        fundsModule().withdrawLTokens(_msgSender(), lAmountU, lAmountP);\n        emit Withdraw(_msgSender(), lAmountT, lAmountU, pAmount);\n    }\n\n    function fundsModule() internal view returns(IFundsModule) {\n        return IFundsModule(getModuleAddress(MODULE_FUNDS));\n    }\n\n    function loanModule() internal view returns(ILoanModule) {\n        return ILoanModule(getModuleAddress(MODULE_LOAN));\n    }\n}",
  "sourcePath": "/home/aleksrow/Documents/bch/akropolisOS/contracts/modules/liquidity/LiquidityModule.sol",
  "compiler": {
    "name": "solc",
    "version": "0.5.12+commit.7709ece9.Emscripten.clang"
  },
  "schemaVersion": "3.0.16",
  "updatedAt": "2020-01-23T21:14:14.479Z",
  "devdoc": {
    "methods": {
      "isOwner()": {
        "details": "Returns true if the caller is the current owner."
      },
      "owner()": {
        "details": "Returns the address of the current owner."
      },
      "renounceOwnership()": {
        "details": "Leaves the contract without owner. It will not be possible to call `onlyOwner` functions anymore. Can only be called by the current owner.     * > Note: Renouncing ownership will leave the contract without an owner, thereby removing any functionality that is only available to the owner."
      },
      "transferOwnership(address)": {
        "details": "Transfers ownership of the contract to a new account (`newOwner`). Can only be called by the current owner."
      },
      "withdraw(uint256,uint256)": {
        "params": {
          "lAmountMin": "Minimal amount of liquid tokens to withdraw",
          "pAmount": "Amount of pTokens to send"
        }
      }
    }
  },
  "userdoc": {
    "methods": {
      "withdraw(uint256,uint256)": {
        "notice": "Withdraw amount of lToken and burn pTokens"
      }
    }
  }
}