{
  "contractName": "LoanModule",
  "abi": [
    {
      "anonymous": false,
      "inputs": [
        {
          "indexed": true,
          "internalType": "address",
          "name": "sender",
          "type": "address"
        },
        {
          "indexed": false,
          "internalType": "uint256",
          "name": "proposal",
          "type": "uint256"
        },
        {
          "indexed": false,
          "internalType": "uint256",
          "name": "lAmount",
          "type": "uint256"
        },
        {
          "indexed": false,
          "internalType": "uint256",
          "name": "interest",
          "type": "uint256"
        }
      ],
      "name": "DebtProposalCreated",
      "type": "event"
    },
    {
      "anonymous": false,
      "inputs": [
        {
          "indexed": true,
          "internalType": "address",
          "name": "sender",
          "type": "address"
        },
        {
          "indexed": false,
          "internalType": "uint256",
          "name": "proposal",
          "type": "uint256"
        },
        {
          "indexed": false,
          "internalType": "uint256",
          "name": "debt",
          "type": "uint256"
        },
        {
          "indexed": false,
          "internalType": "uint256",
          "name": "lAmount",
          "type": "uint256"
        }
      ],
      "name": "DebtProposalExecuted",
      "type": "event"
    },
    {
      "anonymous": false,
      "inputs": [
        {
          "indexed": true,
          "internalType": "address",
          "name": "previousOwner",
          "type": "address"
        },
        {
          "indexed": true,
          "internalType": "address",
          "name": "newOwner",
          "type": "address"
        }
      ],
      "name": "OwnershipTransferred",
      "type": "event"
    },
    {
      "anonymous": false,
      "inputs": [
        {
          "indexed": true,
          "internalType": "address",
          "name": "sender",
          "type": "address"
        },
        {
          "indexed": true,
          "internalType": "address",
          "name": "borrower",
          "type": "address"
        },
        {
          "indexed": false,
          "internalType": "uint256",
          "name": "proposal",
          "type": "uint256"
        },
        {
          "indexed": false,
          "internalType": "uint256",
          "name": "lAmount",
          "type": "uint256"
        },
        {
          "indexed": false,
          "internalType": "uint256",
          "name": "pAmount",
          "type": "uint256"
        }
      ],
      "name": "PledgeAdded",
      "type": "event"
    },
    {
      "anonymous": false,
      "inputs": [
        {
          "indexed": true,
          "internalType": "address",
          "name": "sender",
          "type": "address"
        },
        {
          "indexed": true,
          "internalType": "address",
          "name": "borrower",
          "type": "address"
        },
        {
          "indexed": false,
          "internalType": "uint256",
          "name": "proposal",
          "type": "uint256"
        },
        {
          "indexed": false,
          "internalType": "uint256",
          "name": "lAmount",
          "type": "uint256"
        },
        {
          "indexed": false,
          "internalType": "uint256",
          "name": "pAmount",
          "type": "uint256"
        }
      ],
      "name": "PledgeWithdrawn",
      "type": "event"
    },
    {
      "anonymous": false,
      "inputs": [
        {
          "indexed": true,
          "internalType": "address",
          "name": "sender",
          "type": "address"
        },
        {
          "indexed": false,
          "internalType": "uint256",
          "name": "debt",
          "type": "uint256"
        },
        {
          "indexed": false,
          "internalType": "uint256",
          "name": "lDebtLeft",
          "type": "uint256"
        },
        {
          "indexed": false,
          "internalType": "uint256",
          "name": "lFullPaymentAmount",
          "type": "uint256"
        },
        {
          "indexed": false,
          "internalType": "uint256",
          "name": "lInterestPaid",
          "type": "uint256"
        },
        {
          "indexed": false,
          "internalType": "uint256",
          "name": "newlastPayment",
          "type": "uint256"
        }
      ],
      "name": "Repay",
      "type": "event"
    },
    {
      "anonymous": false,
      "inputs": [
        {
          "indexed": true,
          "internalType": "address",
          "name": "sender",
          "type": "address"
        },
        {
          "indexed": true,
          "internalType": "address",
          "name": "borrower",
          "type": "address"
        },
        {
          "indexed": false,
          "internalType": "uint256",
          "name": "debt",
          "type": "uint256"
        },
        {
          "indexed": false,
          "internalType": "uint256",
          "name": "pAmount",
          "type": "uint256"
        }
      ],
      "name": "UnlockedPledgeWithdraw",
      "type": "event"
    },
    {
      "constant": true,
      "inputs": [],
      "name": "ANNUAL_SECONDS",
      "outputs": [
        {
          "internalType": "uint256",
          "name": "",
          "type": "uint256"
        }
      ],
      "payable": false,
      "stateMutability": "view",
      "type": "function"
    },
    {
      "constant": true,
      "inputs": [],
      "name": "INTEREST_MULTIPLIER",
      "outputs": [
        {
          "internalType": "uint256",
          "name": "",
          "type": "uint256"
        }
      ],
      "payable": false,
      "stateMutability": "view",
      "type": "function"
    },
    {
      "constant": true,
      "inputs": [],
      "name": "MODULE_CURVE",
      "outputs": [
        {
          "internalType": "string",
          "name": "",
          "type": "string"
        }
      ],
      "payable": false,
      "stateMutability": "view",
      "type": "function"
    },
    {
      "constant": true,
      "inputs": [],
      "name": "MODULE_FUNDS",
      "outputs": [
        {
          "internalType": "string",
          "name": "",
          "type": "string"
        }
      ],
      "payable": false,
      "stateMutability": "view",
      "type": "function"
    },
    {
      "constant": true,
      "inputs": [],
      "name": "MODULE_LIQUIDITY",
      "outputs": [
        {
          "internalType": "string",
          "name": "",
          "type": "string"
        }
      ],
      "payable": false,
      "stateMutability": "view",
      "type": "function"
    },
    {
      "constant": true,
      "inputs": [],
      "name": "MODULE_LOAN",
      "outputs": [
        {
          "internalType": "string",
          "name": "",
          "type": "string"
        }
      ],
      "payable": false,
      "stateMutability": "view",
      "type": "function"
    },
    {
      "constant": true,
      "inputs": [
        {
          "internalType": "address",
          "name": "",
          "type": "address"
        },
        {
          "internalType": "uint256",
          "name": "",
          "type": "uint256"
        }
      ],
      "name": "debtProposals",
      "outputs": [
        {
          "internalType": "uint256",
          "name": "lAmount",
          "type": "uint256"
        },
        {
          "internalType": "uint256",
          "name": "interest",
          "type": "uint256"
        },
        {
          "internalType": "bool",
          "name": "executed",
          "type": "bool"
        }
      ],
      "payable": false,
      "stateMutability": "view",
      "type": "function"
    },
    {
      "constant": true,
      "inputs": [
        {
          "internalType": "address",
          "name": "",
          "type": "address"
        },
        {
          "internalType": "uint256",
          "name": "",
          "type": "uint256"
        }
      ],
      "name": "debts",
      "outputs": [
        {
          "internalType": "uint256",
          "name": "proposal",
          "type": "uint256"
        },
        {
          "internalType": "uint256",
          "name": "lAmount",
          "type": "uint256"
        },
        {
          "internalType": "uint256",
          "name": "lastPayment",
          "type": "uint256"
        },
        {
          "internalType": "uint256",
          "name": "pInterest",
          "type": "uint256"
        }
      ],
      "payable": false,
      "stateMutability": "view",
      "type": "function"
    },
    {
      "constant": true,
      "inputs": [
        {
          "internalType": "string",
          "name": "module",
          "type": "string"
        }
      ],
      "name": "getModuleAddress",
      "outputs": [
        {
          "internalType": "address",
          "name": "",
          "type": "address"
        }
      ],
      "payable": false,
      "stateMutability": "view",
      "type": "function"
    },
    {
      "constant": true,
      "inputs": [],
      "name": "isOwner",
      "outputs": [
        {
          "internalType": "bool",
          "name": "",
          "type": "bool"
        }
      ],
      "payable": false,
      "stateMutability": "view",
      "type": "function"
    },
    {
      "constant": true,
      "inputs": [],
      "name": "owner",
      "outputs": [
        {
          "internalType": "address",
          "name": "",
          "type": "address"
        }
      ],
      "payable": false,
      "stateMutability": "view",
      "type": "function"
    },
    {
      "constant": true,
      "inputs": [],
      "name": "pool",
      "outputs": [
        {
          "internalType": "address",
          "name": "",
          "type": "address"
        }
      ],
      "payable": false,
      "stateMutability": "view",
      "type": "function"
    },
    {
      "constant": false,
      "inputs": [],
      "name": "renounceOwnership",
      "outputs": [],
      "payable": false,
      "stateMutability": "nonpayable",
      "type": "function"
    },
    {
      "constant": false,
      "inputs": [
        {
          "internalType": "address",
          "name": "_pool",
          "type": "address"
        }
      ],
      "name": "setPool",
      "outputs": [],
      "payable": false,
      "stateMutability": "nonpayable",
      "type": "function"
    },
    {
      "constant": false,
      "inputs": [
        {
          "internalType": "address",
          "name": "newOwner",
          "type": "address"
        }
      ],
      "name": "transferOwnership",
      "outputs": [],
      "payable": false,
      "stateMutability": "nonpayable",
      "type": "function"
    },
    {
      "constant": false,
      "inputs": [
        {
          "internalType": "address",
          "name": "_pool",
          "type": "address"
        }
      ],
      "name": "initialize",
      "outputs": [],
      "payable": false,
      "stateMutability": "nonpayable",
      "type": "function"
    },
    {
      "constant": false,
      "inputs": [],
      "name": "initialize",
      "outputs": [],
      "payable": false,
      "stateMutability": "nonpayable",
      "type": "function"
    },
    {
      "constant": false,
      "inputs": [
        {
          "internalType": "uint256",
          "name": "debtLAmount",
          "type": "uint256"
        },
        {
          "internalType": "uint256",
          "name": "interest",
          "type": "uint256"
        },
        {
          "internalType": "uint256",
          "name": "pAmount",
          "type": "uint256"
        },
        {
          "internalType": "uint256",
          "name": "lAmountMin",
          "type": "uint256"
        }
      ],
      "name": "createDebtProposal",
      "outputs": [
        {
          "internalType": "uint256",
          "name": "",
          "type": "uint256"
        }
      ],
      "payable": false,
      "stateMutability": "nonpayable",
      "type": "function"
    },
    {
      "constant": false,
      "inputs": [
        {
          "internalType": "address",
          "name": "borrower",
          "type": "address"
        },
        {
          "internalType": "uint256",
          "name": "proposal",
          "type": "uint256"
        },
        {
          "internalType": "uint256",
          "name": "pAmount",
          "type": "uint256"
        },
        {
          "internalType": "uint256",
          "name": "lAmountMin",
          "type": "uint256"
        }
      ],
      "name": "addPledge",
      "outputs": [],
      "payable": false,
      "stateMutability": "nonpayable",
      "type": "function"
    },
    {
      "constant": false,
      "inputs": [
        {
          "internalType": "address",
          "name": "borrower",
          "type": "address"
        },
        {
          "internalType": "uint256",
          "name": "proposal",
          "type": "uint256"
        },
        {
          "internalType": "uint256",
          "name": "pAmount",
          "type": "uint256"
        }
      ],
      "name": "withdrawPledge",
      "outputs": [],
      "payable": false,
      "stateMutability": "nonpayable",
      "type": "function"
    },
    {
      "constant": false,
      "inputs": [
        {
          "internalType": "uint256",
          "name": "proposal",
          "type": "uint256"
        }
      ],
      "name": "executeDebtProposal",
      "outputs": [
        {
          "internalType": "uint256",
          "name": "",
          "type": "uint256"
        }
      ],
      "payable": false,
      "stateMutability": "nonpayable",
      "type": "function"
    },
    {
      "constant": false,
      "inputs": [
        {
          "internalType": "uint256",
          "name": "debt",
          "type": "uint256"
        },
        {
          "internalType": "uint256",
          "name": "lAmount",
          "type": "uint256"
        }
      ],
      "name": "repay",
      "outputs": [],
      "payable": false,
      "stateMutability": "nonpayable",
      "type": "function"
    },
    {
      "constant": false,
      "inputs": [
        {
          "internalType": "address",
          "name": "borrower",
          "type": "address"
        },
        {
          "internalType": "uint256",
          "name": "debt",
          "type": "uint256"
        }
      ],
      "name": "withdrawUnlockedPledge",
      "outputs": [],
      "payable": false,
      "stateMutability": "nonpayable",
      "type": "function"
    },
    {
      "constant": true,
      "inputs": [
        {
          "internalType": "address",
          "name": "borrower",
          "type": "address"
        },
        {
          "internalType": "uint256",
          "name": "debt",
          "type": "uint256"
        },
        {
          "internalType": "address",
          "name": "supporter",
          "type": "address"
        }
      ],
      "name": "calculatePledgeInfo",
      "outputs": [
        {
          "internalType": "uint256",
          "name": "pLocked",
          "type": "uint256"
        },
        {
          "internalType": "uint256",
          "name": "pUnlocked",
          "type": "uint256"
        },
        {
          "internalType": "uint256",
          "name": "pInterest",
          "type": "uint256"
        },
        {
          "internalType": "uint256",
          "name": "pWithdrawn",
          "type": "uint256"
        }
      ],
      "payable": false,
      "stateMutability": "view",
      "type": "function"
    },
    {
      "constant": true,
      "inputs": [
        {
          "internalType": "address",
          "name": "borrower",
          "type": "address"
        },
        {
          "internalType": "uint256",
          "name": "proposal",
          "type": "uint256"
        }
      ],
      "name": "getRequiredPledge",
      "outputs": [
        {
          "internalType": "uint256",
          "name": "",
          "type": "uint256"
        }
      ],
      "payable": false,
      "stateMutability": "view",
      "type": "function"
    },
    {
      "constant": true,
      "inputs": [
        {
          "internalType": "address",
          "name": "borrower",
          "type": "address"
        },
        {
          "internalType": "uint256",
          "name": "debt",
          "type": "uint256"
        }
      ],
      "name": "getDebtRequiredPayments",
      "outputs": [
        {
          "internalType": "uint256",
          "name": "",
          "type": "uint256"
        },
        {
          "internalType": "uint256",
          "name": "",
          "type": "uint256"
        }
      ],
      "payable": false,
      "stateMutability": "view",
      "type": "function"
    },
    {
      "constant": true,
      "inputs": [
        {
          "internalType": "address",
          "name": "sender",
          "type": "address"
        }
      ],
      "name": "hasActiveDebts",
      "outputs": [
        {
          "internalType": "bool",
          "name": "",
          "type": "bool"
        }
      ],
      "payable": false,
      "stateMutability": "view",
      "type": "function"
    },
    {
      "constant": true,
      "inputs": [],
      "name": "totalLDebts",
      "outputs": [
        {
          "internalType": "uint256",
          "name": "",
          "type": "uint256"
        }
      ],
      "payable": false,
      "stateMutability": "view",
      "type": "function"
    },
    {
      "constant": true,
      "inputs": [
        {
          "internalType": "uint256",
          "name": "debtLAmount",
          "type": "uint256"
        },
        {
          "internalType": "uint256",
          "name": "interest",
          "type": "uint256"
        },
        {
          "internalType": "uint256",
          "name": "prevPayment",
          "type": "uint256"
        },
        {
          "internalType": "uint256",
          "name": "currentPayment",
          "type": "uint256"
        }
      ],
      "name": "calculateInterestPayment",
      "outputs": [
        {
          "internalType": "uint256",
          "name": "",
          "type": "uint256"
        }
      ],
      "payable": false,
      "stateMutability": "pure",
      "type": "function"
    }
  ],
  "bytecode": "0x6080604052612f62806100136000396000f3fe608060405234801561001057600080fd5b50600436106101cf5760003560e01c806371dc760f1161010457806399cbd766116100a2578063c4d66de811610071578063c4d66de814610603578063d8aed14514610629578063daac0add1461064c578063f2fde38b1461067e576101cf565b806399cbd7661461059e578063b23a97d0146105d6578063bc0faed6146105de578063c05e20f5146105fb576101cf565b80638230d02d116100de5780638230d02d146105575780638b22f0c91461055f5780638da5cb5b1461058e5780638f32d59b14610596576101cf565b806371dc760f146104a15780638129fc1c14610547578063813474971461054f576101cf565b80634437152a11610171578063504b82ab1161014b578063504b82ab146104125780635a0251b6146104415780636f81a8011461046d578063715018a614610499576101cf565b80634437152a1461039857806348866205146103be5780634916ebda146103d8576101cf565b8063227291ab116101ad578063227291ab146102c157806331f8697a1461030657806335524c1214610362578063368981a614610390576101cf565b8063077aa705146101d457806314b5a88d1461025157806316f0115b1461029d575b600080fd5b6101dc6106a4565b6040805160208082528351818301528351919283929083019185019080838360005b838110156102165781810151838201526020016101fe565b50505050905090810190601f1680156102435780820380516001836020036101000a031916815260200191505b509250505060405180910390f35b61027d6004803603604081101561026757600080fd5b506001600160a01b0381351690602001356106c5565b604080519384526020840192909252151582820152519081900360600190f35b6102a5610707565b604080516001600160a01b039092168252519081900360200190f35b6102ed600480360360408110156102d757600080fd5b506001600160a01b038135169060200135610716565b6040805192835260208301919091528051918290030190f35b61033c6004803603606081101561031c57600080fd5b506001600160a01b0381358116916020810135916040909101351661080e565b604080519485526020850193909352838301919091526060830152519081900360800190f35b61038e6004803603604081101561037857600080fd5b506001600160a01b038135169060200135610a7b565b005b6101dc610c98565b61038e600480360360208110156103ae57600080fd5b50356001600160a01b0316610cb8565b6103c6610d33565b60408051918252519081900360200190f35b6103fe600480360360208110156103ee57600080fd5b50356001600160a01b0316610d39565b604080519115158252519081900360200190f35b6103c66004803603608081101561042857600080fd5b5080359060208101359060408101359060600135610da7565b6103c66004803603604081101561045757600080fd5b506001600160a01b0381351690602001356111ac565b61033c6004803603604081101561048357600080fd5b506001600160a01b038135169060200135611285565b61038e6112c8565b6102a5600480360360208110156104b757600080fd5b8101906020810181356401000000008111156104d257600080fd5b8201836020820111156104e457600080fd5b8035906020019184600183028401116401000000008311171561050657600080fd5b91908080601f01602080910402602001604051908101604052809392919081815260200183838082843760009201919091525092955061136b945050505050565b61038e611576565b6103c6611628565b6101dc61162f565b6103c66004803603608081101561057557600080fd5b5080359060208101359060408101359060600135611654565b6102a56116e6565b6103fe6116f5565b61038e600480360360808110156105b457600080fd5b506001600160a01b03813516906020810135906040810135906060013561171b565b6101dc611b53565b6103c6600480360360208110156105f457600080fd5b5035611b74565b6103c6611e49565b61038e6004803603602081101561061957600080fd5b50356001600160a01b0316611e51565b61038e6004803603604081101561063f57600080fd5b5080359060200135611efd565b61038e6004803603606081101561066257600080fd5b506001600160a01b038135169060208101359060400135612305565b61038e6004803603602081101561069457600080fd5b50356001600160a01b0316612618565b6040518060400160405280600581526020016466756e647360d81b81525081565b606760205281600052604060002081815481106106de57fe5b600091825260209091206005909102018054600182015460049092015490935090915060ff1683565b6066546001600160a01b031681565b6001600160a01b03821660009081526068602052604081208054829182918590811061073e57fe5b90600052602060002090600502019050806001015460001415610768575060009150819050610807565b6001600160a01b038516600090815260676020526040812082548154811061078c57fe5b9060005260206000209060050201905060008160000154116107df5760405162461bcd60e51b8152600401808060200182810382526023815260200180612ec06023913960400191505060405180910390fd5b60006107f983600101548360010154856002015442611654565b600190930154945091925050505b9250929050565b6001600160a01b0383166000908152606860205260408120805482918291829182918890811061083a57fe5b9060005260206000209060050201905060006067600061085861267a565b6001600160a01b03168152602081019190915260400160002082548154811061087d57fe5b90600052602060002090600502019050600081600001541180156108a55750600481015460ff165b6108e05760405162461bcd60e51b8152600401808060200182810382526023815260200180612ec06023913960400191505060405180910390fd5b6001600160a01b038088166000818152600284016020526040812092909182918d161415610976578354600184015461091c916002900461267e565b905061096f61095e61093c600286600101546126db90919063ffffffff16565b600286015487546109529163ffffffff6126db16565b9063ffffffff61273b16565b60028501549063ffffffff61267e16565b9150610984565b505060018101546002820154905b835460018601546109a1919061095290859063ffffffff6126db16565b9850818911156109ad57fe5b6109bd828a63ffffffff61267e16565b845460038701549199506109db91610952908463ffffffff6126db16565b965084600301548711156109eb57fe5b8b6001600160a01b03168a6001600160a01b03161415610a4c576001850154610a1e576000985082600201549750610a4c565b610a49610a3c61093c600286600101546126db90919063ffffffff16565b8a9063ffffffff6127a516565b98505b5050506001600160a01b0390961660009081526004909101602052604090205493979296509094509192509050565b6000806000610a928585610a8d61267a565b61080e565b9195509350915060009050610aad848463ffffffff6127a516565b9050818111610b03576040805162461bcd60e51b815260206004820181905260248201527f46756e64734d6f64756c653a206e6f7468696e6720746f207769746864726177604482015290519081900360640190fd5b6000610b15828463ffffffff61267e16565b6001600160a01b03881660009081526068602052604081208054929350909188908110610b3e57fe5b90600052602060002090600502019050610b8682826004016000610b6061267a565b6001600160a01b031681526020810191909152604001600020549063ffffffff6127a516565b816004016000610b9461267a565b6001600160a01b03168152602081019190915260400160002055610bb66127ff565b6001600160a01b031663d684e0ad610bcc61267a565b846040518363ffffffff1660e01b815260040180836001600160a01b03166001600160a01b0316815260200182815260200192505050600060405180830381600087803b158015610c1c57600080fd5b505af1158015610c30573d6000803e3d6000fd5b50505050876001600160a01b0316610c4661267a565b6001600160a01b03167fcd0442fc21ae645b47a6281f468d834135236846b4e42c0cfb46cc8a56b53b198985604051808381526020018281526020019250505060405180910390a35050505050505050565b604051806040016040528060048152602001633637b0b760e11b81525081565b610cc06116f5565b610d11576040805162461bcd60e51b815260206004820181905260248201527f4f776e61626c653a2063616c6c6572206973206e6f7420746865206f776e6572604482015290519081900360640190fd5b606680546001600160a01b0319166001600160a01b0392909216919091179055565b6103e881565b6001600160a01b03811660009081526068602052604081208054610d61576000915050610da2565b8054600019015b818181548110610d7457fe5b90600052602060002090600502016001015460001415610d9957600192505050610da2565b60001901610d68565b919050565b6000808511610de75760405162461bcd60e51b8152600401808060200182810382526030815260200180612e106030913960400191505060405180910390fd5b6000610df28461282c565b5050905082811015610e355760405162461bcd60e51b8152600401808060200182810382526027815260200180612ca46027913960400191505060405180910390fd5b60028604811015610e775760405162461bcd60e51b8152600401808060200182810382526039815260200180612d3f6039913960400191505060405180910390fd5b610e7f6127ff565b6001600160a01b031663706463fa610e9561267a565b866040518363ffffffff1660e01b815260040180836001600160a01b03166001600160a01b0316815260200182815260200192505050600060405180830381600087803b158015610ee557600080fd5b505af1158015610ef9573d6000803e3d6000fd5b5050505060676000610f0961267a565b6001600160a01b03166001600160a01b0316815260200190815260200160002060405180608001604052808881526020018781526020016000604051908082528060200260200182016040528015610f6b578160200160208202803883390190505b50815260006020918201819052835460018181018087559583529183902084516005909202019081558383015191810191909155604083015180519192610fba92600385019290910190612bc2565b50606091909101516004909101805460ff19169115159190911790555060006001606782610fe661267a565b6001600160a01b0316815260208101919091526040016000205403905061100b61267a565b60408051838152602081018a905280820189905290516001600160a01b0392909216917f89e5f0bb78a1f1fe985961e6f76690d2d97d5b70b89a77070032e321be96d3ba9181900360600190a260006067600061106661267a565b6001600160a01b03166001600160a01b03168152602001908152602001600020828154811061109157fe5b90600052602060002090600502019050806003016110ad61267a565b81546001810183556000928352602080842090910180546001600160a01b0319166001600160a01b03939093169290921790915560408051606081018252838152918201869052810188905290600283019061110761267a565b6001600160a01b03168152602080820192909252604090810160002083518155918301516001830155919091015160029091015561114361267a565b6001600160a01b031661115461267a565b60408051858152602081018790528082018a905290516001600160a01b0392909216917f3be197ca542394fb46e7e2f276ca39f63cfb2a787477b05a2f1d661d85640f919181900360600190a3505050949350505050565b6001600160a01b03821660009081526067602052604081208054829190849081106111d357fe5b60009182526020909120600590910201600481015490915060ff16156111fd57600091505061127f565b6000805b600383015481101561126757600083600301828154811061121e57fe5b60009182526020808320909101546001600160a01b03168083526002870190915260409091206001015490915061125c90849063ffffffff6127a516565b925050600101611201565b50815461127a908263ffffffff61267e16565b925050505b92915050565b6068602052816000526040600020818154811061129e57fe5b60009182526020909120600590910201805460018201546002830154600390930154919450925084565b6112d06116f5565b611321576040805162461bcd60e51b815260206004820181905260248201527f4f776e61626c653a2063616c6c6572206973206e6f7420746865206f776e6572604482015290519081900360640190fd5b6033546040516000916001600160a01b0316907f8be0079c531659141344cd1fd0a4f28419497f9722a3daafe3b4186f6b6457e0908390a3603380546001600160a01b0319169055565b6066546000906001600160a01b03166113bd576040805162461bcd60e51b815260206004820152600f60248201526e135bd91d5b194e881b9bc81c1bdbdb608a1b604482015290519081900360640190fd5b6066546040516020602482018181528551604484015285516000946060946001600160a01b03909116938893928392606401918501908083838b5b838110156114105781810151838201526020016113f8565b50505050905090810190601f16801561143d5780820380516001836020036101000a031916815260200191505b5060408051601f198184030181529181526020820180516001600160e01b031663349f642f60e11b178152905182519295509350839250908083835b602083106114985780518252601f199092019160209182019101611479565b6001836020036101000a038019825116818451168082178552505050505050905001915050600060405180830381855afa9150503d80600081146114f8576040519150601f19603f3d011682016040523d82523d6000602084013e6114fd565b606091505b50915091508161150e578060208201fd5b600081806020019051602081101561152557600080fd5b505190506001600160a01b03811661156e5760405162461bcd60e51b8152600401808060200182810382526022815260200180612f0c6022913960400191505060405180910390fd5b949350505050565b600054610100900460ff168061158f575061158f6128c0565b8061159d575060005460ff16155b6115d85760405162461bcd60e51b815260040180806020018281038252602e815260200180612d78602e913960400191505060405180910390fd5b600054610100900460ff16158015611603576000805460ff1961ff0019909116610100171660011790555b61161361160e61267a565b6128c6565b8015611625576000805461ff00191690555b50565b6069545b90565b604051806040016040528060098152602001686c697175696469747960b81b81525081565b6000818311156116955760405162461bcd60e51b8152600401808060200182810382526038815260200180612e406038913960400191505060405180910390fd5b60006116ad6103e8610952888863ffffffff6126db16565b905060006116c1848663ffffffff61267e16565b90506116db6301e187e0610952838563ffffffff6126db16565b979650505050505050565b6033546001600160a01b031690565b6033546000906001600160a01b031661170c61267a565b6001600160a01b031614905090565b6001600160a01b038416600090815260676020526040812080548590811061173f57fe5b9060005260206000209060050201905060008160000154116117925760405162461bcd60e51b8152600401808060200182810382526023815260200180612ec06023913960400191505060405180910390fd5b600481015460ff16156117d65760405162461bcd60e51b815260040180806020018281038252602d815260200180612c77602d913960400191505060405180910390fd5b60006117e18461282c565b50509050828110156118245760405162461bcd60e51b8152600401808060200182810382526027815260200180612ca46027913960400191505060405180910390fd5b600061183087876111ac565b9050600081116118715760405162461bcd60e51b815260040180806020018281038252602b815260200180612c4c602b913960400191505060405180910390fd5b808211156118945790508084611886826129b7565b95508086111561189257fe5b505b61189c6127ff565b6001600160a01b031663706463fa6118b261267a565b876040518363ffffffff1660e01b815260040180836001600160a01b03166001600160a01b0316815260200182815260200192505050600060405180830381600087803b15801561190257600080fd5b505af1158015611916573d6000803e3d6000fd5b5050505082600201600061192861267a565b6001600160a01b031681526020810191909152604001600020541580156119685750866001600160a01b031661195c61267a565b6001600160a01b031614155b15611a14578260030161197961267a565b81546001810183556000928352602080842090910180546001600160a01b0319166001600160a01b03939093169290921790915560408051606081018252600387015460001901815291820185905281018790529060028501906119db61267a565b6001600160a01b031681526020808201929092526040908101600020835181559183015160018301559190910151600290910155611aeb565b611a4f82846002016000611a2661267a565b6001600160a01b031681526020810191909152604001600020600101549063ffffffff6127a516565b836002016000611a5d61267a565b6001600160a01b03166001600160a01b0316815260200190815260200160002060010181905550611abf85846002016000611a9661267a565b6001600160a01b031681526020810191909152604001600020600201549063ffffffff6127a516565b836002016000611acd61267a565b6001600160a01b031681526020810191909152604001600020600201555b866001600160a01b0316611afd61267a565b604080518981526020810186905280820189905290516001600160a01b0392909216917f3be197ca542394fb46e7e2f276ca39f63cfb2a787477b05a2f1d661d85640f919181900360600190a350505050505050565b60405180604001604052806005815260200164637572766560d81b81525081565b60008060676000611b8361267a565b6001600160a01b03166001600160a01b031681526020019081526020016000208381548110611bae57fe5b906000526020600020906005020190506000816000015411611c015760405162461bcd60e51b8152600401808060200182810382526023815260200180612ec06023913960400191505060405180910390fd5b611c12611c0c61267a565b846111ac565b15611c4e5760405162461bcd60e51b815260040180806020018281038252602d815260200180612ccb602d913960400191505060405180910390fd5b600481015460ff1615611c925760405162461bcd60e51b815260040180806020018281038252602d815260200180612c77602d913960400191505060405180910390fd5b60686000611c9e61267a565b6001600160a01b031681526020808201929092526040908101600090812082516080810184528781528554818601908152429482019485526060820184815283546001818101865594865296852092516005909702909201958655518583015592516002850155915160039093019290925560048301805460ff191682179055606882611d2961267a565b6001600160a01b031681526020810191909152604001600020548354606954929091039250611d5e919063ffffffff6127a516565b606955611d696127ff565b6001600160a01b031663fa584ad0611d7f61267a565b84600001546040518363ffffffff1660e01b815260040180836001600160a01b03166001600160a01b0316815260200182815260200192505050600060405180830381600087803b158015611dd357600080fd5b505af1158015611de7573d6000803e3d6000fd5b50505050611df361267a565b8254604080518781526020810185905280820192909252516001600160a01b0392909216917fb27a5e60d9df0b3cc6e819e806f9d0bdc1ce5d8fc19f9fb8792d5c78c62a88c79181900360600190a25050919050565b6301e187e081565b600054610100900460ff1680611e6a5750611e6a6128c0565b80611e78575060005460ff16155b611eb35760405162461bcd60e51b815260040180806020018281038252602e815260200180612d78602e913960400191505060405180910390fd5b600054610100900460ff16158015611ede576000805460ff1961ff0019909116610100171660011790555b611ee782612a36565b8015611ef9576000805461ff00191690555b5050565b600060686000611f0b61267a565b6001600160a01b03166001600160a01b031681526020019081526020016000208381548110611f3657fe5b906000526020600020906005020190506000816001015411611f895760405162461bcd60e51b8152600401808060200182810382526029815260200180612ee36029913960400191505060405180910390fd5b600060676000611f9761267a565b6001600160a01b031681526020810191909152604001600020825481548110611fbc57fe5b90600052602060002090600502019050600081600001541161200f5760405162461bcd60e51b8152600401808060200182810382526023815260200180612ec06023913960400191505060405180910390fd5b600061202983600101548360010154856002015442611654565b6001840154909150612041908263ffffffff6127a516565b84111561207f5760405162461bcd60e51b815260040180806020018281038252603c815260200180612da6603c913960400191505060405180910390fd5b6120876127ff565b6001600160a01b0316638fa6c72e61209d61267a565b866040518363ffffffff1660e01b815260040180836001600160a01b03166001600160a01b0316815260200182815260200192505050600060405180830381600087803b1580156120ed57600080fd5b505af1158015612101573d6000803e3d6000fd5b5050505060008185101561217157600061213c836109528861213089600201544261267e90919063ffffffff16565b9063ffffffff6126db16565b90504281866002015401111561214e57fe5b6002850154612163908263ffffffff6127a516565b6002860155508490506121c1565b4260028501556000612189868463ffffffff61267e16565b60018601549091506121a1908263ffffffff61267e16565b60018601556069546121b9908263ffffffff61267e16565b606955508190505b60006121cc82612ad4565b90506121d66127ff565b6001600160a01b0316630a40b35761220a6040518060400160405280600581526020016466756e647360d81b81525061136b565b836040518363ffffffff1660e01b815260040180836001600160a01b03166001600160a01b0316815260200182815260200192505050600060405180830381600087803b15801561225a57600080fd5b505af115801561226e573d6000803e3d6000fd5b505050600386015461228791508263ffffffff6127a516565b600386015561229461267a565b6001600160a01b03167ff8d50c6057e24414caf5becd2c1db2b04030072f04629ef793e79845601341c588876001015489868a60020154604051808681526020018581526020018481526020018381526020018281526020019550505050505060405180910390a250505050505050565b6001600160a01b038316600090815260676020526040812080548490811061232957fe5b90600052602060002090600502019050600081600001541161237c5760405162461bcd60e51b8152600401808060200182810382526023815260200180612ec06023913960400191505060405180910390fd5b600481015460ff16156123c05760405162461bcd60e51b815260040180806020018281038252602d815260200180612c77602d913960400191505060405180910390fd5b60008160020160006123d061267a565b6001600160a01b03166001600160a01b03168152602001908152602001600020905080600201548311156124355760405162461bcd60e51b815260040180806020018281038252602e815260200180612de2602e913960400191505060405180910390fd5b6000816002015484141561244e5750600181015461247c565b61246d82600201546109528685600101546126db90919063ffffffff16565b90508160010154811061247c57fe5b856001600160a01b031661248e61267a565b6001600160a01b031614156124f7578254600290046124ba82846001015461267e90919063ffffffff16565b10156124f75760405162461bcd60e51b8152600401808060200182810382526048815260200180612e786048913960600191505060405180910390fd5b600282015461250c908563ffffffff61267e16565b60028301556001820154612526908263ffffffff61267e16565b60018301556125336127ff565b6001600160a01b031663d684e0ad61254961267a565b866040518363ffffffff1660e01b815260040180836001600160a01b03166001600160a01b0316815260200182815260200192505050600060405180830381600087803b15801561259957600080fd5b505af11580156125ad573d6000803e3d6000fd5b50505050856001600160a01b03166125c361267a565b604080518881526020810185905280820188905290516001600160a01b0392909216917f3ceff205743b4029dede5b4c20d8ccb7212b461c0c476b041a2f0f040e5586359181900360600190a3505050505050565b6126206116f5565b612671576040805162461bcd60e51b815260206004820181905260248201527f4f776e61626c653a2063616c6c6572206973206e6f7420746865206f776e6572604482015290519081900360640190fd5b61162581612b21565b3390565b6000828211156126d5576040805162461bcd60e51b815260206004820152601e60248201527f536166654d6174683a207375627472616374696f6e206f766572666c6f770000604482015290519081900360640190fd5b50900390565b6000826126ea5750600061127f565b828202828482816126f757fe5b04146127345760405162461bcd60e51b8152600401808060200182810382526021815260200180612d1e6021913960400191505060405180910390fd5b9392505050565b6000808211612791576040805162461bcd60e51b815260206004820152601a60248201527f536166654d6174683a206469766973696f6e206279207a65726f000000000000604482015290519081900360640190fd5b600082848161279c57fe5b04949350505050565b600082820183811015612734576040805162461bcd60e51b815260206004820152601b60248201527f536166654d6174683a206164646974696f6e206f766572666c6f770000000000604482015290519081900360640190fd5b60006128276040518060400160405280600581526020016466756e647360d81b81525061136b565b905090565b60008060006128396127ff565b6001600160a01b0316638dc5f4b8856040518263ffffffff1660e01b81526004018082815260200191505060606040518083038186803b15801561287c57600080fd5b505afa158015612890573d6000803e3d6000fd5b505050506040513d60608110156128a657600080fd5b508051602082015160409092015190969195509350915050565b303b1590565b600054610100900460ff16806128df57506128df6128c0565b806128ed575060005460ff16155b6129285760405162461bcd60e51b815260040180806020018281038252602e815260200180612d78602e913960400191505060405180910390fd5b600054610100900460ff16158015612953576000805460ff1961ff0019909116610100171660011790555b603380546001600160a01b0319166001600160a01b0384811691909117918290556040519116906000907f8be0079c531659141344cd1fd0a4f28419497f9722a3daafe3b4186f6b6457e0908290a38015611ef9576000805461ff00191690555050565b60006129c16127ff565b6001600160a01b0316632b772904836040518263ffffffff1660e01b81526004018082815260200191505060206040518083038186803b158015612a0457600080fd5b505afa158015612a18573d6000803e3d6000fd5b505050506040513d6020811015612a2e57600080fd5b505192915050565b600054610100900460ff1680612a4f5750612a4f6128c0565b80612a5d575060005460ff16155b612a985760405162461bcd60e51b815260040180806020018281038252602e815260200180612d78602e913960400191505060405180910390fd5b600054610100900460ff16158015612ac3576000805460ff1961ff0019909116610100171660011790555b612acb611576565b611ee782610cb8565b6000612ade6127ff565b6001600160a01b031663e01740fb836040518263ffffffff1660e01b81526004018082815260200191505060206040518083038186803b158015612a0457600080fd5b6001600160a01b038116612b665760405162461bcd60e51b8152600401808060200182810382526026815260200180612cf86026913960400191505060405180910390fd5b6033546040516001600160a01b038084169216907f8be0079c531659141344cd1fd0a4f28419497f9722a3daafe3b4186f6b6457e090600090a3603380546001600160a01b0319166001600160a01b0392909216919091179055565b828054828255906000526020600020908101928215612c17579160200282015b82811115612c1757825182546001600160a01b0319166001600160a01b03909116178255602090920191600190910190612be2565b50612c23929150612c27565b5090565b61162c91905b80821115612c235780546001600160a01b0319168155600101612c2d56fe46756e64734d6f64756c653a204465627450726f706f73616c20697320616c72656164792066756e64656446756e64734d6f64756c653a204465627450726f706f73616c20697320616c726561647920657865637574656446756e64734d6f64756c653a204d696e696d616c20616d6f756e7420697320746f6f206869676846756e64734d6f64756c653a204465627450726f706f73616c206973206e6f742066756c6c792066756e6465644f776e61626c653a206e6577206f776e657220697320746865207a65726f2061646472657373536166654d6174683a206d756c7469706c69636174696f6e206f766572666c6f7746756e64734d6f64756c653a204c657373207468656e20353025206f66206c6f616e20697320636f766572656420627920626f72726f776572436f6e747261637420696e7374616e63652068617320616c7265616479206265656e20696e697469616c697a656446756e64734d6f64756c653a2063616e206e6f74207265706179206d6f7265207468656e20646562742e6c416d6f756e74202b20696e74657265737446756e64734d6f64756c653a2043616e206e6f74207769746864726177206d6f7265207468656e206c6f636b656446756e64734d6f64756c653a204465627450726f706f73616c20616d6f756e742073686f756c64206e6f74206265203046756e64734d6f64756c653a20707265765061796d656e742073686f756c64206265206265666f72652063757272656e745061796d656e7446756e64734d6f64756c653a20426f72726f776572277320706c656467652073686f756c6420636f766572206174206c656173742068616c66206f66206465627420616d6f756e7446756e64734d6f64756c653a204465627450726f706f73616c206e6f7420666f756e6446756e64734d6f64756c653a204465627420697320616c72656164792066756c6c79207265706169644d6f64756c653a20726571756573746564206d6f64756c65206e6f7420666f756e64a265627a7a723158200e4fe6f19b81e8d16ba90d69fa0b521f0357c1b4e8922915f8b660f5ff57af5d64736f6c634300050c0032",
  "source": "pragma solidity ^0.5.12;\n\nimport \"@openzeppelin/contracts-ethereum-package/contracts/token/ERC20/IERC20.sol\";\nimport \"@openzeppelin/contracts-ethereum-package/contracts/math/SafeMath.sol\";\nimport \"../../interfaces/curve/IFundsModule.sol\";\nimport \"../../interfaces/curve/ILoanModule.sol\";\nimport \"../../token/pTokens/PToken.sol\";\nimport \"../../common/Module.sol\";\n\ncontract LoanModule is Module, ILoanModule {\n    using SafeMath for uint256;\n\n    uint256 public constant INTEREST_MULTIPLIER = 10**3;    // Multiplier to store interest rate (decimal) in int\n    uint256 public constant ANNUAL_SECONDS = 365*24*60*60+(24*60*60/4);  // Seconds in a year + 1/4 day to compensate leap years\n\n    struct DebtPledge {\n        uint256 senderIndex;  //Index of pledge sender in the array\n        uint256 lAmount;      //Amount of liquid tokens, covered by this pledge\n        uint256 pAmount;      //Amount of pTokens locked for this pledge\n    }\n\n    struct DebtProposal {\n        uint256 lAmount;             //Amount of proposed credit (in liquid token)\n        uint256 interest;            //Annual interest rate multiplied by INTEREST_MULTIPLIER\n        mapping(address => DebtPledge) pledges;    //Map of all user pledges (this value will not change after proposal )\n        address[] supporters;       //Array of all supporters, first supporter (with zero index) is borrower himself\n        bool executed;              //If Debt is created for this proposal\n    }\n\n    struct Debt {\n        uint256 proposal;           // Index of DebtProposal in adress's proposal list\n        uint256 lAmount;            // Current amount of debt (in liquid token). If 0 - debt is fully paid\n        uint256 lastPayment;        // Timestamp of last interest payment (can be timestamp of last payment or a virtual date untill which interest is paid)\n        uint256 pInterest;          // Amount of pTokens minted as interest for this debt\n        mapping(address => uint256) claimedPledges;  //Amount of pTokens already claimed by supporter\n    }\n\n    mapping(address=>DebtProposal[]) public debtProposals;\n    mapping(address=>Debt[]) public debts;\n\n    uint256 private lDebts;\n\n    function initialize(address _pool) public initializer {\n        Module.initialize(_pool);\n    }\n\n    /**\n     * @notice Create DebtProposal\n     * @param debtLAmount Amount of debt in liquid tokens\n     * @param interest Annual interest rate multiplied by INTEREST_MULTIPLIER (to allow decimal numbers)\n     * @param pAmount Amount of pTokens to use as collateral\n     * @param lAmountMin Minimal amount of liquid tokens used as collateral.\n     * @return Index of created DebtProposal\n     */\n    function createDebtProposal(uint256 debtLAmount, uint256 interest, uint256 pAmount, uint256 lAmountMin) public returns(uint256){\n        require(debtLAmount > 0, \"FundsModule: DebtProposal amount should not be 0\");\n        (uint256 clAmount, , ) = calculatePoolExitInverse(pAmount);\n        require(clAmount >= lAmountMin, \"FundsModule: Minimal amount is too high\");\n        require(clAmount >= debtLAmount/2, \"FundsModule: Less then 50% of loan is covered by borrower\");\n\n        fundsModule().depositPTokens(_msgSender(), pAmount);\n        debtProposals[_msgSender()].push(DebtProposal({\n            lAmount: debtLAmount,\n            interest: interest,\n            supporters: new address[](0),\n            executed: false\n        }));\n        uint256 proposalIndex = debtProposals[_msgSender()].length-1;\n        emit DebtProposalCreated(_msgSender(), proposalIndex, debtLAmount, interest);\n        DebtProposal storage p = debtProposals[_msgSender()][proposalIndex];\n        p.supporters.push(_msgSender());\n        p.pledges[_msgSender()] = DebtPledge({\n            senderIndex: 0,\n            lAmount: clAmount,\n            pAmount: pAmount\n        });\n        emit PledgeAdded(_msgSender(), _msgSender(), proposalIndex, clAmount, pAmount);\n    }\n\n    /**\n     * @notice Add pledge to DebtProposal\n     * @param borrower Address of borrower\n     * @param proposal Index of borroers's proposal\n     * @param pAmount Amount of pTokens to use as collateral\n     * @param lAmountMin Minimal amount of liquid tokens to cover by this pledge\n     * \n     * There is a case, when pAmount is too high for this debt, in this case only part of pAmount will be used.\n     * In such edge case we may return less then lAmountMin, but price limit lAmountMin/pAmount will be honored.\n     */\n    function addPledge(address borrower, uint256 proposal, uint256 pAmount, uint256 lAmountMin) public {\n        DebtProposal storage p = debtProposals[borrower][proposal];\n        require(p.lAmount > 0, \"FundsModule: DebtProposal not found\");\n        require(!p.executed, \"FundsModule: DebtProposal is already executed\");\n        (uint256 lAmount, , ) = calculatePoolExitInverse(pAmount);\n        require(lAmount >= lAmountMin, \"FundsModule: Minimal amount is too high\");\n        uint256 rlAmount= getRequiredPledge(borrower, proposal);\n        require(rlAmount > 0, \"FundsModule: DebtProposal is already funded\");\n        if (lAmount > rlAmount) {\n            uint256 pAmountOld = pAmount;\n            lAmount = rlAmount;\n            pAmount = calculatePoolExit(lAmount);\n            assert(pAmount <= pAmountOld);\n        } \n        fundsModule().depositPTokens(_msgSender(), pAmount);\n        if (p.pledges[_msgSender()].senderIndex == 0 && _msgSender() != borrower) {\n            p.supporters.push(_msgSender());\n            p.pledges[_msgSender()] = DebtPledge({\n                senderIndex: p.supporters.length-1,\n                lAmount: lAmount,\n                pAmount: pAmount\n            });\n        } else {\n            p.pledges[_msgSender()].lAmount = p.pledges[_msgSender()].lAmount.add(lAmount);\n            p.pledges[_msgSender()].pAmount = p.pledges[_msgSender()].pAmount.add(pAmount);\n        }\n        emit PledgeAdded(_msgSender(), borrower, proposal, lAmount, pAmount);\n    }\n\n    /**\n     * @notice Withdraw pledge from DebtProposal\n     * @param borrower Address of borrower\n     * @param proposal Index of borrowers's proposal\n     * @param pAmount Amount of pTokens to withdraw\n     */\n    function withdrawPledge(address borrower, uint256 proposal, uint256 pAmount) public {\n        DebtProposal storage p = debtProposals[borrower][proposal];\n        require(p.lAmount > 0, \"FundsModule: DebtProposal not found\");\n        require(!p.executed, \"FundsModule: DebtProposal is already executed\");\n        DebtPledge storage pledge = p.pledges[_msgSender()];\n        require(pAmount <= pledge.pAmount, \"FundsModule: Can not withdraw more then locked\");\n        uint256 lAmount; \n        if (pAmount == pledge.pAmount) {\n            lAmount = pledge.lAmount;\n        } else {\n            // pAmount < pledge.pAmount\n            lAmount = pledge.lAmount.mul(pAmount).div(pledge.pAmount);\n            assert(lAmount < pledge.lAmount);\n        }\n        if (_msgSender() == borrower) {\n            require(pledge.lAmount.sub(lAmount) >= p.lAmount/2, \"FundsModule: Borrower's pledge should cover at least half of debt amount\");\n        }\n        pledge.pAmount = pledge.pAmount.sub(pAmount);\n        pledge.lAmount = pledge.lAmount.sub(lAmount);\n        fundsModule().withdrawPTokens(_msgSender(), pAmount);\n        emit PledgeWithdrawn(_msgSender(), borrower, proposal, lAmount, pAmount);\n    }\n\n    /**\n     * @notice Execute DebtProposal\n     * @dev Creates Debt using data of DebtProposal\n     * @param proposal Index of DebtProposal\n     * @return Index of created Debt\n     */\n    function executeDebtProposal(uint256 proposal) public returns(uint256){\n        DebtProposal storage p = debtProposals[_msgSender()][proposal];\n        require(p.lAmount > 0, \"FundsModule: DebtProposal not found\");\n        require(getRequiredPledge(_msgSender(), proposal) == 0, \"FundsModule: DebtProposal is not fully funded\");\n        require(!p.executed, \"FundsModule: DebtProposal is already executed\");\n        debts[_msgSender()].push(Debt({\n            proposal: proposal,\n            lAmount: p.lAmount,\n            lastPayment: now,\n            pInterest: 0\n        }));\n        // We do not initialize pledges map here to save gas!\n        // Instead we check PledgeAmount.initialized field and do lazy initialization\n        p.executed = true;\n        uint256 debtIdx = debts[_msgSender()].length-1; //It's important to save index before calling external contract\n        lDebts = lDebts.add(p.lAmount);\n        fundsModule().withdrawLTokens(_msgSender(), p.lAmount);\n        emit DebtProposalExecuted(_msgSender(), proposal, debtIdx, p.lAmount);\n    }\n\n    /**\n     * @notice Repay amount of lToken and unlock pTokens\n     * @param debt Index of Debt\n     * @param lAmount Amount of liquid tokens to repay\n     */\n    function repay(uint256 debt, uint256 lAmount) public {\n        Debt storage d = debts[_msgSender()][debt];\n        require(d.lAmount > 0, \"FundsModule: Debt is already fully repaid\"); //Or wrong debt index\n        DebtProposal storage p = debtProposals[_msgSender()][d.proposal];\n        require(p.lAmount > 0, \"FundsModule: DebtProposal not found\");\n\n        uint256 lInterest = calculateInterestPayment(d.lAmount, p.interest, d.lastPayment, now);\n        require(lAmount <= d.lAmount.add(lInterest), \"FundsModule: can not repay more then debt.lAmount + interest\");\n\n        fundsModule().depositLTokens(_msgSender(), lAmount); //TODO Think of reentrancy here. Which operation should be first?\n\n        uint256 actualInterest;\n        if (lAmount < lInterest) {\n            uint256 paidTime = now.sub(d.lastPayment).mul(lAmount).div(lInterest);\n            assert(d.lastPayment + paidTime <= now);\n            d.lastPayment = d.lastPayment.add(paidTime);\n            actualInterest = lAmount;\n        } else {\n            d.lastPayment = now;\n            uint256 debtReturned = lAmount.sub(lInterest);\n            d.lAmount = d.lAmount.sub(debtReturned);\n            lDebts = lDebts.sub(debtReturned);\n            actualInterest = lInterest;\n        }\n\n        //Mint pTokens to pay interest for supporters\n        uint256 pInterest = calculatePoolEnter(actualInterest);\n        fundsModule().mintPTokens(getModuleAddress(MODULE_FUNDS), pInterest);\n\n        d.pInterest = d.pInterest.add(pInterest);\n\n        emit Repay(_msgSender(), debt, d.lAmount, lAmount, actualInterest, d.lastPayment);\n    }\n\n    /**\n     * @notice Withdraw part of the pledge which is already unlocked (borrower repaid part of the debt) + interest\n     * @param borrower Address of borrower\n     * @param debt Index of borrowers's debt\n     */\n    function withdrawUnlockedPledge(address borrower, uint256 debt) public {\n        (, uint256 pUnlocked, uint256 pInterest, uint256 pWithdrawn) = calculatePledgeInfo(borrower, debt, _msgSender());\n\n        uint256 pUnlockedPlusInterest = pUnlocked.add(pInterest);\n        require(pUnlockedPlusInterest > pWithdrawn, \"FundsModule: nothing to withdraw\");\n        uint256 pAmount = pUnlockedPlusInterest.sub(pWithdrawn);\n\n        Debt storage dbt = debts[borrower][debt];\n        dbt.claimedPledges[_msgSender()] = dbt.claimedPledges[_msgSender()].add(pAmount);\n        fundsModule().withdrawPTokens(_msgSender(), pAmount);\n        emit UnlockedPledgeWithdraw(_msgSender(), borrower, debt, pAmount);\n    }\n\n    /**\n     * @notice Calculates current pledge state\n     * @param borrower Address of borrower\n     * @param debt Index of borrowers's debt\n     * @param supporter Address of supporter to check. If supporter == borrower, special rules applied.\n     * @return current pledge state:\n     *      pLocked - locked pTokens\n     *      pUnlocked - unlocked pTokens (including already withdrawn)\n     *      pInterest - received interest\n     *      pWithdrawn - amount of already withdrawn pTokens\n     */\n    function calculatePledgeInfo(address borrower, uint256 debt, address supporter) view public \n    returns(uint256 pLocked, uint256 pUnlocked, uint256 pInterest, uint256 pWithdrawn){\n        Debt storage dbt = debts[borrower][debt];\n        DebtProposal storage proposal = debtProposals[_msgSender()][dbt.proposal];\n        require(proposal.lAmount > 0 && proposal.executed, \"FundsModule: DebtProposal not found\");\n\n        DebtPledge storage dp = proposal.pledges[supporter];\n\n        //Do not count 50% of debt for borrower in following calculations \n        uint256 pPledge;\n        uint256 lPledge;\n        if (supporter == borrower) {\n            // lPledge = dp.lAmount - proposal.lAmount/2;       //Only pay interest for part of the pledge which is on top of 50% \n            // pPledge = dp.pAmount - (proposal.lAmount*dp.pAmount)/(dp.lAmount*2); //Decrease pledge for calculations of unlocked amount\n            lPledge = dp.lAmount.sub(proposal.lAmount/2);       //Only pay interest for part of the pledge which is on top of 50% \n            pPledge = dp.pAmount.sub(proposal.lAmount.mul(dp.pAmount).div(dp.lAmount.mul(2))); //Decrease pledge for calculations of unlocked amount\n        } else {\n            lPledge = dp.lAmount;\n            pPledge = dp.pAmount;\n        }\n\n        pLocked = pPledge.mul(dbt.lAmount).div(proposal.lAmount);\n        assert(pLocked <= pPledge);\n        pUnlocked = pPledge.sub(pLocked);\n\n        pInterest = dbt.pInterest.mul(lPledge).div(proposal.lAmount);\n        assert(pInterest <= dbt.pInterest);\n\n        //Unlock 50% of debt only after it is fully paid\n        if (supporter == borrower) {\n            if (dbt.lAmount == 0) {\n                pLocked = 0;\n                pUnlocked = dp.pAmount;\n            } else {\n                //pLocked += (proposal.lAmount*dp.pAmount)/(dp.lAmount*2);\n                pLocked = pLocked.add(proposal.lAmount.mul(dp.pAmount).div(dp.lAmount.mul(2)));\n            }\n        }\n        pWithdrawn = dbt.claimedPledges[supporter];\n    }\n\n    /**\n     * @notice Calculates how many tokens are not yet covered by borrower or supporters\n     * @param borrower Borrower address\n     * @param proposal Proposal index\n     * @return amounts of liquid tokens currently required to fully cover proposal\n     */\n    function getRequiredPledge(address borrower, uint256 proposal) view public returns(uint256){\n        DebtProposal storage p = debtProposals[borrower][proposal];\n        if (p.executed) return 0;\n        uint256 covered = 0;\n        for (uint256 i = 0; i < p.supporters.length; i++) {\n            address s = p.supporters[i];\n            covered = covered.add(p.pledges[s].lAmount);\n        }\n        return  p.lAmount.sub(covered);\n    }\n\n    /**\n     * @notice Calculates current pledge state\n     * @param borrower Address of borrower\n     * @param debt Index of borrowers's debt\n     * @return Amount of unpaid debt, amount of interest payment\n     */\n    function getDebtRequiredPayments(address borrower, uint256 debt) public view returns(uint256, uint256) {\n        Debt storage d = debts[borrower][debt];\n        if (d.lAmount == 0) {\n            return (0, 0);\n        }\n        DebtProposal storage p = debtProposals[borrower][d.proposal];\n        require(p.lAmount > 0, \"FundsModule: DebtProposal not found\");\n\n        uint256 interest = calculateInterestPayment(d.lAmount, p.interest, d.lastPayment, now);\n        return (d.lAmount, interest);\n    }\n\n    /**\n     * @notice Check if user has active debts\n     * @param sender Address to check\n     * @return True if sender has unpaid debts\n     */\n    function hasActiveDebts(address sender) public view returns(bool) {\n        //TODO: iterating through all debts may be too expensive if there are a lot of closed debts. Need to test this and find solution\n        Debt[] storage userDebts = debts[sender];\n        if (userDebts.length == 0) return false;\n        for (uint256 i=userDebts.length-1; i >= 0; i--){ //searching in reverse order because probability to find active loan is higher for latest loans\n            if (userDebts[i].lAmount == 0) return true;\n        }\n        return false;\n    }\n\n    /**\n     * @notice Total amount of debts\n     * @return Summ of all liquid token debts\n     */\n    function totalLDebts() public view returns(uint256){\n        return lDebts;\n    }\n\n    /**\n     * @notice Calculates interest amount for a debt\n     * @param debtLAmount Current amount of debt\n     * @param interest Annual interest rate multiplied by INTEREST_MULTIPLIER\n     * @param prevPayment Timestamp of previous payment\n     * @param currentPayment Timestamp of current payment\n     */\n    function calculateInterestPayment(uint256 debtLAmount, uint256 interest, uint256 prevPayment, uint currentPayment) public pure returns(uint256){\n        require(prevPayment <= currentPayment, \"FundsModule: prevPayment should be before currentPayment\");\n        uint256 annualInterest = debtLAmount.mul(interest).div(INTEREST_MULTIPLIER);\n        uint256 time = currentPayment.sub(prevPayment);\n        return time.mul(annualInterest).div(ANNUAL_SECONDS);\n    }\n\n    /**\n     * @notice Calculates how many pTokens should be given to user for increasing liquidity\n     * @param lAmount Amount of liquid tokens which will be put into the pool\n     * @return Amount of pToken which should be sent to sender\n     */\n    function calculatePoolEnter(uint256 lAmount) internal view returns(uint256) {\n        return fundsModule().calculatePoolEnter(lAmount);\n    }\n\n    /**\n     * @notice Calculates how many pTokens should be taken from user for decreasing liquidity\n     * @param lAmount Amount of liquid tokens which will be removed from the pool\n     * @return Amount of pToken which should be taken from sender\n     */\n    function calculatePoolExit(uint256 lAmount) internal view returns(uint256) {\n        return fundsModule().calculatePoolExit(lAmount);\n    }\n\n    /**\n     * @notice Calculates how many liquid tokens should be removed from pool when decreasing liquidity\n     * @param pAmount Amount of pToken which should be taken from sender\n     * @return Amount of liquid tokens which will be removed from the pool: total, part for sender, part for pool\n     */\n    function calculatePoolExitInverse(uint256 pAmount) internal view returns(uint256, uint256, uint256) {\n        return fundsModule().calculatePoolExitInverse(pAmount);\n    }\n\n    function fundsModule() internal view returns(IFundsModule) {\n        return IFundsModule(getModuleAddress(MODULE_FUNDS));\n    }\n}",
  "sourcePath": "/home/pickle/Documents/bch/akropolisOS/contracts/modules/loan/LoanModule.sol",
  "compiler": {
    "name": "solc",
    "version": "0.5.12+commit.7709ece9.Emscripten.clang"
  },
  "schemaVersion": "3.0.16",
  "updatedAt": "2020-01-10T11:12:15.795Z",
  "devdoc": {
    "methods": {
      "addPledge(address,uint256,uint256,uint256)": {
        "params": {
          "borrower": "Address of borrower",
          "lAmountMin": "Minimal amount of liquid tokens to cover by this pledge      * There is a case, when pAmount is too high for this debt, in this case only part of pAmount will be used. In such edge case we may return less then lAmountMin, but price limit lAmountMin/pAmount will be honored.",
          "pAmount": "Amount of pTokens to use as collateral",
          "proposal": "Index of borroers's proposal"
        }
      },
      "calculateInterestPayment(uint256,uint256,uint256,uint256)": {
        "params": {
          "currentPayment": "Timestamp of current payment",
          "debtLAmount": "Current amount of debt",
          "interest": "Annual interest rate multiplied by INTEREST_MULTIPLIER",
          "prevPayment": "Timestamp of previous payment"
        }
      },
      "calculatePledgeInfo(address,uint256,address)": {
        "params": {
          "borrower": "Address of borrower",
          "debt": "Index of borrowers's debt",
          "supporter": "Address of supporter to check. If supporter == borrower, special rules applied."
        },
        "return": "current pledge state:     pLocked - locked pTokens     pUnlocked - unlocked pTokens (including already withdrawn)     pInterest - received interest     pWithdrawn - amount of already withdrawn pTokens"
      },
      "createDebtProposal(uint256,uint256,uint256,uint256)": {
        "params": {
          "debtLAmount": "Amount of debt in liquid tokens",
          "interest": "Annual interest rate multiplied by INTEREST_MULTIPLIER (to allow decimal numbers)",
          "lAmountMin": "Minimal amount of liquid tokens used as collateral.",
          "pAmount": "Amount of pTokens to use as collateral"
        },
        "return": "Index of created DebtProposal"
      },
      "executeDebtProposal(uint256)": {
        "details": "Creates Debt using data of DebtProposal",
        "params": {
          "proposal": "Index of DebtProposal"
        },
        "return": "Index of created Debt"
      },
      "getDebtRequiredPayments(address,uint256)": {
        "params": {
          "borrower": "Address of borrower",
          "debt": "Index of borrowers's debt"
        },
        "return": "Amount of unpaid debt, amount of interest payment"
      },
      "getRequiredPledge(address,uint256)": {
        "params": {
          "borrower": "Borrower address",
          "proposal": "Proposal index"
        },
        "return": "amounts of liquid tokens currently required to fully cover proposal"
      },
      "hasActiveDebts(address)": {
        "params": {
          "sender": "Address to check"
        },
        "return": "True if sender has unpaid debts"
      },
      "isOwner()": {
        "details": "Returns true if the caller is the current owner."
      },
      "owner()": {
        "details": "Returns the address of the current owner."
      },
      "renounceOwnership()": {
        "details": "Leaves the contract without owner. It will not be possible to call `onlyOwner` functions anymore. Can only be called by the current owner.     * > Note: Renouncing ownership will leave the contract without an owner, thereby removing any functionality that is only available to the owner."
      },
      "repay(uint256,uint256)": {
        "params": {
          "debt": "Index of Debt",
          "lAmount": "Amount of liquid tokens to repay"
        }
      },
      "totalLDebts()": {
        "return": "Summ of all liquid token debts"
      },
      "transferOwnership(address)": {
        "details": "Transfers ownership of the contract to a new account (`newOwner`). Can only be called by the current owner."
      },
      "withdrawPledge(address,uint256,uint256)": {
        "params": {
          "borrower": "Address of borrower",
          "pAmount": "Amount of pTokens to withdraw",
          "proposal": "Index of borrowers's proposal"
        }
      },
      "withdrawUnlockedPledge(address,uint256)": {
        "params": {
          "borrower": "Address of borrower",
          "debt": "Index of borrowers's debt"
        }
      }
    }
  },
  "userdoc": {
    "methods": {
      "addPledge(address,uint256,uint256,uint256)": {
        "notice": "Add pledge to DebtProposal"
      },
      "calculateInterestPayment(uint256,uint256,uint256,uint256)": {
        "notice": "Calculates interest amount for a debt"
      },
      "calculatePledgeInfo(address,uint256,address)": {
        "notice": "Calculates current pledge state"
      },
      "createDebtProposal(uint256,uint256,uint256,uint256)": {
        "notice": "Create DebtProposal"
      },
      "executeDebtProposal(uint256)": {
        "notice": "Execute DebtProposal"
      },
      "getDebtRequiredPayments(address,uint256)": {
        "notice": "Calculates current pledge state"
      },
      "getRequiredPledge(address,uint256)": {
        "notice": "Calculates how many tokens are not yet covered by borrower or supporters"
      },
      "hasActiveDebts(address)": {
        "notice": "Check if user has active debts"
      },
      "repay(uint256,uint256)": {
        "notice": "Repay amount of lToken and unlock pTokens"
      },
      "totalLDebts()": {
        "notice": "Total amount of debts"
      },
      "withdrawPledge(address,uint256,uint256)": {
        "notice": "Withdraw pledge from DebtProposal"
      },
      "withdrawUnlockedPledge(address,uint256)": {
        "notice": "Withdraw part of the pledge which is already unlocked (borrower repaid part of the debt) + interest"
      }
    }
  }
}