{
  "contractName": "LoanModule",
  "abi": [
    {
      "anonymous": false,
      "inputs": [
        {
          "indexed": true,
          "internalType": "address",
          "name": "borrower",
          "type": "address"
        },
        {
          "indexed": false,
          "internalType": "uint256",
          "name": "debt",
          "type": "uint256"
        },
        {
          "indexed": false,
          "internalType": "uint256",
          "name": "pBurned",
          "type": "uint256"
        }
      ],
      "name": "DebtDefaultExecuted",
      "type": "event"
    },
    {
      "anonymous": false,
      "inputs": [
        {
          "indexed": true,
          "internalType": "address",
          "name": "sender",
          "type": "address"
        },
        {
          "indexed": false,
          "internalType": "uint256",
          "name": "proposal",
          "type": "uint256"
        },
        {
          "indexed": false,
          "internalType": "uint256",
          "name": "lAmount",
          "type": "uint256"
        },
        {
          "indexed": false,
          "internalType": "uint256",
          "name": "interest",
          "type": "uint256"
        },
        {
          "indexed": false,
          "internalType": "bytes32",
          "name": "descriptionHash",
          "type": "bytes32"
        }
      ],
      "name": "DebtProposalCreated",
      "type": "event"
    },
    {
      "anonymous": false,
      "inputs": [
        {
          "indexed": true,
          "internalType": "address",
          "name": "sender",
          "type": "address"
        },
        {
          "indexed": false,
          "internalType": "uint256",
          "name": "proposal",
          "type": "uint256"
        },
        {
          "indexed": false,
          "internalType": "uint256",
          "name": "debt",
          "type": "uint256"
        },
        {
          "indexed": false,
          "internalType": "uint256",
          "name": "lAmount",
          "type": "uint256"
        }
      ],
      "name": "DebtProposalExecuted",
      "type": "event"
    },
    {
      "anonymous": false,
      "inputs": [
        {
          "indexed": true,
          "internalType": "address",
          "name": "previousOwner",
          "type": "address"
        },
        {
          "indexed": true,
          "internalType": "address",
          "name": "newOwner",
          "type": "address"
        }
      ],
      "name": "OwnershipTransferred",
      "type": "event"
    },
    {
      "anonymous": false,
      "inputs": [
        {
          "indexed": true,
          "internalType": "address",
          "name": "sender",
          "type": "address"
        },
        {
          "indexed": true,
          "internalType": "address",
          "name": "borrower",
          "type": "address"
        },
        {
          "indexed": false,
          "internalType": "uint256",
          "name": "proposal",
          "type": "uint256"
        },
        {
          "indexed": false,
          "internalType": "uint256",
          "name": "lAmount",
          "type": "uint256"
        },
        {
          "indexed": false,
          "internalType": "uint256",
          "name": "pAmount",
          "type": "uint256"
        }
      ],
      "name": "PledgeAdded",
      "type": "event"
    },
    {
      "anonymous": false,
      "inputs": [
        {
          "indexed": true,
          "internalType": "address",
          "name": "sender",
          "type": "address"
        },
        {
          "indexed": true,
          "internalType": "address",
          "name": "borrower",
          "type": "address"
        },
        {
          "indexed": false,
          "internalType": "uint256",
          "name": "proposal",
          "type": "uint256"
        },
        {
          "indexed": false,
          "internalType": "uint256",
          "name": "lAmount",
          "type": "uint256"
        },
        {
          "indexed": false,
          "internalType": "uint256",
          "name": "pAmount",
          "type": "uint256"
        }
      ],
      "name": "PledgeWithdrawn",
      "type": "event"
    },
    {
      "anonymous": false,
      "inputs": [
        {
          "indexed": true,
          "internalType": "address",
          "name": "sender",
          "type": "address"
        },
        {
          "indexed": false,
          "internalType": "uint256",
          "name": "debt",
          "type": "uint256"
        },
        {
          "indexed": false,
          "internalType": "uint256",
          "name": "lDebtLeft",
          "type": "uint256"
        },
        {
          "indexed": false,
          "internalType": "uint256",
          "name": "lFullPaymentAmount",
          "type": "uint256"
        },
        {
          "indexed": false,
          "internalType": "uint256",
          "name": "lInterestPaid",
          "type": "uint256"
        },
        {
          "indexed": false,
          "internalType": "uint256",
          "name": "pInterestPaid",
          "type": "uint256"
        },
        {
          "indexed": false,
          "internalType": "uint256",
          "name": "newlastPayment",
          "type": "uint256"
        }
      ],
      "name": "Repay",
      "type": "event"
    },
    {
      "anonymous": false,
      "inputs": [
        {
          "indexed": true,
          "internalType": "address",
          "name": "sender",
          "type": "address"
        },
        {
          "indexed": true,
          "internalType": "address",
          "name": "borrower",
          "type": "address"
        },
        {
          "indexed": false,
          "internalType": "uint256",
          "name": "proposal",
          "type": "uint256"
        },
        {
          "indexed": false,
          "internalType": "uint256",
          "name": "debt",
          "type": "uint256"
        },
        {
          "indexed": false,
          "internalType": "uint256",
          "name": "pAmount",
          "type": "uint256"
        }
      ],
      "name": "UnlockedPledgeWithdraw",
      "type": "event"
    },
    {
      "constant": true,
      "inputs": [],
      "name": "ANNUAL_SECONDS",
      "outputs": [
        {
          "internalType": "uint256",
          "name": "",
          "type": "uint256"
        }
      ],
      "payable": false,
      "stateMutability": "view",
      "type": "function"
    },
    {
      "constant": true,
      "inputs": [],
      "name": "BORROWER_COLLATERAL_TO_FULL_COLLATERAL_MULTIPLIER",
      "outputs": [
        {
          "internalType": "uint256",
          "name": "",
          "type": "uint256"
        }
      ],
      "payable": false,
      "stateMutability": "view",
      "type": "function"
    },
    {
      "constant": true,
      "inputs": [],
      "name": "BORROWER_COLLATERAL_TO_FULL_COLLATERAL_RATIO",
      "outputs": [
        {
          "internalType": "uint256",
          "name": "",
          "type": "uint256"
        }
      ],
      "payable": false,
      "stateMutability": "view",
      "type": "function"
    },
    {
      "constant": true,
      "inputs": [],
      "name": "COLLATERAL_TO_DEBT_RATIO",
      "outputs": [
        {
          "internalType": "uint256",
          "name": "",
          "type": "uint256"
        }
      ],
      "payable": false,
      "stateMutability": "view",
      "type": "function"
    },
    {
      "constant": true,
      "inputs": [],
      "name": "COLLATERAL_TO_DEBT_RATIO_MULTIPLIER",
      "outputs": [
        {
          "internalType": "uint256",
          "name": "",
          "type": "uint256"
        }
      ],
      "payable": false,
      "stateMutability": "view",
      "type": "function"
    },
    {
      "constant": true,
      "inputs": [],
      "name": "DEBT_LOAD_MULTIPLIER",
      "outputs": [
        {
          "internalType": "uint256",
          "name": "",
          "type": "uint256"
        }
      ],
      "payable": false,
      "stateMutability": "view",
      "type": "function"
    },
    {
      "constant": true,
      "inputs": [],
      "name": "DEBT_REPAY_DEADLINE_PERIOD",
      "outputs": [
        {
          "internalType": "uint256",
          "name": "",
          "type": "uint256"
        }
      ],
      "payable": false,
      "stateMutability": "view",
      "type": "function"
    },
    {
      "constant": true,
      "inputs": [],
      "name": "INTEREST_MULTIPLIER",
      "outputs": [
        {
          "internalType": "uint256",
          "name": "",
          "type": "uint256"
        }
      ],
      "payable": false,
      "stateMutability": "view",
      "type": "function"
    },
    {
      "constant": true,
      "inputs": [],
      "name": "MODULE_CURVE",
      "outputs": [
        {
          "internalType": "string",
          "name": "",
          "type": "string"
        }
      ],
      "payable": false,
      "stateMutability": "view",
      "type": "function"
    },
    {
      "constant": true,
      "inputs": [],
      "name": "MODULE_FUNDS",
      "outputs": [
        {
          "internalType": "string",
          "name": "",
          "type": "string"
        }
      ],
      "payable": false,
      "stateMutability": "view",
      "type": "function"
    },
    {
      "constant": true,
      "inputs": [],
      "name": "MODULE_LIQUIDITY",
      "outputs": [
        {
          "internalType": "string",
          "name": "",
          "type": "string"
        }
      ],
      "payable": false,
      "stateMutability": "view",
      "type": "function"
    },
    {
      "constant": true,
      "inputs": [],
      "name": "MODULE_LOAN",
      "outputs": [
        {
          "internalType": "string",
          "name": "",
          "type": "string"
        }
      ],
      "payable": false,
      "stateMutability": "view",
      "type": "function"
    },
    {
      "constant": true,
      "inputs": [],
      "name": "MODULE_LTOKEN",
      "outputs": [
        {
          "internalType": "string",
          "name": "",
          "type": "string"
        }
      ],
      "payable": false,
      "stateMutability": "view",
      "type": "function"
    },
    {
      "constant": true,
      "inputs": [],
      "name": "MODULE_PTOKEN",
      "outputs": [
        {
          "internalType": "string",
          "name": "",
          "type": "string"
        }
      ],
      "payable": false,
      "stateMutability": "view",
      "type": "function"
    },
    {
      "constant": true,
      "inputs": [],
      "name": "PLEDGE_PERCENT_MULTIPLIER",
      "outputs": [
        {
          "internalType": "uint256",
          "name": "",
          "type": "uint256"
        }
      ],
      "payable": false,
      "stateMutability": "view",
      "type": "function"
    },
    {
      "constant": true,
      "inputs": [
        {
          "internalType": "address",
          "name": "",
          "type": "address"
        },
        {
          "internalType": "uint256",
          "name": "",
          "type": "uint256"
        }
      ],
      "name": "debtProposals",
      "outputs": [
        {
          "internalType": "uint256",
          "name": "lAmount",
          "type": "uint256"
        },
        {
          "internalType": "uint256",
          "name": "interest",
          "type": "uint256"
        },
        {
          "internalType": "bytes32",
          "name": "descriptionHash",
          "type": "bytes32"
        },
        {
          "internalType": "uint256",
          "name": "lCovered",
          "type": "uint256"
        },
        {
          "internalType": "uint256",
          "name": "pCollected",
          "type": "uint256"
        },
        {
          "internalType": "bool",
          "name": "executed",
          "type": "bool"
        }
      ],
      "payable": false,
      "stateMutability": "view",
      "type": "function"
    },
    {
      "constant": true,
      "inputs": [
        {
          "internalType": "address",
          "name": "",
          "type": "address"
        },
        {
          "internalType": "uint256",
          "name": "",
          "type": "uint256"
        }
      ],
      "name": "debts",
      "outputs": [
        {
          "internalType": "uint256",
          "name": "proposal",
          "type": "uint256"
        },
        {
          "internalType": "uint256",
          "name": "lAmount",
          "type": "uint256"
        },
        {
          "internalType": "uint256",
          "name": "lastPayment",
          "type": "uint256"
        },
        {
          "internalType": "uint256",
          "name": "pInterest",
          "type": "uint256"
        },
        {
          "internalType": "bool",
          "name": "defaultExecuted",
          "type": "bool"
        }
      ],
      "payable": false,
      "stateMutability": "view",
      "type": "function"
    },
    {
      "constant": true,
      "inputs": [
        {
          "internalType": "string",
          "name": "module",
          "type": "string"
        }
      ],
      "name": "getModuleAddress",
      "outputs": [
        {
          "internalType": "address",
          "name": "",
          "type": "address"
        }
      ],
      "payable": false,
      "stateMutability": "view",
      "type": "function"
    },
    {
      "constant": true,
      "inputs": [],
      "name": "isOwner",
      "outputs": [
        {
          "internalType": "bool",
          "name": "",
          "type": "bool"
        }
      ],
      "payable": false,
      "stateMutability": "view",
      "type": "function"
    },
    {
      "constant": true,
      "inputs": [],
      "name": "limits",
      "outputs": [
        {
          "internalType": "uint256",
          "name": "lDebtAmountMin",
          "type": "uint256"
        },
        {
          "internalType": "uint256",
          "name": "debtInterestMin",
          "type": "uint256"
        },
        {
          "internalType": "uint256",
          "name": "pledgePercentMin",
          "type": "uint256"
        },
        {
          "internalType": "uint256",
          "name": "lMinPledgeMax",
          "type": "uint256"
        },
        {
          "internalType": "uint256",
          "name": "debtLoadMax",
          "type": "uint256"
        }
      ],
      "payable": false,
      "stateMutability": "view",
      "type": "function"
    },
    {
      "constant": true,
      "inputs": [],
      "name": "owner",
      "outputs": [
        {
          "internalType": "address",
          "name": "",
          "type": "address"
        }
      ],
      "payable": false,
      "stateMutability": "view",
      "type": "function"
    },
    {
      "constant": true,
      "inputs": [],
      "name": "pool",
      "outputs": [
        {
          "internalType": "address",
          "name": "",
          "type": "address"
        }
      ],
      "payable": false,
      "stateMutability": "view",
      "type": "function"
    },
    {
      "constant": false,
      "inputs": [],
      "name": "renounceOwnership",
      "outputs": [],
      "payable": false,
      "stateMutability": "nonpayable",
      "type": "function"
    },
    {
      "constant": false,
      "inputs": [
        {
          "internalType": "address",
          "name": "_pool",
          "type": "address"
        }
      ],
      "name": "setPool",
      "outputs": [],
      "payable": false,
      "stateMutability": "nonpayable",
      "type": "function"
    },
    {
      "constant": false,
      "inputs": [
        {
          "internalType": "address",
          "name": "newOwner",
          "type": "address"
        }
      ],
      "name": "transferOwnership",
      "outputs": [],
      "payable": false,
      "stateMutability": "nonpayable",
      "type": "function"
    },
    {
      "constant": false,
      "inputs": [
        {
          "internalType": "address",
          "name": "_pool",
          "type": "address"
        }
      ],
      "name": "initialize",
      "outputs": [],
      "payable": false,
      "stateMutability": "nonpayable",
      "type": "function"
    },
    {
      "constant": false,
      "inputs": [],
      "name": "initialize",
      "outputs": [],
      "payable": false,
      "stateMutability": "nonpayable",
      "type": "function"
    },
    {
      "constant": false,
      "inputs": [
        {
          "internalType": "uint256",
          "name": "debtLAmount",
          "type": "uint256"
        },
        {
          "internalType": "uint256",
          "name": "interest",
          "type": "uint256"
        },
        {
          "internalType": "uint256",
          "name": "pAmountMax",
          "type": "uint256"
        },
        {
          "internalType": "bytes32",
          "name": "descriptionHash",
          "type": "bytes32"
        }
      ],
      "name": "createDebtProposal",
      "outputs": [
        {
          "internalType": "uint256",
          "name": "",
          "type": "uint256"
        }
      ],
      "payable": false,
      "stateMutability": "nonpayable",
      "type": "function"
    },
    {
      "constant": false,
      "inputs": [
        {
          "internalType": "address",
          "name": "borrower",
          "type": "address"
        },
        {
          "internalType": "uint256",
          "name": "proposal",
          "type": "uint256"
        },
        {
          "internalType": "uint256",
          "name": "pAmount",
          "type": "uint256"
        },
        {
          "internalType": "uint256",
          "name": "lAmountMin",
          "type": "uint256"
        }
      ],
      "name": "addPledge",
      "outputs": [],
      "payable": false,
      "stateMutability": "nonpayable",
      "type": "function"
    },
    {
      "constant": false,
      "inputs": [
        {
          "internalType": "address",
          "name": "borrower",
          "type": "address"
        },
        {
          "internalType": "uint256",
          "name": "proposal",
          "type": "uint256"
        },
        {
          "internalType": "uint256",
          "name": "pAmount",
          "type": "uint256"
        }
      ],
      "name": "withdrawPledge",
      "outputs": [],
      "payable": false,
      "stateMutability": "nonpayable",
      "type": "function"
    },
    {
      "constant": false,
      "inputs": [
        {
          "internalType": "uint256",
          "name": "proposal",
          "type": "uint256"
        }
      ],
      "name": "executeDebtProposal",
      "outputs": [
        {
          "internalType": "uint256",
          "name": "",
          "type": "uint256"
        }
      ],
      "payable": false,
      "stateMutability": "nonpayable",
      "type": "function"
    },
    {
      "constant": false,
      "inputs": [
        {
          "internalType": "uint256",
          "name": "debt",
          "type": "uint256"
        },
        {
          "internalType": "uint256",
          "name": "lAmount",
          "type": "uint256"
        }
      ],
      "name": "repay",
      "outputs": [],
      "payable": false,
      "stateMutability": "nonpayable",
      "type": "function"
    },
    {
      "constant": false,
      "inputs": [
        {
          "internalType": "address",
          "name": "borrower",
          "type": "address"
        },
        {
          "internalType": "uint256",
          "name": "debt",
          "type": "uint256"
        }
      ],
      "name": "executeDebtDefault",
      "outputs": [],
      "payable": false,
      "stateMutability": "nonpayable",
      "type": "function"
    },
    {
      "constant": false,
      "inputs": [
        {
          "internalType": "address",
          "name": "borrower",
          "type": "address"
        },
        {
          "internalType": "uint256",
          "name": "debt",
          "type": "uint256"
        }
      ],
      "name": "withdrawUnlockedPledge",
      "outputs": [],
      "payable": false,
      "stateMutability": "nonpayable",
      "type": "function"
    },
    {
      "constant": false,
      "inputs": [
        {
          "internalType": "uint256",
          "name": "lDebtAmountMin",
          "type": "uint256"
        },
        {
          "internalType": "uint256",
          "name": "debtInterestMin",
          "type": "uint256"
        },
        {
          "internalType": "uint256",
          "name": "pledgePercentMin",
          "type": "uint256"
        },
        {
          "internalType": "uint256",
          "name": "lMinPledgeMax",
          "type": "uint256"
        },
        {
          "internalType": "uint256",
          "name": "debtLoadMax",
          "type": "uint256"
        }
      ],
      "name": "setLimits",
      "outputs": [],
      "payable": false,
      "stateMutability": "nonpayable",
      "type": "function"
    },
    {
      "constant": false,
      "inputs": [
        {
          "internalType": "address",
          "name": "borrower",
          "type": "address"
        },
        {
          "internalType": "uint256",
          "name": "debt",
          "type": "uint256"
        },
        {
          "internalType": "uint256",
          "name": "newDate",
          "type": "uint256"
        }
      ],
      "name": "__changeDebtLastPaymentDate",
      "outputs": [],
      "payable": false,
      "stateMutability": "nonpayable",
      "type": "function"
    },
    {
      "constant": true,
      "inputs": [
        {
          "internalType": "address",
          "name": "borrower",
          "type": "address"
        },
        {
          "internalType": "uint256",
          "name": "debt",
          "type": "uint256"
        }
      ],
      "name": "isDebtDefaultTimeReached",
      "outputs": [
        {
          "internalType": "bool",
          "name": "",
          "type": "bool"
        }
      ],
      "payable": false,
      "stateMutability": "view",
      "type": "function"
    },
    {
      "constant": true,
      "inputs": [
        {
          "internalType": "address",
          "name": "borrower",
          "type": "address"
        },
        {
          "internalType": "uint256",
          "name": "debt",
          "type": "uint256"
        },
        {
          "internalType": "address",
          "name": "supporter",
          "type": "address"
        }
      ],
      "name": "calculatePledgeInfo",
      "outputs": [
        {
          "internalType": "uint256",
          "name": "pLocked",
          "type": "uint256"
        },
        {
          "internalType": "uint256",
          "name": "pUnlocked",
          "type": "uint256"
        },
        {
          "internalType": "uint256",
          "name": "pInterest",
          "type": "uint256"
        },
        {
          "internalType": "uint256",
          "name": "pWithdrawn",
          "type": "uint256"
        }
      ],
      "payable": false,
      "stateMutability": "view",
      "type": "function"
    },
    {
      "constant": true,
      "inputs": [
        {
          "internalType": "address",
          "name": "borrower",
          "type": "address"
        },
        {
          "internalType": "uint256",
          "name": "proposal",
          "type": "uint256"
        }
      ],
      "name": "getRequiredPledge",
      "outputs": [
        {
          "internalType": "uint256",
          "name": "",
          "type": "uint256"
        }
      ],
      "payable": false,
      "stateMutability": "view",
      "type": "function"
    },
    {
      "constant": true,
      "inputs": [
        {
          "internalType": "address",
          "name": "borrower",
          "type": "address"
        },
        {
          "internalType": "uint256",
          "name": "proposal",
          "type": "uint256"
        }
      ],
      "name": "getPledgeRequirements",
      "outputs": [
        {
          "internalType": "uint256",
          "name": "minLPledge",
          "type": "uint256"
        },
        {
          "internalType": "uint256",
          "name": "maxLPledge",
          "type": "uint256"
        }
      ],
      "payable": false,
      "stateMutability": "view",
      "type": "function"
    },
    {
      "constant": true,
      "inputs": [
        {
          "internalType": "address",
          "name": "borrower",
          "type": "address"
        },
        {
          "internalType": "uint256",
          "name": "debt",
          "type": "uint256"
        }
      ],
      "name": "getDebtRequiredPayments",
      "outputs": [
        {
          "internalType": "uint256",
          "name": "",
          "type": "uint256"
        },
        {
          "internalType": "uint256",
          "name": "",
          "type": "uint256"
        }
      ],
      "payable": false,
      "stateMutability": "view",
      "type": "function"
    },
    {
      "constant": true,
      "inputs": [
        {
          "internalType": "address",
          "name": "sender",
          "type": "address"
        }
      ],
      "name": "hasActiveDebts",
      "outputs": [
        {
          "internalType": "bool",
          "name": "",
          "type": "bool"
        }
      ],
      "payable": false,
      "stateMutability": "view",
      "type": "function"
    },
    {
      "constant": true,
      "inputs": [],
      "name": "totalLDebts",
      "outputs": [
        {
          "internalType": "uint256",
          "name": "",
          "type": "uint256"
        }
      ],
      "payable": false,
      "stateMutability": "view",
      "type": "function"
    },
    {
      "constant": true,
      "inputs": [],
      "name": "totalLProposals",
      "outputs": [
        {
          "internalType": "uint256",
          "name": "",
          "type": "uint256"
        }
      ],
      "payable": false,
      "stateMutability": "view",
      "type": "function"
    },
    {
      "constant": true,
      "inputs": [
        {
          "internalType": "uint256",
          "name": "debtLAmount",
          "type": "uint256"
        },
        {
          "internalType": "uint256",
          "name": "interest",
          "type": "uint256"
        },
        {
          "internalType": "uint256",
          "name": "prevPayment",
          "type": "uint256"
        },
        {
          "internalType": "uint256",
          "name": "currentPayment",
          "type": "uint256"
        }
      ],
      "name": "calculateInterestPayment",
      "outputs": [
        {
          "internalType": "uint256",
          "name": "",
          "type": "uint256"
        }
      ],
      "payable": false,
      "stateMutability": "pure",
      "type": "function"
    }
  ],
  "bytecode": "0x6080604052613d39806100136000396000f3fe608060405234801561001057600080fd5b506004361061027f5760003560e01c80638129fc1c1161015c578063a2f182d4116100ce578063c6ef980011610087578063c6ef980014610801578063d8aed1451461082d578063daac0add14610850578063eab1342114610882578063f2fde38b146108ae578063f8261827146108d45761027f565b8063a2f182d414610779578063b23a97d0146107ae578063b9526b5d14610349578063bc0faed6146107b6578063c05e20f5146107d3578063c4d66de8146107db5761027f565b80638da5cb5b116101205780638da5cb5b146107295780638f32d59b146107315780639159355a1461034957806394d8f22e14610349578063989796241461073957806399cbd766146107415761027f565b80638129fc1c146106af57806381347497146106b75780638230d02d146106bf578063860aefcf146106c75780638b22f0c9146106fa5761027f565b8063368981a6116101f5578063616a3303116101b9578063616a3303146105715780636f81a80114610579578063715018a6146105d257806371dc760f146105da57806377acbd72146106805780637bccb2a0146103495761027f565b8063368981a6146104dd5780634437152a146104e557806348866205146103495780634916ebda1461050b5780635a0251b6146105455761027f565b806316f0115b1161024757806316f0115b146103b2578063217b30d7146103d6578063227291ab1461040857806331f8697a1461044d57806335524c12146104a9578063368731ff146104d55761027f565b80630257a06b146102845780630647d5ba1461029e578063077aa705146102cc57806311b9ae361461034957806314b5a88d14610351575b600080fd5b61028c6108dc565b60408051918252519081900360200190f35b6102ca600480360360408110156102b457600080fd5b506001600160a01b0381351690602001356108e3565b005b6102d4610b3f565b6040805160208082528351818301528351919283929083019185019080838360005b8381101561030e5781810151838201526020016102f6565b50505050905090810190601f16801561033b5780820380516001836020036101000a031916815260200191505b509250505060405180910390f35b61028c610b60565b61037d6004803603604081101561036757600080fd5b506001600160a01b038135169060200135610b66565b6040805196875260208701959095528585019390935260608501919091526080840152151560a0830152519081900360c00190f35b6103ba610bba565b604080516001600160a01b039092168252519081900360200190f35b6102ca600480360360608110156103ec57600080fd5b506001600160a01b038135169060208101359060400135610bc9565b6104346004803603604081101561041e57600080fd5b506001600160a01b038135169060200135610c50565b6040805192835260208301919091528051918290030190f35b6104836004803603606081101561046357600080fd5b506001600160a01b03813581169160208101359160409091013516610d48565b604080519485526020850193909352838301919091526060830152519081900360800190f35b6102ca600480360360408110156104bf57600080fd5b506001600160a01b038135169060200135610fbc565b6102d4611286565b6102d46112a8565b6102ca600480360360208110156104fb57600080fd5b50356001600160a01b03166112c8565b6105316004803603602081101561052157600080fd5b50356001600160a01b0316611331565b604080519115158252519081900360200190f35b61028c6004803603604081101561055b57600080fd5b506001600160a01b0381351690602001356113f4565b61028c611486565b6105a56004803603604081101561058f57600080fd5b506001600160a01b03813516906020013561148d565b60408051958652602086019490945284840192909252606084015215156080830152519081900360a00190f35b6102ca6114db565b6103ba600480360360208110156105f057600080fd5b81019060208101813564010000000081111561060b57600080fd5b82018360208201111561061d57600080fd5b8035906020019184600183028401116401000000008311171561063f57600080fd5b91908080601f01602080910402602001604051908101604052809392919081815260200183838082843760009201919091525092955061156c945050505050565b61028c6004803603608081101561069657600080fd5b5080359060208101359060408101359060600135611777565b6102ca611c6d565b61028c611d1f565b6102d4611d25565b6106cf611d4a565b6040805195865260208601949094528484019290925260608401526080830152519081900360a00190f35b61028c6004803603608081101561071057600080fd5b5080359060208101359060408101359060600135611d5c565b6103ba611dee565b610531611dfd565b61028c611e23565b6102ca6004803603608081101561075757600080fd5b506001600160a01b038135169060208101359060408101359060600135611e29565b6102ca600480360360a081101561078f57600080fd5b5080359060208101359060408101359060608101359060800135612335565b6102d4612393565b61028c600480360360208110156107cc57600080fd5b50356123b4565b61028c612891565b6102ca600480360360208110156107f157600080fd5b50356001600160a01b0316612899565b6104346004803603604081101561081757600080fd5b506001600160a01b038135169060200135612967565b6102ca6004803603604081101561084357600080fd5b5080359060200135612a38565b6102ca6004803603606081101561086657600080fd5b506001600160a01b038135169060208101359060400135612e1f565b6105316004803603604081101561089857600080fd5b506001600160a01b0381351690602001356131b9565b6102ca600480360360208110156108c457600080fd5b50356001600160a01b03166131f9565b6102d4613249565b606a545b90565b6001600160a01b038216600090815260686020526040812080548390811061090757fe5b906000526020600020906006020190506000816001015411610970576040805162461bcd60e51b815260206004820181905260248201527f4c6f616e4d6f64756c653a20646562742069732066756c6c7920726570616964604482015290519081900360640190fd5b600581015460ff16156109b45760405162461bcd60e51b81526004018080602001828103825260278152602001806139ea6027913960400191505060405180910390fd5b6109bd8161326b565b6109f85760405162461bcd60e51b815260040180806020018281038252602281526020018061391c6022913960400191505060405180910390fd5b6001600160a01b0383166000908152606760205260408120825481548110610a1c57fe5b600091825260208220600890910201805460018501546006830154929450610a5992610a4d9163ffffffff61329116565b9063ffffffff6132f116565b60058401805460ff19166001908117909155840154606954919250610a84919063ffffffff61333316565b6069556000610a91613375565b9050806001600160a01b031663de57ce91836040518263ffffffff1660e01b815260040180828152602001915050600060405180830381600087803b158015610ad957600080fd5b505af1158015610aed573d6000803e3d6000fd5b5050604080518881526020810186905281516001600160a01b038b1694507f905a27490eb1c585d443f1c7de02035a2bab81deb1285b90528bc221cccfc46093509081900390910190a2505050505050565b6040518060400160405280600581526020016466756e647360d81b81525081565b6103e881565b60676020528160005260406000208181548110610b7f57fe5b600091825260209091206008909102018054600182015460028301546005840154600685015460079095015493965091945092909160ff1686565b6066546001600160a01b031681565b610bd1611dfd565b610c10576040805162461bcd60e51b81526020600482018190526024820152600080516020613bcd833981519152604482015290519081900360640190fd5b6001600160a01b0383166000908152606860205260408120805484908110610c3457fe5b6000918252602090912060026006909202010191909155505050565b6001600160a01b038216600090815260686020526040812080548291829185908110610c7857fe5b90600052602060002090600602019050806001015460001415610ca2575060009150819050610d41565b6001600160a01b0385166000908152606760205260408120825481548110610cc657fe5b906000526020600020906008020190506000816000015411610d195760405162461bcd60e51b81526004018080602001828103825260228152602001806139916022913960400191505060405180910390fd5b6000610d3383600101548360010154856002015442611d5c565b600190930154945091925050505b9250929050565b6001600160a01b03831660009081526068602052604081208054829182918291829188908110610d7457fe5b600091825260208083206001600160a01b038c16845260679091526040832060069092020180548254919450908110610da957fe5b9060005260206000209060080201905060008160000154118015610dd15750600781015460ff165b610e0c5760405162461bcd60e51b81526004018080602001828103825260228152602001806139916022913960400191505060405180910390fd5b6001600160a01b03808816600081815260048501602090815260408083205460038701909252909120909550918b161415610e81576001830154610e5a576000965080600201549550610e78565b8060020154965060009550610e6e8361326b565b15610e7857600096505b60009450610fb0565b600180820154600283015484549286015491929091610eac9190610a4d90849063ffffffff61329116565b985080891115610eb857fe5b610ec8818a63ffffffff61333316565b84546003870154919950610ee691610a4d908563ffffffff61329116565b96508460030154871115610ef657fe5b610eff8561326b565b15610fad576001600160a01b038c1660009081526003850160205260408120855460018801546002830154929392610f429291610a4d919063ffffffff61329116565b90506000610f5d82846002015461333390919063ffffffff16565b8754909150600090610f7990610a4d848963ffffffff61329116565b60058a015490915060ff1615610fa45760009c50610f9d8c8263ffffffff6133a216565b9b50610fa8565b809c505b505050505b50505b50505093509350935093565b6000806000610fd38585610fce6133fc565b610d48565b9195509350915060009050610fee848463ffffffff6133a216565b9050818111611044576040805162461bcd60e51b815260206004820152601f60248201527f4c6f616e4d6f64756c653a206e6f7468696e6720746f20776974686472617700604482015290519081900360640190fd5b6000611056828463ffffffff61333316565b6001600160a01b0388166000908152606860205260408120805492935090918890811061107f57fe5b906000526020600020906006020190506110c7828260040160006110a16133fc565b6001600160a01b031681526020810191909152604001600020549063ffffffff6133a216565b8160040160006110d56133fc565b6001600160a01b031681526020810191909152604001600020556110f7613375565b6001600160a01b031663127e83e861110d613375565b6111156133fc565b856040518463ffffffff1660e01b815260040180846001600160a01b03166001600160a01b03168152602001836001600160a01b03166001600160a01b031681526020018281526020019350505050600060405180830381600087803b15801561117e57600080fd5b505af1158015611192573d6000803e3d6000fd5b5050505061119e613375565b6001600160a01b031663d684e0ad6111b46133fc565b846040518363ffffffff1660e01b815260040180836001600160a01b03166001600160a01b0316815260200182815260200192505050600060405180830381600087803b15801561120457600080fd5b505af1158015611218573d6000803e3d6000fd5b50505050876001600160a01b031661122e6133fc565b825460408051918252602082018b9052818101869052516001600160a01b0392909216917fb1ec39a9f67bd948c9c120df8faa6a967279e46d91703d3a034a49e4a524d1149181900360600190a35050505050505050565b60405180604001604052806006815260200165383a37b5b2b760d11b81525081565b604051806040016040528060048152602001633637b0b760e11b81525081565b6112d0611dfd565b61130f576040805162461bcd60e51b81526020600482018190526024820152600080516020613bcd833981519152604482015290519081900360640190fd5b606680546001600160a01b0319166001600160a01b0392909216919091179055565b6001600160a01b038116600090815260686020526040812080546113595760009150506113ef565b8054600019015b600082828154811061136e57fe5b90600052602060002090600602016001015460001415905060008180156113b257506113b284848154811061139f57fe5b906000526020600020906006020161326b565b90508180156113bf575080155b156113d15760019450505050506113ef565b826113dd5750506113e8565b505060001901611360565b5060009150505b919050565b6001600160a01b038216600090815260676020526040812080548291908490811061141b57fe5b60009182526020909120600890910201600781015490915060ff1615611445576000915050611480565b8054600090611462906103e890610a4d908263ffffffff61329116565b905061147b82600501548261333390919063ffffffff16565b925050505b92915050565b6276a70081565b606860205281600052604060002081815481106114a657fe5b600091825260209091206006909102018054600182015460028301546003840154600590940154929550909350919060ff1685565b6114e3611dfd565b611522576040805162461bcd60e51b81526020600482018190526024820152600080516020613bcd833981519152604482015290519081900360640190fd5b6033546040516000916001600160a01b0316907f8be0079c531659141344cd1fd0a4f28419497f9722a3daafe3b4186f6b6457e0908390a3603380546001600160a01b0319169055565b6066546000906001600160a01b03166115be576040805162461bcd60e51b815260206004820152600f60248201526e135bd91d5b194e881b9bc81c1bdbdb608a1b604482015290519081900360640190fd5b6066546040516020602482018181528551604484015285516000946060946001600160a01b03909116938893928392606401918501908083838b5b838110156116115781810151838201526020016115f9565b50505050905090810190601f16801561163e5780820380516001836020036101000a031916815260200191505b5060408051601f198184030181529181526020820180516001600160e01b031663349f642f60e11b178152905182519295509350839250908083835b602083106116995780518252601f19909201916020918201910161167a565b6001836020036101000a038019825116818451168082178552505050505050905001915050600060405180830381855afa9150503d80600081146116f9576040519150601f19603f3d011682016040523d82523d6000602084013e6116fe565b606091505b50915091508161170f578060208201fd5b600081806020019051602081101561172657600080fd5b505190506001600160a01b03811661176f5760405162461bcd60e51b8152600401808060200182810382526022815260200180613c6d6022913960400191505060405180910390fd5b949350505050565b60008085116117b75760405162461bcd60e51b8152600401808060200182810382526027815260200180613b096027913960400191505060405180910390fd5b606b548510156117f85760405162461bcd60e51b8152600401808060200182810382526033815260200180613ab56033913960400191505060405180910390fd5b606c548410156118395760405162461bcd60e51b8152600401808060200182810382526031815260200180613b306031913960400191505060405180910390fd5b60006118516103e8610a4d888263ffffffff61329116565b905060006118676103e8610a4d846101f4613291565b9050600061187482613400565b9050858111156118b55760405162461bcd60e51b8152600401808060200182810382526021815260200180613ae86021913960400191505060405180910390fd5b606760006118c16133fc565b6001600160a01b03166001600160a01b031681526020019081526020016000206040518060e001604052808a81526020018981526020018781526020016000604051908082528060200260200182016040528015611929578160200160208202803883390190505b50815260006020808301829052604080840183905260609384018390528554600181810180895597855293839020865160089092020190815585830151938101939093558401516002830155918301518051919261198f92600485019290910190613892565b506080820151600582015560a0820151600682015560c0909101516007909101805460ff191691151591909117905550600060016067826119ce6133fc565b6001600160a01b031681526020810191909152604001600020540390506119f36133fc565b60408051838152602081018c90528082018b90526060810189905290516001600160a01b0392909216917f325a190d226c008d4a8b54585f706316f31dbd81c2230411a4f112902103c4f29181900360800190a2600060676000611a556133fc565b6001600160a01b03166001600160a01b031681526020019081526020016000208281548110611a8057fe5b9060005260206000209060080201905080600401611a9c6133fc565b81546001810183556000928352602080842090910180546001600160a01b0319166001600160a01b039390931692909217909155604080516060810182528381529182018790528101859052906003830190611af66133fc565b6001600160a01b0316815260208082019290925260409081016000208351815591830151600183015591909101516002909101556005810154611b3f908563ffffffff6133a216565b60058201556006810154611b59908463ffffffff6133a216565b6006820155606a54611b71908563ffffffff6133a216565b606a55611b7c613375565b6001600160a01b031663706463fa611b926133fc565b856040518363ffffffff1660e01b815260040180836001600160a01b03166001600160a01b0316815260200182815260200192505050600060405180830381600087803b158015611be257600080fd5b505af1158015611bf6573d6000803e3d6000fd5b50505050611c026133fc565b6001600160a01b0316611c136133fc565b604080518581526020810188905280820187905290516001600160a01b0392909216917f3be197ca542394fb46e7e2f276ca39f63cfb2a787477b05a2f1d661d85640f919181900360600190a35098975050505050505050565b600054610100900460ff1680611c865750611c8661347f565b80611c94575060005460ff16155b611ccf5760405162461bcd60e51b815260040180806020018281038252602e815260200180613c15602e913960400191505060405180910390fd5b600054610100900460ff16158015611cfa576000805460ff1961ff0019909116610100171660011790555b611d0a611d056133fc565b613485565b8015611d1c576000805461ff00191690555b50565b60695490565b604051806040016040528060098152602001686c697175696469747960b81b81525081565b606b54606c54606d54606e54606f5485565b600081831115611d9d5760405162461bcd60e51b81526004018080602001828103825260378152602001806139b36037913960400191505060405180910390fd5b6000611db56103e8610a4d888863ffffffff61329116565b90506000611dc9848663ffffffff61333316565b9050611de36301e187e0610a4d838563ffffffff61329116565b979650505050505050565b6033546001600160a01b031690565b6033546000906001600160a01b0316611e146133fc565b6001600160a01b031614905090565b6101f481565b836001600160a01b0316611e3b6133fc565b6001600160a01b03161415611e815760405162461bcd60e51b8152600401808060200182810382526027815260200180613a626027913960400191505060405180910390fd5b6001600160a01b0384166000908152606760205260408120805485908110611ea557fe5b906000526020600020906008020190506000816000015411611ef85760405162461bcd60e51b81526004018080602001828103825260228152602001806139916022913960400191505060405180910390fd5b600781015460ff1615611f3c5760405162461bcd60e51b815260040180806020018281038252602c815260200180613a89602c913960400191505060405180910390fd5b6000611f4784613576565b5050905082811015611f8a5760405162461bcd60e51b8152600401808060200182810382526026815260200180613cb36026913960400191505060405180910390fd5b600080611f978888612967565b9150915060008111611fda5760405162461bcd60e51b815260040180806020018281038252602a815260200180613c43602a913960400191505060405180910390fd5b8183101561202f576040805162461bcd60e51b815260206004820152601d60248201527f4c6f616e4d6f64756c653a20706c6564676520697320746f6f206c6f77000000604482015290519081900360640190fd5b80831115612052579150818561204482613400565b96508087111561205057fe5b505b8360030160006120606133fc565b6001600160a01b03168152602081019190915260400160002054612125578360040161208a6133fc565b81546001810183556000928352602080842090910180546001600160a01b0319166001600160a01b03939093169290921790915560408051606081018252600488015460001901815291820186905281018890529060038601906120ec6133fc565b6001600160a01b0316815260208082019290925260409081016000208351815591830151600183015591909101516002909101556121fc565b612160838560030160006121376133fc565b6001600160a01b031681526020810191909152604001600020600101549063ffffffff6133a216565b84600301600061216e6133fc565b6001600160a01b03166001600160a01b03168152602001908152602001600020600101819055506121d0868560030160006121a76133fc565b6001600160a01b031681526020810191909152604001600020600201549063ffffffff6133a216565b8460030160006121de6133fc565b6001600160a01b031681526020810191909152604001600020600201555b6005840154612211908463ffffffff6133a216565b6005850155600684015461222b908763ffffffff6133a216565b6006850155606a54612243908463ffffffff6133a216565b606a5561224e613375565b6001600160a01b031663706463fa6122646133fc565b886040518363ffffffff1660e01b815260040180836001600160a01b03166001600160a01b0316815260200182815260200192505050600060405180830381600087803b1580156122b457600080fd5b505af11580156122c8573d6000803e3d6000fd5b50505050876001600160a01b03166122de6133fc565b604080518a8152602081018790528082018a905290516001600160a01b0392909216917f3be197ca542394fb46e7e2f276ca39f63cfb2a787477b05a2f1d661d85640f919181900360600190a35050505050505050565b61233d611dfd565b61237c576040805162461bcd60e51b81526020600482018190526024820152600080516020613bcd833981519152604482015290519081900360640190fd5b606b94909455606c92909255606d55606e55606f55565b60405180604001604052806005815260200164637572766560d81b81525081565b600080606760006123c36133fc565b6001600160a01b03166001600160a01b0316815260200190815260200160002083815481106123ee57fe5b9060005260206000209060080201905060008160000154116124415760405162461bcd60e51b81526004018080602001828103825260228152602001806139916022913960400191505060405180910390fd5b61245261244c6133fc565b846113f4565b1561248e5760405162461bcd60e51b815260040180806020018281038252602c815260200180613cd9602c913960400191505060405180910390fd5b600781015460ff16156124d25760405162461bcd60e51b815260040180806020018281038252602c815260200180613a89602c913960400191505060405180910390fd5b606860006124de6133fc565b6001600160a01b0316815260208082019290925260409081016000908120825160a081018452878152855481860190815242948201948552606082018481526080830185815284546001818101875595875297862093516006909802909301968755905186840155935160028601559251600385015591516005909301805493151560ff1994851617905560078401805490931682179092556068826125826133fc565b6001600160a01b031681526020810191909152604001600020546005840154606a549290910392506125ba919063ffffffff61333316565b606a5581546069546125d19163ffffffff6133a216565b60698190558254600091612681916103e891610a4d91612672916125fa9163ffffffff61333316565b612602613375565b6001600160a01b0316636331d14d6040518163ffffffff1660e01b815260040160206040518083038186803b15801561263a57600080fd5b505afa15801561264e573d6000803e3d6000fd5b505050506040513d602081101561266457600080fd5b50519063ffffffff6133a216565b606f549063ffffffff61329116565b90508060695411156126c45760405162461bcd60e51b815260040180806020018281038252604b815260200180613b61604b913960600191505060405180910390fd5b60005b60048401548110156127a75760008460040182815481106126e457fe5b6000918252602090912001546001600160a01b03169050612703613375565b6001600160a01b031663127e83e88261271a613375565b6001600160a01b03808616600090815260038b0160205260408082206002015481516001600160e01b031960e089901b168152958416600487015293909216602485015260448401929092525160648084019382900301818387803b15801561278257600080fd5b505af1158015612796573d6000803e3d6000fd5b5050600190930192506126c7915050565b506127b0613375565b6001600160a01b031663fa584ad06127c66133fc565b85600001546040518363ffffffff1660e01b815260040180836001600160a01b03166001600160a01b0316815260200182815260200192505050600060405180830381600087803b15801561281a57600080fd5b505af115801561282e573d6000803e3d6000fd5b5050505061283a6133fc565b8354604080518881526020810186905280820192909252516001600160a01b0392909216917fb27a5e60d9df0b3cc6e819e806f9d0bdc1ce5d8fc19f9fb8792d5c78c62a88c79181900360600190a2509392505050565b6301e187e081565b600054610100900460ff16806128b257506128b261347f565b806128c0575060005460ff16155b6128fb5760405162461bcd60e51b815260040180806020018281038252602e815260200180613c15602e913960400191505060405180910390fd5b600054610100900460ff16158015612926576000805460ff1961ff0019909116610100171660011790555b61292f8261360a565b61295168056bc75e2d63100000606480681b1ae4d6e2ef5000006101f4612335565b8015612963576000805461ff00191690555b5050565b6001600160a01b03821660009081526067602052604081208054829182918590811061298f57fe5b60009182526020909120600890910201600781015490915060ff16156129bc575060009150819050610d41565b80546000906129d9906103e890610a4d908263ffffffff61329116565b90506129f282600501548261333390919063ffffffff16565b606d54909350612a10906103e890610a4d908463ffffffff61329116565b606e54909450841115612a2357606e5493505b82841115612a2f578293505b50509250929050565b600060686000612a466133fc565b6001600160a01b03166001600160a01b031681526020019081526020016000208381548110612a7157fe5b906000526020600020906006020190506000816001015411612ac45760405162461bcd60e51b8152600401808060200182810382526028815260200180613bed6028913960400191505060405180910390fd5b612acd8161326b565b15612b095760405162461bcd60e51b8152600401808060200182810382526025815260200180613a3d6025913960400191505060405180910390fd5b600060676000612b176133fc565b6001600160a01b031681526020810191909152604001600020825481548110612b3c57fe5b906000526020600020906008020190506000816000015411612b8f5760405162461bcd60e51b81526004018080602001828103825260228152602001806139916022913960400191505060405180910390fd5b6000612ba983600101548360010154856002015442611d5c565b9050600081851015612c17576000612be283610a4d88612bd689600201544261333390919063ffffffff16565b9063ffffffff61329116565b905042818660020154011115612bf457fe5b6002850154612c09908263ffffffff6133a216565b600286015550849050612c8e565b6001840154600090612c2f908463ffffffff6133a216565b905080861115612c3d578095505b4260028601556000612c55878563ffffffff61333316565b6001870154909150612c6d908263ffffffff61333316565b6001870155606954612c85908263ffffffff61333316565b60695550829150505b6000612c99826136a8565b6003860154909150612cb1908263ffffffff6133a216565b6003860155612cbe613375565b6001600160a01b0316638fa6c72e612cd46133fc565b886040518363ffffffff1660e01b815260040180836001600160a01b03166001600160a01b0316815260200182815260200192505050600060405180830381600087803b158015612d2457600080fd5b505af1158015612d38573d6000803e3d6000fd5b50505050612d44613375565b6001600160a01b031663889d2665826040518263ffffffff1660e01b815260040180828152602001915050600060405180830381600087803b158015612d8957600080fd5b505af1158015612d9d573d6000803e3d6000fd5b50505050612da96133fc565b60018601546002870154604080518b815260208101939093528281018a9052606083018690526080830185905260a0830191909152516001600160a01b0392909216917f90f6cb1ff81d6ff5a2d87aac325f5f8325db37278c5ddf4afb9dd121372c4afd9181900360c00190a250505050505050565b826001600160a01b0316612e316133fc565b6001600160a01b03161415612e775760405162461bcd60e51b815260040180806020018281038252602c815260200180613a11602c913960400191505060405180910390fd5b6001600160a01b0383166000908152606760205260408120805484908110612e9b57fe5b906000526020600020906008020190506000816000015411612eee5760405162461bcd60e51b81526004018080602001828103825260228152602001806139916022913960400191505060405180910390fd5b600781015460ff1615612f325760405162461bcd60e51b815260040180806020018281038252602c815260200180613a89602c913960400191505060405180910390fd5b6000816003016000612f426133fc565b6001600160a01b03166001600160a01b0316815260200190815260200160002090508060020154831115612fa75760405162461bcd60e51b815260040180806020018281038252602d81526020018061393e602d913960400191505060405180910390fd5b60008160020154841415612fc057506001810154612fee565b612fdf8260020154610a4d86856001015461329190919063ffffffff16565b905081600101548110612fee57fe5b6002820154613003908563ffffffff61333316565b6002830155600182015461301d908263ffffffff61333316565b60018301556006830154613037908563ffffffff61333316565b60068401556005830154613051908263ffffffff61333316565b6005840155606a54613069908263ffffffff61333316565b606a5560006130788787612967565b50905080836001015410158061309057506002830154155b6130cb5760405162461bcd60e51b8152600401808060200182810382526024815260200180613c8f6024913960400191505060405180910390fd5b6130d3613375565b6001600160a01b031663d684e0ad6130e96133fc565b876040518363ffffffff1660e01b815260040180836001600160a01b03166001600160a01b0316815260200182815260200192505050600060405180830381600087803b15801561313957600080fd5b505af115801561314d573d6000803e3d6000fd5b50505050866001600160a01b03166131636133fc565b604080518981526020810186905280820189905290516001600160a01b0392909216917f3ceff205743b4029dede5b4c20d8ccb7212b461c0c476b041a2f0f040e5586359181900360600190a350505050505050565b6001600160a01b03821660009081526068602052604081208054829190849081106131e057fe5b9060005260206000209060060201905061176f8161326b565b613201611dfd565b613240576040805162461bcd60e51b81526020600482018190526024820152600080516020613bcd833981519152604482015290519081900360640190fd5b611d1c816136f5565b60405180604001604052806006815260200165363a37b5b2b760d11b81525081565b60008061328583600201544261333390919063ffffffff16565b6276a700109392505050565b6000826132a057506000611480565b828202828482816132ad57fe5b04146132ea5760405162461bcd60e51b8152600401808060200182810382526021815260200180613bac6021913960400191505060405180910390fd5b9392505050565b60006132ea83836040518060400160405280601a81526020017f536166654d6174683a206469766973696f6e206279207a65726f000000000000815250613796565b60006132ea83836040518060400160405280601e81526020017f536166654d6174683a207375627472616374696f6e206f766572666c6f770000815250613838565b600061339d6040518060400160405280600581526020016466756e647360d81b81525061156c565b905090565b6000828201838110156132ea576040805162461bcd60e51b815260206004820152601b60248201527f536166654d6174683a206164646974696f6e206f766572666c6f770000000000604482015290519081900360640190fd5b3390565b600061340a613375565b6001600160a01b0316632b772904836040518263ffffffff1660e01b81526004018082815260200191505060206040518083038186803b15801561344d57600080fd5b505afa158015613461573d6000803e3d6000fd5b505050506040513d602081101561347757600080fd5b505192915050565b303b1590565b600054610100900460ff168061349e575061349e61347f565b806134ac575060005460ff16155b6134e75760405162461bcd60e51b815260040180806020018281038252602e815260200180613c15602e913960400191505060405180910390fd5b600054610100900460ff16158015613512576000805460ff1961ff0019909116610100171660011790555b603380546001600160a01b0319166001600160a01b0384811691909117918290556040519116906000907f8be0079c531659141344cd1fd0a4f28419497f9722a3daafe3b4186f6b6457e0908290a38015612963576000805461ff00191690555050565b6000806000613583613375565b6001600160a01b0316638dc5f4b8856040518263ffffffff1660e01b81526004018082815260200191505060606040518083038186803b1580156135c657600080fd5b505afa1580156135da573d6000803e3d6000fd5b505050506040513d60608110156135f057600080fd5b508051602082015160409092015190969195509350915050565b600054610100900460ff1680613623575061362361347f565b80613631575060005460ff16155b61366c5760405162461bcd60e51b815260040180806020018281038252602e815260200180613c15602e913960400191505060405180910390fd5b600054610100900460ff16158015613697576000805460ff1961ff0019909116610100171660011790555b61369f611c6d565b612951826112c8565b60006136b2613375565b6001600160a01b031663e01740fb836040518263ffffffff1660e01b81526004018082815260200191505060206040518083038186803b15801561344d57600080fd5b6001600160a01b03811661373a5760405162461bcd60e51b815260040180806020018281038252602681526020018061396b6026913960400191505060405180910390fd5b6033546040516001600160a01b038084169216907f8be0079c531659141344cd1fd0a4f28419497f9722a3daafe3b4186f6b6457e090600090a3603380546001600160a01b0319166001600160a01b0392909216919091179055565b600081836138225760405162461bcd60e51b81526004018080602001828103825283818151815260200191508051906020019080838360005b838110156137e75781810151838201526020016137cf565b50505050905090810190601f1680156138145780820380516001836020036101000a031916815260200191505b509250505060405180910390fd5b50600083858161382e57fe5b0495945050505050565b6000818484111561388a5760405162461bcd60e51b81526020600482018181528351602484015283519092839260449091019190850190808383600083156137e75781810151838201526020016137cf565b505050900390565b8280548282559060005260206000209081019282156138e7579160200282015b828111156138e757825182546001600160a01b0319166001600160a01b039091161782556020909201916001909101906138b2565b506138f39291506138f7565b5090565b6108e091905b808211156138f35780546001600160a01b03191681556001016138fd56fe4c6f616e4d6f64756c653a206e6f7420656e6f7567682074696d65207061737365644c6f616e4d6f64756c653a2043616e206e6f74207769746864726177206d6f7265207468656e206c6f636b65644f776e61626c653a206e6577206f776e657220697320746865207a65726f20616464726573734c6f616e4d6f64756c653a204465627450726f706f73616c206e6f7420666f756e644c6f616e4d6f64756c653a20707265765061796d656e742073686f756c64206265206265666f72652063757272656e745061796d656e744c6f616e4d6f64756c653a2064656661756c7420697320616c72656164792065786563757465644c6f616e4d6f64756c653a20426f72726f7765722063616e206e6f7420776974686472617720706c656467654c6f616e4d6f64756c653a206465627420697320616c72656164792064656661756c7465644c6f616e4d6f64756c653a20426f72726f7765722063616e206e6f742061646420706c656467654c6f616e4d6f64756c653a204465627450726f706f73616c20697320616c72656164792065786563757465644c6f616e4d6f64756c653a20646562744c416d6f756e742073686f756c64206265203e3d206c44656274416d6f756e744d696e4c6f616e4d6f64756c653a2070416d6f756e744d617820697320746f6f206c6f774c6f616e4d6f64756c653a20646562744c416d6f756e742073686f756c64206e6f7420626520304c6f616e4d6f64756c653a20696e7465726573742073686f756c64206265203e3d2064656274496e7465726573744d696e4c6f616e4d6f64756c653a204465627450726f706f73616c2063616e206e6f74206265206578656375746564206e6f772062656361757365206f662064656274206c6f616e206c696d6974536166654d6174683a206d756c7469706c69636174696f6e206f766572666c6f774f776e61626c653a2063616c6c6572206973206e6f7420746865206f776e65724c6f616e4d6f64756c653a204465627420697320616c72656164792066756c6c7920726570616964436f6e747261637420696e7374616e63652068617320616c7265616479206265656e20696e697469616c697a65644c6f616e4d6f64756c653a204465627450726f706f73616c20697320616c72656164792066756e6465644d6f64756c653a20726571756573746564206d6f64756c65206e6f7420666f756e644c6f616e4d6f64756c653a20706c65646765206c65667420697320746f6f20736d616c6c4c6f616e4d6f64756c653a204d696e696d616c20616d6f756e7420697320746f6f20686967684c6f616e4d6f64756c653a204465627450726f706f73616c206973206e6f742066756c6c792066756e646564a265627a7a7231582054f4b30b6689074aedb95f8d823791886e373accc7b761f168cd8553fbf0254864736f6c634300050c0032",
  "source": "pragma solidity ^0.5.12;\n\nimport \"@openzeppelin/contracts-ethereum-package/contracts/token/ERC20/IERC20.sol\";\nimport \"@openzeppelin/contracts-ethereum-package/contracts/math/SafeMath.sol\";\nimport \"../../interfaces/curve/IFundsModule.sol\";\nimport \"../../interfaces/curve/ILoanModule.sol\";\nimport \"../../token/pTokens/PToken.sol\";\nimport \"../../common/Module.sol\";\n\ncontract LoanModule is Module, ILoanModule {\n    using SafeMath for uint256;\n\n    uint256 public constant INTEREST_MULTIPLIER = 10**3;    // Multiplier to store interest rate (decimal) in int\n    uint256 public constant ANNUAL_SECONDS = 365*24*60*60+(24*60*60/4);  // Seconds in a year + 1/4 day to compensate leap years\n\n    uint256 public constant DEBT_REPAY_DEADLINE_PERIOD = 90*24*60*60;   //Period before debt without payments may be defaulted\n\n    uint256 public constant COLLATERAL_TO_DEBT_RATIO_MULTIPLIER = 10**3;\n    uint256 public constant COLLATERAL_TO_DEBT_RATIO = 1.00*COLLATERAL_TO_DEBT_RATIO_MULTIPLIER; // Regulates how many collateral is required \n    uint256 public constant PLEDGE_PERCENT_MULTIPLIER = 10**3;\n    uint256 public constant DEBT_LOAD_MULTIPLIER = 10**3;\n\n    uint256 public constant BORROWER_COLLATERAL_TO_FULL_COLLATERAL_MULTIPLIER = 10**3;\n    uint256 public constant BORROWER_COLLATERAL_TO_FULL_COLLATERAL_RATIO = BORROWER_COLLATERAL_TO_FULL_COLLATERAL_MULTIPLIER/2;\n\n    struct DebtPledge {\n        uint256 senderIndex;  //Index of pledge sender in the array\n        uint256 lAmount;      //Amount of liquid tokens, covered by this pledge\n        uint256 pAmount;      //Amount of pTokens locked for this pledge\n    }\n\n    struct DebtProposal {\n        uint256 lAmount;             //Amount of proposed credit (in liquid token)\n        uint256 interest;            //Annual interest rate multiplied by INTEREST_MULTIPLIER\n        bytes32 descriptionHash;     //Hash of description, description itself is stored on Swarm   \n        mapping(address => DebtPledge) pledges;    //Map of all user pledges (this value will not change after proposal )\n        address[] supporters;       //Array of all supporters, first supporter (with zero index) is borrower himself\n        uint256 lCovered;           //Amount of liquid tokens, covered by pledges\n        uint256 pCollected;         //How many pTokens were locked for this proposal\n        bool executed;              //If Debt is created for this proposal\n    }\n\n    struct Debt {\n        uint256 proposal;           // Index of DebtProposal in adress's proposal list\n        uint256 lAmount;            // Current amount of debt (in liquid token). If 0 - debt is fully paid\n        uint256 lastPayment;        // Timestamp of last interest payment (can be timestamp of last payment or a virtual date untill which interest is paid)\n        uint256 pInterest;          // Amount of pTokens minted as interest for this debt\n        mapping(address => uint256) claimedPledges;  //Amount of pTokens already claimed by supporter\n        bool defaultExecuted;       // If debt default is already executed by executeDebtDefault()\n    }\n\n    struct LoanLimits {\n        uint256 lDebtAmountMin;     // Minimal amount of proposed credit (DebtProposal.lAmount)\n        uint256 debtInterestMin;    // Minimal value of debt interest\n        uint256 pledgePercentMin;   // Minimal pledge as percent of credit collateral amount. Value is divided to PLEDGE_PERCENT_MULTIPLIER for calculations\n        uint256 lMinPledgeMax;      // Maximal value of minimal pledge (in liquid tokens), works together with pledgePercentMin\n        uint256 debtLoadMax;        // Maximal ratio LoanModule.lDebts/(FundsModule.lBalance+LoanModule.lDebts)<=debtLoadMax; multiplied to DEBT_LOAD_MULTIPLIER\n    }\n\n    mapping(address=>DebtProposal[]) public debtProposals;\n    mapping(address=>Debt[]) public debts;\n\n    uint256 private lDebts;\n    uint256 private lProposals;\n    LoanLimits public limits;\n\n    function initialize(address _pool) public initializer {\n        Module.initialize(_pool);\n        //100 DAI min credit, 10% min interest, 10% min pledge, 500 DAI max minimal pledge, 50% max debt load\n        setLimits(100*10**18, INTEREST_MULTIPLIER*10/100, PLEDGE_PERCENT_MULTIPLIER*10/100, 500*10**18, DEBT_LOAD_MULTIPLIER*50/100);\n    }\n\n    /**\n     * @notice Create DebtProposal\n     * @param debtLAmount Amount of debt in liquid tokens\n     * @param interest Annual interest rate multiplied by INTEREST_MULTIPLIER (to allow decimal numbers)\n     * @param pAmountMax Max amount of pTokens to use as collateral\n     * @param descriptionHash Hash of loan description\n     * @return Index of created DebtProposal\n     */\n    function createDebtProposal(uint256 debtLAmount, uint256 interest, uint256 pAmountMax, bytes32 descriptionHash) public returns(uint256){\n        require(debtLAmount > 0, \"LoanModule: debtLAmount should not be 0\");\n        require(debtLAmount >= limits.lDebtAmountMin, \"LoanModule: debtLAmount should be >= lDebtAmountMin\");\n        require(interest >= limits.debtInterestMin, \"LoanModule: interest should be >= debtInterestMin\");\n        uint256 fullCollateralLAmount = debtLAmount.mul(COLLATERAL_TO_DEBT_RATIO).div(COLLATERAL_TO_DEBT_RATIO_MULTIPLIER);\n        uint256 clAmount = fullCollateralLAmount.mul(BORROWER_COLLATERAL_TO_FULL_COLLATERAL_RATIO).div(BORROWER_COLLATERAL_TO_FULL_COLLATERAL_MULTIPLIER);\n        uint256 cpAmount = calculatePoolExit(clAmount);\n        require(cpAmount <= pAmountMax, \"LoanModule: pAmountMax is too low\");\n\n        debtProposals[_msgSender()].push(DebtProposal({\n            lAmount: debtLAmount,\n            interest: interest,\n            descriptionHash: descriptionHash,\n            supporters: new address[](0),\n            lCovered: 0,\n            pCollected: 0,\n            executed: false\n        }));\n        uint256 proposalIndex = debtProposals[_msgSender()].length-1;\n        emit DebtProposalCreated(_msgSender(), proposalIndex, debtLAmount, interest, descriptionHash);\n\n        //Add pldege of the creator\n        DebtProposal storage prop = debtProposals[_msgSender()][proposalIndex];\n        prop.supporters.push(_msgSender());\n        prop.pledges[_msgSender()] = DebtPledge({\n            senderIndex: 0,\n            lAmount: clAmount,\n            pAmount: cpAmount\n        });\n        prop.lCovered = prop.lCovered.add(clAmount);\n        prop.pCollected = prop.pCollected.add(cpAmount);\n        lProposals = lProposals.add(clAmount); //This is ok only while COLLATERAL_TO_DEBT_RATIO == 1\n\n        fundsModule().depositPTokens(_msgSender(), cpAmount);\n        emit PledgeAdded(_msgSender(), _msgSender(), proposalIndex, clAmount, cpAmount);\n        return proposalIndex;\n    }\n\n    /**\n     * @notice Add pledge to DebtProposal\n     * @param borrower Address of borrower\n     * @param proposal Index of borroers's proposal\n     * @param pAmount Amount of pTokens to use as collateral\n     * @param lAmountMin Minimal amount of liquid tokens to cover by this pledge\n     * \n     * There is a case, when pAmount is too high for this debt, in this case only part of pAmount will be used.\n     * In such edge case we may return less then lAmountMin, but price limit lAmountMin/pAmount will be honored.\n     */\n    function addPledge(address borrower, uint256 proposal, uint256 pAmount, uint256 lAmountMin) public {\n        require(_msgSender() != borrower, \"LoanModule: Borrower can not add pledge\");\n        DebtProposal storage p = debtProposals[borrower][proposal];\n        require(p.lAmount > 0, \"LoanModule: DebtProposal not found\");\n        require(!p.executed, \"LoanModule: DebtProposal is already executed\");\n        // p.lCovered/p.pCollected should be the same as original liquidity token to pToken exchange rate\n        (uint256 lAmount, , ) = calculatePoolExitInverse(pAmount); \n        require(lAmount >= lAmountMin, \"LoanModule: Minimal amount is too high\");\n        (uint256 minLPledgeAmount, uint256 maxLPledgeAmount)= getPledgeRequirements(borrower, proposal);\n        require(maxLPledgeAmount > 0, \"LoanModule: DebtProposal is already funded\");\n        require(lAmount >= minLPledgeAmount, \"LoanModule: pledge is too low\");\n        if (lAmount > maxLPledgeAmount) {\n            uint256 pAmountOld = pAmount;\n            lAmount = maxLPledgeAmount;\n            pAmount = calculatePoolExit(lAmount);\n            assert(pAmount <= pAmountOld); // \"<=\" is used to handle tiny difference between lAmount and maxLPledgeAmount\n        } \n        if (p.pledges[_msgSender()].senderIndex == 0) {\n            p.supporters.push(_msgSender());\n            p.pledges[_msgSender()] = DebtPledge({\n                senderIndex: p.supporters.length-1,\n                lAmount: lAmount,\n                pAmount: pAmount\n            });\n        } else {\n            p.pledges[_msgSender()].lAmount = p.pledges[_msgSender()].lAmount.add(lAmount);\n            p.pledges[_msgSender()].pAmount = p.pledges[_msgSender()].pAmount.add(pAmount);\n        }\n        p.lCovered = p.lCovered.add(lAmount);\n        p.pCollected = p.pCollected.add(pAmount);\n        lProposals = lProposals.add(lAmount); //This is ok only while COLLATERAL_TO_DEBT_RATIO == 1\n        fundsModule().depositPTokens(_msgSender(), pAmount);\n        emit PledgeAdded(_msgSender(), borrower, proposal, lAmount, pAmount);\n    }\n\n    /**\n     * @notice Withdraw pledge from DebtProposal\n     * @param borrower Address of borrower\n     * @param proposal Index of borrowers's proposal\n     * @param pAmount Amount of pTokens to withdraw\n     */\n    function withdrawPledge(address borrower, uint256 proposal, uint256 pAmount) public {\n        require(_msgSender() != borrower, \"LoanModule: Borrower can not withdraw pledge\");\n        DebtProposal storage p = debtProposals[borrower][proposal];\n        require(p.lAmount > 0, \"LoanModule: DebtProposal not found\");\n        require(!p.executed, \"LoanModule: DebtProposal is already executed\");\n        DebtPledge storage pledge = p.pledges[_msgSender()];\n        require(pAmount <= pledge.pAmount, \"LoanModule: Can not withdraw more then locked\");\n        uint256 lAmount; \n        if (pAmount == pledge.pAmount) {\n            lAmount = pledge.lAmount;\n        } else {\n            // pAmount < pledge.pAmount\n            lAmount = pledge.lAmount.mul(pAmount).div(pledge.pAmount);\n            assert(lAmount < pledge.lAmount);\n        }\n        pledge.pAmount = pledge.pAmount.sub(pAmount);\n        pledge.lAmount = pledge.lAmount.sub(lAmount);\n        p.pCollected = p.pCollected.sub(pAmount);\n        p.lCovered = p.lCovered.sub(lAmount);\n        lProposals = lProposals.sub(lAmount); //This is ok only while COLLATERAL_TO_DEBT_RATIO == 1\n\n        //Check new min/max pledge AFTER current collateral is adjusted to new values\n        (uint256 minLPledgeAmount,)= getPledgeRequirements(borrower, proposal); \n        require(pledge.lAmount >= minLPledgeAmount || pledge.pAmount == 0, \"LoanModule: pledge left is too small\");\n\n        fundsModule().withdrawPTokens(_msgSender(), pAmount);\n        emit PledgeWithdrawn(_msgSender(), borrower, proposal, lAmount, pAmount);\n    }\n\n    /**\n     * @notice Execute DebtProposal\n     * @dev Creates Debt using data of DebtProposal\n     * @param proposal Index of DebtProposal\n     * @return Index of created Debt\n     */\n    function executeDebtProposal(uint256 proposal) public returns(uint256){\n        DebtProposal storage p = debtProposals[_msgSender()][proposal];\n        require(p.lAmount > 0, \"LoanModule: DebtProposal not found\");\n        require(getRequiredPledge(_msgSender(), proposal) == 0, \"LoanModule: DebtProposal is not fully funded\");\n        require(!p.executed, \"LoanModule: DebtProposal is already executed\");\n        debts[_msgSender()].push(Debt({\n            proposal: proposal,\n            lAmount: p.lAmount,\n            lastPayment: now,\n            pInterest: 0,\n            defaultExecuted: false\n        }));\n        // We do not initialize pledges map here to save gas!\n        // Instead we check PledgeAmount.initialized field and do lazy initialization\n        p.executed = true;\n        uint256 debtIdx = debts[_msgSender()].length-1; //It's important to save index before calling external contract\n\n        // NOTE: calculations below expect p.lCovered == p.lAmount. This may be wrong if COLLATERAL_TO_DEBT_RATIO != 1\n        lProposals = lProposals.sub(p.lCovered);\n        lDebts = lDebts.add(p.lAmount);\n\n        //uint256 debtLoad = DEBT_LOAD_MULTIPLIER.mul(lDebts).div(fundsModule().lBalance().add(lDebts.sub(p.lAmount)));\n        uint256 maxDebts = limits.debtLoadMax.mul(fundsModule().lBalance().add(lDebts.sub(p.lAmount))).div(DEBT_LOAD_MULTIPLIER);\n        require(lDebts <= maxDebts, \"LoanModule: DebtProposal can not be executed now because of debt loan limit\");\n\n        //Move locked pTokens to Funds\n        for (uint256 i=0; i < p.supporters.length; i++) {\n            address supporter = p.supporters[i];\n            fundsModule().movePTokens(supporter, address(fundsModule()), p.pledges[supporter].pAmount);\n        }\n\n        fundsModule().withdrawLTokens(_msgSender(), p.lAmount);\n        emit DebtProposalExecuted(_msgSender(), proposal, debtIdx, p.lAmount);\n        return debtIdx;\n    }\n\n    /**\n     * @notice Repay amount of lToken and unlock pTokens\n     * @param debt Index of Debt\n     * @param lAmount Amount of liquid tokens to repay (it will not take more than needed for full debt repayment)\n     */\n    function repay(uint256 debt, uint256 lAmount) public {\n        Debt storage d = debts[_msgSender()][debt];\n        require(d.lAmount > 0, \"LoanModule: Debt is already fully repaid\"); //Or wrong debt index\n        require(!_isDebtDefaultTimeReached(d), \"LoanModule: debt is already defaulted\");\n        DebtProposal storage p = debtProposals[_msgSender()][d.proposal];\n        require(p.lAmount > 0, \"LoanModule: DebtProposal not found\");\n\n        uint256 lInterest = calculateInterestPayment(d.lAmount, p.interest, d.lastPayment, now);\n\n        uint256 actualInterest;\n        if (lAmount < lInterest) {\n            uint256 paidTime = now.sub(d.lastPayment).mul(lAmount).div(lInterest);\n            assert(d.lastPayment + paidTime <= now);\n            d.lastPayment = d.lastPayment.add(paidTime);\n            actualInterest = lAmount;\n        } else {\n            uint256 fullRepayLAmount = d.lAmount.add(lInterest);\n            if (lAmount > fullRepayLAmount) lAmount = fullRepayLAmount;\n\n            d.lastPayment = now;\n            uint256 debtReturned = lAmount.sub(lInterest);\n            d.lAmount = d.lAmount.sub(debtReturned);\n            lDebts = lDebts.sub(debtReturned);\n            actualInterest = lInterest;\n        }\n\n        uint256 pInterest = calculatePoolEnter(actualInterest);\n        d.pInterest = d.pInterest.add(pInterest);\n\n        fundsModule().depositLTokens(_msgSender(), lAmount); \n        fundsModule().mintPTokens(pInterest);\n\n        emit Repay(_msgSender(), debt, d.lAmount, lAmount, actualInterest, pInterest, d.lastPayment);\n    }\n\n    /**\n     * @notice Allows anyone to default a debt which is behind it's repay deadline\n     * @param borrower Address of borrower\n     * @param debt Index of borrowers's debt\n     */\n    function executeDebtDefault(address borrower, uint256 debt) public {\n        Debt storage dbt = debts[borrower][debt];\n        require(dbt.lAmount > 0, \"LoanModule: debt is fully repaid\");\n        require(!dbt.defaultExecuted, \"LoanModule: default is already executed\");\n        require(_isDebtDefaultTimeReached(dbt), \"LoanModule: not enough time passed\");\n        DebtProposal storage proposal = debtProposals[borrower][dbt.proposal];\n        uint256 pLocked = proposal.pCollected.mul(dbt.lAmount).div(proposal.lAmount);\n        dbt.defaultExecuted = true;\n        lDebts = lDebts.sub(dbt.lAmount);\n        IFundsModule funds = fundsModule();\n        funds.burnPTokens(pLocked);\n        emit DebtDefaultExecuted(borrower, debt, pLocked);\n    }\n\n    /**\n     * @notice Withdraw part of the pledge which is already unlocked (borrower repaid part of the debt) + interest\n     * @param borrower Address of borrower\n     * @param debt Index of borrowers's debt\n     */\n    function withdrawUnlockedPledge(address borrower, uint256 debt) public {\n        (, uint256 pUnlocked, uint256 pInterest, uint256 pWithdrawn) = calculatePledgeInfo(borrower, debt, _msgSender());\n\n        uint256 pUnlockedPlusInterest = pUnlocked.add(pInterest);\n        require(pUnlockedPlusInterest > pWithdrawn, \"LoanModule: nothing to withdraw\");\n        uint256 pAmount = pUnlockedPlusInterest.sub(pWithdrawn);\n\n        Debt storage dbt = debts[borrower][debt];\n        dbt.claimedPledges[_msgSender()] = dbt.claimedPledges[_msgSender()].add(pAmount);\n        \n        fundsModule().movePTokens(address(fundsModule()), _msgSender(), pAmount);\n        fundsModule().withdrawPTokens(_msgSender(), pAmount);\n        emit UnlockedPledgeWithdraw(_msgSender(), borrower, dbt.proposal, debt, pAmount);\n    }\n\n    function setLimits(\n        uint256 lDebtAmountMin, \n        uint256 debtInterestMin, \n        uint256 pledgePercentMin, \n        uint256 lMinPledgeMax,\n        uint256 debtLoadMax\n    ) public onlyOwner {\n        limits.lDebtAmountMin = lDebtAmountMin;\n        limits.debtInterestMin = debtInterestMin;\n        limits.pledgePercentMin = pledgePercentMin;\n        limits.lMinPledgeMax = lMinPledgeMax;\n        limits.debtLoadMax = debtLoadMax;\n    }\n\n    /**\n     * @notice This function is only used for testing purpuses (test liquidations)\n     * @dev SHOULD BE DELETED BEFORE MAINNET RELEASE\n     * @param borrower Address of borrower\n     * @param debt Index of borrowers's debt\n     * @param newDate New timestamp of the last payment for this debt\n     */\n    function __changeDebtLastPaymentDate(address borrower, uint256 debt, uint256 newDate) public onlyOwner {\n        Debt storage dbt = debts[borrower][debt];\n        dbt.lastPayment = newDate;\n    }\n\n    /**\n     * @notice Calculates if default time for the debt is reached\n     * @param borrower Address of borrower\n     * @param debt Index of borrowers's debt\n     * @return true if debt is defaulted\n     */\n    function isDebtDefaultTimeReached(address borrower, uint256 debt) view public returns(bool) {\n        Debt storage dbt = debts[borrower][debt];\n        return _isDebtDefaultTimeReached(dbt);\n    }\n\n    /**\n     * @notice Calculates current pledge state\n     * @param borrower Address of borrower\n     * @param debt Index of borrowers's debt\n     * @param supporter Address of supporter to check. If supporter == borrower, special rules applied.\n     * @return current pledge state:\n     *      pLocked - locked pTokens\n     *      pUnlocked - unlocked pTokens (including already withdrawn)\n     *      pInterest - received interest\n     *      pWithdrawn - amount of already withdrawn pTokens\n     */\n    function calculatePledgeInfo(address borrower, uint256 debt, address supporter) view public \n    returns(uint256 pLocked, uint256 pUnlocked, uint256 pInterest, uint256 pWithdrawn){\n        Debt storage dbt = debts[borrower][debt];\n        DebtProposal storage proposal = debtProposals[borrower][dbt.proposal];\n        require(proposal.lAmount > 0 && proposal.executed, \"LoanModule: DebtProposal not found\");\n\n        pWithdrawn = dbt.claimedPledges[supporter];\n\n        DebtPledge storage dp = proposal.pledges[supporter];\n\n        if (supporter == borrower) {\n            if (dbt.lAmount == 0) {\n                pLocked = 0;\n                pUnlocked = dp.pAmount;\n            } else {\n                pLocked = dp.pAmount;\n                pUnlocked = 0;\n                if (_isDebtDefaultTimeReached(dbt)) {\n                    pLocked = 0; \n                }\n            }\n            pInterest = 0;\n        }else{\n            uint256 lPledge = dp.lAmount;\n            uint256 pPledge = dp.pAmount;\n            pLocked = pPledge.mul(dbt.lAmount).div(proposal.lAmount);\n            assert(pLocked <= pPledge);\n            pUnlocked = pPledge.sub(pLocked);\n            pInterest = dbt.pInterest.mul(lPledge).div(proposal.lAmount);\n            assert(pInterest <= dbt.pInterest);\n            if (_isDebtDefaultTimeReached(dbt)) {\n                DebtPledge storage dpb = proposal.pledges[borrower];\n                uint256 pLockedBorrower = dpb.pAmount.mul(dbt.lAmount).div(proposal.lAmount);\n                uint256 pUnlockedBorrower = dpb.pAmount.sub(pLockedBorrower);\n                uint256 pCompensation = pUnlockedBorrower.mul(lPledge).div(proposal.lAmount);\n                if (dbt.defaultExecuted) {\n                    pLocked = 0;\n                    pUnlocked = pUnlocked.add(pCompensation);\n                }else {\n                    pLocked = pCompensation;\n                }\n            }\n        }\n    }\n\n    /**\n     * @notice Calculates how many tokens are not yet covered by borrower or supporters\n     * @param borrower Borrower address\n     * @param proposal Proposal index\n     * @return amounts of liquid tokens currently required to fully cover proposal\n     */\n    function getRequiredPledge(address borrower, uint256 proposal) view public returns(uint256){\n        DebtProposal storage p = debtProposals[borrower][proposal];\n        if (p.executed) return 0;\n        uint256 fullCollateralLAmount = p.lAmount.mul(COLLATERAL_TO_DEBT_RATIO).div(COLLATERAL_TO_DEBT_RATIO_MULTIPLIER);\n        return  fullCollateralLAmount.sub(p.lCovered);\n    }\n\n    /**\n     * @notice Calculates pledge requirements\n     * Max allowed pledge = how many tokens are not yet covered by borrower or supporters.\n     * @param borrower Borrower address\n     * @param proposal Proposal index\n     * @return minimal allowed pledge, maximal allowed pledge\n     */\n    function getPledgeRequirements(address borrower, uint256 proposal) public view returns(uint256 minLPledge, uint256 maxLPledge){\n        // uint256 pledgePercentMin;   // Minimal pledge as percent of credit amount. Value is divided to PLEDGE_PERCENT_MULTIPLIER for calculations\n        // uint256 lMinPledgeMax;      // Maximal value of minimal pledge (in liquid tokens), works together with pledgePercentMin\n\n        DebtProposal storage p = debtProposals[borrower][proposal];\n        if (p.executed) return (0, 0);\n        uint256 fullCollateralLAmount = p.lAmount.mul(COLLATERAL_TO_DEBT_RATIO).div(COLLATERAL_TO_DEBT_RATIO_MULTIPLIER);\n        maxLPledge = fullCollateralLAmount.sub(p.lCovered);\n\n        minLPledge = limits.pledgePercentMin.mul(fullCollateralLAmount).div(PLEDGE_PERCENT_MULTIPLIER);\n        if (minLPledge > limits.lMinPledgeMax) minLPledge = limits.lMinPledgeMax;\n        if (minLPledge > maxLPledge) minLPledge = maxLPledge;\n    }\n\n    /**\n     * @notice Calculates current pledge state\n     * @param borrower Address of borrower\n     * @param debt Index of borrowers's debt\n     * @return Amount of unpaid debt, amount of interest payment\n     */\n    function getDebtRequiredPayments(address borrower, uint256 debt) public view returns(uint256, uint256) {\n        Debt storage d = debts[borrower][debt];\n        if (d.lAmount == 0) {\n            return (0, 0);\n        }\n        DebtProposal storage p = debtProposals[borrower][d.proposal];\n        require(p.lAmount > 0, \"LoanModule: DebtProposal not found\");\n\n        uint256 interest = calculateInterestPayment(d.lAmount, p.interest, d.lastPayment, now);\n        return (d.lAmount, interest);\n    }\n\n    /**\n     * @notice Check if user has active debts\n     * @param sender Address to check\n     * @return True if sender has unpaid debts\n     */\n    function hasActiveDebts(address sender) public view returns(bool) {\n        //TODO: iterating through all debts may be too expensive if there are a lot of closed debts. Need to test this and find solution\n        Debt[] storage userDebts = debts[sender];\n        if (userDebts.length == 0) return false;\n        for (uint256 i=userDebts.length-1; i >= 0; i--){ //searching in reverse order because probability to find active loan is higher for latest loans\n            bool isUnpaid = userDebts[i].lAmount != 0;\n            bool isDefaulted = isUnpaid && _isDebtDefaultTimeReached(userDebts[i]);\n            if (isUnpaid && !isDefaulted) return true;\n            if (i == 0) break;   //fix i-- fails because i is unsigned\n        }\n        return false;\n    }\n\n    /**\n     * @notice Total amount of debts\n     * @return Summ of all liquid token in debts\n     */\n    function totalLDebts() public view returns(uint256){\n        return lDebts;\n    }\n\n    /**\n     * @notice Total amount of collateral locked in proposals\n     * Although this is measured in liquid tokens, it's not actual tokens,\n     * just a value wich is supposed to represent the collateral locked in proposals.\n     * @return Summ of all collaterals in proposals\n     */\n    function totalLProposals() public view returns(uint256){\n        return lProposals;\n    }\n\n    /**\n     * @notice Calculates interest amount for a debt\n     * @param debtLAmount Current amount of debt\n     * @param interest Annual interest rate multiplied by INTEREST_MULTIPLIER\n     * @param prevPayment Timestamp of previous payment\n     * @param currentPayment Timestamp of current payment\n     */\n    function calculateInterestPayment(uint256 debtLAmount, uint256 interest, uint256 prevPayment, uint currentPayment) public pure returns(uint256){\n        require(prevPayment <= currentPayment, \"LoanModule: prevPayment should be before currentPayment\");\n        uint256 annualInterest = debtLAmount.mul(interest).div(INTEREST_MULTIPLIER);\n        uint256 time = currentPayment.sub(prevPayment);\n        return time.mul(annualInterest).div(ANNUAL_SECONDS);\n    }\n\n    /**\n     * @notice Calculates how many pTokens should be given to user for increasing liquidity\n     * @param lAmount Amount of liquid tokens which will be put into the pool\n     * @return Amount of pToken which should be sent to sender\n     */\n    function calculatePoolEnter(uint256 lAmount) internal view returns(uint256) {\n        return fundsModule().calculatePoolEnter(lAmount);\n    }\n\n    /**\n     * @notice Calculates how many pTokens should be taken from user for decreasing liquidity\n     * @param lAmount Amount of liquid tokens which will be removed from the pool\n     * @return Amount of pToken which should be taken from sender\n     */\n    function calculatePoolExit(uint256 lAmount) internal view returns(uint256) {\n        return fundsModule().calculatePoolExit(lAmount);\n    }\n\n    /**\n     * @notice Calculates how many liquid tokens should be removed from pool when decreasing liquidity\n     * @param pAmount Amount of pToken which should be taken from sender\n     * @return Amount of liquid tokens which will be removed from the pool: total, part for sender, part for pool\n     */\n    function calculatePoolExitInverse(uint256 pAmount) internal view returns(uint256, uint256, uint256) {\n        return fundsModule().calculatePoolExitInverse(pAmount);\n    }\n\n    function fundsModule() internal view returns(IFundsModule) {\n        return IFundsModule(getModuleAddress(MODULE_FUNDS));\n    }\n\n    function _isDebtDefaultTimeReached(Debt storage dbt) view private returns(bool) {\n        uint256 timeSinceLastPayment = now.sub(dbt.lastPayment);\n        return timeSinceLastPayment > DEBT_REPAY_DEADLINE_PERIOD;\n    }\n}",
  "sourcePath": "/home/pickle/Documents/bch/akropolisOS/contracts/modules/loan/LoanModule.sol",
  "compiler": {
    "name": "solc",
    "version": "0.5.12+commit.7709ece9.Emscripten.clang"
  },
  "schemaVersion": "3.0.22",
  "updatedAt": "2020-02-18T07:17:19.363Z",
  "devdoc": {
    "methods": {
      "__changeDebtLastPaymentDate(address,uint256,uint256)": {
        "details": "SHOULD BE DELETED BEFORE MAINNET RELEASE",
        "params": {
          "borrower": "Address of borrower",
          "debt": "Index of borrowers's debt",
          "newDate": "New timestamp of the last payment for this debt"
        }
      },
      "addPledge(address,uint256,uint256,uint256)": {
        "params": {
          "borrower": "Address of borrower",
          "lAmountMin": "Minimal amount of liquid tokens to cover by this pledge      * There is a case, when pAmount is too high for this debt, in this case only part of pAmount will be used. In such edge case we may return less then lAmountMin, but price limit lAmountMin/pAmount will be honored.",
          "pAmount": "Amount of pTokens to use as collateral",
          "proposal": "Index of borroers's proposal"
        }
      },
      "calculateInterestPayment(uint256,uint256,uint256,uint256)": {
        "params": {
          "currentPayment": "Timestamp of current payment",
          "debtLAmount": "Current amount of debt",
          "interest": "Annual interest rate multiplied by INTEREST_MULTIPLIER",
          "prevPayment": "Timestamp of previous payment"
        }
      },
      "calculatePledgeInfo(address,uint256,address)": {
        "params": {
          "borrower": "Address of borrower",
          "debt": "Index of borrowers's debt",
          "supporter": "Address of supporter to check. If supporter == borrower, special rules applied."
        },
        "return": "current pledge state:     pLocked - locked pTokens     pUnlocked - unlocked pTokens (including already withdrawn)     pInterest - received interest     pWithdrawn - amount of already withdrawn pTokens"
      },
      "createDebtProposal(uint256,uint256,uint256,bytes32)": {
        "params": {
          "debtLAmount": "Amount of debt in liquid tokens",
          "descriptionHash": "Hash of loan description",
          "interest": "Annual interest rate multiplied by INTEREST_MULTIPLIER (to allow decimal numbers)",
          "pAmountMax": "Max amount of pTokens to use as collateral"
        },
        "return": "Index of created DebtProposal"
      },
      "executeDebtDefault(address,uint256)": {
        "params": {
          "borrower": "Address of borrower",
          "debt": "Index of borrowers's debt"
        }
      },
      "executeDebtProposal(uint256)": {
        "details": "Creates Debt using data of DebtProposal",
        "params": {
          "proposal": "Index of DebtProposal"
        },
        "return": "Index of created Debt"
      },
      "getDebtRequiredPayments(address,uint256)": {
        "params": {
          "borrower": "Address of borrower",
          "debt": "Index of borrowers's debt"
        },
        "return": "Amount of unpaid debt, amount of interest payment"
      },
      "getPledgeRequirements(address,uint256)": {
        "params": {
          "borrower": "Borrower address",
          "proposal": "Proposal index"
        },
        "return": "minimal allowed pledge, maximal allowed pledge"
      },
      "getRequiredPledge(address,uint256)": {
        "params": {
          "borrower": "Borrower address",
          "proposal": "Proposal index"
        },
        "return": "amounts of liquid tokens currently required to fully cover proposal"
      },
      "hasActiveDebts(address)": {
        "params": {
          "sender": "Address to check"
        },
        "return": "True if sender has unpaid debts"
      },
      "isDebtDefaultTimeReached(address,uint256)": {
        "params": {
          "borrower": "Address of borrower",
          "debt": "Index of borrowers's debt"
        },
        "return": "true if debt is defaulted"
      },
      "isOwner()": {
        "details": "Returns true if the caller is the current owner."
      },
      "owner()": {
        "details": "Returns the address of the current owner."
      },
      "renounceOwnership()": {
        "details": "Leaves the contract without owner. It will not be possible to call `onlyOwner` functions anymore. Can only be called by the current owner.     * > Note: Renouncing ownership will leave the contract without an owner, thereby removing any functionality that is only available to the owner."
      },
      "repay(uint256,uint256)": {
        "params": {
          "debt": "Index of Debt",
          "lAmount": "Amount of liquid tokens to repay (it will not take more than needed for full debt repayment)"
        }
      },
      "totalLDebts()": {
        "return": "Summ of all liquid token in debts"
      },
      "totalLProposals()": {
        "return": "Summ of all collaterals in proposals"
      },
      "transferOwnership(address)": {
        "details": "Transfers ownership of the contract to a new account (`newOwner`). Can only be called by the current owner."
      },
      "withdrawPledge(address,uint256,uint256)": {
        "params": {
          "borrower": "Address of borrower",
          "pAmount": "Amount of pTokens to withdraw",
          "proposal": "Index of borrowers's proposal"
        }
      },
      "withdrawUnlockedPledge(address,uint256)": {
        "params": {
          "borrower": "Address of borrower",
          "debt": "Index of borrowers's debt"
        }
      }
    }
  },
  "userdoc": {
    "methods": {
      "__changeDebtLastPaymentDate(address,uint256,uint256)": {
        "notice": "This function is only used for testing purpuses (test liquidations)"
      },
      "addPledge(address,uint256,uint256,uint256)": {
        "notice": "Add pledge to DebtProposal"
      },
      "calculateInterestPayment(uint256,uint256,uint256,uint256)": {
        "notice": "Calculates interest amount for a debt"
      },
      "calculatePledgeInfo(address,uint256,address)": {
        "notice": "Calculates current pledge state"
      },
      "createDebtProposal(uint256,uint256,uint256,bytes32)": {
        "notice": "Create DebtProposal"
      },
      "executeDebtDefault(address,uint256)": {
        "notice": "Allows anyone to default a debt which is behind it's repay deadline"
      },
      "executeDebtProposal(uint256)": {
        "notice": "Execute DebtProposal"
      },
      "getDebtRequiredPayments(address,uint256)": {
        "notice": "Calculates current pledge state"
      },
      "getPledgeRequirements(address,uint256)": {
        "notice": "Calculates pledge requirements Max allowed pledge = how many tokens are not yet covered by borrower or supporters."
      },
      "getRequiredPledge(address,uint256)": {
        "notice": "Calculates how many tokens are not yet covered by borrower or supporters"
      },
      "hasActiveDebts(address)": {
        "notice": "Check if user has active debts"
      },
      "isDebtDefaultTimeReached(address,uint256)": {
        "notice": "Calculates if default time for the debt is reached"
      },
      "repay(uint256,uint256)": {
        "notice": "Repay amount of lToken and unlock pTokens"
      },
      "totalLDebts()": {
        "notice": "Total amount of debts"
      },
      "totalLProposals()": {
        "notice": "Total amount of collateral locked in proposals Although this is measured in liquid tokens, it's not actual tokens, just a value wich is supposed to represent the collateral locked in proposals."
      },
      "withdrawPledge(address,uint256,uint256)": {
        "notice": "Withdraw pledge from DebtProposal"
      },
      "withdrawUnlockedPledge(address,uint256)": {
        "notice": "Withdraw part of the pledge which is already unlocked (borrower repaid part of the debt) + interest"
      }
    }
  }
}