{
  "contractName": "Pool",
  "abi": [
    {
      "anonymous": false,
      "inputs": [
        {
          "indexed": false,
          "internalType": "string",
          "name": "name",
          "type": "string"
        },
        {
          "indexed": true,
          "internalType": "address",
          "name": "module",
          "type": "address"
        }
      ],
      "name": "ModuleAdded",
      "type": "event"
    },
    {
      "anonymous": false,
      "inputs": [
        {
          "indexed": false,
          "internalType": "string",
          "name": "name",
          "type": "string"
        },
        {
          "indexed": true,
          "internalType": "address",
          "name": "module",
          "type": "address"
        }
      ],
      "name": "ModuleRemoved",
      "type": "event"
    },
    {
      "anonymous": false,
      "inputs": [
        {
          "indexed": false,
          "internalType": "string",
          "name": "name",
          "type": "string"
        },
        {
          "indexed": true,
          "internalType": "address",
          "name": "from",
          "type": "address"
        },
        {
          "indexed": true,
          "internalType": "address",
          "name": "to",
          "type": "address"
        }
      ],
      "name": "ModuleReplaced",
      "type": "event"
    },
    {
      "anonymous": false,
      "inputs": [
        {
          "indexed": true,
          "internalType": "address",
          "name": "previousOwner",
          "type": "address"
        },
        {
          "indexed": true,
          "internalType": "address",
          "name": "newOwner",
          "type": "address"
        }
      ],
      "name": "OwnershipTransferred",
      "type": "event"
    },
    {
      "constant": true,
      "inputs": [
        {
          "internalType": "address",
          "name": "",
          "type": "address"
        }
      ],
      "name": "abiOf",
      "outputs": [
        {
          "internalType": "string",
          "name": "",
          "type": "string"
        }
      ],
      "payable": false,
      "stateMutability": "view",
      "type": "function"
    },
    {
      "constant": true,
      "inputs": [],
      "name": "description",
      "outputs": [
        {
          "internalType": "string",
          "name": "",
          "type": "string"
        }
      ],
      "payable": false,
      "stateMutability": "view",
      "type": "function"
    },
    {
      "constant": true,
      "inputs": [],
      "name": "founder",
      "outputs": [
        {
          "internalType": "address",
          "name": "",
          "type": "address"
        }
      ],
      "payable": false,
      "stateMutability": "view",
      "type": "function"
    },
    {
      "constant": true,
      "inputs": [],
      "name": "isOwner",
      "outputs": [
        {
          "internalType": "bool",
          "name": "",
          "type": "bool"
        }
      ],
      "payable": false,
      "stateMutability": "view",
      "type": "function"
    },
    {
      "constant": true,
      "inputs": [],
      "name": "name",
      "outputs": [
        {
          "internalType": "string",
          "name": "",
          "type": "string"
        }
      ],
      "payable": false,
      "stateMutability": "view",
      "type": "function"
    },
    {
      "constant": true,
      "inputs": [],
      "name": "owner",
      "outputs": [
        {
          "internalType": "address",
          "name": "",
          "type": "address"
        }
      ],
      "payable": false,
      "stateMutability": "view",
      "type": "function"
    },
    {
      "constant": false,
      "inputs": [],
      "name": "renounceOwnership",
      "outputs": [],
      "payable": false,
      "stateMutability": "nonpayable",
      "type": "function"
    },
    {
      "constant": false,
      "inputs": [
        {
          "internalType": "address",
          "name": "newOwner",
          "type": "address"
        }
      ],
      "name": "transferOwnership",
      "outputs": [],
      "payable": false,
      "stateMutability": "nonpayable",
      "type": "function"
    },
    {
      "constant": false,
      "inputs": [],
      "name": "initialize",
      "outputs": [],
      "payable": false,
      "stateMutability": "nonpayable",
      "type": "function"
    },
    {
      "constant": false,
      "inputs": [
        {
          "internalType": "address",
          "name": "sender",
          "type": "address"
        }
      ],
      "name": "initialize",
      "outputs": [],
      "payable": false,
      "stateMutability": "nonpayable",
      "type": "function"
    },
    {
      "constant": false,
      "inputs": [
        {
          "internalType": "string",
          "name": "_name",
          "type": "string"
        },
        {
          "internalType": "string",
          "name": "_description",
          "type": "string"
        }
      ],
      "name": "setMetadata",
      "outputs": [],
      "payable": false,
      "stateMutability": "nonpayable",
      "type": "function"
    },
    {
      "constant": false,
      "inputs": [
        {
          "internalType": "string",
          "name": "_name",
          "type": "string"
        },
        {
          "internalType": "address",
          "name": "_module",
          "type": "address"
        },
        {
          "internalType": "bool",
          "name": "_constant",
          "type": "bool"
        }
      ],
      "name": "set",
      "outputs": [],
      "payable": false,
      "stateMutability": "nonpayable",
      "type": "function"
    },
    {
      "constant": false,
      "inputs": [
        {
          "internalType": "string",
          "name": "_name",
          "type": "string"
        }
      ],
      "name": "remove",
      "outputs": [],
      "payable": false,
      "stateMutability": "nonpayable",
      "type": "function"
    },
    {
      "constant": true,
      "inputs": [
        {
          "internalType": "address",
          "name": "_module",
          "type": "address"
        }
      ],
      "name": "contains",
      "outputs": [
        {
          "internalType": "bool",
          "name": "",
          "type": "bool"
        }
      ],
      "payable": false,
      "stateMutability": "view",
      "type": "function"
    },
    {
      "constant": true,
      "inputs": [],
      "name": "size",
      "outputs": [
        {
          "internalType": "uint256",
          "name": "",
          "type": "uint256"
        }
      ],
      "payable": false,
      "stateMutability": "view",
      "type": "function"
    },
    {
      "constant": true,
      "inputs": [
        {
          "internalType": "string",
          "name": "_name",
          "type": "string"
        }
      ],
      "name": "isConstant",
      "outputs": [
        {
          "internalType": "bool",
          "name": "",
          "type": "bool"
        }
      ],
      "payable": false,
      "stateMutability": "view",
      "type": "function"
    },
    {
      "constant": true,
      "inputs": [
        {
          "internalType": "string",
          "name": "_name",
          "type": "string"
        }
      ],
      "name": "get",
      "outputs": [
        {
          "internalType": "address",
          "name": "",
          "type": "address"
        }
      ],
      "payable": false,
      "stateMutability": "view",
      "type": "function"
    },
    {
      "constant": true,
      "inputs": [
        {
          "internalType": "address",
          "name": "_module",
          "type": "address"
        }
      ],
      "name": "getName",
      "outputs": [
        {
          "internalType": "string",
          "name": "",
          "type": "string"
        }
      ],
      "payable": false,
      "stateMutability": "view",
      "type": "function"
    },
    {
      "constant": true,
      "inputs": [],
      "name": "first",
      "outputs": [
        {
          "internalType": "address",
          "name": "",
          "type": "address"
        }
      ],
      "payable": false,
      "stateMutability": "view",
      "type": "function"
    },
    {
      "constant": true,
      "inputs": [
        {
          "internalType": "address",
          "name": "_current",
          "type": "address"
        }
      ],
      "name": "next",
      "outputs": [
        {
          "internalType": "address",
          "name": "",
          "type": "address"
        }
      ],
      "payable": false,
      "stateMutability": "view",
      "type": "function"
    }
  ],
  "bytecode": "0x6080604052611bc5806100136000396000f3fe608060405234801561001057600080fd5b506004361061012c5760003560e01c806380599e4b116100ad578063949d225d11610071578063949d225d1461059f57806399d0baef146105b9578063ab73e3161461066d578063c4d66de814610693578063f2fde38b146106b95761012c565b806380599e4b1461043f5780638129fc1c146104e35780638a5c68eb146104eb5780638da5cb5b1461058f5780638f32d59b146105975761012c565b80635dbe47e8116100f45780635dbe47e81461032b5780635fd4b08a14610365578063693ec85e1461038b578063715018a61461042f5780637284e416146104375761012c565b806306fdde03146101315780633df4ddf4146101ae57806342ad9b89146101d25780634d853ee5146101f857806351335b5014610200575b600080fd5b6101396106df565b6040805160208082528351818301528351919283929083019185019080838360005b8381101561017357818101518382015260200161015b565b50505050905090810190601f1680156101a05780820380516001836020036101000a031916815260200191505b509250505060405180910390f35b6101b661076d565b604080516001600160a01b039092168252519081900360200190f35b610139600480360360208110156101e857600080fd5b50356001600160a01b031661077d565b6101b66107e5565b6103296004803603604081101561021657600080fd5b810190602081018135600160201b81111561023057600080fd5b82018360208201111561024257600080fd5b803590602001918460018302840111600160201b8311171561026357600080fd5b91908080601f0160208091040260200160405190810160405280939291908181526020018383808284376000920191909152509295949360208101935035915050600160201b8111156102b557600080fd5b8201836020820111156102c757600080fd5b803590602001918460018302840111600160201b831117156102e857600080fd5b91908080601f0160208091040260200160405190810160405280939291908181526020018383808284376000920191909152509295506107f4945050505050565b005b6103516004803603602081101561034157600080fd5b50356001600160a01b0316610820565b604080519115158252519081900360200190f35b6101396004803603602081101561037b57600080fd5b50356001600160a01b0316610839565b6101b6600480360360208110156103a157600080fd5b810190602081018135600160201b8111156103bb57600080fd5b8201836020820111156103cd57600080fd5b803590602001918460018302840111600160201b831117156103ee57600080fd5b91908080601f0160208091040260200160405190810160405280939291908181526020018383808284376000920191909152509295506108e4945050505050565b6103296108f7565b610139610988565b6103296004803603602081101561045557600080fd5b810190602081018135600160201b81111561046f57600080fd5b82018360208201111561048157600080fd5b803590602001918460018302840111600160201b831117156104a257600080fd5b91908080601f0160208091040260200160405190810160405280939291908181526020018383808284376000920191909152509295506109e3945050505050565b610329610b4b565b6103516004803603602081101561050157600080fd5b810190602081018135600160201b81111561051b57600080fd5b82018360208201111561052d57600080fd5b803590602001918460018302840111600160201b8311171561054e57600080fd5b91908080601f016020809104026020016040519081016040528093929190818152602001838380828437600092019190915250929550610c1c945050505050565b6101b6610ca7565b610351610cb6565b6105a7610cdc565b60408051918252519081900360200190f35b610329600480360360608110156105cf57600080fd5b810190602081018135600160201b8111156105e957600080fd5b8201836020820111156105fb57600080fd5b803590602001918460018302840111600160201b8311171561061c57600080fd5b91908080601f016020809104026020016040519081016040528093929190818152602001838380828437600092019190915250929550506001600160a01b0383351693505050602001351515610ced565b6101b66004803603602081101561068357600080fd5b50356001600160a01b0316610faf565b610329600480360360208110156106a957600080fd5b50356001600160a01b0316610fc2565b610329600480360360208110156106cf57600080fd5b50356001600160a01b03166110b4565b6066805460408051602060026001851615610100026000190190941693909304601f810184900484028201840190925281815292918301828280156107655780601f1061073a57610100808354040283529160200191610765565b820191906000526020600020905b81548152906001019060200180831161074857829003601f168201915b505050505081565b606b546001600160a01b03165b90565b60726020908152600091825260409182902080548351601f6002600019610100600186161502019093169290920491820184900484028101840190945280845290918301828280156107655780601f1061073a57610100808354040283529160200191610765565b6068546001600160a01b031681565b8151610807906066906020850190611a5c565b50805161081b906067906020840190611a5c565b505050565b6000610833606b8363ffffffff61110416565b92915050565b6001600160a01b0381166000908152606a602090815260409182902080548351601f60026000196101006001861615020190931692909204918201849004840281018401909452808452606093928301828280156108d85780601f106108ad576101008083540402835291602001916108d8565b820191906000526020600020905b8154815290600101906020018083116108bb57829003601f168201915b50505050509050919050565b600061083360698363ffffffff61112616565b6108ff610cb6565b61093e576040805162461bcd60e51b81526020600482018190526024820152600080516020611b1b833981519152604482015290519081900360640190fd5b6033546040516000916001600160a01b0316907f8be0079c531659141344cd1fd0a4f28419497f9722a3daafe3b4186f6b6457e0908390a3603380546001600160a01b0319169055565b6067805460408051602060026001851615610100026000190190941693909304601f810184900484028201840190925281815292918301828280156107655780601f1061073a57610100808354040283529160200191610765565b6109eb610cb6565b610a2a576040805162461bcd60e51b81526020600482018190526024820152600080516020611b1b833981519152604482015290519081900360640190fd5b610a3381610c1c565b610a84576040805162461bcd60e51b815260206004820152601f60248201527f506f6f6c3a206d6f64756c652063616e206e6f742062652072656d6f76656400604482015290519081900360640190fd5b610a9560698263ffffffff61112616565b6001600160a01b03167fc7c2b7fdd6075949e44c7daeedba58fd5c0449ad0f224c27fd4a4135d7c919da826040518080602001828103825283818151815260200191508051906020019080838360005b83811015610afd578181015183820152602001610ae5565b50505050905090810190601f168015610b2a5780820380516001836020036101000a031916815260200191505b509250505060405180910390a2610b4860698263ffffffff6111ba16565b50565b600054610100900460ff1680610b645750610b646112a8565b80610b72575060005460ff16155b610bad5760405162461bcd60e51b815260040180806020018281038252602e815260200180611b3b602e913960400191505060405180910390fd5b600054610100900460ff16158015610bd8576000805460ff1961ff0019909116610100171660011790555b610be06112ae565b610be861135f565b606880546001600160a01b0319166001600160a01b03929092169190911790558015610b48576000805461ff001916905550565b600060716000836040516020018082805190602001908083835b60208310610c555780518252601f199092019160209182019101610c36565b51815160209384036101000a60001901801990921691161790526040805192909401828103601f1901835284528151918101919091208652850195909552929092016000205460ff1695945050505050565b6033546001600160a01b031690565b6033546000906001600160a01b0316610ccd61135f565b6001600160a01b031614905090565b6000610ce86069611363565b905090565b610cf5610cb6565b610d34576040805162461bcd60e51b81526020600482018190526024820152600080516020611b1b833981519152604482015290519081900360640190fd5b610d3d83610c1c565b15610d795760405162461bcd60e51b8152600401808060200182810382526028815260200180611b696028913960400191505060405180910390fd5b6000610d8c60698563ffffffff61112616565b6001600160a01b031614610e5c576001600160a01b038216610db560698563ffffffff61112616565b6001600160a01b03167f23a55454d9664d45d077cf9ea443f238337d1fecc92ddc03fd58d78413276b9b856040518080602001828103825283818151815260200191508051906020019080838360005b83811015610e1d578181015183820152602001610e05565b50505050905090810190601f168015610e4a5780820380516001836020036101000a031916815260200191505b509250505060405180910390a3610f00565b816001600160a01b03167fb857c29f328a6af5a05e6da681a34d36fe28b9d9b5e333c5668d1448b2431ed0846040518080602001828103825283818151815260200191508051906020019080838360005b83811015610ec5578181015183820152602001610ead565b50505050905090810190601f168015610ef25780820380516001836020036101000a031916815260200191505b509250505060405180910390a25b610f126069848463ffffffff61136a16565b8060716000856040516020018082805190602001908083835b60208310610f4a5780518252601f199092019160209182019101610f2b565b6001836020036101000a03801982511681845116808217855250505050505090500191505060405160208183030381529060405280519060200120815260200190815260200160002060006101000a81548160ff021916908315150217905550505050565b6000610833606b8363ffffffff61147416565b600054610100900460ff1680610fdb5750610fdb6112a8565b80610fe9575060005460ff16155b6110245760405162461bcd60e51b815260040180806020018281038252602e815260200180611b3b602e913960400191505060405180910390fd5b600054610100900460ff1615801561104f576000805460ff1961ff0019909116610100171660011790555b603380546001600160a01b0319166001600160a01b0384811691909117918290556040519116906000907f8be0079c531659141344cd1fd0a4f28419497f9722a3daafe3b4186f6b6457e0908290a380156110b0576000805461ff00191690555b5050565b6110bc610cb6565b6110fb576040805162461bcd60e51b81526020600482018190526024820152600080516020611b1b833981519152604482015290519081900360640190fd5b610b4881611497565b6001600160a01b03166000908152600391909101602052604090205460ff1690565b6000826000016000836040516020018082805190602001908083835b602083106111615780518252601f199092019160209182019101611142565b51815160209384036101000a60001901801990921691161790526040805192909401828103601f190183528452815191810191909120865285019590955292909201600020546001600160a01b03169695505050505050565b60006111c68383611126565b90506111db600284018263ffffffff61153816565b6000836000016000846040516020018082805190602001908083835b602083106112165780518252601f1990920191602091820191016111f7565b51815160209384036101000a60001901801990921691161790526040805192909401828103601f19018352845281519181019190912086528581019690965250928301600090812080546001600160a01b0319166001600160a01b039788161790558351808601808652828252968816825260018a019095529290922092516112a29492509050611a5c565b50505050565b303b1590565b600054610100900460ff16806112c757506112c76112a8565b806112d5575060005460ff16155b6113105760405162461bcd60e51b815260040180806020018281038252602e815260200180611b3b602e913960400191505060405180910390fd5b600054610100900460ff1615801561133b576000805460ff1961ff0019909116610100171660011790555b61134b61134661135f565b610fc2565b8015610b48576000805461ff001916905550565b3390565b6004015490565b60006113768484611126565b90506001600160a01b038116156113a05761139b60028501828463ffffffff6116a116565b6113b3565b6113b3600285018363ffffffff61183e16565b81846000016000856040516020018082805190602001908083835b602083106113ed5780518252601f1990920191602091820191016113ce565b51815160209384036101000a60001901801990921691161790526040805192909401828103601f19018352845281519181019190912086528581019690965250928301600090812080546001600160a01b0319166001600160a01b0397881617905594871685525050600187018252909120845161146d92860190611a5c565b5050505050565b6001600160a01b0380821660009081526004840160205260409020541692915050565b6001600160a01b0381166114dc5760405162461bcd60e51b8152600401808060200182810382526026815260200180611af56026913960400191505060405180910390fd5b6033546040516001600160a01b038084169216907f8be0079c531659141344cd1fd0a4f28419497f9722a3daafe3b4186f6b6457e090600090a3603380546001600160a01b0319166001600160a01b0392909216919091179055565b6001600160a01b038116600090815260038301602052604090205460ff1661158b576040805162461bcd60e51b81526020600482015260016024820152600160fd1b604482015290519081900360640190fd5b6001600160a01b0380821660009081526005840160209081526040808320546004870190925290912054908216911681156115f5576001600160a01b038281166000908152600486016020526040902080546001600160a01b03191691831691909117905561160f565b83546001600160a01b0319166001600160a01b0382161784555b6001600160a01b03811615611653576001600160a01b038181166000908152600586016020526040902080546001600160a01b031916918416919091179055611671565b6001840180546001600160a01b0319166001600160a01b0384161790555b50506001600160a01b031660009081526003820160205260409020805460ff191690556002018054600019019055565b6001600160a01b038216600090815260038401602052604090205460ff166116f4576040805162461bcd60e51b81526020600482015260016024820152600160fd1b604482015290519081900360640190fd5b6001600160a01b03808316600090815260058501602090815260408083205460048801909252909120549082169116811561175e576001600160a01b038281166000908152600487016020526040902080546001600160a01b031916918516919091179055611778565b84546001600160a01b0319166001600160a01b0384161785555b6001600160a01b038116156117bc576001600160a01b038181166000908152600587016020526040902080546001600160a01b0319169185169190911790556117da565b6001850180546001600160a01b0319166001600160a01b0385161790555b6001600160a01b039283166000908152600586016020908152604080832080549587166001600160a01b031996871617905560048801825280832080549487169490951693909317909355939092168352600390930190925220805460ff19169055565b60018201546110b090839083906001600160a01b03166001600160a01b038216600090815260038401602052604090205460ff16156118c4576040805162461bcd60e51b815260206004820181905260248201527f556e61626c6520746f20636f6e7461696e20646f75626c6520656c656d656e74604482015290519081900360640190fd5b82546001600160a01b03166118ff576001830180546001600160a01b0384166001600160a01b03199182168117909255845416178355611a26565b6001600160a01b038116600090815260038401602052604090205460ff16611952576040805162461bcd60e51b81526020600482015260016024820152600160fd1b604482015290519081900360640190fd5b6001600160a01b0380821660009081526004850160205260409020541680156119aa576001600160a01b038181166000908152600586016020526040902080546001600160a01b0319169185169190911790556119c8565b6001840180546001600160a01b0319166001600160a01b0385161790555b6001600160a01b03808316600081815260048701602081815260408084208054878b166001600160a01b0319918216811790925590855260058b01835281852080548216909617909555919052902080549390921692169190911790555b506001600160a01b031660009081526003820160205260409020805460ff19166001908117909155600290910180549091019055565b828054600181600116156101000203166002900490600052602060002090601f016020900481019282601f10611a9d57805160ff1916838001178555611aca565b82800160010185558215611aca579182015b82811115611aca578251825591602001919060010190611aaf565b50611ad6929150611ada565b5090565b61077a91905b80821115611ad65760008155600101611ae056fe4f776e61626c653a206e6577206f776e657220697320746865207a65726f20616464726573734f776e61626c653a2063616c6c6572206973206e6f7420746865206f776e6572436f6e747261637420696e7374616e63652068617320616c7265616479206265656e20696e697469616c697a6564506f6f6c3a206d6f64756c6520616464726573732063616e206e6f74206265207265706c61636564a265627a7a72315820eb118f39cb5712a7ed4e4ed9c965c0fa6cad51ddca62966184eb9db9b7b2e46464736f6c634300050c0032",
  "source": "pragma solidity ^0.5.12;\n\nimport \"../common/Base.sol\";\nimport \"../interfaces/core/CoreInterface.sol\";\nimport \"../utils/AddressMap.sol\";\n\ncontract Pool is Base, CoreInterface {\n\n    /* Short description */\n    string  public name;\n    string  public description;\n    address public founder;\n\n    /* Modules map */\n    AddressMap.Data modules;\n\n    using AddressList for AddressList.Data;\n    using AddressMap for AddressMap.Data;\n\n    /* Module constant mapping */\n    mapping(bytes32 => bool) is_constant;\n\n    /**\n     * @dev Contract ABI storage\n     *      the contract interface contains source URI\n     */\n    mapping(address => string) public abiOf;\n    \n    function initialize()public initializer {\n        Base.initialize();\n        founder = _msgSender();\n    }\n\n    function setMetadata(string memory _name, string  memory _description) public {\n        name = _name;\n        description = _description;\n    }\n      \n    /**\n     * @dev Set new module for given name\n     * @param _name infrastructure node name\n     * @param _module infrastructure node address\n     * @param _constant have a `true` value when you create permanent name of module\n     */\n    function set(string memory _name, address _module, bool _constant) public onlyOwner {\n        \n        require(!isConstant(_name), \"Pool: module address can not be replaced\");\n\n        // Notify\n        if (modules.get(_name) != ZERO_ADDRESS)\n            emit ModuleReplaced(_name, modules.get(_name), _module);\n        else\n            emit ModuleAdded(_name, _module);\n \n        // Set module in the map\n        modules.set(_name, _module);\n\n        // Register constant flag \n        is_constant[keccak256(abi.encodePacked(_name))] = _constant;\n    }\n\n     /**\n     * @dev Remove module by name\n     * @param _name module name\n     */\n    function remove(string memory _name)  public onlyOwner {\n\n        require(isConstant(_name), \"Pool: module can not be removed\");\n\n        // Notify\n        emit ModuleRemoved(_name, modules.get(_name));\n\n        // Remove module\n        modules.remove(_name);\n    }\n\n    /**\n     * @dev Fast module exist check\n     * @param _module is a module address\n     * @return `true` wnen core contains module\n     */\n    function contains(address _module) public view returns (bool)\n    {\n        return modules.items.contains(_module);\n    }\n\n    /**\n     * @dev Modules counter\n     * @return count of modules in core\n     */\n    function size() public view returns (uint)\n    {\n        return modules.size();\n    }\n\n    /**\n     * @dev Check for module have permanent name\n     * @param _name is a module name\n     * @return `true` when module have permanent name\n     */\n    function isConstant(string memory _name) public view returns (bool)\n    {\n        return is_constant[keccak256(abi.encodePacked(_name))];\n    }\n\n    /**\n     * @dev Get module by name\n     * @param _name is module name\n     * @return module address\n     */\n    function get(string memory _name) public view returns (address)\n    {\n        return modules.get(_name);\n    }\n\n    /**\n     * @dev Get module name by address\n     * @param _module is a module address\n     * @return module name\n     */\n    function getName(address _module) public view returns (string memory)\n    {\n        return modules.keyOf[_module];\n    }\n\n    /**\n     * @dev Get first module\n     * @return first address\n     */\n    function first() public view returns (address)\n    {\n        return modules.items.head;\n    }\n\n    /**\n     * @dev Get next module\n     * @param _current is an current address\n     * @return next address\n     */\n    function next(address _current) public view returns (address)\n    {\n        return modules.items.next(_current);\n    }\n\n}\n",
  "sourcePath": "../contracts/core/Pool.sol",
  "compiler": {
    "name": "solc",
    "version": "0.5.12+commit.7709ece9.Emscripten.clang"
  },
  "schemaVersion": "3.0.16",
  "updatedAt": "2020-01-10T11:12:15.779Z",
  "devdoc": {
    "methods": {
      "contains(address)": {
        "details": "Fast module exist check",
        "params": {
          "_module": "is a module address"
        },
        "return": "`true` wnen core contains module"
      },
      "first()": {
        "details": "Get first module",
        "return": "first address"
      },
      "get(string)": {
        "details": "Get module by name",
        "params": {
          "_name": "is module name"
        },
        "return": "module address"
      },
      "getName(address)": {
        "details": "Get module name by address",
        "params": {
          "_module": "is a module address"
        },
        "return": "module name"
      },
      "initialize(address)": {
        "details": "Initializes the contract setting the deployer as the initial owner."
      },
      "isConstant(string)": {
        "details": "Check for module have permanent name",
        "params": {
          "_name": "is a module name"
        },
        "return": "`true` when module have permanent name"
      },
      "isOwner()": {
        "details": "Returns true if the caller is the current owner."
      },
      "next(address)": {
        "details": "Get next module",
        "params": {
          "_current": "is an current address"
        },
        "return": "next address"
      },
      "owner()": {
        "details": "Returns the address of the current owner."
      },
      "remove(string)": {
        "details": "Remove module by name",
        "params": {
          "_name": "module name"
        }
      },
      "renounceOwnership()": {
        "details": "Leaves the contract without owner. It will not be possible to call `onlyOwner` functions anymore. Can only be called by the current owner.     * > Note: Renouncing ownership will leave the contract without an owner, thereby removing any functionality that is only available to the owner."
      },
      "set(string,address,bool)": {
        "details": "Set new module for given name",
        "params": {
          "_constant": "have a `true` value when you create permanent name of module",
          "_module": "infrastructure node address",
          "_name": "infrastructure node name"
        }
      },
      "size()": {
        "details": "Modules counter",
        "return": "count of modules in core"
      },
      "transferOwnership(address)": {
        "details": "Transfers ownership of the contract to a new account (`newOwner`). Can only be called by the current owner."
      }
    }
  },
  "userdoc": {
    "methods": {}
  }
}