{
  "contractName": "PToken",
  "abi": [
    {
      "anonymous": false,
      "inputs": [
        {
          "indexed": true,
          "internalType": "address",
          "name": "owner",
          "type": "address"
        },
        {
          "indexed": true,
          "internalType": "address",
          "name": "spender",
          "type": "address"
        },
        {
          "indexed": false,
          "internalType": "uint256",
          "name": "value",
          "type": "uint256"
        }
      ],
      "name": "Approval",
      "type": "event"
    },
    {
      "anonymous": false,
      "inputs": [
        {
          "indexed": true,
          "internalType": "address",
          "name": "account",
          "type": "address"
        }
      ],
      "name": "MinterAdded",
      "type": "event"
    },
    {
      "anonymous": false,
      "inputs": [
        {
          "indexed": true,
          "internalType": "address",
          "name": "account",
          "type": "address"
        }
      ],
      "name": "MinterRemoved",
      "type": "event"
    },
    {
      "anonymous": false,
      "inputs": [
        {
          "indexed": true,
          "internalType": "address",
          "name": "previousOwner",
          "type": "address"
        },
        {
          "indexed": true,
          "internalType": "address",
          "name": "newOwner",
          "type": "address"
        }
      ],
      "name": "OwnershipTransferred",
      "type": "event"
    },
    {
      "anonymous": false,
      "inputs": [
        {
          "indexed": true,
          "internalType": "address",
          "name": "from",
          "type": "address"
        },
        {
          "indexed": true,
          "internalType": "address",
          "name": "to",
          "type": "address"
        },
        {
          "indexed": false,
          "internalType": "uint256",
          "name": "value",
          "type": "uint256"
        }
      ],
      "name": "Transfer",
      "type": "event"
    },
    {
      "constant": false,
      "inputs": [
        {
          "internalType": "address",
          "name": "account",
          "type": "address"
        }
      ],
      "name": "addMinter",
      "outputs": [],
      "payable": false,
      "stateMutability": "nonpayable",
      "type": "function"
    },
    {
      "constant": true,
      "inputs": [
        {
          "internalType": "address",
          "name": "owner",
          "type": "address"
        },
        {
          "internalType": "address",
          "name": "spender",
          "type": "address"
        }
      ],
      "name": "allowance",
      "outputs": [
        {
          "internalType": "uint256",
          "name": "",
          "type": "uint256"
        }
      ],
      "payable": false,
      "stateMutability": "view",
      "type": "function"
    },
    {
      "constant": false,
      "inputs": [
        {
          "internalType": "address",
          "name": "spender",
          "type": "address"
        },
        {
          "internalType": "uint256",
          "name": "value",
          "type": "uint256"
        }
      ],
      "name": "approve",
      "outputs": [
        {
          "internalType": "bool",
          "name": "",
          "type": "bool"
        }
      ],
      "payable": false,
      "stateMutability": "nonpayable",
      "type": "function"
    },
    {
      "constant": true,
      "inputs": [
        {
          "internalType": "address",
          "name": "account",
          "type": "address"
        }
      ],
      "name": "balanceOf",
      "outputs": [
        {
          "internalType": "uint256",
          "name": "",
          "type": "uint256"
        }
      ],
      "payable": false,
      "stateMutability": "view",
      "type": "function"
    },
    {
      "constant": false,
      "inputs": [
        {
          "internalType": "uint256",
          "name": "amount",
          "type": "uint256"
        }
      ],
      "name": "burn",
      "outputs": [],
      "payable": false,
      "stateMutability": "nonpayable",
      "type": "function"
    },
    {
      "constant": false,
      "inputs": [
        {
          "internalType": "address",
          "name": "account",
          "type": "address"
        },
        {
          "internalType": "uint256",
          "name": "amount",
          "type": "uint256"
        }
      ],
      "name": "burnFrom",
      "outputs": [],
      "payable": false,
      "stateMutability": "nonpayable",
      "type": "function"
    },
    {
      "constant": true,
      "inputs": [],
      "name": "decimals",
      "outputs": [
        {
          "internalType": "uint8",
          "name": "",
          "type": "uint8"
        }
      ],
      "payable": false,
      "stateMutability": "view",
      "type": "function"
    },
    {
      "constant": false,
      "inputs": [
        {
          "internalType": "address",
          "name": "spender",
          "type": "address"
        },
        {
          "internalType": "uint256",
          "name": "subtractedValue",
          "type": "uint256"
        }
      ],
      "name": "decreaseAllowance",
      "outputs": [
        {
          "internalType": "bool",
          "name": "",
          "type": "bool"
        }
      ],
      "payable": false,
      "stateMutability": "nonpayable",
      "type": "function"
    },
    {
      "constant": false,
      "inputs": [
        {
          "internalType": "address",
          "name": "spender",
          "type": "address"
        },
        {
          "internalType": "uint256",
          "name": "addedValue",
          "type": "uint256"
        }
      ],
      "name": "increaseAllowance",
      "outputs": [
        {
          "internalType": "bool",
          "name": "",
          "type": "bool"
        }
      ],
      "payable": false,
      "stateMutability": "nonpayable",
      "type": "function"
    },
    {
      "constant": true,
      "inputs": [
        {
          "internalType": "address",
          "name": "account",
          "type": "address"
        }
      ],
      "name": "isMinter",
      "outputs": [
        {
          "internalType": "bool",
          "name": "",
          "type": "bool"
        }
      ],
      "payable": false,
      "stateMutability": "view",
      "type": "function"
    },
    {
      "constant": true,
      "inputs": [],
      "name": "isOwner",
      "outputs": [
        {
          "internalType": "bool",
          "name": "",
          "type": "bool"
        }
      ],
      "payable": false,
      "stateMutability": "view",
      "type": "function"
    },
    {
      "constant": false,
      "inputs": [
        {
          "internalType": "address",
          "name": "account",
          "type": "address"
        },
        {
          "internalType": "uint256",
          "name": "amount",
          "type": "uint256"
        }
      ],
      "name": "mint",
      "outputs": [
        {
          "internalType": "bool",
          "name": "",
          "type": "bool"
        }
      ],
      "payable": false,
      "stateMutability": "nonpayable",
      "type": "function"
    },
    {
      "constant": true,
      "inputs": [],
      "name": "name",
      "outputs": [
        {
          "internalType": "string",
          "name": "",
          "type": "string"
        }
      ],
      "payable": false,
      "stateMutability": "view",
      "type": "function"
    },
    {
      "constant": true,
      "inputs": [],
      "name": "owner",
      "outputs": [
        {
          "internalType": "address",
          "name": "",
          "type": "address"
        }
      ],
      "payable": false,
      "stateMutability": "view",
      "type": "function"
    },
    {
      "constant": false,
      "inputs": [],
      "name": "renounceMinter",
      "outputs": [],
      "payable": false,
      "stateMutability": "nonpayable",
      "type": "function"
    },
    {
      "constant": false,
      "inputs": [],
      "name": "renounceOwnership",
      "outputs": [],
      "payable": false,
      "stateMutability": "nonpayable",
      "type": "function"
    },
    {
      "constant": true,
      "inputs": [],
      "name": "symbol",
      "outputs": [
        {
          "internalType": "string",
          "name": "",
          "type": "string"
        }
      ],
      "payable": false,
      "stateMutability": "view",
      "type": "function"
    },
    {
      "constant": true,
      "inputs": [],
      "name": "totalSupply",
      "outputs": [
        {
          "internalType": "uint256",
          "name": "",
          "type": "uint256"
        }
      ],
      "payable": false,
      "stateMutability": "view",
      "type": "function"
    },
    {
      "constant": false,
      "inputs": [
        {
          "internalType": "address",
          "name": "to",
          "type": "address"
        },
        {
          "internalType": "uint256",
          "name": "value",
          "type": "uint256"
        }
      ],
      "name": "transfer",
      "outputs": [
        {
          "internalType": "bool",
          "name": "",
          "type": "bool"
        }
      ],
      "payable": false,
      "stateMutability": "nonpayable",
      "type": "function"
    },
    {
      "constant": false,
      "inputs": [
        {
          "internalType": "address",
          "name": "from",
          "type": "address"
        },
        {
          "internalType": "address",
          "name": "to",
          "type": "address"
        },
        {
          "internalType": "uint256",
          "name": "value",
          "type": "uint256"
        }
      ],
      "name": "transferFrom",
      "outputs": [
        {
          "internalType": "bool",
          "name": "",
          "type": "bool"
        }
      ],
      "payable": false,
      "stateMutability": "nonpayable",
      "type": "function"
    },
    {
      "constant": false,
      "inputs": [
        {
          "internalType": "address",
          "name": "newOwner",
          "type": "address"
        }
      ],
      "name": "transferOwnership",
      "outputs": [],
      "payable": false,
      "stateMutability": "nonpayable",
      "type": "function"
    },
    {
      "constant": false,
      "inputs": [
        {
          "internalType": "string",
          "name": "name",
          "type": "string"
        },
        {
          "internalType": "string",
          "name": "symbol",
          "type": "string"
        },
        {
          "internalType": "uint8",
          "name": "decimals",
          "type": "uint8"
        }
      ],
      "name": "initialize",
      "outputs": [],
      "payable": false,
      "stateMutability": "nonpayable",
      "type": "function"
    },
    {
      "constant": false,
      "inputs": [],
      "name": "initialize",
      "outputs": [],
      "payable": false,
      "stateMutability": "nonpayable",
      "type": "function"
    },
    {
      "constant": false,
      "inputs": [
        {
          "internalType": "address",
          "name": "sender",
          "type": "address"
        }
      ],
      "name": "initialize",
      "outputs": [],
      "payable": false,
      "stateMutability": "nonpayable",
      "type": "function"
    }
  ],
  "bytecode": "0x608060405261193e806100136000396000f3fe608060405234801561001057600080fd5b50600436106101585760003560e01c80638129fc1c116100c3578063a457c2d71161007c578063a457c2d7146104f5578063a9059cbb14610521578063aa271e1a1461054d578063c4d66de814610573578063dd62ed3e14610599578063f2fde38b146105c757610158565b80638129fc1c1461048b5780638da5cb5b146104935780638f32d59b146104b757806395d89b41146104bf578063983b2d56146104c757806398650275146104ed57610158565b8063395093511161011557806339509351146103bc57806340c10f19146103e857806342966c681461041457806370a0823114610431578063715018a61461045757806379cc67901461045f57610158565b806306fdde031461015d578063095ea7b3146101da5780631624f6c61461021a57806318160ddd1461034e57806323b872dd14610368578063313ce5671461039e575b600080fd5b6101656105ed565b6040805160208082528351818301528351919283929083019185019080838360005b8381101561019f578181015183820152602001610187565b50505050905090810190601f1680156101cc5780820380516001836020036101000a031916815260200191505b509250505060405180910390f35b610206600480360360408110156101f057600080fd5b506001600160a01b038135169060200135610684565b604080519115158252519081900360200190f35b61034c6004803603606081101561023057600080fd5b81019060208101813564010000000081111561024b57600080fd5b82018360208201111561025d57600080fd5b8035906020019184600183028401116401000000008311171561027f57600080fd5b91908080601f01602080910402602001604051908101604052809392919081815260200183838082843760009201919091525092959493602081019350359150506401000000008111156102d257600080fd5b8201836020820111156102e457600080fd5b8035906020019184600183028401116401000000008311171561030657600080fd5b91908080601f0160208091040260200160405190810160405280939291908181526020018383808284376000920191909152509295505050903560ff1691506106a19050565b005b61035661077d565b60408051918252519081900360200190f35b6102066004803603606081101561037e57600080fd5b506001600160a01b03813581169160208101359091169060400135610783565b6103a66107f8565b6040805160ff9092168252519081900360200190f35b610206600480360360408110156103d257600080fd5b506001600160a01b038135169060200135610801565b610206600480360360408110156103fe57600080fd5b506001600160a01b038135169060200135610855565b61034c6004803603602081101561042a57600080fd5b50356108ac565b6103566004803603602081101561044757600080fd5b50356001600160a01b03166108c0565b61034c6108db565b61034c6004803603604081101561047557600080fd5b506001600160a01b03813516906020013561097e565b61034c61098c565b61049b610a98565b604080516001600160a01b039092168252519081900360200190f35b610206610aa7565b610165610acd565b61034c600480360360208110156104dd57600080fd5b50356001600160a01b0316610b2e565b61034c610b7d565b6102066004803603604081101561050b57600080fd5b506001600160a01b038135169060200135610b8f565b6102066004803603604081101561053757600080fd5b506001600160a01b038135169060200135610be3565b6102066004803603602081101561056357600080fd5b50356001600160a01b0316610bf7565b61034c6004803603602081101561058957600080fd5b50356001600160a01b0316610c10565b610356600480360360408110156105af57600080fd5b506001600160a01b0381358116916020013516610cbb565b61034c600480360360208110156105dd57600080fd5b50356001600160a01b0316610ce6565b60668054604080516020601f60026000196101006001881615020190951694909404938401819004810282018101909252828152606093909290918301828280156106795780601f1061064e57610100808354040283529160200191610679565b820191906000526020600020905b81548152906001019060200180831161065c57829003601f168201915b505050505090505b90565b6000610698610691610d48565b8484610d4c565b50600192915050565b600054610100900460ff16806106ba57506106ba610e38565b806106c8575060005460ff16155b6107035760405162461bcd60e51b815260040180806020018281038252602e815260200180611872602e913960400191505060405180910390fd5b600054610100900460ff1615801561072e576000805460ff1961ff0019909116610100171660011790555b83516107419060669060208701906116fb565b5082516107559060679060208601906116fb565b506068805460ff191660ff84161790558015610777576000805461ff00191690555b50505050565b609d5490565b6000610790848484610e3e565b6107ee8461079c610d48565b6001600160a01b0387166000908152609c602052604081206107e9918791906107c3610d48565b6001600160a01b031681526020810191909152604001600020549063ffffffff610f8216565b610d4c565b5060019392505050565b60685460ff1690565b600061069861080e610d48565b846107e985609c600061081f610d48565b6001600160a01b03908116825260208083019390935260409182016000908120918c16815292529020549063ffffffff610fdf16565b6000610867610862610d48565b610bf7565b6108a25760405162461bcd60e51b81526004018080602001828103825260308152602001806117ff6030913960400191505060405180910390fd5b6106988383611040565b6108bd6108b7610d48565b82611132565b50565b6001600160a01b03166000908152609b602052604090205490565b6108e3610aa7565b610934576040805162461bcd60e51b815260206004820181905260248201527f4f776e61626c653a2063616c6c6572206973206e6f7420746865206f776e6572604482015290519081900360640190fd5b6033546040516000916001600160a01b0316907f8be0079c531659141344cd1fd0a4f28419497f9722a3daafe3b4186f6b6457e0908390a3603380546001600160a01b0319169055565b610988828261120d565b5050565b600054610100900460ff16806109a557506109a5610e38565b806109b3575060005460ff16155b6109ee5760405162461bcd60e51b815260040180806020018281038252602e815260200180611872602e913960400191505060405180910390fd5b600054610100900460ff16158015610a19576000805460ff1961ff0019909116610100171660011790555b610a2161124a565b610a746040518060400160405280601481526020017320b5b937b837b634b9902837b7b6102a37b5b2b760611b8152506040518060400160405280600381526020016250544b60e81b81525060126106a1565b610a84610a7f610d48565b610c10565b80156108bd576000805461ff001916905550565b6033546001600160a01b031690565b6033546000906001600160a01b0316610abe610d48565b6001600160a01b031614905090565b60678054604080516020601f60026000196101006001881615020190951694909404938401819004810282018101909252828152606093909290918301828280156106795780601f1061064e57610100808354040283529160200191610679565b610b39610862610d48565b610b745760405162461bcd60e51b81526004018080602001828103825260308152602001806117ff6030913960400191505060405180910390fd5b6108bd816112e7565b610b8d610b88610d48565b61132f565b565b6000610698610b9c610d48565b846107e985609c6000610bad610d48565b6001600160a01b03908116825260208083019390935260409182016000908120918c16815292529020549063ffffffff610f8216565b6000610698610bf0610d48565b8484610e3e565b6000610c0a60d08363ffffffff61137716565b92915050565b600054610100900460ff1680610c295750610c29610e38565b80610c37575060005460ff16155b610c725760405162461bcd60e51b815260040180806020018281038252602e815260200180611872602e913960400191505060405180910390fd5b600054610100900460ff16158015610c9d576000805460ff1961ff0019909116610100171660011790555b610ca6826113de565b8015610988576000805461ff00191690555050565b6001600160a01b039182166000908152609c6020908152604080832093909416825291909152205490565b610cee610aa7565b610d3f576040805162461bcd60e51b815260206004820181905260248201527f4f776e61626c653a2063616c6c6572206973206e6f7420746865206f776e6572604482015290519081900360640190fd5b6108bd81611481565b3390565b6001600160a01b038316610d915760405162461bcd60e51b81526004018080602001828103825260248152602001806118e66024913960400191505060405180910390fd5b6001600160a01b038216610dd65760405162461bcd60e51b81526004018080602001828103825260228152602001806117dd6022913960400191505060405180910390fd5b6001600160a01b038084166000818152609c6020908152604080832094871680845294825291829020859055815185815291517f8c5be1e5ebec7d5bd14f71427d1e84f3dd0314c0f7b2291e5b200ac8c7c3b9259281900390910190a3505050565b303b1590565b6001600160a01b038316610e835760405162461bcd60e51b81526004018080602001828103825260258152602001806118c16025913960400191505060405180910390fd5b6001600160a01b038216610ec85760405162461bcd60e51b81526004018080602001828103825260238152602001806117946023913960400191505060405180910390fd5b6001600160a01b0383166000908152609b6020526040902054610ef1908263ffffffff610f8216565b6001600160a01b038085166000908152609b60205260408082209390935590841681522054610f26908263ffffffff610fdf16565b6001600160a01b038084166000818152609b602090815260409182902094909455805185815290519193928716927fddf252ad1be2c89b69c2b068fc378daa952ba7f163c4a11628f55a4df523b3ef92918290030190a3505050565b600082821115610fd9576040805162461bcd60e51b815260206004820152601e60248201527f536166654d6174683a207375627472616374696f6e206f766572666c6f770000604482015290519081900360640190fd5b50900390565b600082820183811015611039576040805162461bcd60e51b815260206004820152601b60248201527f536166654d6174683a206164646974696f6e206f766572666c6f770000000000604482015290519081900360640190fd5b9392505050565b6001600160a01b03821661109b576040805162461bcd60e51b815260206004820152601f60248201527f45524332303a206d696e7420746f20746865207a65726f206164647265737300604482015290519081900360640190fd5b609d546110ae908263ffffffff610fdf16565b609d556001600160a01b0382166000908152609b60205260409020546110da908263ffffffff610fdf16565b6001600160a01b0383166000818152609b602090815260408083209490945583518581529351929391927fddf252ad1be2c89b69c2b068fc378daa952ba7f163c4a11628f55a4df523b3ef9281900390910190a35050565b6001600160a01b0382166111775760405162461bcd60e51b81526004018080602001828103825260218152602001806118a06021913960400191505060405180910390fd5b609d5461118a908263ffffffff610f8216565b609d556001600160a01b0382166000908152609b60205260409020546111b6908263ffffffff610f8216565b6001600160a01b0383166000818152609b60209081526040808320949094558351858152935191937fddf252ad1be2c89b69c2b068fc378daa952ba7f163c4a11628f55a4df523b3ef929081900390910190a35050565b6112178282611132565b61098882611223610d48565b6001600160a01b0385166000908152609c602052604081206107e9918691906107c3610d48565b600054610100900460ff16806112635750611263610e38565b80611271575060005460ff16155b6112ac5760405162461bcd60e51b815260040180806020018281038252602e815260200180611872602e913960400191505060405180910390fd5b600054610100900460ff161580156112d7576000805460ff1961ff0019909116610100171660011790555b610a846112e2610d48565b611522565b6112f860d08263ffffffff61161316565b6040516001600160a01b038216907f6ae172837ea30b801fbfcdd4108aa1d5bf8ff775444fd70256b44e6bf3dfc3f690600090a250565b61134060d08263ffffffff61169416565b6040516001600160a01b038216907fe94479a9f7e1952cc78f2d6baab678adc1b772d936c6583def489e524cb6669290600090a250565b60006001600160a01b0382166113be5760405162461bcd60e51b81526004018080602001828103825260228152602001806118506022913960400191505060405180910390fd5b506001600160a01b03166000908152602091909152604090205460ff1690565b600054610100900460ff16806113f757506113f7610e38565b80611405575060005460ff16155b6114405760405162461bcd60e51b815260040180806020018281038252602e815260200180611872602e913960400191505060405180910390fd5b600054610100900460ff1615801561146b576000805460ff1961ff0019909116610100171660011790555b61147482610bf7565b610ca657610ca6826112e7565b6001600160a01b0381166114c65760405162461bcd60e51b81526004018080602001828103825260268152602001806117b76026913960400191505060405180910390fd5b6033546040516001600160a01b038084169216907f8be0079c531659141344cd1fd0a4f28419497f9722a3daafe3b4186f6b6457e090600090a3603380546001600160a01b0319166001600160a01b0392909216919091179055565b600054610100900460ff168061153b575061153b610e38565b80611549575060005460ff16155b6115845760405162461bcd60e51b815260040180806020018281038252602e815260200180611872602e913960400191505060405180910390fd5b600054610100900460ff161580156115af576000805460ff1961ff0019909116610100171660011790555b603380546001600160a01b0319166001600160a01b0384811691909117918290556040519116906000907f8be0079c531659141344cd1fd0a4f28419497f9722a3daafe3b4186f6b6457e0908290a38015610988576000805461ff00191690555050565b61161d8282611377565b1561166f576040805162461bcd60e51b815260206004820152601f60248201527f526f6c65733a206163636f756e7420616c72656164792068617320726f6c6500604482015290519081900360640190fd5b6001600160a01b0316600090815260209190915260409020805460ff19166001179055565b61169e8282611377565b6116d95760405162461bcd60e51b815260040180806020018281038252602181526020018061182f6021913960400191505060405180910390fd5b6001600160a01b0316600090815260209190915260409020805460ff19169055565b828054600181600116156101000203166002900490600052602060002090601f016020900481019282601f1061173c57805160ff1916838001178555611769565b82800160010185558215611769579182015b8281111561176957825182559160200191906001019061174e565b50611775929150611779565b5090565b61068191905b80821115611775576000815560010161177f56fe45524332303a207472616e7366657220746f20746865207a65726f20616464726573734f776e61626c653a206e6577206f776e657220697320746865207a65726f206164647265737345524332303a20617070726f766520746f20746865207a65726f20616464726573734d696e746572526f6c653a2063616c6c657220646f6573206e6f74206861766520746865204d696e74657220726f6c65526f6c65733a206163636f756e7420646f6573206e6f74206861766520726f6c65526f6c65733a206163636f756e7420697320746865207a65726f2061646472657373436f6e747261637420696e7374616e63652068617320616c7265616479206265656e20696e697469616c697a656445524332303a206275726e2066726f6d20746865207a65726f206164647265737345524332303a207472616e736665722066726f6d20746865207a65726f206164647265737345524332303a20617070726f76652066726f6d20746865207a65726f2061646472657373a265627a7a723158203d727cc7918fa9419544c2c85d9f5fdc8e66d107b42047c0d91d23914871ee7464736f6c634300050c0032",
  "source": "pragma solidity ^0.5.12;\n\nimport \"@openzeppelin/contracts-ethereum-package/contracts/token/ERC20/ERC20Detailed.sol\";\nimport \"@openzeppelin/contracts-ethereum-package/contracts/token/ERC20/ERC20Mintable.sol\";\nimport \"@openzeppelin/contracts-ethereum-package/contracts/token/ERC20/ERC20Burnable.sol\";\nimport \"../../common/Base.sol\";\n\n/**\n * @notice Implementation of Akropolis Pool Token\n */\ncontract PToken is Base, ERC20Detailed, ERC20Mintable, ERC20Burnable {\n\n    function initialize() public initializer {\n        Base.initialize();\n        ERC20Detailed.initialize(\"Akropolis Pool Token\", \"PTK\", 18);\n        ERC20Mintable.initialize(_msgSender());\n    }\n\n}\n\n",
  "sourcePath": "/home/aleksrow/Documents/bch/akropolisOS/contracts/token/pTokens/PToken.sol",
  "compiler": {
    "name": "solc",
    "version": "0.5.12+commit.7709ece9.Emscripten.clang"
  },
  "schemaVersion": "3.0.16",
  "updatedAt": "2020-01-21T09:57:34.620Z",
  "devdoc": {
    "methods": {
      "allowance(address,address)": {
        "details": "See `IERC20.allowance`."
      },
      "approve(address,uint256)": {
        "details": "See `IERC20.approve`.     * Requirements:     * - `spender` cannot be the zero address."
      },
      "balanceOf(address)": {
        "details": "See `IERC20.balanceOf`."
      },
      "burn(uint256)": {
        "details": "Destoys `amount` tokens from the caller.     * See `ERC20._burn`."
      },
      "burnFrom(address,uint256)": {
        "details": "See `ERC20._burnFrom`."
      },
      "decimals()": {
        "details": "Returns the number of decimals used to get its user representation. For example, if `decimals` equals `2`, a balance of `505` tokens should be displayed to a user as `5,05` (`505 / 10 ** 2`).     * Tokens usually opt for a value of 18, imitating the relationship between Ether and Wei.     * > Note that this information is only used for _display_ purposes: it in no way affects any of the arithmetic of the contract, including `IERC20.balanceOf` and `IERC20.transfer`."
      },
      "decreaseAllowance(address,uint256)": {
        "details": "Atomically decreases the allowance granted to `spender` by the caller.     * This is an alternative to `approve` that can be used as a mitigation for problems described in `IERC20.approve`.     * Emits an `Approval` event indicating the updated allowance.     * Requirements:     * - `spender` cannot be the zero address. - `spender` must have allowance for the caller of at least `subtractedValue`."
      },
      "increaseAllowance(address,uint256)": {
        "details": "Atomically increases the allowance granted to `spender` by the caller.     * This is an alternative to `approve` that can be used as a mitigation for problems described in `IERC20.approve`.     * Emits an `Approval` event indicating the updated allowance.     * Requirements:     * - `spender` cannot be the zero address."
      },
      "initialize(string,string,uint8)": {
        "details": "Sets the values for `name`, `symbol`, and `decimals`. All three of these values are immutable: they can only be set once during construction."
      },
      "isOwner()": {
        "details": "Returns true if the caller is the current owner."
      },
      "mint(address,uint256)": {
        "details": "See `ERC20._mint`.     * Requirements:     * - the caller must have the `MinterRole`."
      },
      "name()": {
        "details": "Returns the name of the token."
      },
      "owner()": {
        "details": "Returns the address of the current owner."
      },
      "renounceOwnership()": {
        "details": "Leaves the contract without owner. It will not be possible to call `onlyOwner` functions anymore. Can only be called by the current owner.     * > Note: Renouncing ownership will leave the contract without an owner, thereby removing any functionality that is only available to the owner."
      },
      "symbol()": {
        "details": "Returns the symbol of the token, usually a shorter version of the name."
      },
      "totalSupply()": {
        "details": "See `IERC20.totalSupply`."
      },
      "transfer(address,uint256)": {
        "details": "See `IERC20.transfer`.     * Requirements:     * - `recipient` cannot be the zero address. - the caller must have a balance of at least `amount`."
      },
      "transferFrom(address,address,uint256)": {
        "details": "See `IERC20.transferFrom`.     * Emits an `Approval` event indicating the updated allowance. This is not required by the EIP. See the note at the beginning of `ERC20`;     * Requirements: - `sender` and `recipient` cannot be the zero address. - `sender` must have a balance of at least `value`. - the caller must have allowance for `sender`'s tokens of at least `amount`."
      },
      "transferOwnership(address)": {
        "details": "Transfers ownership of the contract to a new account (`newOwner`). Can only be called by the current owner."
      }
    }
  },
  "userdoc": {
    "methods": {},
    "notice": "Implementation of Akropolis Pool Token"
  }
}