{
  "contractName": "PToken",
  "abi": [
    {
      "anonymous": false,
      "inputs": [
        {
          "indexed": true,
          "internalType": "address",
          "name": "owner",
          "type": "address"
        },
        {
          "indexed": true,
          "internalType": "address",
          "name": "spender",
          "type": "address"
        },
        {
          "indexed": false,
          "internalType": "uint256",
          "name": "value",
          "type": "uint256"
        }
      ],
      "name": "Approval",
      "type": "event"
    },
    {
      "anonymous": false,
      "inputs": [
        {
          "indexed": false,
          "internalType": "uint256",
          "name": "amount",
          "type": "uint256"
        },
        {
          "indexed": false,
          "internalType": "uint256",
          "name": "totalSupply",
          "type": "uint256"
        }
      ],
      "name": "DistributionCreated",
      "type": "event"
    },
    {
      "anonymous": false,
      "inputs": [
        {
          "indexed": false,
          "internalType": "address",
          "name": "account",
          "type": "address"
        },
        {
          "indexed": false,
          "internalType": "uint256",
          "name": "amount",
          "type": "uint256"
        },
        {
          "indexed": false,
          "internalType": "uint256",
          "name": "startDistribution",
          "type": "uint256"
        },
        {
          "indexed": false,
          "internalType": "uint256",
          "name": "nextDistribution",
          "type": "uint256"
        }
      ],
      "name": "DistributionsClaimed",
      "type": "event"
    },
    {
      "anonymous": false,
      "inputs": [
        {
          "indexed": true,
          "internalType": "address",
          "name": "account",
          "type": "address"
        }
      ],
      "name": "MinterAdded",
      "type": "event"
    },
    {
      "anonymous": false,
      "inputs": [
        {
          "indexed": true,
          "internalType": "address",
          "name": "account",
          "type": "address"
        }
      ],
      "name": "MinterRemoved",
      "type": "event"
    },
    {
      "anonymous": false,
      "inputs": [
        {
          "indexed": true,
          "internalType": "address",
          "name": "previousOwner",
          "type": "address"
        },
        {
          "indexed": true,
          "internalType": "address",
          "name": "newOwner",
          "type": "address"
        }
      ],
      "name": "OwnershipTransferred",
      "type": "event"
    },
    {
      "anonymous": false,
      "inputs": [
        {
          "indexed": true,
          "internalType": "address",
          "name": "from",
          "type": "address"
        },
        {
          "indexed": true,
          "internalType": "address",
          "name": "to",
          "type": "address"
        },
        {
          "indexed": false,
          "internalType": "uint256",
          "name": "value",
          "type": "uint256"
        }
      ],
      "name": "Transfer",
      "type": "event"
    },
    {
      "constant": true,
      "inputs": [],
      "name": "MODULE_CURVE",
      "outputs": [
        {
          "internalType": "string",
          "name": "",
          "type": "string"
        }
      ],
      "payable": false,
      "stateMutability": "view",
      "type": "function"
    },
    {
      "constant": true,
      "inputs": [],
      "name": "MODULE_FUNDS",
      "outputs": [
        {
          "internalType": "string",
          "name": "",
          "type": "string"
        }
      ],
      "payable": false,
      "stateMutability": "view",
      "type": "function"
    },
    {
      "constant": true,
      "inputs": [],
      "name": "MODULE_LIQUIDITY",
      "outputs": [
        {
          "internalType": "string",
          "name": "",
          "type": "string"
        }
      ],
      "payable": false,
      "stateMutability": "view",
      "type": "function"
    },
    {
      "constant": true,
      "inputs": [],
      "name": "MODULE_LOAN",
      "outputs": [
        {
          "internalType": "string",
          "name": "",
          "type": "string"
        }
      ],
      "payable": false,
      "stateMutability": "view",
      "type": "function"
    },
    {
      "constant": true,
      "inputs": [],
      "name": "MODULE_LTOKEN",
      "outputs": [
        {
          "internalType": "string",
          "name": "",
          "type": "string"
        }
      ],
      "payable": false,
      "stateMutability": "view",
      "type": "function"
    },
    {
      "constant": true,
      "inputs": [],
      "name": "MODULE_PTOKEN",
      "outputs": [
        {
          "internalType": "string",
          "name": "",
          "type": "string"
        }
      ],
      "payable": false,
      "stateMutability": "view",
      "type": "function"
    },
    {
      "constant": false,
      "inputs": [
        {
          "internalType": "address",
          "name": "account",
          "type": "address"
        }
      ],
      "name": "addMinter",
      "outputs": [],
      "payable": false,
      "stateMutability": "nonpayable",
      "type": "function"
    },
    {
      "constant": true,
      "inputs": [
        {
          "internalType": "address",
          "name": "owner",
          "type": "address"
        },
        {
          "internalType": "address",
          "name": "spender",
          "type": "address"
        }
      ],
      "name": "allowance",
      "outputs": [
        {
          "internalType": "uint256",
          "name": "",
          "type": "uint256"
        }
      ],
      "payable": false,
      "stateMutability": "view",
      "type": "function"
    },
    {
      "constant": false,
      "inputs": [
        {
          "internalType": "address",
          "name": "spender",
          "type": "address"
        },
        {
          "internalType": "uint256",
          "name": "amount",
          "type": "uint256"
        }
      ],
      "name": "approve",
      "outputs": [
        {
          "internalType": "bool",
          "name": "",
          "type": "bool"
        }
      ],
      "payable": false,
      "stateMutability": "nonpayable",
      "type": "function"
    },
    {
      "constant": true,
      "inputs": [
        {
          "internalType": "address",
          "name": "account",
          "type": "address"
        }
      ],
      "name": "balanceOf",
      "outputs": [
        {
          "internalType": "uint256",
          "name": "",
          "type": "uint256"
        }
      ],
      "payable": false,
      "stateMutability": "view",
      "type": "function"
    },
    {
      "constant": false,
      "inputs": [
        {
          "internalType": "uint256",
          "name": "amount",
          "type": "uint256"
        }
      ],
      "name": "burn",
      "outputs": [],
      "payable": false,
      "stateMutability": "nonpayable",
      "type": "function"
    },
    {
      "constant": false,
      "inputs": [
        {
          "internalType": "address",
          "name": "account",
          "type": "address"
        }
      ],
      "name": "claimDistributions",
      "outputs": [],
      "payable": false,
      "stateMutability": "nonpayable",
      "type": "function"
    },
    {
      "constant": false,
      "inputs": [
        {
          "internalType": "address",
          "name": "account",
          "type": "address"
        },
        {
          "internalType": "uint256",
          "name": "lastDistribution",
          "type": "uint256"
        }
      ],
      "name": "claimDistributions",
      "outputs": [],
      "payable": false,
      "stateMutability": "nonpayable",
      "type": "function"
    },
    {
      "constant": true,
      "inputs": [],
      "name": "decimals",
      "outputs": [
        {
          "internalType": "uint8",
          "name": "",
          "type": "uint8"
        }
      ],
      "payable": false,
      "stateMutability": "view",
      "type": "function"
    },
    {
      "constant": false,
      "inputs": [
        {
          "internalType": "address",
          "name": "spender",
          "type": "address"
        },
        {
          "internalType": "uint256",
          "name": "subtractedValue",
          "type": "uint256"
        }
      ],
      "name": "decreaseAllowance",
      "outputs": [
        {
          "internalType": "bool",
          "name": "",
          "type": "bool"
        }
      ],
      "payable": false,
      "stateMutability": "nonpayable",
      "type": "function"
    },
    {
      "constant": false,
      "inputs": [
        {
          "internalType": "uint256",
          "name": "amount",
          "type": "uint256"
        }
      ],
      "name": "distribute",
      "outputs": [],
      "payable": false,
      "stateMutability": "nonpayable",
      "type": "function"
    },
    {
      "constant": true,
      "inputs": [
        {
          "internalType": "uint256",
          "name": "",
          "type": "uint256"
        }
      ],
      "name": "distributions",
      "outputs": [
        {
          "internalType": "uint256",
          "name": "amount",
          "type": "uint256"
        },
        {
          "internalType": "uint256",
          "name": "totalSupply",
          "type": "uint256"
        }
      ],
      "payable": false,
      "stateMutability": "view",
      "type": "function"
    },
    {
      "constant": true,
      "inputs": [
        {
          "internalType": "address",
          "name": "account",
          "type": "address"
        }
      ],
      "name": "fullBalanceOf",
      "outputs": [
        {
          "internalType": "uint256",
          "name": "",
          "type": "uint256"
        }
      ],
      "payable": false,
      "stateMutability": "view",
      "type": "function"
    },
    {
      "constant": true,
      "inputs": [
        {
          "internalType": "string",
          "name": "module",
          "type": "string"
        }
      ],
      "name": "getModuleAddress",
      "outputs": [
        {
          "internalType": "address",
          "name": "",
          "type": "address"
        }
      ],
      "payable": false,
      "stateMutability": "view",
      "type": "function"
    },
    {
      "constant": false,
      "inputs": [
        {
          "internalType": "address",
          "name": "spender",
          "type": "address"
        },
        {
          "internalType": "uint256",
          "name": "addedValue",
          "type": "uint256"
        }
      ],
      "name": "increaseAllowance",
      "outputs": [
        {
          "internalType": "bool",
          "name": "",
          "type": "bool"
        }
      ],
      "payable": false,
      "stateMutability": "nonpayable",
      "type": "function"
    },
    {
      "constant": true,
      "inputs": [
        {
          "internalType": "address",
          "name": "account",
          "type": "address"
        }
      ],
      "name": "isMinter",
      "outputs": [
        {
          "internalType": "bool",
          "name": "",
          "type": "bool"
        }
      ],
      "payable": false,
      "stateMutability": "view",
      "type": "function"
    },
    {
      "constant": true,
      "inputs": [],
      "name": "isOwner",
      "outputs": [
        {
          "internalType": "bool",
          "name": "",
          "type": "bool"
        }
      ],
      "payable": false,
      "stateMutability": "view",
      "type": "function"
    },
    {
      "constant": false,
      "inputs": [
        {
          "internalType": "address",
          "name": "account",
          "type": "address"
        },
        {
          "internalType": "uint256",
          "name": "amount",
          "type": "uint256"
        }
      ],
      "name": "mint",
      "outputs": [
        {
          "internalType": "bool",
          "name": "",
          "type": "bool"
        }
      ],
      "payable": false,
      "stateMutability": "nonpayable",
      "type": "function"
    },
    {
      "constant": true,
      "inputs": [],
      "name": "name",
      "outputs": [
        {
          "internalType": "string",
          "name": "",
          "type": "string"
        }
      ],
      "payable": false,
      "stateMutability": "view",
      "type": "function"
    },
    {
      "constant": true,
      "inputs": [
        {
          "internalType": "address",
          "name": "",
          "type": "address"
        }
      ],
      "name": "nextDistributions",
      "outputs": [
        {
          "internalType": "uint256",
          "name": "",
          "type": "uint256"
        }
      ],
      "payable": false,
      "stateMutability": "view",
      "type": "function"
    },
    {
      "constant": true,
      "inputs": [],
      "name": "owner",
      "outputs": [
        {
          "internalType": "address",
          "name": "",
          "type": "address"
        }
      ],
      "payable": false,
      "stateMutability": "view",
      "type": "function"
    },
    {
      "constant": true,
      "inputs": [],
      "name": "pool",
      "outputs": [
        {
          "internalType": "address",
          "name": "",
          "type": "address"
        }
      ],
      "payable": false,
      "stateMutability": "view",
      "type": "function"
    },
    {
      "constant": false,
      "inputs": [],
      "name": "renounceMinter",
      "outputs": [],
      "payable": false,
      "stateMutability": "nonpayable",
      "type": "function"
    },
    {
      "constant": false,
      "inputs": [],
      "name": "renounceOwnership",
      "outputs": [],
      "payable": false,
      "stateMutability": "nonpayable",
      "type": "function"
    },
    {
      "constant": false,
      "inputs": [
        {
          "internalType": "address",
          "name": "_pool",
          "type": "address"
        }
      ],
      "name": "setPool",
      "outputs": [],
      "payable": false,
      "stateMutability": "nonpayable",
      "type": "function"
    },
    {
      "constant": true,
      "inputs": [],
      "name": "symbol",
      "outputs": [
        {
          "internalType": "string",
          "name": "",
          "type": "string"
        }
      ],
      "payable": false,
      "stateMutability": "view",
      "type": "function"
    },
    {
      "constant": true,
      "inputs": [],
      "name": "totalSupply",
      "outputs": [
        {
          "internalType": "uint256",
          "name": "",
          "type": "uint256"
        }
      ],
      "payable": false,
      "stateMutability": "view",
      "type": "function"
    },
    {
      "constant": false,
      "inputs": [
        {
          "internalType": "address",
          "name": "newOwner",
          "type": "address"
        }
      ],
      "name": "transferOwnership",
      "outputs": [],
      "payable": false,
      "stateMutability": "nonpayable",
      "type": "function"
    },
    {
      "constant": false,
      "inputs": [
        {
          "internalType": "string",
          "name": "name",
          "type": "string"
        },
        {
          "internalType": "string",
          "name": "symbol",
          "type": "string"
        },
        {
          "internalType": "uint8",
          "name": "decimals",
          "type": "uint8"
        }
      ],
      "name": "initialize",
      "outputs": [],
      "payable": false,
      "stateMutability": "nonpayable",
      "type": "function"
    },
    {
      "constant": false,
      "inputs": [],
      "name": "initialize",
      "outputs": [],
      "payable": false,
      "stateMutability": "nonpayable",
      "type": "function"
    },
    {
      "constant": false,
      "inputs": [
        {
          "internalType": "address",
          "name": "_pool",
          "type": "address"
        }
      ],
      "name": "initialize",
      "outputs": [],
      "payable": false,
      "stateMutability": "nonpayable",
      "type": "function"
    },
    {
      "constant": false,
      "inputs": [
        {
          "internalType": "address",
          "name": "to",
          "type": "address"
        },
        {
          "internalType": "uint256",
          "name": "value",
          "type": "uint256"
        }
      ],
      "name": "transfer",
      "outputs": [
        {
          "internalType": "bool",
          "name": "",
          "type": "bool"
        }
      ],
      "payable": false,
      "stateMutability": "nonpayable",
      "type": "function"
    },
    {
      "constant": false,
      "inputs": [
        {
          "internalType": "address",
          "name": "from",
          "type": "address"
        },
        {
          "internalType": "address",
          "name": "to",
          "type": "address"
        },
        {
          "internalType": "uint256",
          "name": "value",
          "type": "uint256"
        }
      ],
      "name": "transferFrom",
      "outputs": [
        {
          "internalType": "bool",
          "name": "",
          "type": "bool"
        }
      ],
      "payable": false,
      "stateMutability": "nonpayable",
      "type": "function"
    },
    {
      "constant": false,
      "inputs": [
        {
          "internalType": "address",
          "name": "account",
          "type": "address"
        },
        {
          "internalType": "uint256",
          "name": "amount",
          "type": "uint256"
        }
      ],
      "name": "burnFrom",
      "outputs": [],
      "payable": false,
      "stateMutability": "nonpayable",
      "type": "function"
    }
  ],
  "bytecode": "0x6080604052612a8b806100136000396000f3fe608060405234801561001057600080fd5b506004361061023d5760003560e01c8063715018a61161013b57806398650275116100b8578063c4d66de81161007c578063c4d66de814610819578063d08153fd1461083f578063dd62ed3e1461086b578063f2fde38b14610899578063f8261827146108bf5761023d565b8063986502751461078b578063a457c2d714610793578063a9059cbb146107bf578063aa271e1a146107eb578063b23a97d0146108115761023d565b80638da5cb5b116100ff5780638da5cb5b146107305780638f32d59b1461073857806391c05b0b1461074057806395d89b411461075d578063983b2d56146107655761023d565b8063715018a61461064657806371dc760f1461064e57806379cc6790146106f45780638129fc1c146107205780638230d02d146107285761023d565b8063368981a6116101c95780634487d3df1161018d5780634487d3df1461057857806358b5dd72146105ae57806360b63648146105d457806370898f78146105fa57806370a08231146106205761023d565b8063368981a6146104d557806339509351146104dd57806340c10f191461050957806342966c68146105355780634437152a146105525761023d565b806316f0115b1161021057806316f0115b1461043b57806318160ddd1461045f57806323b872dd14610479578063313ce567146104af578063368731ff146104cd5761023d565b806306fdde0314610242578063077aa705146102bf578063095ea7b3146102c75780631624f6c614610307575b600080fd5b61024a6108c7565b6040805160208082528351818301528351919283929083019185019080838360005b8381101561028457818101518382015260200161026c565b50505050905090810190601f1680156102b15780820380516001836020036101000a031916815260200191505b509250505060405180910390f35b61024a61095e565b6102f3600480360360408110156102dd57600080fd5b506001600160a01b03813516906020013561097f565b604080519115158252519081900360200190f35b6104396004803603606081101561031d57600080fd5b81019060208101813564010000000081111561033857600080fd5b82018360208201111561034a57600080fd5b8035906020019184600183028401116401000000008311171561036c57600080fd5b91908080601f01602080910402602001604051908101604052809392919081815260200183838082843760009201919091525092959493602081019350359150506401000000008111156103bf57600080fd5b8201836020820111156103d157600080fd5b803590602001918460018302840111640100000000831117156103f357600080fd5b91908080601f0160208091040260200160405190810160405280939291908181526020018383808284376000920191909152509295505050903560ff16915061099d9050565b005b610443610a79565b604080516001600160a01b039092168252519081900360200190f35b610467610a88565b60408051918252519081900360200190f35b6102f36004803603606081101561048f57600080fd5b506001600160a01b03813581169160208101359091169060400135610a8e565b6104b7610b10565b6040805160ff9092168252519081900360200190f35b61024a610b19565b61024a610b3b565b6102f3600480360360408110156104f357600080fd5b506001600160a01b038135169060200135610b5b565b6102f36004803603604081101561051f57600080fd5b506001600160a01b038135169060200135610bb4565b6104396004803603602081101561054b57600080fd5b5035610c0b565b6104396004803603602081101561056857600080fd5b50356001600160a01b0316610c1f565b6105956004803603602081101561058e57600080fd5b5035610c9a565b6040805192835260208301919091528051918290030190f35b610467600480360360208110156105c457600080fd5b50356001600160a01b0316610cc6565b610439600480360360208110156105ea57600080fd5b50356001600160a01b0316610d15565b6104676004803603602081101561061057600080fd5b50356001600160a01b0316610d24565b6104676004803603602081101561063657600080fd5b50356001600160a01b0316610d37565b610439610d52565b6104436004803603602081101561066457600080fd5b81019060208101813564010000000081111561067f57600080fd5b82018360208201111561069157600080fd5b803590602001918460018302840111640100000000831117156106b357600080fd5b91908080601f016020809104026020016040519081016040528093929190818152602001838380828437600092019190915250929550610df5945050505050565b6104396004803603604081101561070a57600080fd5b506001600160a01b038135169060200135610ff8565b610439611061565b61024a611112565b610443611137565b6102f3611146565b6104396004803603602081101561075657600080fd5b503561116c565b61024a61127e565b6104396004803603602081101561077b57600080fd5b50356001600160a01b03166112df565b61043961132e565b6102f3600480360360408110156107a957600080fd5b506001600160a01b038135169060200135611340565b6102f3600480360360408110156107d557600080fd5b506001600160a01b0381351690602001356113ae565b6102f36004803603602081101561080157600080fd5b50356001600160a01b03166113fd565b61024a611410565b6104396004803603602081101561082f57600080fd5b50356001600160a01b0316611431565b6104396004803603604081101561085557600080fd5b506001600160a01b038135169060200135611540565b6104676004803603604081101561088157600080fd5b506001600160a01b03813581169160200135166115e5565b610439600480360360208110156108af57600080fd5b50356001600160a01b0316611610565b61024a611672565b609c8054604080516020601f60026000196101006001881615020190951694909404938401819004810282018101909252828152606093909290918301828280156109535780601f1061092857610100808354040283529160200191610953565b820191906000526020600020905b81548152906001019060200180831161093657829003601f168201915b505050505090505b90565b6040518060400160405280600581526020016466756e647360d81b81525081565b600061099361098c611694565b8484611698565b5060015b92915050565b600054610100900460ff16806109b657506109b6611784565b806109c4575060005460ff16155b6109ff5760405162461bcd60e51b815260040180806020018281038252602e8152602001806128fb602e913960400191505060405180910390fd5b600054610100900460ff16158015610a2a576000805460ff1961ff0019909116610100171660011790555b8351610a3d90609c9060208701906126c1565b508251610a5190609d9060208601906126c1565b50609e805460ff191660ff84161790558015610a73576000805461ff00191690555b50505050565b6066546001600160a01b031681565b60695490565b600080610ab76040518060400160405280600581526020016466756e647360d81b815250610df5565b9050806001600160a01b0316610acb611694565b6001600160a01b03161415610aef57610ae585858561178a565b6001915050610b09565b610afa8585836117a7565b610b05858585611813565b9150505b9392505050565b609e5460ff1690565b60405180604001604052806006815260200165383a37b5b2b760d11b81525081565b604051806040016040528060048152602001633637b0b760e11b81525081565b6000610993610b68611694565b84610baf8560686000610b79611694565b6001600160a01b03908116825260208083019390935260409182016000908120918c16815292529020549063ffffffff61189b16565b611698565b6000610bc6610bc1611694565b6113fd565b610c015760405162461bcd60e51b815260040180806020018281038252603081526020018061283f6030913960400191505060405180910390fd5b61099383836118f5565b610c1c610c16611694565b82611908565b50565b610c27611146565b610c78576040805162461bcd60e51b815260206004820181905260248201527f4f776e61626c653a2063616c6c6572206973206e6f7420746865206f776e6572604482015290519081900360640190fd5b606680546001600160a01b0319166001600160a01b0392909216919091179055565b6101688181548110610ca857fe5b60009182526020909120600290910201805460019091015490915082565b60006001600160a01b038216301415610ce157506000610d10565b6000610cec8361191b565b90506000610cf9846119e4565b9050610d0b828263ffffffff61189b16565b925050505b919050565b61016854610c1c908290611a20565b6101696020526000908152604090205481565b6001600160a01b031660009081526067602052604090205490565b610d5a611146565b610dab576040805162461bcd60e51b815260206004820181905260248201527f4f776e61626c653a2063616c6c6572206973206e6f7420746865206f776e6572604482015290519081900360640190fd5b6033546040516000916001600160a01b0316907f8be0079c531659141344cd1fd0a4f28419497f9722a3daafe3b4186f6b6457e0908390a3603380546001600160a01b0319169055565b6066546000906001600160a01b0316610e47576040805162461bcd60e51b815260206004820152600f60248201526e135bd91d5b194e881b9bc81c1bdbdb608a1b604482015290519081900360640190fd5b6066546040516020602482018181528551604484015285516000946060946001600160a01b03909116938893928392606401918501908083838b5b83811015610e9a578181015183820152602001610e82565b50505050905090810190601f168015610ec75780820380516001836020036101000a031916815260200191505b5060408051601f198184030181529181526020820180516001600160e01b031663349f642f60e11b178152905182519295509350839250908083835b60208310610f225780518252601f199092019160209182019101610f03565b6001836020036101000a038019825116818451168082178552505050505050905001915050600060405180830381855afa9150503d8060008114610f82576040519150601f19603f3d011682016040523d82523d6000602084013e610f87565b606091505b509150915081610f98578060208201fd5b6000818060200190516020811015610faf57600080fd5b505190506001600160a01b038116610d0b5760405162461bcd60e51b81526004018080602001828103825260228152602001806129ec6022913960400191505060405180910390fd5b60006110206040518060400160405280600581526020016466756e647360d81b815250610df5565b9050806001600160a01b0316611034611694565b6001600160a01b031614156110525761104d8383611908565b61105c565b61105c8383611ad2565b505050565b600054610100900460ff168061107a575061107a611784565b80611088575060005460ff16155b6110c35760405162461bcd60e51b815260040180806020018281038252602e8152602001806128fb602e913960400191505060405180910390fd5b600054610100900460ff161580156110ee576000805460ff1961ff0019909116610100171660011790555b6110fe6110f9611694565b611adc565b8015610c1c576000805461ff001916905550565b604051806040016040528060098152602001686c697175696469747960b81b81525081565b6033546001600160a01b031690565b6033546000906001600160a01b031661115d611694565b6001600160a01b031614905090565b611177610bc1611694565b6111b25760405162461bcd60e51b815260040180806020018281038252603081526020018061283f6030913960400191505060405180910390fd5b60006111bc610a88565b6040805180820190915283815260208101828152610168805460018101825560009190915291517f8077777ae4769de06cbfd1c0b8b1f653b51ec156d91a9aca16a4102f19e03d9e600290930292830155517f8077777ae4769de06cbfd1c0b8b1f653b51ec156d91a9aca16a4102f19e03d9f90910155905061123f3083611bcd565b604080518381526020810183905281517f6aecc0a97ed8436da25295877eadc9bdfcb38d8d2cd93ce7b51765d2eaac9ff2929181900390910190a15050565b609d8054604080516020601f60026000196101006001881615020190951694909404938401819004810282018101909252828152606093909290918301828280156109535780601f1061092857610100808354040283529160200191610953565b6112ea610bc1611694565b6113255760405162461bcd60e51b815260040180806020018281038252603081526020018061283f6030913960400191505060405180910390fd5b610c1c81611cbf565b61133e611339611694565b611d07565b565b600061099361134d611694565b84610baf85604051806060016040528060258152602001612a326025913960686000611377611694565b6001600160a01b03908116825260208083019390935260409182016000908120918d1681529252902054919063ffffffff611d4f16565b6000806113d76040518060400160405280600581526020016466756e647360d81b815250610df5565b90506113eb6113e4611694565b85836117a7565b6113f58484611de6565b949350505050565b600061099760d18363ffffffff611dfa16565b60405180604001604052806005815260200164637572766560d81b81525081565b600054610100900460ff168061144a575061144a611784565b80611458575060005460ff16155b6114935760405162461bcd60e51b815260040180806020018281038252602e8152602001806128fb602e913960400191505060405180910390fd5b600054610100900460ff161580156114be576000805460ff1961ff0019909116610100171660011790555b6114c782611e61565b61151a6040518060400160405280601481526020017320b5b937b837b634b9902837b7b6102a37b5b2b760611b8152506040518060400160405280600381526020016250544b60e81b815250601261099d565b61152a611525611694565b611eff565b801561153c576000805461ff00191690555b5050565b6101685481106115815760405162461bcd60e51b815260040180806020018281038252602d8152602001806129bf602d913960400191505060405180910390fd5b6001600160a01b0382166000908152610169602052604090205481116115d85760405162461bcd60e51b815260040180806020018281038252602c81526020018061294d602c913960400191505060405180910390fd5b61153c8282600101611a20565b6001600160a01b03918216600090815260686020908152604080832093909416825291909152205490565b611618611146565b611669576040805162461bcd60e51b815260206004820181905260248201527f4f776e61626c653a2063616c6c6572206973206e6f7420746865206f776e6572604482015290519081900360640190fd5b610c1c81611f95565b60405180604001604052806006815260200165363a37b5b2b760d11b81525081565b3390565b6001600160a01b0383166116dd5760405162461bcd60e51b8152600401808060200182810382526024815260200180612a0e6024913960400191505060405180910390fd5b6001600160a01b0382166117225760405162461bcd60e51b81526004018080602001828103825260228152602001806127c56022913960400191505060405180910390fd5b6001600160a01b03808416600081815260686020908152604080832094871680845294825291829020859055815185815291517f8c5be1e5ebec7d5bd14f71427d1e84f3dd0314c0f7b2291e5b200ac8c7c3b9259281900390910190a3505050565b303b1590565b61179383610d15565b61179c82610d15565b61105c838383612036565b826001600160a01b0316816001600160a01b031614806117d85750816001600160a01b0316816001600160a01b0316145b61105c5760405162461bcd60e51b815260040180806020018281038252603281526020018061280d6032913960400191505060405180910390fd5b600061182084848461178a565b6118918461182c611694565b610baf856040518060600160405280602881526020016128b1602891396001600160a01b038a1660009081526068602052604081209061186a611694565b6001600160a01b03168152602081019190915260400160002054919063ffffffff611d4f16565b5060019392505050565b600082820183811015610b09576040805162461bcd60e51b815260206004820152601b60248201527f536166654d6174683a206164646974696f6e206f766572666c6f770000000000604482015290519081900360640190fd5b6118fe82610d15565b61153c8282611bcd565b61191182610d15565b61153c8282612194565b600080611926612290565b90506000816001600160a01b031663e7ba37d3856040518263ffffffff1660e01b815260040180826001600160a01b03166001600160a01b0316815260200191505060206040518083038186803b15801561198057600080fd5b505afa158015611994573d6000803e3d6000fd5b505050506040513d60208110156119aa57600080fd5b505190506001600160a01b0384811690831614156119cb579150610d109050565b610d0b816119d8866122bd565b9063ffffffff61189b16565b610168546001600160a01b03821660009081526101696020526040812054909111611a1157506000610d10565b610168546109979083906122c8565b6001600160a01b03821660009081526101696020526040902054818110611a47575061153c565b6000611a5384846122c8565b6001600160a01b0385166000908152610169602052604090208490559050611a7c308583612036565b604080516001600160a01b0386168152602081018390528082018490526060810185905290517fe61468ba7ef06e2d4e4f2ae88303bb4d1fdbe6001ad2fe0782cbd4f7dffca8579181900360800190a150505050565b61153c82826123a5565b600054610100900460ff1680611af55750611af5611784565b80611b03575060005460ff16155b611b3e5760405162461bcd60e51b815260040180806020018281038252602e8152602001806128fb602e913960400191505060405180910390fd5b600054610100900460ff16158015611b69576000805460ff1961ff0019909116610100171660011790555b603380546001600160a01b0319166001600160a01b0384811691909117918290556040519116906000907f8be0079c531659141344cd1fd0a4f28419497f9722a3daafe3b4186f6b6457e0908290a3801561153c576000805461ff00191690555050565b6001600160a01b038216611c28576040805162461bcd60e51b815260206004820152601f60248201527f45524332303a206d696e7420746f20746865207a65726f206164647265737300604482015290519081900360640190fd5b606954611c3b908263ffffffff61189b16565b6069556001600160a01b038216600090815260676020526040902054611c67908263ffffffff61189b16565b6001600160a01b03831660008181526067602090815260408083209490945583518581529351929391927fddf252ad1be2c89b69c2b068fc378daa952ba7f163c4a11628f55a4df523b3ef9281900390910190a35050565b611cd060d18263ffffffff6123f916565b6040516001600160a01b038216907f6ae172837ea30b801fbfcdd4108aa1d5bf8ff775444fd70256b44e6bf3dfc3f690600090a250565b611d1860d18263ffffffff61247a16565b6040516001600160a01b038216907fe94479a9f7e1952cc78f2d6baab678adc1b772d936c6583def489e524cb6669290600090a250565b60008184841115611dde5760405162461bcd60e51b81526004018080602001828103825283818151815260200191508051906020019080838360005b83811015611da3578181015183820152602001611d8b565b50505050905090810190601f168015611dd05780820380516001836020036101000a031916815260200191505b509250505060405180910390fd5b505050900390565b6000610993611df3611694565b848461178a565b60006001600160a01b038216611e415760405162461bcd60e51b81526004018080602001828103825260228152602001806128d96022913960400191505060405180910390fd5b506001600160a01b03166000908152602091909152604090205460ff1690565b600054610100900460ff1680611e7a5750611e7a611784565b80611e88575060005460ff16155b611ec35760405162461bcd60e51b815260040180806020018281038252602e8152602001806128fb602e913960400191505060405180910390fd5b600054610100900460ff16158015611eee576000805460ff1961ff0019909116610100171660011790555b611ef6611061565b61152a82610c1f565b600054610100900460ff1680611f185750611f18611784565b80611f26575060005460ff16155b611f615760405162461bcd60e51b815260040180806020018281038252602e8152602001806128fb602e913960400191505060405180910390fd5b600054610100900460ff16158015611f8c576000805460ff1961ff0019909116610100171660011790555b61152a826124e1565b6001600160a01b038116611fda5760405162461bcd60e51b815260040180806020018281038252602681526020018061279f6026913960400191505060405180910390fd5b6033546040516001600160a01b038084169216907f8be0079c531659141344cd1fd0a4f28419497f9722a3daafe3b4186f6b6457e090600090a3603380546001600160a01b0319166001600160a01b0392909216919091179055565b6001600160a01b03831661207b5760405162461bcd60e51b815260040180806020018281038252602581526020018061299a6025913960400191505060405180910390fd5b6001600160a01b0382166120c05760405162461bcd60e51b815260040180806020018281038252602381526020018061275a6023913960400191505060405180910390fd5b612103816040518060600160405280602681526020016127e7602691396001600160a01b038616600090815260676020526040902054919063ffffffff611d4f16565b6001600160a01b038085166000908152606760205260408082209390935590841681522054612138908263ffffffff61189b16565b6001600160a01b0380841660008181526067602090815260409182902094909455805185815290519193928716927fddf252ad1be2c89b69c2b068fc378daa952ba7f163c4a11628f55a4df523b3ef92918290030190a3505050565b6001600160a01b0382166121d95760405162461bcd60e51b81526004018080602001828103825260218152602001806129796021913960400191505060405180910390fd5b61221c8160405180606001604052806022815260200161277d602291396001600160a01b038516600090815260676020526040902054919063ffffffff611d4f16565b6001600160a01b038316600090815260676020526040902055606954612248908263ffffffff61258416565b6069556040805182815290516000916001600160a01b038516917fddf252ad1be2c89b69c2b068fc378daa952ba7f163c4a11628f55a4df523b3ef9181900360200190a35050565b60006122b86040518060400160405280600581526020016466756e647360d81b815250610df5565b905090565b600061099782610d37565b610168546000908211156122d857fe5b6001600160a01b03831660009081526101696020526040812054906122fc8561191b565b905081815b8582101561238a576000612369610168848154811061231c57fe5b90600052602060002090600202016001015461235d610168868154811061233f57fe5b6000918252602090912060029091020154859063ffffffff6125c616565b9063ffffffff61261f16565b905061237b828263ffffffff61189b16565b60019093019291506123019050565b61239a818463ffffffff61258416565b979650505050505050565b6123af8282611908565b61153c826123bb611694565b610baf84604051806060016040528060248152602001612929602491396001600160a01b03881660009081526068602052604081209061186a611694565b6124038282611dfa565b15612455576040805162461bcd60e51b815260206004820152601f60248201527f526f6c65733a206163636f756e7420616c72656164792068617320726f6c6500604482015290519081900360640190fd5b6001600160a01b0316600090815260209190915260409020805460ff19166001179055565b6124848282611dfa565b6124bf5760405162461bcd60e51b815260040180806020018281038252602181526020018061286f6021913960400191505060405180910390fd5b6001600160a01b0316600090815260209190915260409020805460ff19169055565b600054610100900460ff16806124fa57506124fa611784565b80612508575060005460ff16155b6125435760405162461bcd60e51b815260040180806020018281038252602e8152602001806128fb602e913960400191505060405180910390fd5b600054610100900460ff1615801561256e576000805460ff1961ff0019909116610100171660011790555b612577826113fd565b61152a5761152a82611cbf565b6000610b0983836040518060400160405280601e81526020017f536166654d6174683a207375627472616374696f6e206f766572666c6f770000815250611d4f565b6000826125d557506000610997565b828202828482816125e257fe5b0414610b095760405162461bcd60e51b81526004018080602001828103825260218152602001806128906021913960400191505060405180910390fd5b6000610b0983836040518060400160405280601a81526020017f536166654d6174683a206469766973696f6e206279207a65726f000000000000815250600081836126ab5760405162461bcd60e51b8152602060048201818152835160248401528351909283926044909101919085019080838360008315611da3578181015183820152602001611d8b565b5060008385816126b757fe5b0495945050505050565b828054600181600116156101000203166002900490600052602060002090601f016020900481019282601f1061270257805160ff191683800117855561272f565b8280016001018555821561272f579182015b8281111561272f578251825591602001919060010190612714565b5061273b92915061273f565b5090565b61095b91905b8082111561273b576000815560010161274556fe45524332303a207472616e7366657220746f20746865207a65726f206164647265737345524332303a206275726e20616d6f756e7420657863656564732062616c616e63654f776e61626c653a206e6577206f776e657220697320746865207a65726f206164647265737345524332303a20617070726f766520746f20746865207a65726f206164647265737345524332303a207472616e7366657220616d6f756e7420657863656564732062616c616e636550546f6b656e3a206f6e6c79207472616e736665727320746f2f66726f6d2046756e64734d6f64756c6520616c6c6f7765644d696e746572526f6c653a2063616c6c657220646f6573206e6f74206861766520746865204d696e74657220726f6c65526f6c65733a206163636f756e7420646f6573206e6f74206861766520726f6c65536166654d6174683a206d756c7469706c69636174696f6e206f766572666c6f7745524332303a207472616e7366657220616d6f756e74206578636565647320616c6c6f77616e6365526f6c65733a206163636f756e7420697320746865207a65726f2061646472657373436f6e747261637420696e7374616e63652068617320616c7265616479206265656e20696e697469616c697a656445524332303a206275726e20616d6f756e74206578636565647320616c6c6f77616e6365446973747269627574696f6e546f6b656e3a206e6f20646973747269627574696f6e7320746f20636c61696d45524332303a206275726e2066726f6d20746865207a65726f206164647265737345524332303a207472616e736665722066726f6d20746865207a65726f2061646472657373446973747269627574696f6e546f6b656e3a206c617374446973747269627574696f6e20746f6f2068696768744d6f64756c653a20726571756573746564206d6f64756c65206e6f7420666f756e6445524332303a20617070726f76652066726f6d20746865207a65726f206164647265737345524332303a2064656372656173656420616c6c6f77616e63652062656c6f77207a65726fa265627a7a72315820306f1f4abd6f2e726c28c94db24b514f8511b529ef1cc96d440110ce3101d4a164736f6c634300050c0032",
  "source": "pragma solidity ^0.5.12;\n\nimport \"@openzeppelin/contracts-ethereum-package/contracts/token/ERC20/ERC20.sol\";\nimport \"@openzeppelin/contracts-ethereum-package/contracts/token/ERC20/ERC20Detailed.sol\";\nimport \"@openzeppelin/contracts-ethereum-package/contracts/token/ERC20/ERC20Mintable.sol\";\nimport \"@openzeppelin/contracts-ethereum-package/contracts/token/ERC20/ERC20Burnable.sol\";\nimport \"../../common/Module.sol\";\nimport \"../../interfaces/token/IPToken.sol\";\nimport \"../../interfaces/curve/IFundsModule.sol\";\nimport \"./DistributionToken.sol\";\n\n/**\n * @notice Implementation of Akropolis Pool Token\n */\ncontract PToken is Module, IPToken, ERC20, ERC20Detailed, ERC20Mintable, ERC20Burnable, DistributionToken {\n\n\n    function initialize(address _pool) public initializer {\n        Module.initialize(_pool);\n        ERC20Detailed.initialize(\"Akropolis Pool Token\", \"PTK\", 18);\n        ERC20Mintable.initialize(_msgSender());\n    }\n\n    /**\n     * @dev Overrides ERC20 transfer to add check  for allowed parties\n     */\n    function transfer(address to, uint256 value) public returns (bool) {\n        address funds = getModuleAddress(MODULE_FUNDS);\n        requireAllowedParties(_msgSender(), to, funds);\n        return super.transfer(to, value);\n    }\n\n    /**\n     * @dev Overrides ERC20 transfer to add check  for allowed parties\n     * and make calls from FundsModule work without approval\n     */\n    function transferFrom(address from, address to, uint256 value) public returns (bool) {\n        address funds = getModuleAddress(MODULE_FUNDS);\n        if (_msgSender() == funds) {\n            _transfer(from, to, value);\n            return true;\n        } else {\n            requireAllowedParties(from, to, funds);\n            return super.transferFrom(from, to, value);\n        }\n    }\n\n    /**\n     * @dev Overrides ERC20Burnable burnFrom to allow calls from FundsModule work without approval\n     */\n    function burnFrom(address account, uint256 amount) public {\n        address funds = getModuleAddress(MODULE_FUNDS);\n        if (_msgSender() == funds) {\n            _burn(account, amount);\n        } else {\n            super.burnFrom(account, amount);\n        }\n    }\n\n    /**\n     * @dev Overrides DistributionToken.distributionBalanceOf() to handle FundsModule\n     */\n    function distributionBalanceOf(address account) internal view returns(uint256) {\n        IFundsModule funds = fundsModule();\n        uint256 fundsBalance = funds.pBalanceOf(account);\n        if (account == address(funds)) {\n            return fundsBalance; //FundsModule itself should only receive distributions for tockens locked by pool\n        }\n        return super.distributionBalanceOf(account).add(fundsBalance);\n    }\n\n    function fundsModule() internal view returns(IFundsModule) {\n        return IFundsModule(getModuleAddress(MODULE_FUNDS));\n    }\n\n    /**\n     * @dev Check that sender/receipient of transfer are allowed\n     */\n    function requireAllowedParties(address from, address to, address funds) private pure{\n        require(funds == from || funds == to, \"PToken: only transfers to/from FundsModule allowed\");\n    }\n}\n\n",
  "sourcePath": "/home/pickle/Documents/bch/akropolisOS/contracts/token/pTokens/PToken.sol",
  "compiler": {
    "name": "solc",
    "version": "0.5.12+commit.7709ece9.Emscripten.clang"
  },
  "schemaVersion": "3.0.22",
  "updatedAt": "2020-02-18T07:17:19.391Z",
  "devdoc": {
    "methods": {
      "allowance(address,address)": {
        "details": "See {IERC20-allowance}."
      },
      "approve(address,uint256)": {
        "details": "See {IERC20-approve}.     * Requirements:     * - `spender` cannot be the zero address."
      },
      "balanceOf(address)": {
        "details": "See {IERC20-balanceOf}."
      },
      "burn(uint256)": {
        "details": "Destroys `amount` tokens from the caller.     * See {ERC20-_burn}."
      },
      "burnFrom(address,uint256)": {
        "details": "Overrides ERC20Burnable burnFrom to allow calls from FundsModule work without approval"
      },
      "decimals()": {
        "details": "Returns the number of decimals used to get its user representation. For example, if `decimals` equals `2`, a balance of `505` tokens should be displayed to a user as `5,05` (`505 / 10 ** 2`).     * Tokens usually opt for a value of 18, imitating the relationship between Ether and Wei.     * NOTE: This information is only used for _display_ purposes: it in no way affects any of the arithmetic of the contract, including {IERC20-balanceOf} and {IERC20-transfer}."
      },
      "decreaseAllowance(address,uint256)": {
        "details": "Atomically decreases the allowance granted to `spender` by the caller.     * This is an alternative to {approve} that can be used as a mitigation for problems described in {IERC20-approve}.     * Emits an {Approval} event indicating the updated allowance.     * Requirements:     * - `spender` cannot be the zero address. - `spender` must have allowance for the caller of at least `subtractedValue`."
      },
      "increaseAllowance(address,uint256)": {
        "details": "Atomically increases the allowance granted to `spender` by the caller.     * This is an alternative to {approve} that can be used as a mitigation for problems described in {IERC20-approve}.     * Emits an {Approval} event indicating the updated allowance.     * Requirements:     * - `spender` cannot be the zero address."
      },
      "initialize(string,string,uint8)": {
        "details": "Sets the values for `name`, `symbol`, and `decimals`. All three of these values are immutable: they can only be set once during construction."
      },
      "isOwner()": {
        "details": "Returns true if the caller is the current owner."
      },
      "mint(address,uint256)": {
        "details": "See {ERC20-_mint}.     * Requirements:     * - the caller must have the {MinterRole}."
      },
      "name()": {
        "details": "Returns the name of the token."
      },
      "owner()": {
        "details": "Returns the address of the current owner."
      },
      "renounceOwnership()": {
        "details": "Leaves the contract without owner. It will not be possible to call `onlyOwner` functions anymore. Can only be called by the current owner.     * > Note: Renouncing ownership will leave the contract without an owner, thereby removing any functionality that is only available to the owner."
      },
      "symbol()": {
        "details": "Returns the symbol of the token, usually a shorter version of the name."
      },
      "totalSupply()": {
        "details": "See {IERC20-totalSupply}."
      },
      "transfer(address,uint256)": {
        "details": "Overrides ERC20 transfer to add check  for allowed parties"
      },
      "transferFrom(address,address,uint256)": {
        "details": "Overrides ERC20 transfer to add check  for allowed parties and make calls from FundsModule work without approval"
      },
      "transferOwnership(address)": {
        "details": "Transfers ownership of the contract to a new account (`newOwner`). Can only be called by the current owner."
      }
    }
  },
  "userdoc": {
    "methods": {
      "claimDistributions(address,uint256)": {
        "notice": "Claims distributions and allows to specify how many distributions to process. This allows limit gas usage. One can do this for others"
      },
      "fullBalanceOf(address)": {
        "notice": "Full balance of account includes: - balance of tokens account holds himself (0 for addresses of locking contracts) - balance of tokens locked in contracts - tokens not yet claimed from distributions"
      }
    },
    "notice": "Implementation of Akropolis Pool Token"
  }
}